{"contracts/FinalLottery.sol":{"FinalLottery":{"abi":[{"inputs":[],"stateMutability":"nonpayable","type":"constructor"},{"anonymous":false,"inputs":[{"indexed":false,"internalType":"string","name":"prizeName","type":"string"},{"indexed":false,"internalType":"uint256","name":"prize","type":"uint256"}],"name":"AmountOfPrize","type":"event"},{"anonymous":false,"inputs":[{"indexed":false,"internalType":"uint256","name":"ticketNo","type":"uint256"},{"indexed":false,"internalType":"uint256","name":"lotteryNo","type":"uint256"},{"indexed":false,"internalType":"bytes32","name":"ticketHash","type":"bytes32"},{"indexed":false,"internalType":"uint256","name":"ticketTimestamp","type":"uint256"},{"indexed":false,"internalType":"uint8","name":"status","type":"uint8"},{"indexed":false,"internalType":"bool","name":"active","type":"bool"},{"indexed":false,"internalType":"enum FinalLottery.TicketTier","name":"ticketTier","type":"uint8"}],"name":"TicketInfo","type":"event"},{"anonymous":false,"inputs":[{"indexed":false,"internalType":"uint256","name":"ticketNo","type":"uint256"},{"indexed":false,"internalType":"uint256","name":"amount","type":"uint256"}],"name":"WinningTicket","type":"event"},{"inputs":[{"internalType":"address","name":"","type":"address"}],"name":"balance","outputs":[{"internalType":"uint256","name":"","type":"uint256"}],"stateMutability":"view","type":"function"},{"inputs":[{"internalType":"bytes32","name":"hash_rnd_number","type":"bytes32"},{"internalType":"int256","name":"tier","type":"int256"}],"name":"buyTicket","outputs":[],"stateMutability":"nonpayable","type":"function"},{"inputs":[{"internalType":"uint256","name":"thPrice","type":"uint256"},{"internalType":"uint256","name":"lottery_no","type":"uint256"}],"name":"calculateSinglePriceValue","outputs":[{"internalType":"string","name":"","type":"string"},{"internalType":"uint256","name":"","type":"uint256"}],"stateMutability":"nonpayable","type":"function"},{"inputs":[{"internalType":"uint256","name":"lottery_no","type":"uint256"}],"name":"calculateTotalPriceValue","outputs":[{"internalType":"uint256","name":"","type":"uint256"}],"stateMutability":"nonpayable","type":"function"},{"inputs":[{"internalType":"uint256","name":"lottery_no","type":"uint256"},{"internalType":"uint256","name":"ticket_no","type":"uint256"}],"name":"checkIfTicketWon","outputs":[{"internalType":"uint256","name":"","type":"uint256"}],"stateMutability":"nonpayable","type":"function"},{"inputs":[{"internalType":"uint256","name":"lottery_no","type":"uint256"},{"internalType":"uint256","name":"ticket_no","type":"uint256"}],"name":"collectTicketPrize","outputs":[{"internalType":"uint256","name":"","type":"uint256"}],"stateMutability":"nonpayable","type":"function"},{"inputs":[{"internalType":"uint256","name":"ticket_no","type":"uint256"}],"name":"collectTicketRefund","outputs":[],"stateMutability":"nonpayable","type":"function"},{"inputs":[],"name":"depositEther","outputs":[],"stateMutability":"payable","type":"function"},{"inputs":[{"internalType":"uint256","name":"ticket_no","type":"uint256"}],"name":"findTicketInfosFromNo","outputs":[{"internalType":"uint256","name":"","type":"uint256"},{"internalType":"uint256","name":"","type":"uint256"}],"stateMutability":"nonpayable","type":"function"},{"inputs":[{"internalType":"uint256","name":"i","type":"uint256"},{"internalType":"uint256","name":"lottery_no","type":"uint256"}],"name":"getIthOwnedTicketNo","outputs":[{"internalType":"uint256","name":"","type":"uint256"},{"internalType":"uint8","name":"status","type":"uint8"}],"stateMutability":"view","type":"function"},{"inputs":[{"internalType":"uint256","name":"i","type":"uint256"},{"internalType":"uint256","name":"lottery_no","type":"uint256"}],"name":"getIthWinningTicket","outputs":[{"internalType":"uint256","name":"ticket_no","type":"uint256"},{"internalType":"uint256","name":"amount","type":"uint256"}],"stateMutability":"nonpayable","type":"function"},{"inputs":[{"internalType":"uint256","name":"lottery_no","type":"uint256"}],"name":"getLastOwnedTicketNo","outputs":[{"internalType":"uint256","name":"","type":"uint256"},{"internalType":"uint8","name":"","type":"uint8"}],"stateMutability":"view","type":"function"},{"inputs":[{"internalType":"uint256","name":"lottery_no","type":"uint256"}],"name":"getLotteryMoneyCollected","outputs":[{"internalType":"uint256","name":"","type":"uint256"}],"stateMutability":"view","type":"function"},{"inputs":[],"name":"getMoneyCollected","outputs":[{"internalType":"uint256","name":"amount","type":"uint256"}],"stateMutability":"view","type":"function"},{"inputs":[],"name":"getRandomNumber","outputs":[{"internalType":"uint256","name":"","type":"uint256"}],"stateMutability":"view","type":"function"},{"inputs":[{"internalType":"uint256","name":"ticket_number","type":"uint256"}],"name":"getTicketInfo","outputs":[],"stateMutability":"nonpayable","type":"function"},{"inputs":[{"internalType":"enum FinalLottery.TicketTier","name":"tier","type":"uint8"}],"name":"getamount","outputs":[{"internalType":"uint256","name":"","type":"uint256"}],"stateMutability":"pure","type":"function"},{"inputs":[{"internalType":"uint256","name":"amount","type":"uint256"}],"name":"withdrawEther","outputs":[],"stateMutability":"payable","type":"function"}],"evm":{"bytecode":{"linkReferences":{},"object":"60806040524260015534801561001457600080fd5b5042600181905550612e2a8061002b6000396000f3fe6080604052600436106101095760003560e01c80639c7278ca11610095578063dbdff2c111610064578063dbdff2c1146103b1578063e3d670d7146103dc578063e54778b514610419578063f6789ca014610457578063ff99a0631461048057610109565b80639c7278ca146102bc578063a06cc71a146102f9578063a6588af814610336578063cb4581d81461037357610109565b80633bed33ce116100dc5780633bed33ce146101ef57806348367d1e1461020b57806357ac796e14610249578063775f1aec1461027457806398ea5fca146102b257610109565b8063269dd9471461010e5780632b8bdc001461014b5780632e1fe4501461018957806339f7958b146101b2575b600080fd5b34801561011a57600080fd5b5061013560048036038101906101309190612579565b6104a9565b60405161014291906125b5565b60405180910390f35b34801561015757600080fd5b50610172600480360381019061016d9190612579565b610501565b6040516101809291906125ec565b60405180910390f35b34801561019557600080fd5b506101b060048036038101906101ab9190612579565b610667565b005b3480156101be57600080fd5b506101d960048036038101906101d4919061263a565b610839565b6040516101e691906125b5565b60405180910390f35b61020960048036038101906102049190612579565b6108e2565b005b34801561021757600080fd5b50610232600480360381019061022d9190612667565b610a04565b6040516102409291906125ec565b60405180910390f35b34801561025557600080fd5b5061025e610b49565b60405161026b91906125b5565b60405180910390f35b34801561028057600080fd5b5061029b60048036038101906102969190612579565b610b53565b6040516102a99291906126a7565b60405180910390f35b6102ba610c8e565b005b3480156102c857600080fd5b506102e360048036038101906102de9190612667565b610ce6565b6040516102f091906125b5565b60405180910390f35b34801561030557600080fd5b50610320600480360381019061031b9190612667565b610d90565b60405161032d91906125b5565b60405180910390f35b34801561034257600080fd5b5061035d60048036038101906103589190612579565b610fea565b60405161036a91906125b5565b60405180910390f35b34801561037f57600080fd5b5061039a60048036038101906103959190612667565b611007565b6040516103a8929190612760565b60405180910390f35b3480156103bd57600080fd5b506103c6611a44565b6040516103d391906125b5565b60405180910390f35b3480156103e857600080fd5b5061040360048036038101906103fe91906127ee565b611a75565b60405161041091906125b5565b60405180910390f35b34801561042557600080fd5b50610440600480360381019061043b9190612667565b611a8d565b60405161044e9291906126a7565b60405180910390f35b34801561046357600080fd5b5061047e60048036038101906104799190612887565b611b5c565b005b34801561048c57600080fd5b506104a760048036038101906104a29190612579565b611e53565b005b6000806104b7600184611007565b91505060006104c7600285611007565b91505060006104d7600386611007565b91505060008183856104e991906128f6565b6104f391906128f6565b905080945050505050919050565b60008060006001600360003373ffffffffffffffffffffffffffffffffffffffff1673ffffffffffffffffffffffffffffffffffffffff168152602001908152602001600020600086815260200190815260200160002080549050610566919061292a565b9050600360003373ffffffffffffffffffffffffffffffffffffffff1673ffffffffffffffffffffffffffffffffffffffff168152602001908152602001600020600085815260200190815260200160002081815481106105ca576105c961295e565b5b906000526020600020906005020160000154600360003373ffffffffffffffffffffffffffffffffffffffff1673ffffffffffffffffffffffffffffffffffffffff1681526020019081526020016000206000868152602001908152602001600020828154811061063e5761063d61295e565b5b906000526020600020906005020160040160009054906101000a900460ff169250925050915091565b60008061067383610b53565b80925081935050506000600360003373ffffffffffffffffffffffffffffffffffffffff1673ffffffffffffffffffffffffffffffffffffffff168152602001908152602001600020600084815260200190815260200160002082815481106106df576106de61295e565b5b906000526020600020906005020160040160029054906101000a900460ff169050600061070b82610839565b905080600460003373ffffffffffffffffffffffffffffffffffffffff1673ffffffffffffffffffffffffffffffffffffffff168152602001908152602001600020600082825461075c91906128f6565b9250508190555080600660008681526020019081526020016000206000828254610786919061292a565b92505081905550806002600082825461079f919061292a565b925050819055506000600360003373ffffffffffffffffffffffffffffffffffffffff1673ffffffffffffffffffffffffffffffffffffffff1681526020019081526020016000206000868152602001908152602001600020848154811061080a5761080961295e565b5b906000526020600020906005020160040160016101000a81548160ff0219169083151502179055505050505050565b600080600060038111156108505761084f61298d565b5b8360038111156108635761086261298d565b5b0361087157600890506108d9565b600160038111156108855761088461298d565b5b8360038111156108985761089761298d565b5b036108a657600490506108d8565b600060038111156108ba576108b961298d565b5b8360038111156108cd576108cc61298d565b5b036108d757600290505b5b5b80915050919050565b80600460003373ffffffffffffffffffffffffffffffffffffffff1673ffffffffffffffffffffffffffffffffffffffff168152602001908152602001600020541015610964576040517f08c379a000000000000000000000000000000000000000000000000000000000815260040161095b90612a08565b60405180910390fd5b80600460003373ffffffffffffffffffffffffffffffffffffffff1673ffffffffffffffffffffffffffffffffffffffff16815260200190815260200160002060008282546109b3919061292a565b925050819055503373ffffffffffffffffffffffffffffffffffffffff166108fc829081150290604051600060405180830381858888f19350505050158015610a00573d6000803e3d6000fd5b5050565b600080610a0f6124e7565b600360003373ffffffffffffffffffffffffffffffffffffffff1673ffffffffffffffffffffffffffffffffffffffff16815260200190815260200160002060008581526020019081526020016000208581548110610a7157610a7061295e565b5b90600052602060002090600502016040518060e0016040529081600082015481526020016001820154815260200160028201548152602001600382015481526020016004820160009054906101000a900460ff1660ff1660ff1681526020016004820160019054906101000a900460ff161515151581526020016004820160029054906101000a900460ff166003811115610b0f57610b0e61298d565b5b6003811115610b2157610b2061298d565b5b8152505090506000816000015190506000826080015190508181945094505050509250929050565b6000600254905090565b6000806000610b606121f7565b905060005b600182610b7291906128f6565b811015610c865760005b600360003373ffffffffffffffffffffffffffffffffffffffff1673ffffffffffffffffffffffffffffffffffffffff168152602001908152602001600020600083815260200190815260200160002080549050811015610c725785600360003373ffffffffffffffffffffffffffffffffffffffff1673ffffffffffffffffffffffffffffffffffffffff16815260200190815260200160002060008481526020019081526020016000208281548110610c3a57610c3961295e565b5b90600052602060002090600502016000015403610c5f57818194509450505050610c89565b8080610c6a90612a28565b915050610b7c565b508080610c7e90612a28565b915050610b65565b50505b915091565b34600460003373ffffffffffffffffffffffffffffffffffffffff1673ffffffffffffffffffffffffffffffffffffffff1681526020019081526020016000206000828254610cdd91906128f6565b92505081905550565b6000806000905060005b6003811015610d565783600560008781526020019081526020016000206002018281548110610d2257610d2161295e565b5b906000526020600020015403610d4357610d3c8186611007565b9050809250505b8080610d4e90612a28565b915050610cf0565b5080600254610d65919061292a565b50806006600086815260200190815260200160002054610d85919061292a565b508091505092915050565b6000610d9a6121f7565b8303610ddb576040517f08c379a0000000000000000000000000000000000000000000000000000000008152600401610dd290612ae2565b60405180910390fd5b6003600560008581526020019081526020016000206002018054905014610e0657610e0583612237565b5b6000606060006005600087815260200190815260200160002060030160056000888152602001908152602001600020600201600081548110610e4b57610e4a61295e565b5b906000526020600020015481548110610e6757610e6661295e565b5b9060005260206000200154905060006005600088815260200190815260200160002060030160056000898152602001908152602001600020600201600181548110610eb557610eb461295e565b5b906000526020600020015481548110610ed157610ed061295e565b5b90600052602060002001549050600060056000898152602001908152602001600020600301600560008a8152602001908152602001600020600201600281548110610f1f57610f1e61295e565b5b906000526020600020015481548110610f3b57610f3a61295e565b5b90600052602060002001549050828703610f6757610f5a600189611007565b8096508195505050610fa3565b818703610f8657610f79600289611007565b8096508195505050610fa2565b808703610fa157610f98600389611007565b80965081955050505b5b5b7f47d11ec30af726942ac6508eadccdf4c14a1c898a0433e77427b8c40a3a436448486604051610fd4929190612760565b60405180910390a1849550505050505092915050565b600060066000838152602001908152602001600020549050919050565b6060600080606060006005600087815260200190815260200160002060030160056000888152602001908152602001600020600201888154811061104e5761104d61295e565b5b90600052602060002001548154811061106a5761106961295e565b5b90600052602060002001549050600061108282610b53565b915050600182036113bc57600060038111156110a1576110a061298d565b5b600360003373ffffffffffffffffffffffffffffffffffffffff1673ffffffffffffffffffffffffffffffffffffffff168152602001908152602001600020600089815260200190815260200160002082815481106111035761110261295e565b5b906000526020600020906005020160040160029054906101000a900460ff1660038111156111345761113361298d565b5b0361118657600280546111479190612b31565b93506040518060400160405280600a81526020017f46756c6c2046697273740000000000000000000000000000000000000000000081525092506113b7565b6001600381111561119a5761119961298d565b5b600360003373ffffffffffffffffffffffffffffffffffffffff1673ffffffffffffffffffffffffffffffffffffffff168152602001908152602001600020600089815260200190815260200160002082815481106111fc576111fb61295e565b5b906000526020600020906005020160040160029054906101000a900460ff16600381111561122d5761122c61298d565b5b036112805760046002546112419190612b31565b93506040518060400160405280600a81526020017f48616c662046697273740000000000000000000000000000000000000000000081525092506113b6565b600260038111156112945761129361298d565b5b600360003373ffffffffffffffffffffffffffffffffffffffff1673ffffffffffffffffffffffffffffffffffffffff168152602001908152602001600020600089815260200190815260200160002082815481106112f6576112f561295e565b5b906000526020600020906005020160040160029054906101000a900460ff1660038111156113275761132661298d565b5b0361137a57600860025461133b9190612b31565b93506040518060400160405280600d81526020017f517561727465722046697273740000000000000000000000000000000000000081525092506113b5565b6040517f08c379a00000000000000000000000000000000000000000000000000000000081526004016113ac90612bae565b60405180910390fd5b5b5b611a33565b600282036116f457600060038111156113d8576113d761298d565b5b600360003373ffffffffffffffffffffffffffffffffffffffff1673ffffffffffffffffffffffffffffffffffffffff1681526020019081526020016000206000898152602001908152602001600020828154811061143a5761143961295e565b5b906000526020600020906005020160040160029054906101000a900460ff16600381111561146b5761146a61298d565b5b036114be576040518060400160405280600b81526020017f46756c6c205365636f6e64000000000000000000000000000000000000000000815250925060046002546114b79190612b31565b93506116ef565b600160038111156114d2576114d161298d565b5b600360003373ffffffffffffffffffffffffffffffffffffffff1673ffffffffffffffffffffffffffffffffffffffff168152602001908152602001600020600089815260200190815260200160002082815481106115345761153361295e565b5b906000526020600020906005020160040160029054906101000a900460ff1660038111156115655761156461298d565b5b036115b8576040518060400160405280600b81526020017f48616c66205365636f6e64000000000000000000000000000000000000000000815250925060086002546115b19190612b31565b93506116ee565b600260038111156115cc576115cb61298d565b5b600360003373ffffffffffffffffffffffffffffffffffffffff1673ffffffffffffffffffffffffffffffffffffffff1681526020019081526020016000206000898152602001908152602001600020828154811061162e5761162d61295e565b5b906000526020600020906005020160040160029054906101000a900460ff16600381111561165f5761165e61298d565b5b036116b2576040518060400160405280600e81526020017f51756172746572205365636f6e64000000000000000000000000000000000000815250925060106002546116ab9190612b31565b93506116ed565b6040517f08c379a00000000000000000000000000000000000000000000000000000000081526004016116e490612bae565b60405180910390fd5b5b5b611a32565b60038203611a2c57600060038111156117105761170f61298d565b5b600360003373ffffffffffffffffffffffffffffffffffffffff1673ffffffffffffffffffffffffffffffffffffffff168152602001908152602001600020600089815260200190815260200160002082815481106117725761177161295e565b5b906000526020600020906005020160040160029054906101000a900460ff1660038111156117a3576117a261298d565b5b036117f6576040518060400160405280600a81526020017f46756c6c20546869726400000000000000000000000000000000000000000000815250925060086002546117ef9190612b31565b9350611a27565b6001600381111561180a5761180961298d565b5b600360003373ffffffffffffffffffffffffffffffffffffffff1673ffffffffffffffffffffffffffffffffffffffff1681526020019081526020016000206000898152602001908152602001600020828154811061186c5761186b61295e565b5b906000526020600020906005020160040160029054906101000a900460ff16600381111561189d5761189c61298d565b5b036118f0576040518060400160405280600a81526020017f48616c6620546869726400000000000000000000000000000000000000000000815250925060106002546118e99190612b31565b9350611a26565b600260038111156119045761190361298d565b5b600360003373ffffffffffffffffffffffffffffffffffffffff1673ffffffffffffffffffffffffffffffffffffffff168152602001908152602001600020600089815260200190815260200160002082815481106119665761196561295e565b5b906000526020600020906005020160040160029054906101000a900460ff1660038111156119975761199661298d565b5b036119ea576040518060400160405280600d81526020017f5175617274657220546869726400000000000000000000000000000000000000815250925060206002546119e39190612b31565b9350611a25565b6040517f08c379a0000000000000000000000000000000000000000000000000000000008152600401611a1c90612bae565b60405180910390fd5b5b5b611a31565b600093505b5b5b828495509550505050509250929050565b600042604051602001611a579190612bef565b6040516020818303038152906040528051906020012060001c905090565b60046020528060005260406000206000915090505481565b6000806000600560008581526020019081526020016000206002018581548110611aba57611ab961295e565b5b90600052602060002001549050600560008581526020019081526020016000206003018181548110611aef57611aee61295e565b5b90600052602060002001549250611b0583610b53565b905080915050611b158585611007565b9050809250507f9ccbea8acda54bc998251706a6d0054e0a880c3f38e70c8eaf6bd9b383c99dad8383604051611b4c9291906126a7565b60405180910390a1509250929050565b6000611b666121f7565b905060038110611bb457600360056000600284611b83919061292a565b81526020019081526020016000206002018054905014611bb357611bb2600282611bad919061292a565b612237565b5b5b60006001831480611bc55750600283145b80611bd05750600383145b611c0f576040517f08c379a0000000000000000000000000000000000000000000000000000000008152600401611c0690612c56565b60405180910390fd5b6001600080828254611c2191906128f6565b9250508190555060018303611c395760009050611c59565b60028303611c4a5760019050611c58565b60038303611c5757600290505b5b5b600360003373ffffffffffffffffffffffffffffffffffffffff1673ffffffffffffffffffffffffffffffffffffffff16815260200190815260200160002060008381526020019081526020016000206040518060e001604052806000548152602001848152602001868152602001428152602001600060ff168152602001600115158152602001836003811115611cf457611cf361298d565b5b81525090806001815401808255809150506001900390600052602060002090600502016000909190919091506000820151816000015560208201518160010155604082015181600201556060820151816003015560808201518160040160006101000a81548160ff021916908360ff16021790555060a08201518160040160016101000a81548160ff02191690831515021790555060c08201518160040160026101000a81548160ff02191690836003811115611db457611db361298d565b5b02179055505050611dc481610839565b60026000828254611dd591906128f6565b92505081905550600560008381526020019081526020016000206003016000549080600181540180825580915050600190039060005260206000200160009091909190915055611e2481610839565b600660008481526020019081526020016000206000828254611e4691906128f6565b9250508190555050505050565b600080611e5f83610b53565b915091507fbce7d9c77b584a77086d92f0e16950470c847bca6700cd4d91240c581f5a611a600360003373ffffffffffffffffffffffffffffffffffffffff1673ffffffffffffffffffffffffffffffffffffffff16815260200190815260200160002060008481526020019081526020016000208281548110611ee657611ee561295e565b5b906000526020600020906005020160000154600360003373ffffffffffffffffffffffffffffffffffffffff1673ffffffffffffffffffffffffffffffffffffffff16815260200190815260200160002060008581526020019081526020016000208381548110611f5a57611f5961295e565b5b906000526020600020906005020160010154600360003373ffffffffffffffffffffffffffffffffffffffff1673ffffffffffffffffffffffffffffffffffffffff16815260200190815260200160002060008681526020019081526020016000208481548110611fce57611fcd61295e565b5b906000526020600020906005020160020154600360003373ffffffffffffffffffffffffffffffffffffffff1673ffffffffffffffffffffffffffffffffffffffff168152602001908152602001600020600087815260200190815260200160002085815481106120425761204161295e565b5b906000526020600020906005020160030154600360003373ffffffffffffffffffffffffffffffffffffffff1673ffffffffffffffffffffffffffffffffffffffff168152602001908152602001600020600088815260200190815260200160002086815481106120b6576120b561295e565b5b906000526020600020906005020160040160009054906101000a900460ff16600360003373ffffffffffffffffffffffffffffffffffffffff1673ffffffffffffffffffffffffffffffffffffffff168152602001908152602001600020600089815260200190815260200160002087815481106121375761213661295e565b5b906000526020600020906005020160040160019054906101000a900460ff16600360003373ffffffffffffffffffffffffffffffffffffffff1673ffffffffffffffffffffffffffffffffffffffff16815260200190815260200160002060008a815260200190815260200160002088815481106121b8576121b761295e565b5b906000526020600020906005020160040160029054906101000a900460ff166040516121ea9796959493929190612ce8565b60405180910390a1505050565b60008042905060006001548261220d919061292a565b90506000600162093a80836122229190612b31565b61222c91906128f6565b905080935050505090565b6003600560008381526020019081526020016000206003018054905011612293576040517f08c379a000000000000000000000000000000000000000000000000000000000815260040161228a90612da3565b60405180910390fd5b600060056000838152602001908152602001600020600301805490509050600060056000848152602001908152602001600020600301805490506122d5611a44565b6122df9190612dc3565b905060006005600085815260200190815260200160002060030180549050612305611a44565b61230f9190612dc3565b905060006005600086815260200190815260200160002060030180549050612335611a44565b61233f9190612dc3565b90505b8183148061234f57508082145b8061235957508083145b156124c05781830361239657600184612372919061292a565b831461238c5760018261238591906128f6565b9250612391565b600092505b612404565b8082036123ce576001846123aa919061292a565b82146123c4576001816123bd91906128f6565b91506123c9565b600091505b612403565b808303612402576001846123e2919061292a565b83146123fc576001816123f591906128f6565b9250612401565b600092505b5b5b5b600560008681526020019081526020016000206002018390806001815401808255809150506001900390600052602060002001600090919091909150556005600086815260200190815260200160002060020182908060018154018082558091505060019003906000526020600020016000909190919091505560056000868152602001908152602001600020600201819080600181540180825580915050600190039060005260206000200160009091909190915055612342565b6124c9856104a9565b60076000878152602001908152602001600020819055505050505050565b6040518060e0016040528060008152602001600081526020016000801916815260200160008152602001600060ff168152602001600015158152602001600060038111156125385761253761298d565b5b81525090565b600080fd5b6000819050919050565b61255681612543565b811461256157600080fd5b50565b6000813590506125738161254d565b92915050565b60006020828403121561258f5761258e61253e565b5b600061259d84828501612564565b91505092915050565b6125af81612543565b82525050565b60006020820190506125ca60008301846125a6565b92915050565b600060ff82169050919050565b6125e6816125d0565b82525050565b600060408201905061260160008301856125a6565b61260e60208301846125dd565b9392505050565b6004811061262257600080fd5b50565b60008135905061263481612615565b92915050565b6000602082840312156126505761264f61253e565b5b600061265e84828501612625565b91505092915050565b6000806040838503121561267e5761267d61253e565b5b600061268c85828601612564565b925050602061269d85828601612564565b9150509250929050565b60006040820190506126bc60008301856125a6565b6126c960208301846125a6565b9392505050565b600081519050919050565b600082825260208201905092915050565b60005b8381101561270a5780820151818401526020810190506126ef565b60008484015250505050565b6000601f19601f8301169050919050565b6000612732826126d0565b61273c81856126db565b935061274c8185602086016126ec565b61275581612716565b840191505092915050565b6000604082019050818103600083015261277a8185612727565b905061278960208301846125a6565b9392505050565b600073ffffffffffffffffffffffffffffffffffffffff82169050919050565b60006127bb82612790565b9050919050565b6127cb816127b0565b81146127d657600080fd5b50565b6000813590506127e8816127c2565b92915050565b6000602082840312156128045761280361253e565b5b6000612812848285016127d9565b91505092915050565b6000819050919050565b61282e8161281b565b811461283957600080fd5b50565b60008135905061284b81612825565b92915050565b6000819050919050565b61286481612851565b811461286f57600080fd5b50565b6000813590506128818161285b565b92915050565b6000806040838503121561289e5761289d61253e565b5b60006128ac8582860161283c565b92505060206128bd85828601612872565b9150509250929050565b7f4e487b7100000000000000000000000000000000000000000000000000000000600052601160045260246000fd5b600061290182612543565b915061290c83612543565b9250828201905080821115612924576129236128c7565b5b92915050565b600061293582612543565b915061294083612543565b9250828203905081811115612958576129576128c7565b5b92915050565b7f4e487b7100000000000000000000000000000000000000000000000000000000600052603260045260246000fd5b7f4e487b7100000000000000000000000000000000000000000000000000000000600052602160045260246000fd5b7f696e73756666696369656e742062616c616e6365000000000000000000000000600082015250565b60006129f26014836126db565b91506129fd826129bc565b602082019050919050565b60006020820190508181036000830152612a21816129e5565b9050919050565b6000612a3382612543565b91507fffffffffffffffffffffffffffffffffffffffffffffffffffffffffffffffff8203612a6557612a646128c7565b5b600182019050919050565b7f596f75206861766520746f207761697420666f72207468652072657665616c2060008201527f7374616765000000000000000000000000000000000000000000000000000000602082015250565b6000612acc6025836126db565b9150612ad782612a70565b604082019050919050565b60006020820190508181036000830152612afb81612abf565b9050919050565b7f4e487b7100000000000000000000000000000000000000000000000000000000600052601260045260246000fd5b6000612b3c82612543565b9150612b4783612543565b925082612b5757612b56612b02565b5b828204905092915050565b7f496e76616c6964206f7065726174696f6e2e0000000000000000000000000000600082015250565b6000612b986012836126db565b9150612ba382612b62565b602082019050919050565b60006020820190508181036000830152612bc781612b8b565b9050919050565b6000819050919050565b612be9612be482612543565b612bce565b82525050565b6000612bfb8284612bd8565b60208201915081905092915050565b7f57726f6e6720496e707574000000000000000000000000000000000000000000600082015250565b6000612c40600b836126db565b9150612c4b82612c0a565b602082019050919050565b60006020820190508181036000830152612c6f81612c33565b9050919050565b612c7f8161281b565b82525050565b60008115159050919050565b612c9a81612c85565b82525050565b60048110612cb157612cb061298d565b5b50565b6000819050612cc282612ca0565b919050565b6000612cd282612cb4565b9050919050565b612ce281612cc7565b82525050565b600060e082019050612cfd600083018a6125a6565b612d0a60208301896125a6565b612d176040830188612c76565b612d2460608301876125a6565b612d3160808301866125dd565b612d3e60a0830185612c91565b612d4b60c0830184612cd9565b98975050505050505050565b7f6e6f7420656e6f756768207469636b6574730000000000000000000000000000600082015250565b6000612d8d6012836126db565b9150612d9882612d57565b602082019050919050565b60006020820190508181036000830152612dbc81612d80565b9050919050565b6000612dce82612543565b9150612dd983612543565b925082612de957612de8612b02565b5b82820690509291505056fea2646970667358221220e596f011940d727b05deabcc1f505aad748061d212c2d409d26d7e4e5ea9b40664736f6c63430008120033","opcodes":"PUSH1 0x80 PUSH1 0x40 MSTORE TIMESTAMP PUSH1 0x1 SSTORE CALLVALUE DUP1 ISZERO PUSH2 0x14 JUMPI PUSH1 0x0 DUP1 REVERT JUMPDEST POP TIMESTAMP PUSH1 0x1 DUP2 SWAP1 SSTORE POP PUSH2 0x2E2A DUP1 PUSH2 0x2B PUSH1 0x0 CODECOPY PUSH1 0x0 RETURN INVALID PUSH1 0x80 PUSH1 0x40 MSTORE PUSH1 0x4 CALLDATASIZE LT PUSH2 0x109 JUMPI PUSH1 0x0 CALLDATALOAD PUSH1 0xE0 SHR DUP1 PUSH4 0x9C7278CA GT PUSH2 0x95 JUMPI DUP1 PUSH4 0xDBDFF2C1 GT PUSH2 0x64 JUMPI DUP1 PUSH4 0xDBDFF2C1 EQ PUSH2 0x3B1 JUMPI DUP1 PUSH4 0xE3D670D7 EQ PUSH2 0x3DC JUMPI DUP1 PUSH4 0xE54778B5 EQ PUSH2 0x419 JUMPI DUP1 PUSH4 0xF6789CA0 EQ PUSH2 0x457 JUMPI DUP1 PUSH4 0xFF99A063 EQ PUSH2 0x480 JUMPI PUSH2 0x109 JUMP JUMPDEST DUP1 PUSH4 0x9C7278CA EQ PUSH2 0x2BC JUMPI DUP1 PUSH4 0xA06CC71A EQ PUSH2 0x2F9 JUMPI DUP1 PUSH4 0xA6588AF8 EQ PUSH2 0x336 JUMPI DUP1 PUSH4 0xCB4581D8 EQ PUSH2 0x373 JUMPI PUSH2 0x109 JUMP JUMPDEST DUP1 PUSH4 0x3BED33CE GT PUSH2 0xDC JUMPI DUP1 PUSH4 0x3BED33CE EQ PUSH2 0x1EF JUMPI DUP1 PUSH4 0x48367D1E EQ PUSH2 0x20B JUMPI DUP1 PUSH4 0x57AC796E EQ PUSH2 0x249 JUMPI DUP1 PUSH4 0x775F1AEC EQ PUSH2 0x274 JUMPI DUP1 PUSH4 0x98EA5FCA EQ PUSH2 0x2B2 JUMPI PUSH2 0x109 JUMP JUMPDEST DUP1 PUSH4 0x269DD947 EQ PUSH2 0x10E JUMPI DUP1 PUSH4 0x2B8BDC00 EQ PUSH2 0x14B JUMPI DUP1 PUSH4 0x2E1FE450 EQ PUSH2 0x189 JUMPI DUP1 PUSH4 0x39F7958B EQ PUSH2 0x1B2 JUMPI JUMPDEST PUSH1 0x0 DUP1 REVERT JUMPDEST CALLVALUE DUP1 ISZERO PUSH2 0x11A JUMPI PUSH1 0x0 DUP1 REVERT JUMPDEST POP PUSH2 0x135 PUSH1 0x4 DUP1 CALLDATASIZE SUB DUP2 ADD SWAP1 PUSH2 0x130 SWAP2 SWAP1 PUSH2 0x2579 JUMP JUMPDEST PUSH2 0x4A9 JUMP JUMPDEST PUSH1 0x40 MLOAD PUSH2 0x142 SWAP2 SWAP1 PUSH2 0x25B5 JUMP JUMPDEST PUSH1 0x40 MLOAD DUP1 SWAP2 SUB SWAP1 RETURN JUMPDEST CALLVALUE DUP1 ISZERO PUSH2 0x157 JUMPI PUSH1 0x0 DUP1 REVERT JUMPDEST POP PUSH2 0x172 PUSH1 0x4 DUP1 CALLDATASIZE SUB DUP2 ADD SWAP1 PUSH2 0x16D SWAP2 SWAP1 PUSH2 0x2579 JUMP JUMPDEST PUSH2 0x501 JUMP JUMPDEST PUSH1 0x40 MLOAD PUSH2 0x180 SWAP3 SWAP2 SWAP1 PUSH2 0x25EC JUMP JUMPDEST PUSH1 0x40 MLOAD DUP1 SWAP2 SUB SWAP1 RETURN JUMPDEST CALLVALUE DUP1 ISZERO PUSH2 0x195 JUMPI PUSH1 0x0 DUP1 REVERT JUMPDEST POP PUSH2 0x1B0 PUSH1 0x4 DUP1 CALLDATASIZE SUB DUP2 ADD SWAP1 PUSH2 0x1AB SWAP2 SWAP1 PUSH2 0x2579 JUMP JUMPDEST PUSH2 0x667 JUMP JUMPDEST STOP JUMPDEST CALLVALUE DUP1 ISZERO PUSH2 0x1BE JUMPI PUSH1 0x0 DUP1 REVERT JUMPDEST POP PUSH2 0x1D9 PUSH1 0x4 DUP1 CALLDATASIZE SUB DUP2 ADD SWAP1 PUSH2 0x1D4 SWAP2 SWAP1 PUSH2 0x263A JUMP JUMPDEST PUSH2 0x839 JUMP JUMPDEST PUSH1 0x40 MLOAD PUSH2 0x1E6 SWAP2 SWAP1 PUSH2 0x25B5 JUMP JUMPDEST PUSH1 0x40 MLOAD DUP1 SWAP2 SUB SWAP1 RETURN JUMPDEST PUSH2 0x209 PUSH1 0x4 DUP1 CALLDATASIZE SUB DUP2 ADD SWAP1 PUSH2 0x204 SWAP2 SWAP1 PUSH2 0x2579 JUMP JUMPDEST PUSH2 0x8E2 JUMP JUMPDEST STOP JUMPDEST CALLVALUE DUP1 ISZERO PUSH2 0x217 JUMPI PUSH1 0x0 DUP1 REVERT JUMPDEST POP PUSH2 0x232 PUSH1 0x4 DUP1 CALLDATASIZE SUB DUP2 ADD SWAP1 PUSH2 0x22D SWAP2 SWAP1 PUSH2 0x2667 JUMP JUMPDEST PUSH2 0xA04 JUMP JUMPDEST PUSH1 0x40 MLOAD PUSH2 0x240 SWAP3 SWAP2 SWAP1 PUSH2 0x25EC JUMP JUMPDEST PUSH1 0x40 MLOAD DUP1 SWAP2 SUB SWAP1 RETURN JUMPDEST CALLVALUE DUP1 ISZERO PUSH2 0x255 JUMPI PUSH1 0x0 DUP1 REVERT JUMPDEST POP PUSH2 0x25E PUSH2 0xB49 JUMP JUMPDEST PUSH1 0x40 MLOAD PUSH2 0x26B SWAP2 SWAP1 PUSH2 0x25B5 JUMP JUMPDEST PUSH1 0x40 MLOAD DUP1 SWAP2 SUB SWAP1 RETURN JUMPDEST CALLVALUE DUP1 ISZERO PUSH2 0x280 JUMPI PUSH1 0x0 DUP1 REVERT JUMPDEST POP PUSH2 0x29B PUSH1 0x4 DUP1 CALLDATASIZE SUB DUP2 ADD SWAP1 PUSH2 0x296 SWAP2 SWAP1 PUSH2 0x2579 JUMP JUMPDEST PUSH2 0xB53 JUMP JUMPDEST PUSH1 0x40 MLOAD PUSH2 0x2A9 SWAP3 SWAP2 SWAP1 PUSH2 0x26A7 JUMP JUMPDEST PUSH1 0x40 MLOAD DUP1 SWAP2 SUB SWAP1 RETURN JUMPDEST PUSH2 0x2BA PUSH2 0xC8E JUMP JUMPDEST STOP JUMPDEST CALLVALUE DUP1 ISZERO PUSH2 0x2C8 JUMPI PUSH1 0x0 DUP1 REVERT JUMPDEST POP PUSH2 0x2E3 PUSH1 0x4 DUP1 CALLDATASIZE SUB DUP2 ADD SWAP1 PUSH2 0x2DE SWAP2 SWAP1 PUSH2 0x2667 JUMP JUMPDEST PUSH2 0xCE6 JUMP JUMPDEST PUSH1 0x40 MLOAD PUSH2 0x2F0 SWAP2 SWAP1 PUSH2 0x25B5 JUMP JUMPDEST PUSH1 0x40 MLOAD DUP1 SWAP2 SUB SWAP1 RETURN JUMPDEST CALLVALUE DUP1 ISZERO PUSH2 0x305 JUMPI PUSH1 0x0 DUP1 REVERT JUMPDEST POP PUSH2 0x320 PUSH1 0x4 DUP1 CALLDATASIZE SUB DUP2 ADD SWAP1 PUSH2 0x31B SWAP2 SWAP1 PUSH2 0x2667 JUMP JUMPDEST PUSH2 0xD90 JUMP JUMPDEST PUSH1 0x40 MLOAD PUSH2 0x32D SWAP2 SWAP1 PUSH2 0x25B5 JUMP JUMPDEST PUSH1 0x40 MLOAD DUP1 SWAP2 SUB SWAP1 RETURN JUMPDEST CALLVALUE DUP1 ISZERO PUSH2 0x342 JUMPI PUSH1 0x0 DUP1 REVERT JUMPDEST POP PUSH2 0x35D PUSH1 0x4 DUP1 CALLDATASIZE SUB DUP2 ADD SWAP1 PUSH2 0x358 SWAP2 SWAP1 PUSH2 0x2579 JUMP JUMPDEST PUSH2 0xFEA JUMP JUMPDEST PUSH1 0x40 MLOAD PUSH2 0x36A SWAP2 SWAP1 PUSH2 0x25B5 JUMP JUMPDEST PUSH1 0x40 MLOAD DUP1 SWAP2 SUB SWAP1 RETURN JUMPDEST CALLVALUE DUP1 ISZERO PUSH2 0x37F JUMPI PUSH1 0x0 DUP1 REVERT JUMPDEST POP PUSH2 0x39A PUSH1 0x4 DUP1 CALLDATASIZE SUB DUP2 ADD SWAP1 PUSH2 0x395 SWAP2 SWAP1 PUSH2 0x2667 JUMP JUMPDEST PUSH2 0x1007 JUMP JUMPDEST PUSH1 0x40 MLOAD PUSH2 0x3A8 SWAP3 SWAP2 SWAP1 PUSH2 0x2760 JUMP JUMPDEST PUSH1 0x40 MLOAD DUP1 SWAP2 SUB SWAP1 RETURN JUMPDEST CALLVALUE DUP1 ISZERO PUSH2 0x3BD JUMPI PUSH1 0x0 DUP1 REVERT JUMPDEST POP PUSH2 0x3C6 PUSH2 0x1A44 JUMP JUMPDEST PUSH1 0x40 MLOAD PUSH2 0x3D3 SWAP2 SWAP1 PUSH2 0x25B5 JUMP JUMPDEST PUSH1 0x40 MLOAD DUP1 SWAP2 SUB SWAP1 RETURN JUMPDEST CALLVALUE DUP1 ISZERO PUSH2 0x3E8 JUMPI PUSH1 0x0 DUP1 REVERT JUMPDEST POP PUSH2 0x403 PUSH1 0x4 DUP1 CALLDATASIZE SUB DUP2 ADD SWAP1 PUSH2 0x3FE SWAP2 SWAP1 PUSH2 0x27EE JUMP JUMPDEST PUSH2 0x1A75 JUMP JUMPDEST PUSH1 0x40 MLOAD PUSH2 0x410 SWAP2 SWAP1 PUSH2 0x25B5 JUMP JUMPDEST PUSH1 0x40 MLOAD DUP1 SWAP2 SUB SWAP1 RETURN JUMPDEST CALLVALUE DUP1 ISZERO PUSH2 0x425 JUMPI PUSH1 0x0 DUP1 REVERT JUMPDEST POP PUSH2 0x440 PUSH1 0x4 DUP1 CALLDATASIZE SUB DUP2 ADD SWAP1 PUSH2 0x43B SWAP2 SWAP1 PUSH2 0x2667 JUMP JUMPDEST PUSH2 0x1A8D JUMP JUMPDEST PUSH1 0x40 MLOAD PUSH2 0x44E SWAP3 SWAP2 SWAP1 PUSH2 0x26A7 JUMP JUMPDEST PUSH1 0x40 MLOAD DUP1 SWAP2 SUB SWAP1 RETURN JUMPDEST CALLVALUE DUP1 ISZERO PUSH2 0x463 JUMPI PUSH1 0x0 DUP1 REVERT JUMPDEST POP PUSH2 0x47E PUSH1 0x4 DUP1 CALLDATASIZE SUB DUP2 ADD SWAP1 PUSH2 0x479 SWAP2 SWAP1 PUSH2 0x2887 JUMP JUMPDEST PUSH2 0x1B5C JUMP JUMPDEST STOP JUMPDEST CALLVALUE DUP1 ISZERO PUSH2 0x48C JUMPI PUSH1 0x0 DUP1 REVERT JUMPDEST POP PUSH2 0x4A7 PUSH1 0x4 DUP1 CALLDATASIZE SUB DUP2 ADD SWAP1 PUSH2 0x4A2 SWAP2 SWAP1 PUSH2 0x2579 JUMP JUMPDEST PUSH2 0x1E53 JUMP JUMPDEST STOP JUMPDEST PUSH1 0x0 DUP1 PUSH2 0x4B7 PUSH1 0x1 DUP5 PUSH2 0x1007 JUMP JUMPDEST SWAP2 POP POP PUSH1 0x0 PUSH2 0x4C7 PUSH1 0x2 DUP6 PUSH2 0x1007 JUMP JUMPDEST SWAP2 POP POP PUSH1 0x0 PUSH2 0x4D7 PUSH1 0x3 DUP7 PUSH2 0x1007 JUMP JUMPDEST SWAP2 POP POP PUSH1 0x0 DUP2 DUP4 DUP6 PUSH2 0x4E9 SWAP2 SWAP1 PUSH2 0x28F6 JUMP JUMPDEST PUSH2 0x4F3 SWAP2 SWAP1 PUSH2 0x28F6 JUMP JUMPDEST SWAP1 POP DUP1 SWAP5 POP POP POP POP POP SWAP2 SWAP1 POP JUMP JUMPDEST PUSH1 0x0 DUP1 PUSH1 0x0 PUSH1 0x1 PUSH1 0x3 PUSH1 0x0 CALLER PUSH20 0xFFFFFFFFFFFFFFFFFFFFFFFFFFFFFFFFFFFFFFFF AND PUSH20 0xFFFFFFFFFFFFFFFFFFFFFFFFFFFFFFFFFFFFFFFF AND DUP2 MSTORE PUSH1 0x20 ADD SWAP1 DUP2 MSTORE PUSH1 0x20 ADD PUSH1 0x0 KECCAK256 PUSH1 0x0 DUP7 DUP2 MSTORE PUSH1 0x20 ADD SWAP1 DUP2 MSTORE PUSH1 0x20 ADD PUSH1 0x0 KECCAK256 DUP1 SLOAD SWAP1 POP PUSH2 0x566 SWAP2 SWAP1 PUSH2 0x292A JUMP JUMPDEST SWAP1 POP PUSH1 0x3 PUSH1 0x0 CALLER PUSH20 0xFFFFFFFFFFFFFFFFFFFFFFFFFFFFFFFFFFFFFFFF AND PUSH20 0xFFFFFFFFFFFFFFFFFFFFFFFFFFFFFFFFFFFFFFFF AND DUP2 MSTORE PUSH1 0x20 ADD SWAP1 DUP2 MSTORE PUSH1 0x20 ADD PUSH1 0x0 KECCAK256 PUSH1 0x0 DUP6 DUP2 MSTORE PUSH1 0x20 ADD SWAP1 DUP2 MSTORE PUSH1 0x20 ADD PUSH1 0x0 KECCAK256 DUP2 DUP2 SLOAD DUP2 LT PUSH2 0x5CA JUMPI PUSH2 0x5C9 PUSH2 0x295E JUMP JUMPDEST JUMPDEST SWAP1 PUSH1 0x0 MSTORE PUSH1 0x20 PUSH1 0x0 KECCAK256 SWAP1 PUSH1 0x5 MUL ADD PUSH1 0x0 ADD SLOAD PUSH1 0x3 PUSH1 0x0 CALLER PUSH20 0xFFFFFFFFFFFFFFFFFFFFFFFFFFFFFFFFFFFFFFFF AND PUSH20 0xFFFFFFFFFFFFFFFFFFFFFFFFFFFFFFFFFFFFFFFF AND DUP2 MSTORE PUSH1 0x20 ADD SWAP1 DUP2 MSTORE PUSH1 0x20 ADD PUSH1 0x0 KECCAK256 PUSH1 0x0 DUP7 DUP2 MSTORE PUSH1 0x20 ADD SWAP1 DUP2 MSTORE PUSH1 0x20 ADD PUSH1 0x0 KECCAK256 DUP3 DUP2 SLOAD DUP2 LT PUSH2 0x63E JUMPI PUSH2 0x63D PUSH2 0x295E JUMP JUMPDEST JUMPDEST SWAP1 PUSH1 0x0 MSTORE PUSH1 0x20 PUSH1 0x0 KECCAK256 SWAP1 PUSH1 0x5 MUL ADD PUSH1 0x4 ADD PUSH1 0x0 SWAP1 SLOAD SWAP1 PUSH2 0x100 EXP SWAP1 DIV PUSH1 0xFF AND SWAP3 POP SWAP3 POP POP SWAP2 POP SWAP2 JUMP JUMPDEST PUSH1 0x0 DUP1 PUSH2 0x673 DUP4 PUSH2 0xB53 JUMP JUMPDEST DUP1 SWAP3 POP DUP2 SWAP4 POP POP POP PUSH1 0x0 PUSH1 0x3 PUSH1 0x0 CALLER PUSH20 0xFFFFFFFFFFFFFFFFFFFFFFFFFFFFFFFFFFFFFFFF AND PUSH20 0xFFFFFFFFFFFFFFFFFFFFFFFFFFFFFFFFFFFFFFFF AND DUP2 MSTORE PUSH1 0x20 ADD SWAP1 DUP2 MSTORE PUSH1 0x20 ADD PUSH1 0x0 KECCAK256 PUSH1 0x0 DUP5 DUP2 MSTORE PUSH1 0x20 ADD SWAP1 DUP2 MSTORE PUSH1 0x20 ADD PUSH1 0x0 KECCAK256 DUP3 DUP2 SLOAD DUP2 LT PUSH2 0x6DF JUMPI PUSH2 0x6DE PUSH2 0x295E JUMP JUMPDEST JUMPDEST SWAP1 PUSH1 0x0 MSTORE PUSH1 0x20 PUSH1 0x0 KECCAK256 SWAP1 PUSH1 0x5 MUL ADD PUSH1 0x4 ADD PUSH1 0x2 SWAP1 SLOAD SWAP1 PUSH2 0x100 EXP SWAP1 DIV PUSH1 0xFF AND SWAP1 POP PUSH1 0x0 PUSH2 0x70B DUP3 PUSH2 0x839 JUMP JUMPDEST SWAP1 POP DUP1 PUSH1 0x4 PUSH1 0x0 CALLER PUSH20 0xFFFFFFFFFFFFFFFFFFFFFFFFFFFFFFFFFFFFFFFF AND PUSH20 0xFFFFFFFFFFFFFFFFFFFFFFFFFFFFFFFFFFFFFFFF AND DUP2 MSTORE PUSH1 0x20 ADD SWAP1 DUP2 MSTORE PUSH1 0x20 ADD PUSH1 0x0 KECCAK256 PUSH1 0x0 DUP3 DUP3 SLOAD PUSH2 0x75C SWAP2 SWAP1 PUSH2 0x28F6 JUMP JUMPDEST SWAP3 POP POP DUP2 SWAP1 SSTORE POP DUP1 PUSH1 0x6 PUSH1 0x0 DUP7 DUP2 MSTORE PUSH1 0x20 ADD SWAP1 DUP2 MSTORE PUSH1 0x20 ADD PUSH1 0x0 KECCAK256 PUSH1 0x0 DUP3 DUP3 SLOAD PUSH2 0x786 SWAP2 SWAP1 PUSH2 0x292A JUMP JUMPDEST SWAP3 POP POP DUP2 SWAP1 SSTORE POP DUP1 PUSH1 0x2 PUSH1 0x0 DUP3 DUP3 SLOAD PUSH2 0x79F SWAP2 SWAP1 PUSH2 0x292A JUMP JUMPDEST SWAP3 POP POP DUP2 SWAP1 SSTORE POP PUSH1 0x0 PUSH1 0x3 PUSH1 0x0 CALLER PUSH20 0xFFFFFFFFFFFFFFFFFFFFFFFFFFFFFFFFFFFFFFFF AND PUSH20 0xFFFFFFFFFFFFFFFFFFFFFFFFFFFFFFFFFFFFFFFF AND DUP2 MSTORE PUSH1 0x20 ADD SWAP1 DUP2 MSTORE PUSH1 0x20 ADD PUSH1 0x0 KECCAK256 PUSH1 0x0 DUP7 DUP2 MSTORE PUSH1 0x20 ADD SWAP1 DUP2 MSTORE PUSH1 0x20 ADD PUSH1 0x0 KECCAK256 DUP5 DUP2 SLOAD DUP2 LT PUSH2 0x80A JUMPI PUSH2 0x809 PUSH2 0x295E JUMP JUMPDEST JUMPDEST SWAP1 PUSH1 0x0 MSTORE PUSH1 0x20 PUSH1 0x0 KECCAK256 SWAP1 PUSH1 0x5 MUL ADD PUSH1 0x4 ADD PUSH1 0x1 PUSH2 0x100 EXP DUP2 SLOAD DUP2 PUSH1 0xFF MUL NOT AND SWAP1 DUP4 ISZERO ISZERO MUL OR SWAP1 SSTORE POP POP POP POP POP POP JUMP JUMPDEST PUSH1 0x0 DUP1 PUSH1 0x0 PUSH1 0x3 DUP2 GT ISZERO PUSH2 0x850 JUMPI PUSH2 0x84F PUSH2 0x298D JUMP JUMPDEST JUMPDEST DUP4 PUSH1 0x3 DUP2 GT ISZERO PUSH2 0x863 JUMPI PUSH2 0x862 PUSH2 0x298D JUMP JUMPDEST JUMPDEST SUB PUSH2 0x871 JUMPI PUSH1 0x8 SWAP1 POP PUSH2 0x8D9 JUMP JUMPDEST PUSH1 0x1 PUSH1 0x3 DUP2 GT ISZERO PUSH2 0x885 JUMPI PUSH2 0x884 PUSH2 0x298D JUMP JUMPDEST JUMPDEST DUP4 PUSH1 0x3 DUP2 GT ISZERO PUSH2 0x898 JUMPI PUSH2 0x897 PUSH2 0x298D JUMP JUMPDEST JUMPDEST SUB PUSH2 0x8A6 JUMPI PUSH1 0x4 SWAP1 POP PUSH2 0x8D8 JUMP JUMPDEST PUSH1 0x0 PUSH1 0x3 DUP2 GT ISZERO PUSH2 0x8BA JUMPI PUSH2 0x8B9 PUSH2 0x298D JUMP JUMPDEST JUMPDEST DUP4 PUSH1 0x3 DUP2 GT ISZERO PUSH2 0x8CD JUMPI PUSH2 0x8CC PUSH2 0x298D JUMP JUMPDEST JUMPDEST SUB PUSH2 0x8D7 JUMPI PUSH1 0x2 SWAP1 POP JUMPDEST JUMPDEST JUMPDEST DUP1 SWAP2 POP POP SWAP2 SWAP1 POP JUMP JUMPDEST DUP1 PUSH1 0x4 PUSH1 0x0 CALLER PUSH20 0xFFFFFFFFFFFFFFFFFFFFFFFFFFFFFFFFFFFFFFFF AND PUSH20 0xFFFFFFFFFFFFFFFFFFFFFFFFFFFFFFFFFFFFFFFF AND DUP2 MSTORE PUSH1 0x20 ADD SWAP1 DUP2 MSTORE PUSH1 0x20 ADD PUSH1 0x0 KECCAK256 SLOAD LT ISZERO PUSH2 0x964 JUMPI PUSH1 0x40 MLOAD PUSH32 0x8C379A000000000000000000000000000000000000000000000000000000000 DUP2 MSTORE PUSH1 0x4 ADD PUSH2 0x95B SWAP1 PUSH2 0x2A08 JUMP JUMPDEST PUSH1 0x40 MLOAD DUP1 SWAP2 SUB SWAP1 REVERT JUMPDEST DUP1 PUSH1 0x4 PUSH1 0x0 CALLER PUSH20 0xFFFFFFFFFFFFFFFFFFFFFFFFFFFFFFFFFFFFFFFF AND PUSH20 0xFFFFFFFFFFFFFFFFFFFFFFFFFFFFFFFFFFFFFFFF AND DUP2 MSTORE PUSH1 0x20 ADD SWAP1 DUP2 MSTORE PUSH1 0x20 ADD PUSH1 0x0 KECCAK256 PUSH1 0x0 DUP3 DUP3 SLOAD PUSH2 0x9B3 SWAP2 SWAP1 PUSH2 0x292A JUMP JUMPDEST SWAP3 POP POP DUP2 SWAP1 SSTORE POP CALLER PUSH20 0xFFFFFFFFFFFFFFFFFFFFFFFFFFFFFFFFFFFFFFFF AND PUSH2 0x8FC DUP3 SWAP1 DUP2 ISZERO MUL SWAP1 PUSH1 0x40 MLOAD PUSH1 0x0 PUSH1 0x40 MLOAD DUP1 DUP4 SUB DUP2 DUP6 DUP9 DUP9 CALL SWAP4 POP POP POP POP ISZERO DUP1 ISZERO PUSH2 0xA00 JUMPI RETURNDATASIZE PUSH1 0x0 DUP1 RETURNDATACOPY RETURNDATASIZE PUSH1 0x0 REVERT JUMPDEST POP POP JUMP JUMPDEST PUSH1 0x0 DUP1 PUSH2 0xA0F PUSH2 0x24E7 JUMP JUMPDEST PUSH1 0x3 PUSH1 0x0 CALLER PUSH20 0xFFFFFFFFFFFFFFFFFFFFFFFFFFFFFFFFFFFFFFFF AND PUSH20 0xFFFFFFFFFFFFFFFFFFFFFFFFFFFFFFFFFFFFFFFF AND DUP2 MSTORE PUSH1 0x20 ADD SWAP1 DUP2 MSTORE PUSH1 0x20 ADD PUSH1 0x0 KECCAK256 PUSH1 0x0 DUP6 DUP2 MSTORE PUSH1 0x20 ADD SWAP1 DUP2 MSTORE PUSH1 0x20 ADD PUSH1 0x0 KECCAK256 DUP6 DUP2 SLOAD DUP2 LT PUSH2 0xA71 JUMPI PUSH2 0xA70 PUSH2 0x295E JUMP JUMPDEST JUMPDEST SWAP1 PUSH1 0x0 MSTORE PUSH1 0x20 PUSH1 0x0 KECCAK256 SWAP1 PUSH1 0x5 MUL ADD PUSH1 0x40 MLOAD DUP1 PUSH1 0xE0 ADD PUSH1 0x40 MSTORE SWAP1 DUP2 PUSH1 0x0 DUP3 ADD SLOAD DUP2 MSTORE PUSH1 0x20 ADD PUSH1 0x1 DUP3 ADD SLOAD DUP2 MSTORE PUSH1 0x20 ADD PUSH1 0x2 DUP3 ADD SLOAD DUP2 MSTORE PUSH1 0x20 ADD PUSH1 0x3 DUP3 ADD SLOAD DUP2 MSTORE PUSH1 0x20 ADD PUSH1 0x4 DUP3 ADD PUSH1 0x0 SWAP1 SLOAD SWAP1 PUSH2 0x100 EXP SWAP1 DIV PUSH1 0xFF AND PUSH1 0xFF AND PUSH1 0xFF AND DUP2 MSTORE PUSH1 0x20 ADD PUSH1 0x4 DUP3 ADD PUSH1 0x1 SWAP1 SLOAD SWAP1 PUSH2 0x100 EXP SWAP1 DIV PUSH1 0xFF AND ISZERO ISZERO ISZERO ISZERO DUP2 MSTORE PUSH1 0x20 ADD PUSH1 0x4 DUP3 ADD PUSH1 0x2 SWAP1 SLOAD SWAP1 PUSH2 0x100 EXP SWAP1 DIV PUSH1 0xFF AND PUSH1 0x3 DUP2 GT ISZERO PUSH2 0xB0F JUMPI PUSH2 0xB0E PUSH2 0x298D JUMP JUMPDEST JUMPDEST PUSH1 0x3 DUP2 GT ISZERO PUSH2 0xB21 JUMPI PUSH2 0xB20 PUSH2 0x298D JUMP JUMPDEST JUMPDEST DUP2 MSTORE POP POP SWAP1 POP PUSH1 0x0 DUP2 PUSH1 0x0 ADD MLOAD SWAP1 POP PUSH1 0x0 DUP3 PUSH1 0x80 ADD MLOAD SWAP1 POP DUP2 DUP2 SWAP5 POP SWAP5 POP POP POP POP SWAP3 POP SWAP3 SWAP1 POP JUMP JUMPDEST PUSH1 0x0 PUSH1 0x2 SLOAD SWAP1 POP SWAP1 JUMP JUMPDEST PUSH1 0x0 DUP1 PUSH1 0x0 PUSH2 0xB60 PUSH2 0x21F7 JUMP JUMPDEST SWAP1 POP PUSH1 0x0 JUMPDEST PUSH1 0x1 DUP3 PUSH2 0xB72 SWAP2 SWAP1 PUSH2 0x28F6 JUMP JUMPDEST DUP2 LT ISZERO PUSH2 0xC86 JUMPI PUSH1 0x0 JUMPDEST PUSH1 0x3 PUSH1 0x0 CALLER PUSH20 0xFFFFFFFFFFFFFFFFFFFFFFFFFFFFFFFFFFFFFFFF AND PUSH20 0xFFFFFFFFFFFFFFFFFFFFFFFFFFFFFFFFFFFFFFFF AND DUP2 MSTORE PUSH1 0x20 ADD SWAP1 DUP2 MSTORE PUSH1 0x20 ADD PUSH1 0x0 KECCAK256 PUSH1 0x0 DUP4 DUP2 MSTORE PUSH1 0x20 ADD SWAP1 DUP2 MSTORE PUSH1 0x20 ADD PUSH1 0x0 KECCAK256 DUP1 SLOAD SWAP1 POP DUP2 LT ISZERO PUSH2 0xC72 JUMPI DUP6 PUSH1 0x3 PUSH1 0x0 CALLER PUSH20 0xFFFFFFFFFFFFFFFFFFFFFFFFFFFFFFFFFFFFFFFF AND PUSH20 0xFFFFFFFFFFFFFFFFFFFFFFFFFFFFFFFFFFFFFFFF AND DUP2 MSTORE PUSH1 0x20 ADD SWAP1 DUP2 MSTORE PUSH1 0x20 ADD PUSH1 0x0 KECCAK256 PUSH1 0x0 DUP5 DUP2 MSTORE PUSH1 0x20 ADD SWAP1 DUP2 MSTORE PUSH1 0x20 ADD PUSH1 0x0 KECCAK256 DUP3 DUP2 SLOAD DUP2 LT PUSH2 0xC3A JUMPI PUSH2 0xC39 PUSH2 0x295E JUMP JUMPDEST JUMPDEST SWAP1 PUSH1 0x0 MSTORE PUSH1 0x20 PUSH1 0x0 KECCAK256 SWAP1 PUSH1 0x5 MUL ADD PUSH1 0x0 ADD SLOAD SUB PUSH2 0xC5F JUMPI DUP2 DUP2 SWAP5 POP SWAP5 POP POP POP POP PUSH2 0xC89 JUMP JUMPDEST DUP1 DUP1 PUSH2 0xC6A SWAP1 PUSH2 0x2A28 JUMP JUMPDEST SWAP2 POP POP PUSH2 0xB7C JUMP JUMPDEST POP DUP1 DUP1 PUSH2 0xC7E SWAP1 PUSH2 0x2A28 JUMP JUMPDEST SWAP2 POP POP PUSH2 0xB65 JUMP JUMPDEST POP POP JUMPDEST SWAP2 POP SWAP2 JUMP JUMPDEST CALLVALUE PUSH1 0x4 PUSH1 0x0 CALLER PUSH20 0xFFFFFFFFFFFFFFFFFFFFFFFFFFFFFFFFFFFFFFFF AND PUSH20 0xFFFFFFFFFFFFFFFFFFFFFFFFFFFFFFFFFFFFFFFF AND DUP2 MSTORE PUSH1 0x20 ADD SWAP1 DUP2 MSTORE PUSH1 0x20 ADD PUSH1 0x0 KECCAK256 PUSH1 0x0 DUP3 DUP3 SLOAD PUSH2 0xCDD SWAP2 SWAP1 PUSH2 0x28F6 JUMP JUMPDEST SWAP3 POP POP DUP2 SWAP1 SSTORE POP JUMP JUMPDEST PUSH1 0x0 DUP1 PUSH1 0x0 SWAP1 POP PUSH1 0x0 JUMPDEST PUSH1 0x3 DUP2 LT ISZERO PUSH2 0xD56 JUMPI DUP4 PUSH1 0x5 PUSH1 0x0 DUP8 DUP2 MSTORE PUSH1 0x20 ADD SWAP1 DUP2 MSTORE PUSH1 0x20 ADD PUSH1 0x0 KECCAK256 PUSH1 0x2 ADD DUP3 DUP2 SLOAD DUP2 LT PUSH2 0xD22 JUMPI PUSH2 0xD21 PUSH2 0x295E JUMP JUMPDEST JUMPDEST SWAP1 PUSH1 0x0 MSTORE PUSH1 0x20 PUSH1 0x0 KECCAK256 ADD SLOAD SUB PUSH2 0xD43 JUMPI PUSH2 0xD3C DUP2 DUP7 PUSH2 0x1007 JUMP JUMPDEST SWAP1 POP DUP1 SWAP3 POP POP JUMPDEST DUP1 DUP1 PUSH2 0xD4E SWAP1 PUSH2 0x2A28 JUMP JUMPDEST SWAP2 POP POP PUSH2 0xCF0 JUMP JUMPDEST POP DUP1 PUSH1 0x2 SLOAD PUSH2 0xD65 SWAP2 SWAP1 PUSH2 0x292A JUMP JUMPDEST POP DUP1 PUSH1 0x6 PUSH1 0x0 DUP7 DUP2 MSTORE PUSH1 0x20 ADD SWAP1 DUP2 MSTORE PUSH1 0x20 ADD PUSH1 0x0 KECCAK256 SLOAD PUSH2 0xD85 SWAP2 SWAP1 PUSH2 0x292A JUMP JUMPDEST POP DUP1 SWAP2 POP POP SWAP3 SWAP2 POP POP JUMP JUMPDEST PUSH1 0x0 PUSH2 0xD9A PUSH2 0x21F7 JUMP JUMPDEST DUP4 SUB PUSH2 0xDDB JUMPI PUSH1 0x40 MLOAD PUSH32 0x8C379A000000000000000000000000000000000000000000000000000000000 DUP2 MSTORE PUSH1 0x4 ADD PUSH2 0xDD2 SWAP1 PUSH2 0x2AE2 JUMP JUMPDEST PUSH1 0x40 MLOAD DUP1 SWAP2 SUB SWAP1 REVERT JUMPDEST PUSH1 0x3 PUSH1 0x5 PUSH1 0x0 DUP6 DUP2 MSTORE PUSH1 0x20 ADD SWAP1 DUP2 MSTORE PUSH1 0x20 ADD PUSH1 0x0 KECCAK256 PUSH1 0x2 ADD DUP1 SLOAD SWAP1 POP EQ PUSH2 0xE06 JUMPI PUSH2 0xE05 DUP4 PUSH2 0x2237 JUMP JUMPDEST JUMPDEST PUSH1 0x0 PUSH1 0x60 PUSH1 0x0 PUSH1 0x5 PUSH1 0x0 DUP8 DUP2 MSTORE PUSH1 0x20 ADD SWAP1 DUP2 MSTORE PUSH1 0x20 ADD PUSH1 0x0 KECCAK256 PUSH1 0x3 ADD PUSH1 0x5 PUSH1 0x0 DUP9 DUP2 MSTORE PUSH1 0x20 ADD SWAP1 DUP2 MSTORE PUSH1 0x20 ADD PUSH1 0x0 KECCAK256 PUSH1 0x2 ADD PUSH1 0x0 DUP2 SLOAD DUP2 LT PUSH2 0xE4B JUMPI PUSH2 0xE4A PUSH2 0x295E JUMP JUMPDEST JUMPDEST SWAP1 PUSH1 0x0 MSTORE PUSH1 0x20 PUSH1 0x0 KECCAK256 ADD SLOAD DUP2 SLOAD DUP2 LT PUSH2 0xE67 JUMPI PUSH2 0xE66 PUSH2 0x295E JUMP JUMPDEST JUMPDEST SWAP1 PUSH1 0x0 MSTORE PUSH1 0x20 PUSH1 0x0 KECCAK256 ADD SLOAD SWAP1 POP PUSH1 0x0 PUSH1 0x5 PUSH1 0x0 DUP9 DUP2 MSTORE PUSH1 0x20 ADD SWAP1 DUP2 MSTORE PUSH1 0x20 ADD PUSH1 0x0 KECCAK256 PUSH1 0x3 ADD PUSH1 0x5 PUSH1 0x0 DUP10 DUP2 MSTORE PUSH1 0x20 ADD SWAP1 DUP2 MSTORE PUSH1 0x20 ADD PUSH1 0x0 KECCAK256 PUSH1 0x2 ADD PUSH1 0x1 DUP2 SLOAD DUP2 LT PUSH2 0xEB5 JUMPI PUSH2 0xEB4 PUSH2 0x295E JUMP JUMPDEST JUMPDEST SWAP1 PUSH1 0x0 MSTORE PUSH1 0x20 PUSH1 0x0 KECCAK256 ADD SLOAD DUP2 SLOAD DUP2 LT PUSH2 0xED1 JUMPI PUSH2 0xED0 PUSH2 0x295E JUMP JUMPDEST JUMPDEST SWAP1 PUSH1 0x0 MSTORE PUSH1 0x20 PUSH1 0x0 KECCAK256 ADD SLOAD SWAP1 POP PUSH1 0x0 PUSH1 0x5 PUSH1 0x0 DUP10 DUP2 MSTORE PUSH1 0x20 ADD SWAP1 DUP2 MSTORE PUSH1 0x20 ADD PUSH1 0x0 KECCAK256 PUSH1 0x3 ADD PUSH1 0x5 PUSH1 0x0 DUP11 DUP2 MSTORE PUSH1 0x20 ADD SWAP1 DUP2 MSTORE PUSH1 0x20 ADD PUSH1 0x0 KECCAK256 PUSH1 0x2 ADD PUSH1 0x2 DUP2 SLOAD DUP2 LT PUSH2 0xF1F JUMPI PUSH2 0xF1E PUSH2 0x295E JUMP JUMPDEST JUMPDEST SWAP1 PUSH1 0x0 MSTORE PUSH1 0x20 PUSH1 0x0 KECCAK256 ADD SLOAD DUP2 SLOAD DUP2 LT PUSH2 0xF3B JUMPI PUSH2 0xF3A PUSH2 0x295E JUMP JUMPDEST JUMPDEST SWAP1 PUSH1 0x0 MSTORE PUSH1 0x20 PUSH1 0x0 KECCAK256 ADD SLOAD SWAP1 POP DUP3 DUP8 SUB PUSH2 0xF67 JUMPI PUSH2 0xF5A PUSH1 0x1 DUP10 PUSH2 0x1007 JUMP JUMPDEST DUP1 SWAP7 POP DUP2 SWAP6 POP POP POP PUSH2 0xFA3 JUMP JUMPDEST DUP2 DUP8 SUB PUSH2 0xF86 JUMPI PUSH2 0xF79 PUSH1 0x2 DUP10 PUSH2 0x1007 JUMP JUMPDEST DUP1 SWAP7 POP DUP2 SWAP6 POP POP POP PUSH2 0xFA2 JUMP JUMPDEST DUP1 DUP8 SUB PUSH2 0xFA1 JUMPI PUSH2 0xF98 PUSH1 0x3 DUP10 PUSH2 0x1007 JUMP JUMPDEST DUP1 SWAP7 POP DUP2 SWAP6 POP POP POP JUMPDEST JUMPDEST JUMPDEST PUSH32 0x47D11EC30AF726942AC6508EADCCDF4C14A1C898A0433E77427B8C40A3A43644 DUP5 DUP7 PUSH1 0x40 MLOAD PUSH2 0xFD4 SWAP3 SWAP2 SWAP1 PUSH2 0x2760 JUMP JUMPDEST PUSH1 0x40 MLOAD DUP1 SWAP2 SUB SWAP1 LOG1 DUP5 SWAP6 POP POP POP POP POP POP SWAP3 SWAP2 POP POP JUMP JUMPDEST PUSH1 0x0 PUSH1 0x6 PUSH1 0x0 DUP4 DUP2 MSTORE PUSH1 0x20 ADD SWAP1 DUP2 MSTORE PUSH1 0x20 ADD PUSH1 0x0 KECCAK256 SLOAD SWAP1 POP SWAP2 SWAP1 POP JUMP JUMPDEST PUSH1 0x60 PUSH1 0x0 DUP1 PUSH1 0x60 PUSH1 0x0 PUSH1 0x5 PUSH1 0x0 DUP8 DUP2 MSTORE PUSH1 0x20 ADD SWAP1 DUP2 MSTORE PUSH1 0x20 ADD PUSH1 0x0 KECCAK256 PUSH1 0x3 ADD PUSH1 0x5 PUSH1 0x0 DUP9 DUP2 MSTORE PUSH1 0x20 ADD SWAP1 DUP2 MSTORE PUSH1 0x20 ADD PUSH1 0x0 KECCAK256 PUSH1 0x2 ADD DUP9 DUP2 SLOAD DUP2 LT PUSH2 0x104E JUMPI PUSH2 0x104D PUSH2 0x295E JUMP JUMPDEST JUMPDEST SWAP1 PUSH1 0x0 MSTORE PUSH1 0x20 PUSH1 0x0 KECCAK256 ADD SLOAD DUP2 SLOAD DUP2 LT PUSH2 0x106A JUMPI PUSH2 0x1069 PUSH2 0x295E JUMP JUMPDEST JUMPDEST SWAP1 PUSH1 0x0 MSTORE PUSH1 0x20 PUSH1 0x0 KECCAK256 ADD SLOAD SWAP1 POP PUSH1 0x0 PUSH2 0x1082 DUP3 PUSH2 0xB53 JUMP JUMPDEST SWAP2 POP POP PUSH1 0x1 DUP3 SUB PUSH2 0x13BC JUMPI PUSH1 0x0 PUSH1 0x3 DUP2 GT ISZERO PUSH2 0x10A1 JUMPI PUSH2 0x10A0 PUSH2 0x298D JUMP JUMPDEST JUMPDEST PUSH1 0x3 PUSH1 0x0 CALLER PUSH20 0xFFFFFFFFFFFFFFFFFFFFFFFFFFFFFFFFFFFFFFFF AND PUSH20 0xFFFFFFFFFFFFFFFFFFFFFFFFFFFFFFFFFFFFFFFF AND DUP2 MSTORE PUSH1 0x20 ADD SWAP1 DUP2 MSTORE PUSH1 0x20 ADD PUSH1 0x0 KECCAK256 PUSH1 0x0 DUP10 DUP2 MSTORE PUSH1 0x20 ADD SWAP1 DUP2 MSTORE PUSH1 0x20 ADD PUSH1 0x0 KECCAK256 DUP3 DUP2 SLOAD DUP2 LT PUSH2 0x1103 JUMPI PUSH2 0x1102 PUSH2 0x295E JUMP JUMPDEST JUMPDEST SWAP1 PUSH1 0x0 MSTORE PUSH1 0x20 PUSH1 0x0 KECCAK256 SWAP1 PUSH1 0x5 MUL ADD PUSH1 0x4 ADD PUSH1 0x2 SWAP1 SLOAD SWAP1 PUSH2 0x100 EXP SWAP1 DIV PUSH1 0xFF AND PUSH1 0x3 DUP2 GT ISZERO PUSH2 0x1134 JUMPI PUSH2 0x1133 PUSH2 0x298D JUMP JUMPDEST JUMPDEST SUB PUSH2 0x1186 JUMPI PUSH1 0x2 DUP1 SLOAD PUSH2 0x1147 SWAP2 SWAP1 PUSH2 0x2B31 JUMP JUMPDEST SWAP4 POP PUSH1 0x40 MLOAD DUP1 PUSH1 0x40 ADD PUSH1 0x40 MSTORE DUP1 PUSH1 0xA DUP2 MSTORE PUSH1 0x20 ADD PUSH32 0x46756C6C20466972737400000000000000000000000000000000000000000000 DUP2 MSTORE POP SWAP3 POP PUSH2 0x13B7 JUMP JUMPDEST PUSH1 0x1 PUSH1 0x3 DUP2 GT ISZERO PUSH2 0x119A JUMPI PUSH2 0x1199 PUSH2 0x298D JUMP JUMPDEST JUMPDEST PUSH1 0x3 PUSH1 0x0 CALLER PUSH20 0xFFFFFFFFFFFFFFFFFFFFFFFFFFFFFFFFFFFFFFFF AND PUSH20 0xFFFFFFFFFFFFFFFFFFFFFFFFFFFFFFFFFFFFFFFF AND DUP2 MSTORE PUSH1 0x20 ADD SWAP1 DUP2 MSTORE PUSH1 0x20 ADD PUSH1 0x0 KECCAK256 PUSH1 0x0 DUP10 DUP2 MSTORE PUSH1 0x20 ADD SWAP1 DUP2 MSTORE PUSH1 0x20 ADD PUSH1 0x0 KECCAK256 DUP3 DUP2 SLOAD DUP2 LT PUSH2 0x11FC JUMPI PUSH2 0x11FB PUSH2 0x295E JUMP JUMPDEST JUMPDEST SWAP1 PUSH1 0x0 MSTORE PUSH1 0x20 PUSH1 0x0 KECCAK256 SWAP1 PUSH1 0x5 MUL ADD PUSH1 0x4 ADD PUSH1 0x2 SWAP1 SLOAD SWAP1 PUSH2 0x100 EXP SWAP1 DIV PUSH1 0xFF AND PUSH1 0x3 DUP2 GT ISZERO PUSH2 0x122D JUMPI PUSH2 0x122C PUSH2 0x298D JUMP JUMPDEST JUMPDEST SUB PUSH2 0x1280 JUMPI PUSH1 0x4 PUSH1 0x2 SLOAD PUSH2 0x1241 SWAP2 SWAP1 PUSH2 0x2B31 JUMP JUMPDEST SWAP4 POP PUSH1 0x40 MLOAD DUP1 PUSH1 0x40 ADD PUSH1 0x40 MSTORE DUP1 PUSH1 0xA DUP2 MSTORE PUSH1 0x20 ADD PUSH32 0x48616C6620466972737400000000000000000000000000000000000000000000 DUP2 MSTORE POP SWAP3 POP PUSH2 0x13B6 JUMP JUMPDEST PUSH1 0x2 PUSH1 0x3 DUP2 GT ISZERO PUSH2 0x1294 JUMPI PUSH2 0x1293 PUSH2 0x298D JUMP JUMPDEST JUMPDEST PUSH1 0x3 PUSH1 0x0 CALLER PUSH20 0xFFFFFFFFFFFFFFFFFFFFFFFFFFFFFFFFFFFFFFFF AND PUSH20 0xFFFFFFFFFFFFFFFFFFFFFFFFFFFFFFFFFFFFFFFF AND DUP2 MSTORE PUSH1 0x20 ADD SWAP1 DUP2 MSTORE PUSH1 0x20 ADD PUSH1 0x0 KECCAK256 PUSH1 0x0 DUP10 DUP2 MSTORE PUSH1 0x20 ADD SWAP1 DUP2 MSTORE PUSH1 0x20 ADD PUSH1 0x0 KECCAK256 DUP3 DUP2 SLOAD DUP2 LT PUSH2 0x12F6 JUMPI PUSH2 0x12F5 PUSH2 0x295E JUMP JUMPDEST JUMPDEST SWAP1 PUSH1 0x0 MSTORE PUSH1 0x20 PUSH1 0x0 KECCAK256 SWAP1 PUSH1 0x5 MUL ADD PUSH1 0x4 ADD PUSH1 0x2 SWAP1 SLOAD SWAP1 PUSH2 0x100 EXP SWAP1 DIV PUSH1 0xFF AND PUSH1 0x3 DUP2 GT ISZERO PUSH2 0x1327 JUMPI PUSH2 0x1326 PUSH2 0x298D JUMP JUMPDEST JUMPDEST SUB PUSH2 0x137A JUMPI PUSH1 0x8 PUSH1 0x2 SLOAD PUSH2 0x133B SWAP2 SWAP1 PUSH2 0x2B31 JUMP JUMPDEST SWAP4 POP PUSH1 0x40 MLOAD DUP1 PUSH1 0x40 ADD PUSH1 0x40 MSTORE DUP1 PUSH1 0xD DUP2 MSTORE PUSH1 0x20 ADD PUSH32 0x5175617274657220466972737400000000000000000000000000000000000000 DUP2 MSTORE POP SWAP3 POP PUSH2 0x13B5 JUMP JUMPDEST PUSH1 0x40 MLOAD PUSH32 0x8C379A000000000000000000000000000000000000000000000000000000000 DUP2 MSTORE PUSH1 0x4 ADD PUSH2 0x13AC SWAP1 PUSH2 0x2BAE JUMP JUMPDEST PUSH1 0x40 MLOAD DUP1 SWAP2 SUB SWAP1 REVERT JUMPDEST JUMPDEST JUMPDEST PUSH2 0x1A33 JUMP JUMPDEST PUSH1 0x2 DUP3 SUB PUSH2 0x16F4 JUMPI PUSH1 0x0 PUSH1 0x3 DUP2 GT ISZERO PUSH2 0x13D8 JUMPI PUSH2 0x13D7 PUSH2 0x298D JUMP JUMPDEST JUMPDEST PUSH1 0x3 PUSH1 0x0 CALLER PUSH20 0xFFFFFFFFFFFFFFFFFFFFFFFFFFFFFFFFFFFFFFFF AND PUSH20 0xFFFFFFFFFFFFFFFFFFFFFFFFFFFFFFFFFFFFFFFF AND DUP2 MSTORE PUSH1 0x20 ADD SWAP1 DUP2 MSTORE PUSH1 0x20 ADD PUSH1 0x0 KECCAK256 PUSH1 0x0 DUP10 DUP2 MSTORE PUSH1 0x20 ADD SWAP1 DUP2 MSTORE PUSH1 0x20 ADD PUSH1 0x0 KECCAK256 DUP3 DUP2 SLOAD DUP2 LT PUSH2 0x143A JUMPI PUSH2 0x1439 PUSH2 0x295E JUMP JUMPDEST JUMPDEST SWAP1 PUSH1 0x0 MSTORE PUSH1 0x20 PUSH1 0x0 KECCAK256 SWAP1 PUSH1 0x5 MUL ADD PUSH1 0x4 ADD PUSH1 0x2 SWAP1 SLOAD SWAP1 PUSH2 0x100 EXP SWAP1 DIV PUSH1 0xFF AND PUSH1 0x3 DUP2 GT ISZERO PUSH2 0x146B JUMPI PUSH2 0x146A PUSH2 0x298D JUMP JUMPDEST JUMPDEST SUB PUSH2 0x14BE JUMPI PUSH1 0x40 MLOAD DUP1 PUSH1 0x40 ADD PUSH1 0x40 MSTORE DUP1 PUSH1 0xB DUP2 MSTORE PUSH1 0x20 ADD PUSH32 0x46756C6C205365636F6E64000000000000000000000000000000000000000000 DUP2 MSTORE POP SWAP3 POP PUSH1 0x4 PUSH1 0x2 SLOAD PUSH2 0x14B7 SWAP2 SWAP1 PUSH2 0x2B31 JUMP JUMPDEST SWAP4 POP PUSH2 0x16EF JUMP JUMPDEST PUSH1 0x1 PUSH1 0x3 DUP2 GT ISZERO PUSH2 0x14D2 JUMPI PUSH2 0x14D1 PUSH2 0x298D JUMP JUMPDEST JUMPDEST PUSH1 0x3 PUSH1 0x0 CALLER PUSH20 0xFFFFFFFFFFFFFFFFFFFFFFFFFFFFFFFFFFFFFFFF AND PUSH20 0xFFFFFFFFFFFFFFFFFFFFFFFFFFFFFFFFFFFFFFFF AND DUP2 MSTORE PUSH1 0x20 ADD SWAP1 DUP2 MSTORE PUSH1 0x20 ADD PUSH1 0x0 KECCAK256 PUSH1 0x0 DUP10 DUP2 MSTORE PUSH1 0x20 ADD SWAP1 DUP2 MSTORE PUSH1 0x20 ADD PUSH1 0x0 KECCAK256 DUP3 DUP2 SLOAD DUP2 LT PUSH2 0x1534 JUMPI PUSH2 0x1533 PUSH2 0x295E JUMP JUMPDEST JUMPDEST SWAP1 PUSH1 0x0 MSTORE PUSH1 0x20 PUSH1 0x0 KECCAK256 SWAP1 PUSH1 0x5 MUL ADD PUSH1 0x4 ADD PUSH1 0x2 SWAP1 SLOAD SWAP1 PUSH2 0x100 EXP SWAP1 DIV PUSH1 0xFF AND PUSH1 0x3 DUP2 GT ISZERO PUSH2 0x1565 JUMPI PUSH2 0x1564 PUSH2 0x298D JUMP JUMPDEST JUMPDEST SUB PUSH2 0x15B8 JUMPI PUSH1 0x40 MLOAD DUP1 PUSH1 0x40 ADD PUSH1 0x40 MSTORE DUP1 PUSH1 0xB DUP2 MSTORE PUSH1 0x20 ADD PUSH32 0x48616C66205365636F6E64000000000000000000000000000000000000000000 DUP2 MSTORE POP SWAP3 POP PUSH1 0x8 PUSH1 0x2 SLOAD PUSH2 0x15B1 SWAP2 SWAP1 PUSH2 0x2B31 JUMP JUMPDEST SWAP4 POP PUSH2 0x16EE JUMP JUMPDEST PUSH1 0x2 PUSH1 0x3 DUP2 GT ISZERO PUSH2 0x15CC JUMPI PUSH2 0x15CB PUSH2 0x298D JUMP JUMPDEST JUMPDEST PUSH1 0x3 PUSH1 0x0 CALLER PUSH20 0xFFFFFFFFFFFFFFFFFFFFFFFFFFFFFFFFFFFFFFFF AND PUSH20 0xFFFFFFFFFFFFFFFFFFFFFFFFFFFFFFFFFFFFFFFF AND DUP2 MSTORE PUSH1 0x20 ADD SWAP1 DUP2 MSTORE PUSH1 0x20 ADD PUSH1 0x0 KECCAK256 PUSH1 0x0 DUP10 DUP2 MSTORE PUSH1 0x20 ADD SWAP1 DUP2 MSTORE PUSH1 0x20 ADD PUSH1 0x0 KECCAK256 DUP3 DUP2 SLOAD DUP2 LT PUSH2 0x162E JUMPI PUSH2 0x162D PUSH2 0x295E JUMP JUMPDEST JUMPDEST SWAP1 PUSH1 0x0 MSTORE PUSH1 0x20 PUSH1 0x0 KECCAK256 SWAP1 PUSH1 0x5 MUL ADD PUSH1 0x4 ADD PUSH1 0x2 SWAP1 SLOAD SWAP1 PUSH2 0x100 EXP SWAP1 DIV PUSH1 0xFF AND PUSH1 0x3 DUP2 GT ISZERO PUSH2 0x165F JUMPI PUSH2 0x165E PUSH2 0x298D JUMP JUMPDEST JUMPDEST SUB PUSH2 0x16B2 JUMPI PUSH1 0x40 MLOAD DUP1 PUSH1 0x40 ADD PUSH1 0x40 MSTORE DUP1 PUSH1 0xE DUP2 MSTORE PUSH1 0x20 ADD PUSH32 0x51756172746572205365636F6E64000000000000000000000000000000000000 DUP2 MSTORE POP SWAP3 POP PUSH1 0x10 PUSH1 0x2 SLOAD PUSH2 0x16AB SWAP2 SWAP1 PUSH2 0x2B31 JUMP JUMPDEST SWAP4 POP PUSH2 0x16ED JUMP JUMPDEST PUSH1 0x40 MLOAD PUSH32 0x8C379A000000000000000000000000000000000000000000000000000000000 DUP2 MSTORE PUSH1 0x4 ADD PUSH2 0x16E4 SWAP1 PUSH2 0x2BAE JUMP JUMPDEST PUSH1 0x40 MLOAD DUP1 SWAP2 SUB SWAP1 REVERT JUMPDEST JUMPDEST JUMPDEST PUSH2 0x1A32 JUMP JUMPDEST PUSH1 0x3 DUP3 SUB PUSH2 0x1A2C JUMPI PUSH1 0x0 PUSH1 0x3 DUP2 GT ISZERO PUSH2 0x1710 JUMPI PUSH2 0x170F PUSH2 0x298D JUMP JUMPDEST JUMPDEST PUSH1 0x3 PUSH1 0x0 CALLER PUSH20 0xFFFFFFFFFFFFFFFFFFFFFFFFFFFFFFFFFFFFFFFF AND PUSH20 0xFFFFFFFFFFFFFFFFFFFFFFFFFFFFFFFFFFFFFFFF AND DUP2 MSTORE PUSH1 0x20 ADD SWAP1 DUP2 MSTORE PUSH1 0x20 ADD PUSH1 0x0 KECCAK256 PUSH1 0x0 DUP10 DUP2 MSTORE PUSH1 0x20 ADD SWAP1 DUP2 MSTORE PUSH1 0x20 ADD PUSH1 0x0 KECCAK256 DUP3 DUP2 SLOAD DUP2 LT PUSH2 0x1772 JUMPI PUSH2 0x1771 PUSH2 0x295E JUMP JUMPDEST JUMPDEST SWAP1 PUSH1 0x0 MSTORE PUSH1 0x20 PUSH1 0x0 KECCAK256 SWAP1 PUSH1 0x5 MUL ADD PUSH1 0x4 ADD PUSH1 0x2 SWAP1 SLOAD SWAP1 PUSH2 0x100 EXP SWAP1 DIV PUSH1 0xFF AND PUSH1 0x3 DUP2 GT ISZERO PUSH2 0x17A3 JUMPI PUSH2 0x17A2 PUSH2 0x298D JUMP JUMPDEST JUMPDEST SUB PUSH2 0x17F6 JUMPI PUSH1 0x40 MLOAD DUP1 PUSH1 0x40 ADD PUSH1 0x40 MSTORE DUP1 PUSH1 0xA DUP2 MSTORE PUSH1 0x20 ADD PUSH32 0x46756C6C20546869726400000000000000000000000000000000000000000000 DUP2 MSTORE POP SWAP3 POP PUSH1 0x8 PUSH1 0x2 SLOAD PUSH2 0x17EF SWAP2 SWAP1 PUSH2 0x2B31 JUMP JUMPDEST SWAP4 POP PUSH2 0x1A27 JUMP JUMPDEST PUSH1 0x1 PUSH1 0x3 DUP2 GT ISZERO PUSH2 0x180A JUMPI PUSH2 0x1809 PUSH2 0x298D JUMP JUMPDEST JUMPDEST PUSH1 0x3 PUSH1 0x0 CALLER PUSH20 0xFFFFFFFFFFFFFFFFFFFFFFFFFFFFFFFFFFFFFFFF AND PUSH20 0xFFFFFFFFFFFFFFFFFFFFFFFFFFFFFFFFFFFFFFFF AND DUP2 MSTORE PUSH1 0x20 ADD SWAP1 DUP2 MSTORE PUSH1 0x20 ADD PUSH1 0x0 KECCAK256 PUSH1 0x0 DUP10 DUP2 MSTORE PUSH1 0x20 ADD SWAP1 DUP2 MSTORE PUSH1 0x20 ADD PUSH1 0x0 KECCAK256 DUP3 DUP2 SLOAD DUP2 LT PUSH2 0x186C JUMPI PUSH2 0x186B PUSH2 0x295E JUMP JUMPDEST JUMPDEST SWAP1 PUSH1 0x0 MSTORE PUSH1 0x20 PUSH1 0x0 KECCAK256 SWAP1 PUSH1 0x5 MUL ADD PUSH1 0x4 ADD PUSH1 0x2 SWAP1 SLOAD SWAP1 PUSH2 0x100 EXP SWAP1 DIV PUSH1 0xFF AND PUSH1 0x3 DUP2 GT ISZERO PUSH2 0x189D JUMPI PUSH2 0x189C PUSH2 0x298D JUMP JUMPDEST JUMPDEST SUB PUSH2 0x18F0 JUMPI PUSH1 0x40 MLOAD DUP1 PUSH1 0x40 ADD PUSH1 0x40 MSTORE DUP1 PUSH1 0xA DUP2 MSTORE PUSH1 0x20 ADD PUSH32 0x48616C6620546869726400000000000000000000000000000000000000000000 DUP2 MSTORE POP SWAP3 POP PUSH1 0x10 PUSH1 0x2 SLOAD PUSH2 0x18E9 SWAP2 SWAP1 PUSH2 0x2B31 JUMP JUMPDEST SWAP4 POP PUSH2 0x1A26 JUMP JUMPDEST PUSH1 0x2 PUSH1 0x3 DUP2 GT ISZERO PUSH2 0x1904 JUMPI PUSH2 0x1903 PUSH2 0x298D JUMP JUMPDEST JUMPDEST PUSH1 0x3 PUSH1 0x0 CALLER PUSH20 0xFFFFFFFFFFFFFFFFFFFFFFFFFFFFFFFFFFFFFFFF AND PUSH20 0xFFFFFFFFFFFFFFFFFFFFFFFFFFFFFFFFFFFFFFFF AND DUP2 MSTORE PUSH1 0x20 ADD SWAP1 DUP2 MSTORE PUSH1 0x20 ADD PUSH1 0x0 KECCAK256 PUSH1 0x0 DUP10 DUP2 MSTORE PUSH1 0x20 ADD SWAP1 DUP2 MSTORE PUSH1 0x20 ADD PUSH1 0x0 KECCAK256 DUP3 DUP2 SLOAD DUP2 LT PUSH2 0x1966 JUMPI PUSH2 0x1965 PUSH2 0x295E JUMP JUMPDEST JUMPDEST SWAP1 PUSH1 0x0 MSTORE PUSH1 0x20 PUSH1 0x0 KECCAK256 SWAP1 PUSH1 0x5 MUL ADD PUSH1 0x4 ADD PUSH1 0x2 SWAP1 SLOAD SWAP1 PUSH2 0x100 EXP SWAP1 DIV PUSH1 0xFF AND PUSH1 0x3 DUP2 GT ISZERO PUSH2 0x1997 JUMPI PUSH2 0x1996 PUSH2 0x298D JUMP JUMPDEST JUMPDEST SUB PUSH2 0x19EA JUMPI PUSH1 0x40 MLOAD DUP1 PUSH1 0x40 ADD PUSH1 0x40 MSTORE DUP1 PUSH1 0xD DUP2 MSTORE PUSH1 0x20 ADD PUSH32 0x5175617274657220546869726400000000000000000000000000000000000000 DUP2 MSTORE POP SWAP3 POP PUSH1 0x20 PUSH1 0x2 SLOAD PUSH2 0x19E3 SWAP2 SWAP1 PUSH2 0x2B31 JUMP JUMPDEST SWAP4 POP PUSH2 0x1A25 JUMP JUMPDEST PUSH1 0x40 MLOAD PUSH32 0x8C379A000000000000000000000000000000000000000000000000000000000 DUP2 MSTORE PUSH1 0x4 ADD PUSH2 0x1A1C SWAP1 PUSH2 0x2BAE JUMP JUMPDEST PUSH1 0x40 MLOAD DUP1 SWAP2 SUB SWAP1 REVERT JUMPDEST JUMPDEST JUMPDEST PUSH2 0x1A31 JUMP JUMPDEST PUSH1 0x0 SWAP4 POP JUMPDEST JUMPDEST JUMPDEST DUP3 DUP5 SWAP6 POP SWAP6 POP POP POP POP POP SWAP3 POP SWAP3 SWAP1 POP JUMP JUMPDEST PUSH1 0x0 TIMESTAMP PUSH1 0x40 MLOAD PUSH1 0x20 ADD PUSH2 0x1A57 SWAP2 SWAP1 PUSH2 0x2BEF JUMP JUMPDEST PUSH1 0x40 MLOAD PUSH1 0x20 DUP2 DUP4 SUB SUB DUP2 MSTORE SWAP1 PUSH1 0x40 MSTORE DUP1 MLOAD SWAP1 PUSH1 0x20 ADD KECCAK256 PUSH1 0x0 SHR SWAP1 POP SWAP1 JUMP JUMPDEST PUSH1 0x4 PUSH1 0x20 MSTORE DUP1 PUSH1 0x0 MSTORE PUSH1 0x40 PUSH1 0x0 KECCAK256 PUSH1 0x0 SWAP2 POP SWAP1 POP SLOAD DUP2 JUMP JUMPDEST PUSH1 0x0 DUP1 PUSH1 0x0 PUSH1 0x5 PUSH1 0x0 DUP6 DUP2 MSTORE PUSH1 0x20 ADD SWAP1 DUP2 MSTORE PUSH1 0x20 ADD PUSH1 0x0 KECCAK256 PUSH1 0x2 ADD DUP6 DUP2 SLOAD DUP2 LT PUSH2 0x1ABA JUMPI PUSH2 0x1AB9 PUSH2 0x295E JUMP JUMPDEST JUMPDEST SWAP1 PUSH1 0x0 MSTORE PUSH1 0x20 PUSH1 0x0 KECCAK256 ADD SLOAD SWAP1 POP PUSH1 0x5 PUSH1 0x0 DUP6 DUP2 MSTORE PUSH1 0x20 ADD SWAP1 DUP2 MSTORE PUSH1 0x20 ADD PUSH1 0x0 KECCAK256 PUSH1 0x3 ADD DUP2 DUP2 SLOAD DUP2 LT PUSH2 0x1AEF JUMPI PUSH2 0x1AEE PUSH2 0x295E JUMP JUMPDEST JUMPDEST SWAP1 PUSH1 0x0 MSTORE PUSH1 0x20 PUSH1 0x0 KECCAK256 ADD SLOAD SWAP3 POP PUSH2 0x1B05 DUP4 PUSH2 0xB53 JUMP JUMPDEST SWAP1 POP DUP1 SWAP2 POP POP PUSH2 0x1B15 DUP6 DUP6 PUSH2 0x1007 JUMP JUMPDEST SWAP1 POP DUP1 SWAP3 POP POP PUSH32 0x9CCBEA8ACDA54BC998251706A6D0054E0A880C3F38E70C8EAF6BD9B383C99DAD DUP4 DUP4 PUSH1 0x40 MLOAD PUSH2 0x1B4C SWAP3 SWAP2 SWAP1 PUSH2 0x26A7 JUMP JUMPDEST PUSH1 0x40 MLOAD DUP1 SWAP2 SUB SWAP1 LOG1 POP SWAP3 POP SWAP3 SWAP1 POP JUMP JUMPDEST PUSH1 0x0 PUSH2 0x1B66 PUSH2 0x21F7 JUMP JUMPDEST SWAP1 POP PUSH1 0x3 DUP2 LT PUSH2 0x1BB4 JUMPI PUSH1 0x3 PUSH1 0x5 PUSH1 0x0 PUSH1 0x2 DUP5 PUSH2 0x1B83 SWAP2 SWAP1 PUSH2 0x292A JUMP JUMPDEST DUP2 MSTORE PUSH1 0x20 ADD SWAP1 DUP2 MSTORE PUSH1 0x20 ADD PUSH1 0x0 KECCAK256 PUSH1 0x2 ADD DUP1 SLOAD SWAP1 POP EQ PUSH2 0x1BB3 JUMPI PUSH2 0x1BB2 PUSH1 0x2 DUP3 PUSH2 0x1BAD SWAP2 SWAP1 PUSH2 0x292A JUMP JUMPDEST PUSH2 0x2237 JUMP JUMPDEST JUMPDEST JUMPDEST PUSH1 0x0 PUSH1 0x1 DUP4 EQ DUP1 PUSH2 0x1BC5 JUMPI POP PUSH1 0x2 DUP4 EQ JUMPDEST DUP1 PUSH2 0x1BD0 JUMPI POP PUSH1 0x3 DUP4 EQ JUMPDEST PUSH2 0x1C0F JUMPI PUSH1 0x40 MLOAD PUSH32 0x8C379A000000000000000000000000000000000000000000000000000000000 DUP2 MSTORE PUSH1 0x4 ADD PUSH2 0x1C06 SWAP1 PUSH2 0x2C56 JUMP JUMPDEST PUSH1 0x40 MLOAD DUP1 SWAP2 SUB SWAP1 REVERT JUMPDEST PUSH1 0x1 PUSH1 0x0 DUP1 DUP3 DUP3 SLOAD PUSH2 0x1C21 SWAP2 SWAP1 PUSH2 0x28F6 JUMP JUMPDEST SWAP3 POP POP DUP2 SWAP1 SSTORE POP PUSH1 0x1 DUP4 SUB PUSH2 0x1C39 JUMPI PUSH1 0x0 SWAP1 POP PUSH2 0x1C59 JUMP JUMPDEST PUSH1 0x2 DUP4 SUB PUSH2 0x1C4A JUMPI PUSH1 0x1 SWAP1 POP PUSH2 0x1C58 JUMP JUMPDEST PUSH1 0x3 DUP4 SUB PUSH2 0x1C57 JUMPI PUSH1 0x2 SWAP1 POP JUMPDEST JUMPDEST JUMPDEST PUSH1 0x3 PUSH1 0x0 CALLER PUSH20 0xFFFFFFFFFFFFFFFFFFFFFFFFFFFFFFFFFFFFFFFF AND PUSH20 0xFFFFFFFFFFFFFFFFFFFFFFFFFFFFFFFFFFFFFFFF AND DUP2 MSTORE PUSH1 0x20 ADD SWAP1 DUP2 MSTORE PUSH1 0x20 ADD PUSH1 0x0 KECCAK256 PUSH1 0x0 DUP4 DUP2 MSTORE PUSH1 0x20 ADD SWAP1 DUP2 MSTORE PUSH1 0x20 ADD PUSH1 0x0 KECCAK256 PUSH1 0x40 MLOAD DUP1 PUSH1 0xE0 ADD PUSH1 0x40 MSTORE DUP1 PUSH1 0x0 SLOAD DUP2 MSTORE PUSH1 0x20 ADD DUP5 DUP2 MSTORE PUSH1 0x20 ADD DUP7 DUP2 MSTORE PUSH1 0x20 ADD TIMESTAMP DUP2 MSTORE PUSH1 0x20 ADD PUSH1 0x0 PUSH1 0xFF AND DUP2 MSTORE PUSH1 0x20 ADD PUSH1 0x1 ISZERO ISZERO DUP2 MSTORE PUSH1 0x20 ADD DUP4 PUSH1 0x3 DUP2 GT ISZERO PUSH2 0x1CF4 JUMPI PUSH2 0x1CF3 PUSH2 0x298D JUMP JUMPDEST JUMPDEST DUP2 MSTORE POP SWAP1 DUP1 PUSH1 0x1 DUP2 SLOAD ADD DUP1 DUP3 SSTORE DUP1 SWAP2 POP POP PUSH1 0x1 SWAP1 SUB SWAP1 PUSH1 0x0 MSTORE PUSH1 0x20 PUSH1 0x0 KECCAK256 SWAP1 PUSH1 0x5 MUL ADD PUSH1 0x0 SWAP1 SWAP2 SWAP1 SWAP2 SWAP1 SWAP2 POP PUSH1 0x0 DUP3 ADD MLOAD DUP2 PUSH1 0x0 ADD SSTORE PUSH1 0x20 DUP3 ADD MLOAD DUP2 PUSH1 0x1 ADD SSTORE PUSH1 0x40 DUP3 ADD MLOAD DUP2 PUSH1 0x2 ADD SSTORE PUSH1 0x60 DUP3 ADD MLOAD DUP2 PUSH1 0x3 ADD SSTORE PUSH1 0x80 DUP3 ADD MLOAD DUP2 PUSH1 0x4 ADD PUSH1 0x0 PUSH2 0x100 EXP DUP2 SLOAD DUP2 PUSH1 0xFF MUL NOT AND SWAP1 DUP4 PUSH1 0xFF AND MUL OR SWAP1 SSTORE POP PUSH1 0xA0 DUP3 ADD MLOAD DUP2 PUSH1 0x4 ADD PUSH1 0x1 PUSH2 0x100 EXP DUP2 SLOAD DUP2 PUSH1 0xFF MUL NOT AND SWAP1 DUP4 ISZERO ISZERO MUL OR SWAP1 SSTORE POP PUSH1 0xC0 DUP3 ADD MLOAD DUP2 PUSH1 0x4 ADD PUSH1 0x2 PUSH2 0x100 EXP DUP2 SLOAD DUP2 PUSH1 0xFF MUL NOT AND SWAP1 DUP4 PUSH1 0x3 DUP2 GT ISZERO PUSH2 0x1DB4 JUMPI PUSH2 0x1DB3 PUSH2 0x298D JUMP JUMPDEST JUMPDEST MUL OR SWAP1 SSTORE POP POP POP PUSH2 0x1DC4 DUP2 PUSH2 0x839 JUMP JUMPDEST PUSH1 0x2 PUSH1 0x0 DUP3 DUP3 SLOAD PUSH2 0x1DD5 SWAP2 SWAP1 PUSH2 0x28F6 JUMP JUMPDEST SWAP3 POP POP DUP2 SWAP1 SSTORE POP PUSH1 0x5 PUSH1 0x0 DUP4 DUP2 MSTORE PUSH1 0x20 ADD SWAP1 DUP2 MSTORE PUSH1 0x20 ADD PUSH1 0x0 KECCAK256 PUSH1 0x3 ADD PUSH1 0x0 SLOAD SWAP1 DUP1 PUSH1 0x1 DUP2 SLOAD ADD DUP1 DUP3 SSTORE DUP1 SWAP2 POP POP PUSH1 0x1 SWAP1 SUB SWAP1 PUSH1 0x0 MSTORE PUSH1 0x20 PUSH1 0x0 KECCAK256 ADD PUSH1 0x0 SWAP1 SWAP2 SWAP1 SWAP2 SWAP1 SWAP2 POP SSTORE PUSH2 0x1E24 DUP2 PUSH2 0x839 JUMP JUMPDEST PUSH1 0x6 PUSH1 0x0 DUP5 DUP2 MSTORE PUSH1 0x20 ADD SWAP1 DUP2 MSTORE PUSH1 0x20 ADD PUSH1 0x0 KECCAK256 PUSH1 0x0 DUP3 DUP3 SLOAD PUSH2 0x1E46 SWAP2 SWAP1 PUSH2 0x28F6 JUMP JUMPDEST SWAP3 POP POP DUP2 SWAP1 SSTORE POP POP POP POP POP JUMP JUMPDEST PUSH1 0x0 DUP1 PUSH2 0x1E5F DUP4 PUSH2 0xB53 JUMP JUMPDEST SWAP2 POP SWAP2 POP PUSH32 0xBCE7D9C77B584A77086D92F0E16950470C847BCA6700CD4D91240C581F5A611A PUSH1 0x3 PUSH1 0x0 CALLER PUSH20 0xFFFFFFFFFFFFFFFFFFFFFFFFFFFFFFFFFFFFFFFF AND PUSH20 0xFFFFFFFFFFFFFFFFFFFFFFFFFFFFFFFFFFFFFFFF AND DUP2 MSTORE PUSH1 0x20 ADD SWAP1 DUP2 MSTORE PUSH1 0x20 ADD PUSH1 0x0 KECCAK256 PUSH1 0x0 DUP5 DUP2 MSTORE PUSH1 0x20 ADD SWAP1 DUP2 MSTORE PUSH1 0x20 ADD PUSH1 0x0 KECCAK256 DUP3 DUP2 SLOAD DUP2 LT PUSH2 0x1EE6 JUMPI PUSH2 0x1EE5 PUSH2 0x295E JUMP JUMPDEST JUMPDEST SWAP1 PUSH1 0x0 MSTORE PUSH1 0x20 PUSH1 0x0 KECCAK256 SWAP1 PUSH1 0x5 MUL ADD PUSH1 0x0 ADD SLOAD PUSH1 0x3 PUSH1 0x0 CALLER PUSH20 0xFFFFFFFFFFFFFFFFFFFFFFFFFFFFFFFFFFFFFFFF AND PUSH20 0xFFFFFFFFFFFFFFFFFFFFFFFFFFFFFFFFFFFFFFFF AND DUP2 MSTORE PUSH1 0x20 ADD SWAP1 DUP2 MSTORE PUSH1 0x20 ADD PUSH1 0x0 KECCAK256 PUSH1 0x0 DUP6 DUP2 MSTORE PUSH1 0x20 ADD SWAP1 DUP2 MSTORE PUSH1 0x20 ADD PUSH1 0x0 KECCAK256 DUP4 DUP2 SLOAD DUP2 LT PUSH2 0x1F5A JUMPI PUSH2 0x1F59 PUSH2 0x295E JUMP JUMPDEST JUMPDEST SWAP1 PUSH1 0x0 MSTORE PUSH1 0x20 PUSH1 0x0 KECCAK256 SWAP1 PUSH1 0x5 MUL ADD PUSH1 0x1 ADD SLOAD PUSH1 0x3 PUSH1 0x0 CALLER PUSH20 0xFFFFFFFFFFFFFFFFFFFFFFFFFFFFFFFFFFFFFFFF AND PUSH20 0xFFFFFFFFFFFFFFFFFFFFFFFFFFFFFFFFFFFFFFFF AND DUP2 MSTORE PUSH1 0x20 ADD SWAP1 DUP2 MSTORE PUSH1 0x20 ADD PUSH1 0x0 KECCAK256 PUSH1 0x0 DUP7 DUP2 MSTORE PUSH1 0x20 ADD SWAP1 DUP2 MSTORE PUSH1 0x20 ADD PUSH1 0x0 KECCAK256 DUP5 DUP2 SLOAD DUP2 LT PUSH2 0x1FCE JUMPI PUSH2 0x1FCD PUSH2 0x295E JUMP JUMPDEST JUMPDEST SWAP1 PUSH1 0x0 MSTORE PUSH1 0x20 PUSH1 0x0 KECCAK256 SWAP1 PUSH1 0x5 MUL ADD PUSH1 0x2 ADD SLOAD PUSH1 0x3 PUSH1 0x0 CALLER PUSH20 0xFFFFFFFFFFFFFFFFFFFFFFFFFFFFFFFFFFFFFFFF AND PUSH20 0xFFFFFFFFFFFFFFFFFFFFFFFFFFFFFFFFFFFFFFFF AND DUP2 MSTORE PUSH1 0x20 ADD SWAP1 DUP2 MSTORE PUSH1 0x20 ADD PUSH1 0x0 KECCAK256 PUSH1 0x0 DUP8 DUP2 MSTORE PUSH1 0x20 ADD SWAP1 DUP2 MSTORE PUSH1 0x20 ADD PUSH1 0x0 KECCAK256 DUP6 DUP2 SLOAD DUP2 LT PUSH2 0x2042 JUMPI PUSH2 0x2041 PUSH2 0x295E JUMP JUMPDEST JUMPDEST SWAP1 PUSH1 0x0 MSTORE PUSH1 0x20 PUSH1 0x0 KECCAK256 SWAP1 PUSH1 0x5 MUL ADD PUSH1 0x3 ADD SLOAD PUSH1 0x3 PUSH1 0x0 CALLER PUSH20 0xFFFFFFFFFFFFFFFFFFFFFFFFFFFFFFFFFFFFFFFF AND PUSH20 0xFFFFFFFFFFFFFFFFFFFFFFFFFFFFFFFFFFFFFFFF AND DUP2 MSTORE PUSH1 0x20 ADD SWAP1 DUP2 MSTORE PUSH1 0x20 ADD PUSH1 0x0 KECCAK256 PUSH1 0x0 DUP9 DUP2 MSTORE PUSH1 0x20 ADD SWAP1 DUP2 MSTORE PUSH1 0x20 ADD PUSH1 0x0 KECCAK256 DUP7 DUP2 SLOAD DUP2 LT PUSH2 0x20B6 JUMPI PUSH2 0x20B5 PUSH2 0x295E JUMP JUMPDEST JUMPDEST SWAP1 PUSH1 0x0 MSTORE PUSH1 0x20 PUSH1 0x0 KECCAK256 SWAP1 PUSH1 0x5 MUL ADD PUSH1 0x4 ADD PUSH1 0x0 SWAP1 SLOAD SWAP1 PUSH2 0x100 EXP SWAP1 DIV PUSH1 0xFF AND PUSH1 0x3 PUSH1 0x0 CALLER PUSH20 0xFFFFFFFFFFFFFFFFFFFFFFFFFFFFFFFFFFFFFFFF AND PUSH20 0xFFFFFFFFFFFFFFFFFFFFFFFFFFFFFFFFFFFFFFFF AND DUP2 MSTORE PUSH1 0x20 ADD SWAP1 DUP2 MSTORE PUSH1 0x20 ADD PUSH1 0x0 KECCAK256 PUSH1 0x0 DUP10 DUP2 MSTORE PUSH1 0x20 ADD SWAP1 DUP2 MSTORE PUSH1 0x20 ADD PUSH1 0x0 KECCAK256 DUP8 DUP2 SLOAD DUP2 LT PUSH2 0x2137 JUMPI PUSH2 0x2136 PUSH2 0x295E JUMP JUMPDEST JUMPDEST SWAP1 PUSH1 0x0 MSTORE PUSH1 0x20 PUSH1 0x0 KECCAK256 SWAP1 PUSH1 0x5 MUL ADD PUSH1 0x4 ADD PUSH1 0x1 SWAP1 SLOAD SWAP1 PUSH2 0x100 EXP SWAP1 DIV PUSH1 0xFF AND PUSH1 0x3 PUSH1 0x0 CALLER PUSH20 0xFFFFFFFFFFFFFFFFFFFFFFFFFFFFFFFFFFFFFFFF AND PUSH20 0xFFFFFFFFFFFFFFFFFFFFFFFFFFFFFFFFFFFFFFFF AND DUP2 MSTORE PUSH1 0x20 ADD SWAP1 DUP2 MSTORE PUSH1 0x20 ADD PUSH1 0x0 KECCAK256 PUSH1 0x0 DUP11 DUP2 MSTORE PUSH1 0x20 ADD SWAP1 DUP2 MSTORE PUSH1 0x20 ADD PUSH1 0x0 KECCAK256 DUP9 DUP2 SLOAD DUP2 LT PUSH2 0x21B8 JUMPI PUSH2 0x21B7 PUSH2 0x295E JUMP JUMPDEST JUMPDEST SWAP1 PUSH1 0x0 MSTORE PUSH1 0x20 PUSH1 0x0 KECCAK256 SWAP1 PUSH1 0x5 MUL ADD PUSH1 0x4 ADD PUSH1 0x2 SWAP1 SLOAD SWAP1 PUSH2 0x100 EXP SWAP1 DIV PUSH1 0xFF AND PUSH1 0x40 MLOAD PUSH2 0x21EA SWAP8 SWAP7 SWAP6 SWAP5 SWAP4 SWAP3 SWAP2 SWAP1 PUSH2 0x2CE8 JUMP JUMPDEST PUSH1 0x40 MLOAD DUP1 SWAP2 SUB SWAP1 LOG1 POP POP POP JUMP JUMPDEST PUSH1 0x0 DUP1 TIMESTAMP SWAP1 POP PUSH1 0x0 PUSH1 0x1 SLOAD DUP3 PUSH2 0x220D SWAP2 SWAP1 PUSH2 0x292A JUMP JUMPDEST SWAP1 POP PUSH1 0x0 PUSH1 0x1 PUSH3 0x93A80 DUP4 PUSH2 0x2222 SWAP2 SWAP1 PUSH2 0x2B31 JUMP JUMPDEST PUSH2 0x222C SWAP2 SWAP1 PUSH2 0x28F6 JUMP JUMPDEST SWAP1 POP DUP1 SWAP4 POP POP POP POP SWAP1 JUMP JUMPDEST PUSH1 0x3 PUSH1 0x5 PUSH1 0x0 DUP4 DUP2 MSTORE PUSH1 0x20 ADD SWAP1 DUP2 MSTORE PUSH1 0x20 ADD PUSH1 0x0 KECCAK256 PUSH1 0x3 ADD DUP1 SLOAD SWAP1 POP GT PUSH2 0x2293 JUMPI PUSH1 0x40 MLOAD PUSH32 0x8C379A000000000000000000000000000000000000000000000000000000000 DUP2 MSTORE PUSH1 0x4 ADD PUSH2 0x228A SWAP1 PUSH2 0x2DA3 JUMP JUMPDEST PUSH1 0x40 MLOAD DUP1 SWAP2 SUB SWAP1 REVERT JUMPDEST PUSH1 0x0 PUSH1 0x5 PUSH1 0x0 DUP4 DUP2 MSTORE PUSH1 0x20 ADD SWAP1 DUP2 MSTORE PUSH1 0x20 ADD PUSH1 0x0 KECCAK256 PUSH1 0x3 ADD DUP1 SLOAD SWAP1 POP SWAP1 POP PUSH1 0x0 PUSH1 0x5 PUSH1 0x0 DUP5 DUP2 MSTORE PUSH1 0x20 ADD SWAP1 DUP2 MSTORE PUSH1 0x20 ADD PUSH1 0x0 KECCAK256 PUSH1 0x3 ADD DUP1 SLOAD SWAP1 POP PUSH2 0x22D5 PUSH2 0x1A44 JUMP JUMPDEST PUSH2 0x22DF SWAP2 SWAP1 PUSH2 0x2DC3 JUMP JUMPDEST SWAP1 POP PUSH1 0x0 PUSH1 0x5 PUSH1 0x0 DUP6 DUP2 MSTORE PUSH1 0x20 ADD SWAP1 DUP2 MSTORE PUSH1 0x20 ADD PUSH1 0x0 KECCAK256 PUSH1 0x3 ADD DUP1 SLOAD SWAP1 POP PUSH2 0x2305 PUSH2 0x1A44 JUMP JUMPDEST PUSH2 0x230F SWAP2 SWAP1 PUSH2 0x2DC3 JUMP JUMPDEST SWAP1 POP PUSH1 0x0 PUSH1 0x5 PUSH1 0x0 DUP7 DUP2 MSTORE PUSH1 0x20 ADD SWAP1 DUP2 MSTORE PUSH1 0x20 ADD PUSH1 0x0 KECCAK256 PUSH1 0x3 ADD DUP1 SLOAD SWAP1 POP PUSH2 0x2335 PUSH2 0x1A44 JUMP JUMPDEST PUSH2 0x233F SWAP2 SWAP1 PUSH2 0x2DC3 JUMP JUMPDEST SWAP1 POP JUMPDEST DUP2 DUP4 EQ DUP1 PUSH2 0x234F JUMPI POP DUP1 DUP3 EQ JUMPDEST DUP1 PUSH2 0x2359 JUMPI POP DUP1 DUP4 EQ JUMPDEST ISZERO PUSH2 0x24C0 JUMPI DUP2 DUP4 SUB PUSH2 0x2396 JUMPI PUSH1 0x1 DUP5 PUSH2 0x2372 SWAP2 SWAP1 PUSH2 0x292A JUMP JUMPDEST DUP4 EQ PUSH2 0x238C JUMPI PUSH1 0x1 DUP3 PUSH2 0x2385 SWAP2 SWAP1 PUSH2 0x28F6 JUMP JUMPDEST SWAP3 POP PUSH2 0x2391 JUMP JUMPDEST PUSH1 0x0 SWAP3 POP JUMPDEST PUSH2 0x2404 JUMP JUMPDEST DUP1 DUP3 SUB PUSH2 0x23CE JUMPI PUSH1 0x1 DUP5 PUSH2 0x23AA SWAP2 SWAP1 PUSH2 0x292A JUMP JUMPDEST DUP3 EQ PUSH2 0x23C4 JUMPI PUSH1 0x1 DUP2 PUSH2 0x23BD SWAP2 SWAP1 PUSH2 0x28F6 JUMP JUMPDEST SWAP2 POP PUSH2 0x23C9 JUMP JUMPDEST PUSH1 0x0 SWAP2 POP JUMPDEST PUSH2 0x2403 JUMP JUMPDEST DUP1 DUP4 SUB PUSH2 0x2402 JUMPI PUSH1 0x1 DUP5 PUSH2 0x23E2 SWAP2 SWAP1 PUSH2 0x292A JUMP JUMPDEST DUP4 EQ PUSH2 0x23FC JUMPI PUSH1 0x1 DUP2 PUSH2 0x23F5 SWAP2 SWAP1 PUSH2 0x28F6 JUMP JUMPDEST SWAP3 POP PUSH2 0x2401 JUMP JUMPDEST PUSH1 0x0 SWAP3 POP JUMPDEST JUMPDEST JUMPDEST JUMPDEST PUSH1 0x5 PUSH1 0x0 DUP7 DUP2 MSTORE PUSH1 0x20 ADD SWAP1 DUP2 MSTORE PUSH1 0x20 ADD PUSH1 0x0 KECCAK256 PUSH1 0x2 ADD DUP4 SWAP1 DUP1 PUSH1 0x1 DUP2 SLOAD ADD DUP1 DUP3 SSTORE DUP1 SWAP2 POP POP PUSH1 0x1 SWAP1 SUB SWAP1 PUSH1 0x0 MSTORE PUSH1 0x20 PUSH1 0x0 KECCAK256 ADD PUSH1 0x0 SWAP1 SWAP2 SWAP1 SWAP2 SWAP1 SWAP2 POP SSTORE PUSH1 0x5 PUSH1 0x0 DUP7 DUP2 MSTORE PUSH1 0x20 ADD SWAP1 DUP2 MSTORE PUSH1 0x20 ADD PUSH1 0x0 KECCAK256 PUSH1 0x2 ADD DUP3 SWAP1 DUP1 PUSH1 0x1 DUP2 SLOAD ADD DUP1 DUP3 SSTORE DUP1 SWAP2 POP POP PUSH1 0x1 SWAP1 SUB SWAP1 PUSH1 0x0 MSTORE PUSH1 0x20 PUSH1 0x0 KECCAK256 ADD PUSH1 0x0 SWAP1 SWAP2 SWAP1 SWAP2 SWAP1 SWAP2 POP SSTORE PUSH1 0x5 PUSH1 0x0 DUP7 DUP2 MSTORE PUSH1 0x20 ADD SWAP1 DUP2 MSTORE PUSH1 0x20 ADD PUSH1 0x0 KECCAK256 PUSH1 0x2 ADD DUP2 SWAP1 DUP1 PUSH1 0x1 DUP2 SLOAD ADD DUP1 DUP3 SSTORE DUP1 SWAP2 POP POP PUSH1 0x1 SWAP1 SUB SWAP1 PUSH1 0x0 MSTORE PUSH1 0x20 PUSH1 0x0 KECCAK256 ADD PUSH1 0x0 SWAP1 SWAP2 SWAP1 SWAP2 SWAP1 SWAP2 POP SSTORE PUSH2 0x2342 JUMP JUMPDEST PUSH2 0x24C9 DUP6 PUSH2 0x4A9 JUMP JUMPDEST PUSH1 0x7 PUSH1 0x0 DUP8 DUP2 MSTORE PUSH1 0x20 ADD SWAP1 DUP2 MSTORE PUSH1 0x20 ADD PUSH1 0x0 KECCAK256 DUP2 SWAP1 SSTORE POP POP POP POP POP POP JUMP JUMPDEST PUSH1 0x40 MLOAD DUP1 PUSH1 0xE0 ADD PUSH1 0x40 MSTORE DUP1 PUSH1 0x0 DUP2 MSTORE PUSH1 0x20 ADD PUSH1 0x0 DUP2 MSTORE PUSH1 0x20 ADD PUSH1 0x0 DUP1 NOT AND DUP2 MSTORE PUSH1 0x20 ADD PUSH1 0x0 DUP2 MSTORE PUSH1 0x20 ADD PUSH1 0x0 PUSH1 0xFF AND DUP2 MSTORE PUSH1 0x20 ADD PUSH1 0x0 ISZERO ISZERO DUP2 MSTORE PUSH1 0x20 ADD PUSH1 0x0 PUSH1 0x3 DUP2 GT ISZERO PUSH2 0x2538 JUMPI PUSH2 0x2537 PUSH2 0x298D JUMP JUMPDEST JUMPDEST DUP2 MSTORE POP SWAP1 JUMP JUMPDEST PUSH1 0x0 DUP1 REVERT JUMPDEST PUSH1 0x0 DUP2 SWAP1 POP SWAP2 SWAP1 POP JUMP JUMPDEST PUSH2 0x2556 DUP2 PUSH2 0x2543 JUMP JUMPDEST DUP2 EQ PUSH2 0x2561 JUMPI PUSH1 0x0 DUP1 REVERT JUMPDEST POP JUMP JUMPDEST PUSH1 0x0 DUP2 CALLDATALOAD SWAP1 POP PUSH2 0x2573 DUP2 PUSH2 0x254D JUMP JUMPDEST SWAP3 SWAP2 POP POP JUMP JUMPDEST PUSH1 0x0 PUSH1 0x20 DUP3 DUP5 SUB SLT ISZERO PUSH2 0x258F JUMPI PUSH2 0x258E PUSH2 0x253E JUMP JUMPDEST JUMPDEST PUSH1 0x0 PUSH2 0x259D DUP5 DUP3 DUP6 ADD PUSH2 0x2564 JUMP JUMPDEST SWAP2 POP POP SWAP3 SWAP2 POP POP JUMP JUMPDEST PUSH2 0x25AF DUP2 PUSH2 0x2543 JUMP JUMPDEST DUP3 MSTORE POP POP JUMP JUMPDEST PUSH1 0x0 PUSH1 0x20 DUP3 ADD SWAP1 POP PUSH2 0x25CA PUSH1 0x0 DUP4 ADD DUP5 PUSH2 0x25A6 JUMP JUMPDEST SWAP3 SWAP2 POP POP JUMP JUMPDEST PUSH1 0x0 PUSH1 0xFF DUP3 AND SWAP1 POP SWAP2 SWAP1 POP JUMP JUMPDEST PUSH2 0x25E6 DUP2 PUSH2 0x25D0 JUMP JUMPDEST DUP3 MSTORE POP POP JUMP JUMPDEST PUSH1 0x0 PUSH1 0x40 DUP3 ADD SWAP1 POP PUSH2 0x2601 PUSH1 0x0 DUP4 ADD DUP6 PUSH2 0x25A6 JUMP JUMPDEST PUSH2 0x260E PUSH1 0x20 DUP4 ADD DUP5 PUSH2 0x25DD JUMP JUMPDEST SWAP4 SWAP3 POP POP POP JUMP JUMPDEST PUSH1 0x4 DUP2 LT PUSH2 0x2622 JUMPI PUSH1 0x0 DUP1 REVERT JUMPDEST POP JUMP JUMPDEST PUSH1 0x0 DUP2 CALLDATALOAD SWAP1 POP PUSH2 0x2634 DUP2 PUSH2 0x2615 JUMP JUMPDEST SWAP3 SWAP2 POP POP JUMP JUMPDEST PUSH1 0x0 PUSH1 0x20 DUP3 DUP5 SUB SLT ISZERO PUSH2 0x2650 JUMPI PUSH2 0x264F PUSH2 0x253E JUMP JUMPDEST JUMPDEST PUSH1 0x0 PUSH2 0x265E DUP5 DUP3 DUP6 ADD PUSH2 0x2625 JUMP JUMPDEST SWAP2 POP POP SWAP3 SWAP2 POP POP JUMP JUMPDEST PUSH1 0x0 DUP1 PUSH1 0x40 DUP4 DUP6 SUB SLT ISZERO PUSH2 0x267E JUMPI PUSH2 0x267D PUSH2 0x253E JUMP JUMPDEST JUMPDEST PUSH1 0x0 PUSH2 0x268C DUP6 DUP3 DUP7 ADD PUSH2 0x2564 JUMP JUMPDEST SWAP3 POP POP PUSH1 0x20 PUSH2 0x269D DUP6 DUP3 DUP7 ADD PUSH2 0x2564 JUMP JUMPDEST SWAP2 POP POP SWAP3 POP SWAP3 SWAP1 POP JUMP JUMPDEST PUSH1 0x0 PUSH1 0x40 DUP3 ADD SWAP1 POP PUSH2 0x26BC PUSH1 0x0 DUP4 ADD DUP6 PUSH2 0x25A6 JUMP JUMPDEST PUSH2 0x26C9 PUSH1 0x20 DUP4 ADD DUP5 PUSH2 0x25A6 JUMP JUMPDEST SWAP4 SWAP3 POP POP POP JUMP JUMPDEST PUSH1 0x0 DUP2 MLOAD SWAP1 POP SWAP2 SWAP1 POP JUMP JUMPDEST PUSH1 0x0 DUP3 DUP3 MSTORE PUSH1 0x20 DUP3 ADD SWAP1 POP SWAP3 SWAP2 POP POP JUMP JUMPDEST PUSH1 0x0 JUMPDEST DUP4 DUP2 LT ISZERO PUSH2 0x270A JUMPI DUP1 DUP3 ADD MLOAD DUP2 DUP5 ADD MSTORE PUSH1 0x20 DUP2 ADD SWAP1 POP PUSH2 0x26EF JUMP JUMPDEST PUSH1 0x0 DUP5 DUP5 ADD MSTORE POP POP POP POP JUMP JUMPDEST PUSH1 0x0 PUSH1 0x1F NOT PUSH1 0x1F DUP4 ADD AND SWAP1 POP SWAP2 SWAP1 POP JUMP JUMPDEST PUSH1 0x0 PUSH2 0x2732 DUP3 PUSH2 0x26D0 JUMP JUMPDEST PUSH2 0x273C DUP2 DUP6 PUSH2 0x26DB JUMP JUMPDEST SWAP4 POP PUSH2 0x274C DUP2 DUP6 PUSH1 0x20 DUP7 ADD PUSH2 0x26EC JUMP JUMPDEST PUSH2 0x2755 DUP2 PUSH2 0x2716 JUMP JUMPDEST DUP5 ADD SWAP2 POP POP SWAP3 SWAP2 POP POP JUMP JUMPDEST PUSH1 0x0 PUSH1 0x40 DUP3 ADD SWAP1 POP DUP2 DUP2 SUB PUSH1 0x0 DUP4 ADD MSTORE PUSH2 0x277A DUP2 DUP6 PUSH2 0x2727 JUMP JUMPDEST SWAP1 POP PUSH2 0x2789 PUSH1 0x20 DUP4 ADD DUP5 PUSH2 0x25A6 JUMP JUMPDEST SWAP4 SWAP3 POP POP POP JUMP JUMPDEST PUSH1 0x0 PUSH20 0xFFFFFFFFFFFFFFFFFFFFFFFFFFFFFFFFFFFFFFFF DUP3 AND SWAP1 POP SWAP2 SWAP1 POP JUMP JUMPDEST PUSH1 0x0 PUSH2 0x27BB DUP3 PUSH2 0x2790 JUMP JUMPDEST SWAP1 POP SWAP2 SWAP1 POP JUMP JUMPDEST PUSH2 0x27CB DUP2 PUSH2 0x27B0 JUMP JUMPDEST DUP2 EQ PUSH2 0x27D6 JUMPI PUSH1 0x0 DUP1 REVERT JUMPDEST POP JUMP JUMPDEST PUSH1 0x0 DUP2 CALLDATALOAD SWAP1 POP PUSH2 0x27E8 DUP2 PUSH2 0x27C2 JUMP JUMPDEST SWAP3 SWAP2 POP POP JUMP JUMPDEST PUSH1 0x0 PUSH1 0x20 DUP3 DUP5 SUB SLT ISZERO PUSH2 0x2804 JUMPI PUSH2 0x2803 PUSH2 0x253E JUMP JUMPDEST JUMPDEST PUSH1 0x0 PUSH2 0x2812 DUP5 DUP3 DUP6 ADD PUSH2 0x27D9 JUMP JUMPDEST SWAP2 POP POP SWAP3 SWAP2 POP POP JUMP JUMPDEST PUSH1 0x0 DUP2 SWAP1 POP SWAP2 SWAP1 POP JUMP JUMPDEST PUSH2 0x282E DUP2 PUSH2 0x281B JUMP JUMPDEST DUP2 EQ PUSH2 0x2839 JUMPI PUSH1 0x0 DUP1 REVERT JUMPDEST POP JUMP JUMPDEST PUSH1 0x0 DUP2 CALLDATALOAD SWAP1 POP PUSH2 0x284B DUP2 PUSH2 0x2825 JUMP JUMPDEST SWAP3 SWAP2 POP POP JUMP JUMPDEST PUSH1 0x0 DUP2 SWAP1 POP SWAP2 SWAP1 POP JUMP JUMPDEST PUSH2 0x2864 DUP2 PUSH2 0x2851 JUMP JUMPDEST DUP2 EQ PUSH2 0x286F JUMPI PUSH1 0x0 DUP1 REVERT JUMPDEST POP JUMP JUMPDEST PUSH1 0x0 DUP2 CALLDATALOAD SWAP1 POP PUSH2 0x2881 DUP2 PUSH2 0x285B JUMP JUMPDEST SWAP3 SWAP2 POP POP JUMP JUMPDEST PUSH1 0x0 DUP1 PUSH1 0x40 DUP4 DUP6 SUB SLT ISZERO PUSH2 0x289E JUMPI PUSH2 0x289D PUSH2 0x253E JUMP JUMPDEST JUMPDEST PUSH1 0x0 PUSH2 0x28AC DUP6 DUP3 DUP7 ADD PUSH2 0x283C JUMP JUMPDEST SWAP3 POP POP PUSH1 0x20 PUSH2 0x28BD DUP6 DUP3 DUP7 ADD PUSH2 0x2872 JUMP JUMPDEST SWAP2 POP POP SWAP3 POP SWAP3 SWAP1 POP JUMP JUMPDEST PUSH32 0x4E487B7100000000000000000000000000000000000000000000000000000000 PUSH1 0x0 MSTORE PUSH1 0x11 PUSH1 0x4 MSTORE PUSH1 0x24 PUSH1 0x0 REVERT JUMPDEST PUSH1 0x0 PUSH2 0x2901 DUP3 PUSH2 0x2543 JUMP JUMPDEST SWAP2 POP PUSH2 0x290C DUP4 PUSH2 0x2543 JUMP JUMPDEST SWAP3 POP DUP3 DUP3 ADD SWAP1 POP DUP1 DUP3 GT ISZERO PUSH2 0x2924 JUMPI PUSH2 0x2923 PUSH2 0x28C7 JUMP JUMPDEST JUMPDEST SWAP3 SWAP2 POP POP JUMP JUMPDEST PUSH1 0x0 PUSH2 0x2935 DUP3 PUSH2 0x2543 JUMP JUMPDEST SWAP2 POP PUSH2 0x2940 DUP4 PUSH2 0x2543 JUMP JUMPDEST SWAP3 POP DUP3 DUP3 SUB SWAP1 POP DUP2 DUP2 GT ISZERO PUSH2 0x2958 JUMPI PUSH2 0x2957 PUSH2 0x28C7 JUMP JUMPDEST JUMPDEST SWAP3 SWAP2 POP POP JUMP JUMPDEST PUSH32 0x4E487B7100000000000000000000000000000000000000000000000000000000 PUSH1 0x0 MSTORE PUSH1 0x32 PUSH1 0x4 MSTORE PUSH1 0x24 PUSH1 0x0 REVERT JUMPDEST PUSH32 0x4E487B7100000000000000000000000000000000000000000000000000000000 PUSH1 0x0 MSTORE PUSH1 0x21 PUSH1 0x4 MSTORE PUSH1 0x24 PUSH1 0x0 REVERT JUMPDEST PUSH32 0x696E73756666696369656E742062616C616E6365000000000000000000000000 PUSH1 0x0 DUP3 ADD MSTORE POP JUMP JUMPDEST PUSH1 0x0 PUSH2 0x29F2 PUSH1 0x14 DUP4 PUSH2 0x26DB JUMP JUMPDEST SWAP2 POP PUSH2 0x29FD DUP3 PUSH2 0x29BC JUMP JUMPDEST PUSH1 0x20 DUP3 ADD SWAP1 POP SWAP2 SWAP1 POP JUMP JUMPDEST PUSH1 0x0 PUSH1 0x20 DUP3 ADD SWAP1 POP DUP2 DUP2 SUB PUSH1 0x0 DUP4 ADD MSTORE PUSH2 0x2A21 DUP2 PUSH2 0x29E5 JUMP JUMPDEST SWAP1 POP SWAP2 SWAP1 POP JUMP JUMPDEST PUSH1 0x0 PUSH2 0x2A33 DUP3 PUSH2 0x2543 JUMP JUMPDEST SWAP2 POP PUSH32 0xFFFFFFFFFFFFFFFFFFFFFFFFFFFFFFFFFFFFFFFFFFFFFFFFFFFFFFFFFFFFFFFF DUP3 SUB PUSH2 0x2A65 JUMPI PUSH2 0x2A64 PUSH2 0x28C7 JUMP JUMPDEST JUMPDEST PUSH1 0x1 DUP3 ADD SWAP1 POP SWAP2 SWAP1 POP JUMP JUMPDEST PUSH32 0x596F75206861766520746F207761697420666F72207468652072657665616C20 PUSH1 0x0 DUP3 ADD MSTORE PUSH32 0x7374616765000000000000000000000000000000000000000000000000000000 PUSH1 0x20 DUP3 ADD MSTORE POP JUMP JUMPDEST PUSH1 0x0 PUSH2 0x2ACC PUSH1 0x25 DUP4 PUSH2 0x26DB JUMP JUMPDEST SWAP2 POP PUSH2 0x2AD7 DUP3 PUSH2 0x2A70 JUMP JUMPDEST PUSH1 0x40 DUP3 ADD SWAP1 POP SWAP2 SWAP1 POP JUMP JUMPDEST PUSH1 0x0 PUSH1 0x20 DUP3 ADD SWAP1 POP DUP2 DUP2 SUB PUSH1 0x0 DUP4 ADD MSTORE PUSH2 0x2AFB DUP2 PUSH2 0x2ABF JUMP JUMPDEST SWAP1 POP SWAP2 SWAP1 POP JUMP JUMPDEST PUSH32 0x4E487B7100000000000000000000000000000000000000000000000000000000 PUSH1 0x0 MSTORE PUSH1 0x12 PUSH1 0x4 MSTORE PUSH1 0x24 PUSH1 0x0 REVERT JUMPDEST PUSH1 0x0 PUSH2 0x2B3C DUP3 PUSH2 0x2543 JUMP JUMPDEST SWAP2 POP PUSH2 0x2B47 DUP4 PUSH2 0x2543 JUMP JUMPDEST SWAP3 POP DUP3 PUSH2 0x2B57 JUMPI PUSH2 0x2B56 PUSH2 0x2B02 JUMP JUMPDEST JUMPDEST DUP3 DUP3 DIV SWAP1 POP SWAP3 SWAP2 POP POP JUMP JUMPDEST PUSH32 0x496E76616C6964206F7065726174696F6E2E0000000000000000000000000000 PUSH1 0x0 DUP3 ADD MSTORE POP JUMP JUMPDEST PUSH1 0x0 PUSH2 0x2B98 PUSH1 0x12 DUP4 PUSH2 0x26DB JUMP JUMPDEST SWAP2 POP PUSH2 0x2BA3 DUP3 PUSH2 0x2B62 JUMP JUMPDEST PUSH1 0x20 DUP3 ADD SWAP1 POP SWAP2 SWAP1 POP JUMP JUMPDEST PUSH1 0x0 PUSH1 0x20 DUP3 ADD SWAP1 POP DUP2 DUP2 SUB PUSH1 0x0 DUP4 ADD MSTORE PUSH2 0x2BC7 DUP2 PUSH2 0x2B8B JUMP JUMPDEST SWAP1 POP SWAP2 SWAP1 POP JUMP JUMPDEST PUSH1 0x0 DUP2 SWAP1 POP SWAP2 SWAP1 POP JUMP JUMPDEST PUSH2 0x2BE9 PUSH2 0x2BE4 DUP3 PUSH2 0x2543 JUMP JUMPDEST PUSH2 0x2BCE JUMP JUMPDEST DUP3 MSTORE POP POP JUMP JUMPDEST PUSH1 0x0 PUSH2 0x2BFB DUP3 DUP5 PUSH2 0x2BD8 JUMP JUMPDEST PUSH1 0x20 DUP3 ADD SWAP2 POP DUP2 SWAP1 POP SWAP3 SWAP2 POP POP JUMP JUMPDEST PUSH32 0x57726F6E6720496E707574000000000000000000000000000000000000000000 PUSH1 0x0 DUP3 ADD MSTORE POP JUMP JUMPDEST PUSH1 0x0 PUSH2 0x2C40 PUSH1 0xB DUP4 PUSH2 0x26DB JUMP JUMPDEST SWAP2 POP PUSH2 0x2C4B DUP3 PUSH2 0x2C0A JUMP JUMPDEST PUSH1 0x20 DUP3 ADD SWAP1 POP SWAP2 SWAP1 POP JUMP JUMPDEST PUSH1 0x0 PUSH1 0x20 DUP3 ADD SWAP1 POP DUP2 DUP2 SUB PUSH1 0x0 DUP4 ADD MSTORE PUSH2 0x2C6F DUP2 PUSH2 0x2C33 JUMP JUMPDEST SWAP1 POP SWAP2 SWAP1 POP JUMP JUMPDEST PUSH2 0x2C7F DUP2 PUSH2 0x281B JUMP JUMPDEST DUP3 MSTORE POP POP JUMP JUMPDEST PUSH1 0x0 DUP2 ISZERO ISZERO SWAP1 POP SWAP2 SWAP1 POP JUMP JUMPDEST PUSH2 0x2C9A DUP2 PUSH2 0x2C85 JUMP JUMPDEST DUP3 MSTORE POP POP JUMP JUMPDEST PUSH1 0x4 DUP2 LT PUSH2 0x2CB1 JUMPI PUSH2 0x2CB0 PUSH2 0x298D JUMP JUMPDEST JUMPDEST POP JUMP JUMPDEST PUSH1 0x0 DUP2 SWAP1 POP PUSH2 0x2CC2 DUP3 PUSH2 0x2CA0 JUMP JUMPDEST SWAP2 SWAP1 POP JUMP JUMPDEST PUSH1 0x0 PUSH2 0x2CD2 DUP3 PUSH2 0x2CB4 JUMP JUMPDEST SWAP1 POP SWAP2 SWAP1 POP JUMP JUMPDEST PUSH2 0x2CE2 DUP2 PUSH2 0x2CC7 JUMP JUMPDEST DUP3 MSTORE POP POP JUMP JUMPDEST PUSH1 0x0 PUSH1 0xE0 DUP3 ADD SWAP1 POP PUSH2 0x2CFD PUSH1 0x0 DUP4 ADD DUP11 PUSH2 0x25A6 JUMP JUMPDEST PUSH2 0x2D0A PUSH1 0x20 DUP4 ADD DUP10 PUSH2 0x25A6 JUMP JUMPDEST PUSH2 0x2D17 PUSH1 0x40 DUP4 ADD DUP9 PUSH2 0x2C76 JUMP JUMPDEST PUSH2 0x2D24 PUSH1 0x60 DUP4 ADD DUP8 PUSH2 0x25A6 JUMP JUMPDEST PUSH2 0x2D31 PUSH1 0x80 DUP4 ADD DUP7 PUSH2 0x25DD JUMP JUMPDEST PUSH2 0x2D3E PUSH1 0xA0 DUP4 ADD DUP6 PUSH2 0x2C91 JUMP JUMPDEST PUSH2 0x2D4B PUSH1 0xC0 DUP4 ADD DUP5 PUSH2 0x2CD9 JUMP JUMPDEST SWAP9 SWAP8 POP POP POP POP POP POP POP POP JUMP JUMPDEST PUSH32 0x6E6F7420656E6F756768207469636B6574730000000000000000000000000000 PUSH1 0x0 DUP3 ADD MSTORE POP JUMP JUMPDEST PUSH1 0x0 PUSH2 0x2D8D PUSH1 0x12 DUP4 PUSH2 0x26DB JUMP JUMPDEST SWAP2 POP PUSH2 0x2D98 DUP3 PUSH2 0x2D57 JUMP JUMPDEST PUSH1 0x20 DUP3 ADD SWAP1 POP SWAP2 SWAP1 POP JUMP JUMPDEST PUSH1 0x0 PUSH1 0x20 DUP3 ADD SWAP1 POP DUP2 DUP2 SUB PUSH1 0x0 DUP4 ADD MSTORE PUSH2 0x2DBC DUP2 PUSH2 0x2D80 JUMP JUMPDEST SWAP1 POP SWAP2 SWAP1 POP JUMP JUMPDEST PUSH1 0x0 PUSH2 0x2DCE DUP3 PUSH2 0x2543 JUMP JUMPDEST SWAP2 POP PUSH2 0x2DD9 DUP4 PUSH2 0x2543 JUMP JUMPDEST SWAP3 POP DUP3 PUSH2 0x2DE9 JUMPI PUSH2 0x2DE8 PUSH2 0x2B02 JUMP JUMPDEST JUMPDEST DUP3 DUP3 MOD SWAP1 POP SWAP3 SWAP2 POP POP JUMP INVALID LOG2 PUSH5 0x6970667358 0x22 SLT KECCAK256 0xE5 SWAP7 CREATE GT SWAP5 0xD PUSH19 0x7B05DEABCC1F505AAD748061D212C2D409D26D PUSH31 0x4E5EA9B40664736F6C63430008120033000000000000000000000000000000 "},"methodIdentifiers":{"balance(address)":"e3d670d7","buyTicket(bytes32,int256)":"f6789ca0","calculateSinglePriceValue(uint256,uint256)":"cb4581d8","calculateTotalPriceValue(uint256)":"269dd947","checkIfTicketWon(uint256,uint256)":"a06cc71a","collectTicketPrize(uint256,uint256)":"9c7278ca","collectTicketRefund(uint256)":"2e1fe450","depositEther()":"98ea5fca","findTicketInfosFromNo(uint256)":"775f1aec","getIthOwnedTicketNo(uint256,uint256)":"48367d1e","getIthWinningTicket(uint256,uint256)":"e54778b5","getLastOwnedTicketNo(uint256)":"2b8bdc00","getLotteryMoneyCollected(uint256)":"a6588af8","getMoneyCollected()":"57ac796e","getRandomNumber()":"dbdff2c1","getTicketInfo(uint256)":"ff99a063","getamount(uint8)":"39f7958b","withdrawEther(uint256)":"3bed33ce"}}}}}