{
  "_format": "hh-sol-artifact-1",
  "contractName": "FinalLottery",
  "sourceName": "contracts/FinalLottery.sol",
  "abi": [
    {
      "inputs": [],
      "stateMutability": "nonpayable",
      "type": "constructor"
    },
    {
      "anonymous": false,
      "inputs": [
        {
          "indexed": false,
          "internalType": "uint256",
          "name": "ticketNo",
          "type": "uint256"
        },
        {
          "indexed": false,
          "internalType": "uint256",
          "name": "lotteryNo",
          "type": "uint256"
        },
        {
          "indexed": false,
          "internalType": "bytes32",
          "name": "ticketHash",
          "type": "bytes32"
        },
        {
          "indexed": false,
          "internalType": "uint256",
          "name": "ticketTimestamp",
          "type": "uint256"
        },
        {
          "indexed": false,
          "internalType": "uint8",
          "name": "status",
          "type": "uint8"
        },
        {
          "indexed": false,
          "internalType": "bool",
          "name": "active",
          "type": "bool"
        },
        {
          "indexed": false,
          "internalType": "enum FinalLottery.TicketTier",
          "name": "ticketTier",
          "type": "uint8"
        }
      ],
      "name": "TicketInfo",
      "type": "event"
    },
    {
      "inputs": [
        {
          "internalType": "address",
          "name": "",
          "type": "address"
        }
      ],
      "name": "balance",
      "outputs": [
        {
          "internalType": "uint256",
          "name": "",
          "type": "uint256"
        }
      ],
      "stateMutability": "view",
      "type": "function"
    },
    {
      "inputs": [
        {
          "internalType": "bytes32",
          "name": "hash_rnd_number",
          "type": "bytes32"
        },
        {
          "internalType": "int256",
          "name": "tier",
          "type": "int256"
        }
      ],
      "name": "buyTicket",
      "outputs": [],
      "stateMutability": "nonpayable",
      "type": "function"
    },
    {
      "inputs": [
        {
          "internalType": "uint256",
          "name": "ticket_no",
          "type": "uint256"
        }
      ],
      "name": "collectTicketRefund",
      "outputs": [],
      "stateMutability": "nonpayable",
      "type": "function"
    },
    {
      "inputs": [],
      "name": "depositEther",
      "outputs": [],
      "stateMutability": "payable",
      "type": "function"
    },
    {
      "inputs": [
        {
          "internalType": "uint256",
          "name": "ticket_no",
          "type": "uint256"
        }
      ],
      "name": "findTicketInfosFromNo",
      "outputs": [
        {
          "internalType": "uint256",
          "name": "",
          "type": "uint256"
        },
        {
          "internalType": "uint256",
          "name": "",
          "type": "uint256"
        }
      ],
      "stateMutability": "nonpayable",
      "type": "function"
    },
    {
      "inputs": [
        {
          "internalType": "uint256",
          "name": "lottery_no",
          "type": "uint256"
        }
      ],
      "name": "getLastOwnedTicketNo",
      "outputs": [
        {
          "internalType": "uint256",
          "name": "",
          "type": "uint256"
        },
        {
          "internalType": "uint8",
          "name": "",
          "type": "uint8"
        }
      ],
      "stateMutability": "view",
      "type": "function"
    },
    {
      "inputs": [],
      "name": "getRandomNumber",
      "outputs": [
        {
          "internalType": "uint256",
          "name": "",
          "type": "uint256"
        }
      ],
      "stateMutability": "view",
      "type": "function"
    },
    {
      "inputs": [
        {
          "internalType": "uint256",
          "name": "ticket_number",
          "type": "uint256"
        }
      ],
      "name": "getTicketInfo",
      "outputs": [],
      "stateMutability": "nonpayable",
      "type": "function"
    },
    {
      "inputs": [],
      "name": "lotteryNoCalculator",
      "outputs": [
        {
          "internalType": "uint256",
          "name": "",
          "type": "uint256"
        }
      ],
      "stateMutability": "nonpayable",
      "type": "function"
    },
    {
      "inputs": [
        {
          "internalType": "uint256",
          "name": "amount",
          "type": "uint256"
        }
      ],
      "name": "withdrawEther",
      "outputs": [],
      "stateMutability": "payable",
      "type": "function"
    }
  ],
  "bytecode": "0x60806040524260015534801561001457600080fd5b50426001819055506115188061002b6000396000f3fe6080604052600436106100915760003560e01c8063ce91aa6a11610059578063ce91aa6a14610161578063dbdff2c11461018c578063e3d670d7146101b7578063f6789ca0146101f4578063ff99a0631461021d57610091565b80632b8bdc00146100965780632e1fe450146100d45780633bed33ce146100fd578063775f1aec1461011957806398ea5fca14610157575b600080fd5b3480156100a257600080fd5b506100bd60048036038101906100b89190610f43565b610246565b6040516100cb929190610f9b565b60405180910390f35b3480156100e057600080fd5b506100fb60048036038101906100f69190610f43565b6103ac565b005b61011760048036038101906101129190610f43565b6105cc565b005b34801561012557600080fd5b50610140600480360381019061013b9190610f43565b6106ee565b60405161014e929190610fc4565b60405180910390f35b61015f610829565b005b34801561016d57600080fd5b50610176610881565b6040516101839190610fed565b60405180910390f35b34801561019857600080fd5b506101a16108c1565b6040516101ae9190610fed565b60405180910390f35b3480156101c357600080fd5b506101de60048036038101906101d99190611066565b6108f4565b6040516101eb9190610fed565b60405180910390f35b34801561020057600080fd5b5061021b600480360381019061021691906110ff565b61090c565b005b34801561022957600080fd5b50610244600480360381019061023f9190610f43565b610b64565b005b60008060006001600260003373ffffffffffffffffffffffffffffffffffffffff1673ffffffffffffffffffffffffffffffffffffffff1681526020019081526020016000206000868152602001908152602001600020805490506102ab919061116e565b9050600260003373ffffffffffffffffffffffffffffffffffffffff1673ffffffffffffffffffffffffffffffffffffffff1681526020019081526020016000206000858152602001908152602001600020818154811061030f5761030e6111a2565b5b906000526020600020906005020160000154600260003373ffffffffffffffffffffffffffffffffffffffff1673ffffffffffffffffffffffffffffffffffffffff16815260200190815260200160002060008681526020019081526020016000208281548110610383576103826111a2565b5b906000526020600020906005020160040160009054906101000a900460ff169250925050915091565b6000806103b8836106ee565b80925081935050506000600260003373ffffffffffffffffffffffffffffffffffffffff1673ffffffffffffffffffffffffffffffffffffffff16815260200190815260200160002060008481526020019081526020016000208281548110610424576104236111a2565b5b906000526020600020906005020160040160029054906101000a900460ff169050600080600381111561045a576104596111d1565b5b82600381111561046d5761046c6111d1565b5b0361047b57600890506104e3565b6001600381111561048f5761048e6111d1565b5b8260038111156104a2576104a16111d1565b5b036104b057600490506104e2565b600060038111156104c4576104c36111d1565b5b8260038111156104d7576104d66111d1565b5b036104e157600290505b5b5b80600360003373ffffffffffffffffffffffffffffffffffffffff1673ffffffffffffffffffffffffffffffffffffffff16815260200190815260200160002060008282546105329190611200565b925050819055506000600260003373ffffffffffffffffffffffffffffffffffffffff1673ffffffffffffffffffffffffffffffffffffffff1681526020019081526020016000206000868152602001908152602001600020848154811061059d5761059c6111a2565b5b906000526020600020906005020160040160016101000a81548160ff0219169083151502179055505050505050565b80600360003373ffffffffffffffffffffffffffffffffffffffff1673ffffffffffffffffffffffffffffffffffffffff16815260200190815260200160002054101561064e576040517f08c379a000000000000000000000000000000000000000000000000000000000815260040161064590611291565b60405180910390fd5b80600360003373ffffffffffffffffffffffffffffffffffffffff1673ffffffffffffffffffffffffffffffffffffffff168152602001908152602001600020600082825461069d919061116e565b925050819055503373ffffffffffffffffffffffffffffffffffffffff166108fc829081150290604051600060405180830381858888f193505050501580156106ea573d6000803e3d6000fd5b5050565b60008060006106fb610881565b905060005b60018261070d9190611200565b8110156108215760005b600260003373ffffffffffffffffffffffffffffffffffffffff1673ffffffffffffffffffffffffffffffffffffffff16815260200190815260200160002060008381526020019081526020016000208054905081101561080d5785600260003373ffffffffffffffffffffffffffffffffffffffff1673ffffffffffffffffffffffffffffffffffffffff168152602001908152602001600020600084815260200190815260200160002082815481106107d5576107d46111a2565b5b906000526020600020906005020160000154036107fa57818194509450505050610824565b8080610805906112b1565b915050610717565b508080610819906112b1565b915050610700565b50505b915091565b34600360003373ffffffffffffffffffffffffffffffffffffffff1673ffffffffffffffffffffffffffffffffffffffff16815260200190815260200160002060008282546108789190611200565b92505081905550565b600080429050600060015482610897919061116e565b90506000600162093a80836108ac9190611328565b6108b69190611200565b905080935050505090565b60006001546040516020016108d6919061137a565b6040516020818303038152906040528051906020012060001c905090565b60036020528060005260406000206000915090505481565b6000610916610881565b9050600060018314806109295750600283145b806109345750600383145b610973576040517f08c379a000000000000000000000000000000000000000000000000000000000815260040161096a906113e1565b60405180910390fd5b60016000808282546109859190611200565b925050819055506001830361099d57600090506109bd565b600283036109ae57600190506109bc565b600383036109bb57600290505b5b5b600260003373ffffffffffffffffffffffffffffffffffffffff1673ffffffffffffffffffffffffffffffffffffffff16815260200190815260200160002060008381526020019081526020016000206040518060e001604052806000548152602001848152602001868152602001428152602001600060ff168152602001600115158152602001836003811115610a5857610a576111d1565b5b81525090806001815401808255809150506001900390600052602060002090600502016000909190919091506000820151816000015560208201518160010155604082015181600201556060820151816003015560808201518160040160006101000a81548160ff021916908360ff16021790555060a08201518160040160016101000a81548160ff02191690831515021790555060c08201518160040160026101000a81548160ff02191690836003811115610b1857610b176111d1565b5b0217905550505060046000838152602001908152602001600020600301600054908060018154018082558091505060019003906000526020600020016000909190919091505550505050565b600080610b70836106ee565b915091507fbce7d9c77b584a77086d92f0e16950470c847bca6700cd4d91240c581f5a611a600260003373ffffffffffffffffffffffffffffffffffffffff1673ffffffffffffffffffffffffffffffffffffffff16815260200190815260200160002060008481526020019081526020016000208281548110610bf757610bf66111a2565b5b906000526020600020906005020160000154600260003373ffffffffffffffffffffffffffffffffffffffff1673ffffffffffffffffffffffffffffffffffffffff16815260200190815260200160002060008581526020019081526020016000208381548110610c6b57610c6a6111a2565b5b906000526020600020906005020160010154600260003373ffffffffffffffffffffffffffffffffffffffff1673ffffffffffffffffffffffffffffffffffffffff16815260200190815260200160002060008681526020019081526020016000208481548110610cdf57610cde6111a2565b5b906000526020600020906005020160020154600260003373ffffffffffffffffffffffffffffffffffffffff1673ffffffffffffffffffffffffffffffffffffffff16815260200190815260200160002060008781526020019081526020016000208581548110610d5357610d526111a2565b5b906000526020600020906005020160030154600260003373ffffffffffffffffffffffffffffffffffffffff1673ffffffffffffffffffffffffffffffffffffffff16815260200190815260200160002060008881526020019081526020016000208681548110610dc757610dc66111a2565b5b906000526020600020906005020160040160009054906101000a900460ff16600260003373ffffffffffffffffffffffffffffffffffffffff1673ffffffffffffffffffffffffffffffffffffffff16815260200190815260200160002060008981526020019081526020016000208781548110610e4857610e476111a2565b5b906000526020600020906005020160040160019054906101000a900460ff16600260003373ffffffffffffffffffffffffffffffffffffffff1673ffffffffffffffffffffffffffffffffffffffff16815260200190815260200160002060008a81526020019081526020016000208881548110610ec957610ec86111a2565b5b906000526020600020906005020160040160029054906101000a900460ff16604051610efb9796959493929190611473565b60405180910390a1505050565b600080fd5b6000819050919050565b610f2081610f0d565b8114610f2b57600080fd5b50565b600081359050610f3d81610f17565b92915050565b600060208284031215610f5957610f58610f08565b5b6000610f6784828501610f2e565b91505092915050565b610f7981610f0d565b82525050565b600060ff82169050919050565b610f9581610f7f565b82525050565b6000604082019050610fb06000830185610f70565b610fbd6020830184610f8c565b9392505050565b6000604082019050610fd96000830185610f70565b610fe66020830184610f70565b9392505050565b60006020820190506110026000830184610f70565b92915050565b600073ffffffffffffffffffffffffffffffffffffffff82169050919050565b600061103382611008565b9050919050565b61104381611028565b811461104e57600080fd5b50565b6000813590506110608161103a565b92915050565b60006020828403121561107c5761107b610f08565b5b600061108a84828501611051565b91505092915050565b6000819050919050565b6110a681611093565b81146110b157600080fd5b50565b6000813590506110c38161109d565b92915050565b6000819050919050565b6110dc816110c9565b81146110e757600080fd5b50565b6000813590506110f9816110d3565b92915050565b6000806040838503121561111657611115610f08565b5b6000611124858286016110b4565b9250506020611135858286016110ea565b9150509250929050565b7f4e487b7100000000000000000000000000000000000000000000000000000000600052601160045260246000fd5b600061117982610f0d565b915061118483610f0d565b925082820390508181111561119c5761119b61113f565b5b92915050565b7f4e487b7100000000000000000000000000000000000000000000000000000000600052603260045260246000fd5b7f4e487b7100000000000000000000000000000000000000000000000000000000600052602160045260246000fd5b600061120b82610f0d565b915061121683610f0d565b925082820190508082111561122e5761122d61113f565b5b92915050565b600082825260208201905092915050565b7f696e73756666696369656e742062616c616e6365000000000000000000000000600082015250565b600061127b601483611234565b915061128682611245565b602082019050919050565b600060208201905081810360008301526112aa8161126e565b9050919050565b60006112bc82610f0d565b91507fffffffffffffffffffffffffffffffffffffffffffffffffffffffffffffffff82036112ee576112ed61113f565b5b600182019050919050565b7f4e487b7100000000000000000000000000000000000000000000000000000000600052601260045260246000fd5b600061133382610f0d565b915061133e83610f0d565b92508261134e5761134d6112f9565b5b828204905092915050565b6000819050919050565b61137461136f82610f0d565b611359565b82525050565b60006113868284611363565b60208201915081905092915050565b7f57726f6e6720496e707574000000000000000000000000000000000000000000600082015250565b60006113cb600b83611234565b91506113d682611395565b602082019050919050565b600060208201905081810360008301526113fa816113be565b9050919050565b61140a81611093565b82525050565b60008115159050919050565b61142581611410565b82525050565b6004811061143c5761143b6111d1565b5b50565b600081905061144d8261142b565b919050565b600061145d8261143f565b9050919050565b61146d81611452565b82525050565b600060e082019050611488600083018a610f70565b6114956020830189610f70565b6114a26040830188611401565b6114af6060830187610f70565b6114bc6080830186610f8c565b6114c960a083018561141c565b6114d660c0830184611464565b9897505050505050505056fea26469706673582212205331c7afd7b43bdbd6c0423c6b6a6ca764134bfa37a40624cd6622628cc8490364736f6c63430008120033",
  "linkReferences": {},
  "deployedLinkReferences": {}
}