{
  "_format": "hh-sol-artifact-1",
  "contractName": "FinalLottery",
  "sourceName": "contracts/FinalLottery.sol",
  "abi": [
    {
      "inputs": [],
      "stateMutability": "nonpayable",
      "type": "constructor"
    },
    {
      "anonymous": false,
      "inputs": [
        {
          "indexed": false,
          "internalType": "string",
          "name": "prizeName",
          "type": "string"
        },
        {
          "indexed": false,
          "internalType": "uint256",
          "name": "prize",
          "type": "uint256"
        }
      ],
      "name": "AmountOfPrize",
      "type": "event"
    },
    {
      "anonymous": false,
      "inputs": [
        {
          "indexed": false,
          "internalType": "uint256",
          "name": "ticketNo",
          "type": "uint256"
        },
        {
          "indexed": false,
          "internalType": "uint256",
          "name": "lotteryNo",
          "type": "uint256"
        },
        {
          "indexed": false,
          "internalType": "bytes32",
          "name": "ticketHash",
          "type": "bytes32"
        },
        {
          "indexed": false,
          "internalType": "uint256",
          "name": "ticketTimestamp",
          "type": "uint256"
        },
        {
          "indexed": false,
          "internalType": "uint8",
          "name": "status",
          "type": "uint8"
        },
        {
          "indexed": false,
          "internalType": "bool",
          "name": "active",
          "type": "bool"
        },
        {
          "indexed": false,
          "internalType": "enum FinalLottery.TicketTier",
          "name": "ticketTier",
          "type": "uint8"
        }
      ],
      "name": "TicketInfo",
      "type": "event"
    },
    {
      "inputs": [
        {
          "internalType": "address",
          "name": "",
          "type": "address"
        }
      ],
      "name": "balance",
      "outputs": [
        {
          "internalType": "uint256",
          "name": "",
          "type": "uint256"
        }
      ],
      "stateMutability": "view",
      "type": "function"
    },
    {
      "inputs": [
        {
          "internalType": "bytes32",
          "name": "hash_rnd_number",
          "type": "bytes32"
        },
        {
          "internalType": "int256",
          "name": "tier",
          "type": "int256"
        }
      ],
      "name": "buyTicket",
      "outputs": [],
      "stateMutability": "nonpayable",
      "type": "function"
    },
    {
      "inputs": [
        {
          "internalType": "uint256",
          "name": "thPrice",
          "type": "uint256"
        },
        {
          "internalType": "uint256",
          "name": "lottery_no",
          "type": "uint256"
        }
      ],
      "name": "calculateSinglePriceValue",
      "outputs": [
        {
          "internalType": "string",
          "name": "",
          "type": "string"
        },
        {
          "internalType": "uint256",
          "name": "",
          "type": "uint256"
        }
      ],
      "stateMutability": "nonpayable",
      "type": "function"
    },
    {
      "inputs": [
        {
          "internalType": "uint256",
          "name": "lottery_no",
          "type": "uint256"
        }
      ],
      "name": "calculateTotalPriceValue",
      "outputs": [
        {
          "internalType": "uint256",
          "name": "",
          "type": "uint256"
        }
      ],
      "stateMutability": "nonpayable",
      "type": "function"
    },
    {
      "inputs": [
        {
          "internalType": "uint256",
          "name": "lottery_no",
          "type": "uint256"
        },
        {
          "internalType": "uint256",
          "name": "ticket_no",
          "type": "uint256"
        }
      ],
      "name": "checkIfTicketWon",
      "outputs": [
        {
          "internalType": "uint256",
          "name": "",
          "type": "uint256"
        }
      ],
      "stateMutability": "nonpayable",
      "type": "function"
    },
    {
      "inputs": [
        {
          "internalType": "uint256",
          "name": "lottery_no",
          "type": "uint256"
        },
        {
          "internalType": "uint256",
          "name": "ticket_no",
          "type": "uint256"
        }
      ],
      "name": "collectTicketPrize",
      "outputs": [
        {
          "internalType": "uint256",
          "name": "",
          "type": "uint256"
        }
      ],
      "stateMutability": "nonpayable",
      "type": "function"
    },
    {
      "inputs": [
        {
          "internalType": "uint256",
          "name": "ticket_no",
          "type": "uint256"
        }
      ],
      "name": "collectTicketRefund",
      "outputs": [],
      "stateMutability": "nonpayable",
      "type": "function"
    },
    {
      "inputs": [],
      "name": "depositEther",
      "outputs": [],
      "stateMutability": "payable",
      "type": "function"
    },
    {
      "inputs": [
        {
          "internalType": "uint256",
          "name": "ticket_no",
          "type": "uint256"
        }
      ],
      "name": "findTicketInfosFromNo",
      "outputs": [
        {
          "internalType": "uint256",
          "name": "",
          "type": "uint256"
        },
        {
          "internalType": "uint256",
          "name": "",
          "type": "uint256"
        }
      ],
      "stateMutability": "nonpayable",
      "type": "function"
    },
    {
      "inputs": [
        {
          "internalType": "uint256",
          "name": "i",
          "type": "uint256"
        },
        {
          "internalType": "uint256",
          "name": "lottery_no",
          "type": "uint256"
        }
      ],
      "name": "getIthOwnedTicketNo",
      "outputs": [
        {
          "internalType": "uint256",
          "name": "",
          "type": "uint256"
        },
        {
          "internalType": "uint8",
          "name": "status",
          "type": "uint8"
        }
      ],
      "stateMutability": "view",
      "type": "function"
    },
    {
      "inputs": [
        {
          "internalType": "uint256",
          "name": "i",
          "type": "uint256"
        },
        {
          "internalType": "uint256",
          "name": "lottery_no",
          "type": "uint256"
        }
      ],
      "name": "getIthWinningTicket",
      "outputs": [
        {
          "internalType": "uint256",
          "name": "ticket_no",
          "type": "uint256"
        },
        {
          "internalType": "uint256",
          "name": "amount",
          "type": "uint256"
        }
      ],
      "stateMutability": "nonpayable",
      "type": "function"
    },
    {
      "inputs": [
        {
          "internalType": "uint256",
          "name": "lottery_no",
          "type": "uint256"
        }
      ],
      "name": "getLastOwnedTicketNo",
      "outputs": [
        {
          "internalType": "uint256",
          "name": "",
          "type": "uint256"
        },
        {
          "internalType": "uint8",
          "name": "",
          "type": "uint8"
        }
      ],
      "stateMutability": "view",
      "type": "function"
    },
    {
      "inputs": [],
      "name": "getRandomNumber",
      "outputs": [
        {
          "internalType": "uint256",
          "name": "",
          "type": "uint256"
        }
      ],
      "stateMutability": "view",
      "type": "function"
    },
    {
      "inputs": [
        {
          "internalType": "uint256",
          "name": "ticket_number",
          "type": "uint256"
        }
      ],
      "name": "getTicketInfo",
      "outputs": [],
      "stateMutability": "nonpayable",
      "type": "function"
    },
    {
      "inputs": [
        {
          "internalType": "uint256",
          "name": "lottery_no",
          "type": "uint256"
        }
      ],
      "name": "getTotalLotteryMoneyCollected",
      "outputs": [
        {
          "internalType": "uint256",
          "name": "amount",
          "type": "uint256"
        }
      ],
      "stateMutability": "view",
      "type": "function"
    },
    {
      "inputs": [],
      "name": "getTotalLotteryMoneyCollected",
      "outputs": [
        {
          "internalType": "uint256",
          "name": "amount",
          "type": "uint256"
        }
      ],
      "stateMutability": "view",
      "type": "function"
    },
    {
      "inputs": [
        {
          "internalType": "enum FinalLottery.TicketTier",
          "name": "tier",
          "type": "uint8"
        }
      ],
      "name": "getamount",
      "outputs": [
        {
          "internalType": "uint256",
          "name": "",
          "type": "uint256"
        }
      ],
      "stateMutability": "pure",
      "type": "function"
    },
    {
      "inputs": [],
      "name": "lotteryNoCalculator",
      "outputs": [
        {
          "internalType": "uint256",
          "name": "",
          "type": "uint256"
        }
      ],
      "stateMutability": "nonpayable",
      "type": "function"
    },
    {
      "inputs": [],
      "name": "transferleftoverMoneytoNextRound",
      "outputs": [],
      "stateMutability": "nonpayable",
      "type": "function"
    },
    {
      "inputs": [
        {
          "internalType": "uint256",
          "name": "amount",
          "type": "uint256"
        }
      ],
      "name": "withdrawEther",
      "outputs": [],
      "stateMutability": "payable",
      "type": "function"
    }
  ],
  "bytecode": "0x60806040524260015534801561001457600080fd5b504260018190555061322f8061002b6000396000f3fe60806040526004361061011f5760003560e01c80639c7278ca116100a0578063dbdff2c111610064578063dbdff2c114610409578063e3d670d714610434578063e54778b514610471578063f6789ca0146104af578063ff99a063146104d85761011f565b80639c7278ca146102fb578063a06cc71a14610338578063ca9bfc2f14610375578063cb4581d8146103a0578063ce91aa6a146103de5761011f565b80633bed33ce116100e75780633bed33ce1461021c57806348367d1e14610238578063666378aa14610276578063775f1aec146102b357806398ea5fca146102f15761011f565b80632567610114610124578063269dd9471461013b5780632b8bdc00146101785780632e1fe450146101b657806339f7958b146101df575b600080fd5b34801561013057600080fd5b50610139610501565b005b34801561014757600080fd5b50610162600480360381019061015d919061297e565b6105d0565b60405161016f91906129ba565b60405180910390f35b34801561018457600080fd5b5061019f600480360381019061019a919061297e565b610628565b6040516101ad9291906129f1565b60405180910390f35b3480156101c257600080fd5b506101dd60048036038101906101d8919061297e565b61078e565b005b3480156101eb57600080fd5b5061020660048036038101906102019190612a3f565b610a14565b60405161021391906129ba565b60405180910390f35b6102366004803603810190610231919061297e565b610abd565b005b34801561024457600080fd5b5061025f600480360381019061025a9190612a6c565b610bdf565b60405161026d9291906129f1565b60405180910390f35b34801561028257600080fd5b5061029d6004803603810190610298919061297e565b610d24565b6040516102aa91906129ba565b60405180910390f35b3480156102bf57600080fd5b506102da60048036038101906102d5919061297e565b610d58565b6040516102e8929190612aac565b60405180910390f35b6102f9610e93565b005b34801561030757600080fd5b50610322600480360381019061031d9190612a6c565b610eeb565b60405161032f91906129ba565b60405180910390f35b34801561034457600080fd5b5061035f600480360381019061035a9190612a6c565b610fa0565b60405161036c91906129ba565b60405180910390f35b34801561038157600080fd5b5061038a611202565b60405161039791906129ba565b60405180910390f35b3480156103ac57600080fd5b506103c760048036038101906103c29190612a6c565b61120c565b6040516103d5929190612b65565b60405180910390f35b3480156103ea57600080fd5b506103f3611db2565b60405161040091906129ba565b60405180910390f35b34801561041557600080fd5b5061041e611df2565b60405161042b91906129ba565b60405180910390f35b34801561044057600080fd5b5061045b60048036038101906104569190612bf3565b611e23565b60405161046891906129ba565b60405180910390f35b34801561047d57600080fd5b5061049860048036038101906104939190612a6c565b611e3b565b6040516104a6929190612aac565b60405180910390f35b3480156104bb57600080fd5b506104d660048036038101906104d19190612c8c565b611ed1565b005b3480156104e457600080fd5b506104ff60048036038101906104fa919061297e565b6122b8565b005b600061050b611db2565b905060006003828154811061052357610522612ccc565b5b90600052602060002001549050600061053b836105d0565b90506000818361054b9190612d2a565b9050816002600082825461055f9190612d5e565b92505081905550806003858154811061057b5761057a612ccc565b5b9060005260206000200160008282546105949190612d2a565b925050819055508160036001866105ab9190612d5e565b815481106105bc576105bb612ccc565b5b906000526020600020018190555050505050565b6000806105de60018461120c565b91505060006105ee60028561120c565b91505060006105fe60038661120c565b91505060008183856106109190612d2a565b61061a9190612d2a565b905080945050505050919050565b60008060006001600560003373ffffffffffffffffffffffffffffffffffffffff1673ffffffffffffffffffffffffffffffffffffffff16815260200190815260200160002060008681526020019081526020016000208054905061068d9190612d5e565b9050600560003373ffffffffffffffffffffffffffffffffffffffff1673ffffffffffffffffffffffffffffffffffffffff168152602001908152602001600020600085815260200190815260200160002081815481106106f1576106f0612ccc565b5b906000526020600020906005020160000154600560003373ffffffffffffffffffffffffffffffffffffffff1673ffffffffffffffffffffffffffffffffffffffff1681526020019081526020016000206000868152602001908152602001600020828154811061076557610764612ccc565b5b906000526020600020906005020160040160009054906101000a900460ff169250925050915091565b60008061079a83610d58565b80925081935050506000600560003373ffffffffffffffffffffffffffffffffffffffff1673ffffffffffffffffffffffffffffffffffffffff1681526020019081526020016000206000848152602001908152602001600020828154811061080657610805612ccc565b5b906000526020600020906005020160040160029054906101000a900460ff169050600061083282610a14565b90506000600381111561084857610847612d92565b5b82600381111561085b5761085a612d92565b5b0361086957600890506108d1565b6001600381111561087d5761087c612d92565b5b8260038111156108905761088f612d92565b5b0361089e57600490506108d0565b600060038111156108b2576108b1612d92565b5b8260038111156108c5576108c4612d92565b5b036108cf57600290505b5b5b80600660003373ffffffffffffffffffffffffffffffffffffffff1673ffffffffffffffffffffffffffffffffffffffff16815260200190815260200160002060008282546109209190612d2a565b925050819055508060036001866109379190612d5e565b8154811061094857610947612ccc565b5b9060005260206000200160008282546109619190612d5e565b92505081905550806002600082825461097a9190612d5e565b925050819055506000600560003373ffffffffffffffffffffffffffffffffffffffff1673ffffffffffffffffffffffffffffffffffffffff168152602001908152602001600020600086815260200190815260200160002084815481106109e5576109e4612ccc565b5b906000526020600020906005020160040160016101000a81548160ff0219169083151502179055505050505050565b60008060006003811115610a2b57610a2a612d92565b5b836003811115610a3e57610a3d612d92565b5b03610a4c5760089050610ab4565b60016003811115610a6057610a5f612d92565b5b836003811115610a7357610a72612d92565b5b03610a815760049050610ab3565b60006003811115610a9557610a94612d92565b5b836003811115610aa857610aa7612d92565b5b03610ab257600290505b5b5b80915050919050565b80600660003373ffffffffffffffffffffffffffffffffffffffff1673ffffffffffffffffffffffffffffffffffffffff168152602001908152602001600020541015610b3f576040517f08c379a0000000000000000000000000000000000000000000000000000000008152600401610b3690612e0d565b60405180910390fd5b80600660003373ffffffffffffffffffffffffffffffffffffffff1673ffffffffffffffffffffffffffffffffffffffff1681526020019081526020016000206000828254610b8e9190612d5e565b925050819055503373ffffffffffffffffffffffffffffffffffffffff166108fc829081150290604051600060405180830381858888f19350505050158015610bdb573d6000803e3d6000fd5b5050565b600080610bea6128ec565b600560003373ffffffffffffffffffffffffffffffffffffffff1673ffffffffffffffffffffffffffffffffffffffff16815260200190815260200160002060008581526020019081526020016000208581548110610c4c57610c4b612ccc565b5b90600052602060002090600502016040518060e0016040529081600082015481526020016001820154815260200160028201548152602001600382015481526020016004820160009054906101000a900460ff1660ff1660ff1681526020016004820160019054906101000a900460ff161515151581526020016004820160029054906101000a900460ff166003811115610cea57610ce9612d92565b5b6003811115610cfc57610cfb612d92565b5b8152505090506000816000015190506000826080015190508181945094505050509250929050565b60006004600183610d359190612d5e565b81548110610d4657610d45612ccc565b5b90600052602060002001549050919050565b6000806000610d65611db2565b905060005b600182610d779190612d2a565b811015610e8b5760005b600560003373ffffffffffffffffffffffffffffffffffffffff1673ffffffffffffffffffffffffffffffffffffffff168152602001908152602001600020600083815260200190815260200160002080549050811015610e775785600560003373ffffffffffffffffffffffffffffffffffffffff1673ffffffffffffffffffffffffffffffffffffffff16815260200190815260200160002060008481526020019081526020016000208281548110610e3f57610e3e612ccc565b5b90600052602060002090600502016000015403610e6457818194509450505050610e8e565b8080610e6f90612e2d565b915050610d81565b508080610e8390612e2d565b915050610d6a565b50505b915091565b34600660003373ffffffffffffffffffffffffffffffffffffffff1673ffffffffffffffffffffffffffffffffffffffff1681526020019081526020016000206000828254610ee29190612d2a565b92505081905550565b6000806000905060005b6003811015610f5b5783600760008781526020019081526020016000206002018281548110610f2757610f26612ccc565b5b906000526020600020015403610f4857610f41818661120c565b9050809250505b8080610f5390612e2d565b915050610ef5565b5080600254610f6a9190612d5e565b508060038581548110610f8057610f7f612ccc565b5b9060005260206000200154610f959190612d5e565b508091505092915050565b6000610faa611db2565b8303610feb576040517f08c379a0000000000000000000000000000000000000000000000000000000008152600401610fe290612ee7565b60405180910390fd5b600360076000858152602001908152602001600020600201805490501461101e576110158361265c565b61101d610501565b5b600060606000600760008781526020019081526020016000206003016007600088815260200190815260200160002060020160008154811061106357611062612ccc565b5b90600052602060002001548154811061107f5761107e612ccc565b5b90600052602060002001549050600060076000888152602001908152602001600020600301600760008981526020019081526020016000206002016001815481106110cd576110cc612ccc565b5b9060005260206000200154815481106110e9576110e8612ccc565b5b90600052602060002001549050600060076000898152602001908152602001600020600301600760008a815260200190815260200160002060020160028154811061113757611136612ccc565b5b90600052602060002001548154811061115357611152612ccc565b5b9060005260206000200154905082870361117f5761117260018961120c565b80965081955050506111bb565b81870361119e5761119160028961120c565b80965081955050506111ba565b8087036111b9576111b060038961120c565b80965081955050505b5b5b7f47d11ec30af726942ac6508eadccdf4c14a1c898a0433e77427b8c40a3a4364484866040516111ec929190612b65565b60405180910390a1849550505050505092915050565b6000600254905090565b6060600080606060006007600087815260200190815260200160002060030160076000888152602001908152602001600020600201888154811061125357611252612ccc565b5b90600052602060002001548154811061126f5761126e612ccc565b5b90600052602060002001549050600061128782610d58565b9150506001820361163a57600060038111156112a6576112a5612d92565b5b600560003373ffffffffffffffffffffffffffffffffffffffff1673ffffffffffffffffffffffffffffffffffffffff1681526020019081526020016000206000898152602001908152602001600020828154811061130857611307612ccc565b5b906000526020600020906005020160040160029054906101000a900460ff16600381111561133957611338612d92565b5b036113b4576002600360018961134f9190612d5e565b815481106113605761135f612ccc565b5b90600052602060002001546113759190612f36565b93506040518060400160405280600a81526020017f46756c6c204669727374000000000000000000000000000000000000000000008152509250611635565b600160038111156113c8576113c7612d92565b5b600560003373ffffffffffffffffffffffffffffffffffffffff1673ffffffffffffffffffffffffffffffffffffffff1681526020019081526020016000206000898152602001908152602001600020828154811061142a57611429612ccc565b5b906000526020600020906005020160040160029054906101000a900460ff16600381111561145b5761145a612d92565b5b036114d657600460036001896114719190612d5e565b8154811061148257611481612ccc565b5b90600052602060002001546114979190612f36565b93506040518060400160405280600a81526020017f48616c66204669727374000000000000000000000000000000000000000000008152509250611634565b600260038111156114ea576114e9612d92565b5b600560003373ffffffffffffffffffffffffffffffffffffffff1673ffffffffffffffffffffffffffffffffffffffff1681526020019081526020016000206000898152602001908152602001600020828154811061154c5761154b612ccc565b5b906000526020600020906005020160040160029054906101000a900460ff16600381111561157d5761157c612d92565b5b036115f857600860036001896115939190612d5e565b815481106115a4576115a3612ccc565b5b90600052602060002001546115b99190612f36565b93506040518060400160405280600d81526020017f51756172746572204669727374000000000000000000000000000000000000008152509250611633565b6040517f08c379a000000000000000000000000000000000000000000000000000000000815260040161162a90612fb3565b60405180910390fd5b5b5b611da1565b600282036119ea576000600381111561165657611655612d92565b5b600560003373ffffffffffffffffffffffffffffffffffffffff1673ffffffffffffffffffffffffffffffffffffffff168152602001908152602001600020600089815260200190815260200160002082815481106116b8576116b7612ccc565b5b906000526020600020906005020160040160029054906101000a900460ff1660038111156116e9576116e8612d92565b5b03611764576040518060400160405280600b81526020017f46756c6c205365636f6e640000000000000000000000000000000000000000008152509250600460036001896117379190612d5e565b8154811061174857611747612ccc565b5b906000526020600020015461175d9190612f36565b93506119e5565b6001600381111561177857611777612d92565b5b600560003373ffffffffffffffffffffffffffffffffffffffff1673ffffffffffffffffffffffffffffffffffffffff168152602001908152602001600020600089815260200190815260200160002082815481106117da576117d9612ccc565b5b906000526020600020906005020160040160029054906101000a900460ff16600381111561180b5761180a612d92565b5b03611886576040518060400160405280600b81526020017f48616c66205365636f6e640000000000000000000000000000000000000000008152509250600860036001896118599190612d5e565b8154811061186a57611869612ccc565b5b906000526020600020015461187f9190612f36565b93506119e4565b6002600381111561189a57611899612d92565b5b600560003373ffffffffffffffffffffffffffffffffffffffff1673ffffffffffffffffffffffffffffffffffffffff168152602001908152602001600020600089815260200190815260200160002082815481106118fc576118fb612ccc565b5b906000526020600020906005020160040160029054906101000a900460ff16600381111561192d5761192c612d92565b5b036119a8576040518060400160405280600e81526020017f51756172746572205365636f6e6400000000000000000000000000000000000081525092506010600360018961197b9190612d5e565b8154811061198c5761198b612ccc565b5b90600052602060002001546119a19190612f36565b93506119e3565b6040517f08c379a00000000000000000000000000000000000000000000000000000000081526004016119da90612fb3565b60405180910390fd5b5b5b611da0565b60038203611d9a5760006003811115611a0657611a05612d92565b5b600560003373ffffffffffffffffffffffffffffffffffffffff1673ffffffffffffffffffffffffffffffffffffffff16815260200190815260200160002060008981526020019081526020016000208281548110611a6857611a67612ccc565b5b906000526020600020906005020160040160029054906101000a900460ff166003811115611a9957611a98612d92565b5b03611b14576040518060400160405280600a81526020017f46756c6c20546869726400000000000000000000000000000000000000000000815250925060086003600189611ae79190612d5e565b81548110611af857611af7612ccc565b5b9060005260206000200154611b0d9190612f36565b9350611d95565b60016003811115611b2857611b27612d92565b5b600560003373ffffffffffffffffffffffffffffffffffffffff1673ffffffffffffffffffffffffffffffffffffffff16815260200190815260200160002060008981526020019081526020016000208281548110611b8a57611b89612ccc565b5b906000526020600020906005020160040160029054906101000a900460ff166003811115611bbb57611bba612d92565b5b03611c36576040518060400160405280600a81526020017f48616c6620546869726400000000000000000000000000000000000000000000815250925060106003600189611c099190612d5e565b81548110611c1a57611c19612ccc565b5b9060005260206000200154611c2f9190612f36565b9350611d94565b60026003811115611c4a57611c49612d92565b5b600560003373ffffffffffffffffffffffffffffffffffffffff1673ffffffffffffffffffffffffffffffffffffffff16815260200190815260200160002060008981526020019081526020016000208281548110611cac57611cab612ccc565b5b906000526020600020906005020160040160029054906101000a900460ff166003811115611cdd57611cdc612d92565b5b03611d58576040518060400160405280600d81526020017f5175617274657220546869726400000000000000000000000000000000000000815250925060206003600189611d2b9190612d5e565b81548110611d3c57611d3b612ccc565b5b9060005260206000200154611d519190612f36565b9350611d93565b6040517f08c379a0000000000000000000000000000000000000000000000000000000008152600401611d8a90612fb3565b60405180910390fd5b5b5b611d9f565b600093505b5b5b828495509550505050509250929050565b600080429050600060015482611dc89190612d5e565b90506000600162093a8083611ddd9190612f36565b611de79190612d2a565b905080935050505090565b600042604051602001611e059190612ff4565b6040516020818303038152906040528051906020012060001c905090565b60066020528060005260406000206000915090505481565b6000806000600760008581526020019081526020016000206002018581548110611e6857611e67612ccc565b5b90600052602060002001549050600760008581526020019081526020016000206003018181548110611e9d57611e9c612ccc565b5b90600052602060002001549250611eb383610d58565b905080915050611ec3858561120c565b905080925050509250929050565b6000611edb611db2565b90506002811115611f3257600360076000600284611ef99190612d5e565b81526020019081526020016000206002018054905011611f3157611f28600282611f239190612d5e565b61265c565b611f30610501565b5b5b60006001831480611f435750600283145b80611f4e5750600383145b611f8d576040517f08c379a0000000000000000000000000000000000000000000000000000000008152600401611f849061305b565b60405180910390fd5b6001600080828254611f9f9190612d2a565b9250508190555060018303611fb75760009050611fd7565b60028303611fc85760019050611fd6565b60038303611fd557600290505b5b5b600560003373ffffffffffffffffffffffffffffffffffffffff1673ffffffffffffffffffffffffffffffffffffffff16815260200190815260200160002060008381526020019081526020016000206040518060e001604052806000548152602001848152602001868152602001428152602001600060ff16815260200160011515815260200183600381111561207257612071612d92565b5b81525090806001815401808255809150506001900390600052602060002090600502016000909190919091506000820151816000015560208201518160010155604082015181600201556060820151816003015560808201518160040160006101000a81548160ff021916908360ff16021790555060a08201518160040160016101000a81548160ff02191690831515021790555060c08201518160040160026101000a81548160ff0219169083600381111561213257612131612d92565b5b0217905550505061214281610a14565b600260008282546121539190612d2a565b9250508190555060076000838152602001908152602001600020600301600054908060018154018082558091505060019003906000526020600020016000909190919091505581600380549050101580156121b357508160048054905010155b1561224f576121c181610a14565b60036001846121d09190612d5e565b815481106121e1576121e0612ccc565b5b9060005260206000200160008282546121fa9190612d2a565b9250508190555061220a81610a14565b60046001846122199190612d5e565b8154811061222a57612229612ccc565b5b9060005260206000200160008282546122439190612d2a565b925050819055506122b2565b600461225a82610a14565b9080600181540180825580915050600190039060005260206000200160009091909190915055600361228b82610a14565b90806001815401808255809150506001900390600052602060002001600090919091909150555b50505050565b6000806122c483610d58565b915091507fbce7d9c77b584a77086d92f0e16950470c847bca6700cd4d91240c581f5a611a600560003373ffffffffffffffffffffffffffffffffffffffff1673ffffffffffffffffffffffffffffffffffffffff1681526020019081526020016000206000848152602001908152602001600020828154811061234b5761234a612ccc565b5b906000526020600020906005020160000154600560003373ffffffffffffffffffffffffffffffffffffffff1673ffffffffffffffffffffffffffffffffffffffff168152602001908152602001600020600085815260200190815260200160002083815481106123bf576123be612ccc565b5b906000526020600020906005020160010154600560003373ffffffffffffffffffffffffffffffffffffffff1673ffffffffffffffffffffffffffffffffffffffff1681526020019081526020016000206000868152602001908152602001600020848154811061243357612432612ccc565b5b906000526020600020906005020160020154600560003373ffffffffffffffffffffffffffffffffffffffff1673ffffffffffffffffffffffffffffffffffffffff168152602001908152602001600020600087815260200190815260200160002085815481106124a7576124a6612ccc565b5b906000526020600020906005020160030154600560003373ffffffffffffffffffffffffffffffffffffffff1673ffffffffffffffffffffffffffffffffffffffff1681526020019081526020016000206000888152602001908152602001600020868154811061251b5761251a612ccc565b5b906000526020600020906005020160040160009054906101000a900460ff16600560003373ffffffffffffffffffffffffffffffffffffffff1673ffffffffffffffffffffffffffffffffffffffff1681526020019081526020016000206000898152602001908152602001600020878154811061259c5761259b612ccc565b5b906000526020600020906005020160040160019054906101000a900460ff16600560003373ffffffffffffffffffffffffffffffffffffffff1673ffffffffffffffffffffffffffffffffffffffff16815260200190815260200160002060008a8152602001908152602001600020888154811061261d5761261c612ccc565b5b906000526020600020906005020160040160029054906101000a900460ff1660405161264f97969594939291906130ed565b60405180910390a1505050565b60036007600083815260200190815260200160002060030180549050116126b8576040517f08c379a00000000000000000000000000000000000000000000000000000000081526004016126af906131a8565b60405180910390fd5b600060076000838152602001908152602001600020600301805490509050600060076000848152602001908152602001600020600301805490506126fa611df2565b61270491906131c8565b90506000600760008581526020019081526020016000206003018054905061272a611df2565b61273491906131c8565b90506000600760008681526020019081526020016000206003018054905061275a611df2565b61276491906131c8565b90505b8183148061277457508082145b8061277e57508083145b156128e5578183036127bb576001846127979190612d5e565b83146127b1576001826127aa9190612d2a565b92506127b6565b600092505b612829565b8082036127f3576001846127cf9190612d5e565b82146127e9576001816127e29190612d2a565b91506127ee565b600091505b612828565b808303612827576001846128079190612d5e565b83146128215760018161281a9190612d2a565b9250612826565b600092505b5b5b5b600760008681526020019081526020016000206002018390806001815401808255809150506001900390600052602060002001600090919091909150556007600086815260200190815260200160002060020182908060018154018082558091505060019003906000526020600020016000909190919091505560076000868152602001908152602001600020600201819080600181540180825580915050600190039060005260206000200160009091909190915055612767565b5050505050565b6040518060e0016040528060008152602001600081526020016000801916815260200160008152602001600060ff1681526020016000151581526020016000600381111561293d5761293c612d92565b5b81525090565b600080fd5b6000819050919050565b61295b81612948565b811461296657600080fd5b50565b60008135905061297881612952565b92915050565b60006020828403121561299457612993612943565b5b60006129a284828501612969565b91505092915050565b6129b481612948565b82525050565b60006020820190506129cf60008301846129ab565b92915050565b600060ff82169050919050565b6129eb816129d5565b82525050565b6000604082019050612a0660008301856129ab565b612a1360208301846129e2565b9392505050565b60048110612a2757600080fd5b50565b600081359050612a3981612a1a565b92915050565b600060208284031215612a5557612a54612943565b5b6000612a6384828501612a2a565b91505092915050565b60008060408385031215612a8357612a82612943565b5b6000612a9185828601612969565b9250506020612aa285828601612969565b9150509250929050565b6000604082019050612ac160008301856129ab565b612ace60208301846129ab565b9392505050565b600081519050919050565b600082825260208201905092915050565b60005b83811015612b0f578082015181840152602081019050612af4565b60008484015250505050565b6000601f19601f8301169050919050565b6000612b3782612ad5565b612b418185612ae0565b9350612b51818560208601612af1565b612b5a81612b1b565b840191505092915050565b60006040820190508181036000830152612b7f8185612b2c565b9050612b8e60208301846129ab565b9392505050565b600073ffffffffffffffffffffffffffffffffffffffff82169050919050565b6000612bc082612b95565b9050919050565b612bd081612bb5565b8114612bdb57600080fd5b50565b600081359050612bed81612bc7565b92915050565b600060208284031215612c0957612c08612943565b5b6000612c1784828501612bde565b91505092915050565b6000819050919050565b612c3381612c20565b8114612c3e57600080fd5b50565b600081359050612c5081612c2a565b92915050565b6000819050919050565b612c6981612c56565b8114612c7457600080fd5b50565b600081359050612c8681612c60565b92915050565b60008060408385031215612ca357612ca2612943565b5b6000612cb185828601612c41565b9250506020612cc285828601612c77565b9150509250929050565b7f4e487b7100000000000000000000000000000000000000000000000000000000600052603260045260246000fd5b7f4e487b7100000000000000000000000000000000000000000000000000000000600052601160045260246000fd5b6000612d3582612948565b9150612d4083612948565b9250828201905080821115612d5857612d57612cfb565b5b92915050565b6000612d6982612948565b9150612d7483612948565b9250828203905081811115612d8c57612d8b612cfb565b5b92915050565b7f4e487b7100000000000000000000000000000000000000000000000000000000600052602160045260246000fd5b7f696e73756666696369656e742062616c616e6365000000000000000000000000600082015250565b6000612df7601483612ae0565b9150612e0282612dc1565b602082019050919050565b60006020820190508181036000830152612e2681612dea565b9050919050565b6000612e3882612948565b91507fffffffffffffffffffffffffffffffffffffffffffffffffffffffffffffffff8203612e6a57612e69612cfb565b5b600182019050919050565b7f596f75206861766520746f207761697420666f72207468652072657665616c2060008201527f7374616765000000000000000000000000000000000000000000000000000000602082015250565b6000612ed1602583612ae0565b9150612edc82612e75565b604082019050919050565b60006020820190508181036000830152612f0081612ec4565b9050919050565b7f4e487b7100000000000000000000000000000000000000000000000000000000600052601260045260246000fd5b6000612f4182612948565b9150612f4c83612948565b925082612f5c57612f5b612f07565b5b828204905092915050565b7f496e76616c6964206f7065726174696f6e2e0000000000000000000000000000600082015250565b6000612f9d601283612ae0565b9150612fa882612f67565b602082019050919050565b60006020820190508181036000830152612fcc81612f90565b9050919050565b6000819050919050565b612fee612fe982612948565b612fd3565b82525050565b60006130008284612fdd565b60208201915081905092915050565b7f57726f6e6720496e707574000000000000000000000000000000000000000000600082015250565b6000613045600b83612ae0565b91506130508261300f565b602082019050919050565b6000602082019050818103600083015261307481613038565b9050919050565b61308481612c20565b82525050565b60008115159050919050565b61309f8161308a565b82525050565b600481106130b6576130b5612d92565b5b50565b60008190506130c7826130a5565b919050565b60006130d7826130b9565b9050919050565b6130e7816130cc565b82525050565b600060e082019050613102600083018a6129ab565b61310f60208301896129ab565b61311c604083018861307b565b61312960608301876129ab565b61313660808301866129e2565b61314360a0830185613096565b61315060c08301846130de565b98975050505050505050565b7f6e6f7420656e6f756768207469636b6574730000000000000000000000000000600082015250565b6000613192601283612ae0565b915061319d8261315c565b602082019050919050565b600060208201905081810360008301526131c181613185565b9050919050565b60006131d382612948565b91506131de83612948565b9250826131ee576131ed612f07565b5b82820690509291505056fea264697066735822122091d39827729e8a124b561b6f836ceca0ef0929a384354667a869ff3ec542e8a964736f6c63430008120033",
  "linkReferences": {},
  "deployedLinkReferences": {}
}