{
  "_format": "hh-sol-artifact-1",
  "contractName": "FinalLottery",
  "sourceName": "contracts/FinalLottery.sol",
  "abi": [
    {
      "inputs": [],
      "stateMutability": "nonpayable",
      "type": "constructor"
    },
    {
      "anonymous": false,
      "inputs": [
        {
          "indexed": false,
          "internalType": "string",
          "name": "prizeName",
          "type": "string"
        },
        {
          "indexed": false,
          "internalType": "uint256",
          "name": "prize",
          "type": "uint256"
        }
      ],
      "name": "AmountOfPrize",
      "type": "event"
    },
    {
      "anonymous": false,
      "inputs": [
        {
          "indexed": false,
          "internalType": "uint256",
          "name": "totalPrice",
          "type": "uint256"
        }
      ],
      "name": "SinglePriceVal",
      "type": "event"
    },
    {
      "anonymous": false,
      "inputs": [
        {
          "indexed": false,
          "internalType": "uint256",
          "name": "ticketNo",
          "type": "uint256"
        },
        {
          "indexed": false,
          "internalType": "uint256",
          "name": "lotteryNo",
          "type": "uint256"
        },
        {
          "indexed": false,
          "internalType": "bytes32",
          "name": "ticketHash",
          "type": "bytes32"
        },
        {
          "indexed": false,
          "internalType": "uint8",
          "name": "status",
          "type": "uint8"
        },
        {
          "indexed": false,
          "internalType": "bool",
          "name": "active",
          "type": "bool"
        },
        {
          "indexed": false,
          "internalType": "enum FinalLottery.TicketTier",
          "name": "ticketTier",
          "type": "uint8"
        }
      ],
      "name": "TicketInfo",
      "type": "event"
    },
    {
      "anonymous": false,
      "inputs": [
        {
          "indexed": false,
          "internalType": "bool",
          "name": "isWin",
          "type": "bool"
        }
      ],
      "name": "Winner",
      "type": "event"
    },
    {
      "anonymous": false,
      "inputs": [
        {
          "indexed": false,
          "internalType": "uint256",
          "name": "ticketNo",
          "type": "uint256"
        },
        {
          "indexed": false,
          "internalType": "uint256",
          "name": "amount",
          "type": "uint256"
        }
      ],
      "name": "WinningTicket",
      "type": "event"
    },
    {
      "inputs": [
        {
          "internalType": "address",
          "name": "",
          "type": "address"
        }
      ],
      "name": "balance",
      "outputs": [
        {
          "internalType": "uint256",
          "name": "",
          "type": "uint256"
        }
      ],
      "stateMutability": "view",
      "type": "function"
    },
    {
      "inputs": [
        {
          "internalType": "bytes32",
          "name": "hash_rnd_number",
          "type": "bytes32"
        },
        {
          "internalType": "int256",
          "name": "tier",
          "type": "int256"
        }
      ],
      "name": "buyTicket",
      "outputs": [],
      "stateMutability": "nonpayable",
      "type": "function"
    },
    {
      "inputs": [
        {
          "internalType": "uint256",
          "name": "thPrice",
          "type": "uint256"
        },
        {
          "internalType": "uint256",
          "name": "lottery_no",
          "type": "uint256"
        }
      ],
      "name": "calculateSinglePriceValue",
      "outputs": [
        {
          "internalType": "uint256",
          "name": "",
          "type": "uint256"
        }
      ],
      "stateMutability": "nonpayable",
      "type": "function"
    },
    {
      "inputs": [
        {
          "internalType": "uint256",
          "name": "lottery_no",
          "type": "uint256"
        },
        {
          "internalType": "uint256",
          "name": "ticket_no",
          "type": "uint256"
        }
      ],
      "name": "checkIfTicketWon",
      "outputs": [
        {
          "internalType": "uint256",
          "name": "",
          "type": "uint256"
        }
      ],
      "stateMutability": "nonpayable",
      "type": "function"
    },
    {
      "inputs": [
        {
          "internalType": "uint256",
          "name": "lottery_no",
          "type": "uint256"
        },
        {
          "internalType": "uint256",
          "name": "ticket_no",
          "type": "uint256"
        }
      ],
      "name": "collectTicketPrize",
      "outputs": [
        {
          "internalType": "uint256",
          "name": "",
          "type": "uint256"
        }
      ],
      "stateMutability": "nonpayable",
      "type": "function"
    },
    {
      "inputs": [
        {
          "internalType": "uint256",
          "name": "ticket_no",
          "type": "uint256"
        }
      ],
      "name": "collectTicketRefund",
      "outputs": [],
      "stateMutability": "nonpayable",
      "type": "function"
    },
    {
      "inputs": [],
      "name": "depositEther",
      "outputs": [],
      "stateMutability": "payable",
      "type": "function"
    },
    {
      "inputs": [
        {
          "internalType": "uint256",
          "name": "ticket_no",
          "type": "uint256"
        }
      ],
      "name": "findLotteryNoFromTicketNo",
      "outputs": [
        {
          "internalType": "uint256",
          "name": "",
          "type": "uint256"
        }
      ],
      "stateMutability": "nonpayable",
      "type": "function"
    },
    {
      "inputs": [
        {
          "internalType": "uint256",
          "name": "ticket_no",
          "type": "uint256"
        }
      ],
      "name": "findTicketInfosFromNo",
      "outputs": [
        {
          "internalType": "uint256",
          "name": "",
          "type": "uint256"
        },
        {
          "internalType": "uint256",
          "name": "",
          "type": "uint256"
        }
      ],
      "stateMutability": "nonpayable",
      "type": "function"
    },
    {
      "inputs": [],
      "name": "getBalance",
      "outputs": [
        {
          "internalType": "uint256",
          "name": "",
          "type": "uint256"
        }
      ],
      "stateMutability": "view",
      "type": "function"
    },
    {
      "inputs": [
        {
          "internalType": "uint256",
          "name": "i",
          "type": "uint256"
        },
        {
          "internalType": "uint256",
          "name": "lottery_no",
          "type": "uint256"
        }
      ],
      "name": "getIthOwnedTicketNo",
      "outputs": [
        {
          "internalType": "uint256",
          "name": "",
          "type": "uint256"
        },
        {
          "internalType": "uint8",
          "name": "",
          "type": "uint8"
        }
      ],
      "stateMutability": "view",
      "type": "function"
    },
    {
      "inputs": [
        {
          "internalType": "uint256",
          "name": "i",
          "type": "uint256"
        },
        {
          "internalType": "uint256",
          "name": "lottery_no",
          "type": "uint256"
        }
      ],
      "name": "getIthWinningTicket",
      "outputs": [
        {
          "internalType": "uint256",
          "name": "ticket_no",
          "type": "uint256"
        },
        {
          "internalType": "uint256",
          "name": "amount",
          "type": "uint256"
        }
      ],
      "stateMutability": "nonpayable",
      "type": "function"
    },
    {
      "inputs": [
        {
          "internalType": "uint256",
          "name": "lottery_no",
          "type": "uint256"
        }
      ],
      "name": "getLastOwnedTicketNo",
      "outputs": [
        {
          "internalType": "uint256",
          "name": "",
          "type": "uint256"
        },
        {
          "internalType": "uint8",
          "name": "",
          "type": "uint8"
        }
      ],
      "stateMutability": "view",
      "type": "function"
    },
    {
      "inputs": [
        {
          "internalType": "uint256",
          "name": "lottery_no",
          "type": "uint256"
        }
      ],
      "name": "getLotteryMoneyCollected",
      "outputs": [
        {
          "internalType": "uint256",
          "name": "",
          "type": "uint256"
        }
      ],
      "stateMutability": "view",
      "type": "function"
    },
    {
      "inputs": [],
      "name": "getMoneyCollected",
      "outputs": [
        {
          "internalType": "uint256",
          "name": "amount",
          "type": "uint256"
        }
      ],
      "stateMutability": "view",
      "type": "function"
    },
    {
      "inputs": [
        {
          "internalType": "uint256",
          "name": "ticket_no",
          "type": "uint256"
        }
      ],
      "name": "getOwner",
      "outputs": [
        {
          "internalType": "address",
          "name": "",
          "type": "address"
        }
      ],
      "stateMutability": "view",
      "type": "function"
    },
    {
      "inputs": [
        {
          "internalType": "uint256",
          "name": "ticket_number",
          "type": "uint256"
        }
      ],
      "name": "getTicketInfo",
      "outputs": [],
      "stateMutability": "nonpayable",
      "type": "function"
    },
    {
      "inputs": [
        {
          "internalType": "uint256",
          "name": "ticket_no",
          "type": "uint256"
        }
      ],
      "name": "getTicketInfos",
      "outputs": [
        {
          "internalType": "address",
          "name": "",
          "type": "address"
        },
        {
          "internalType": "uint256",
          "name": "",
          "type": "uint256"
        },
        {
          "internalType": "uint256",
          "name": "",
          "type": "uint256"
        },
        {
          "internalType": "bytes32",
          "name": "",
          "type": "bytes32"
        },
        {
          "internalType": "uint8",
          "name": "",
          "type": "uint8"
        },
        {
          "internalType": "bool",
          "name": "",
          "type": "bool"
        },
        {
          "internalType": "enum FinalLottery.TicketTier",
          "name": "",
          "type": "uint8"
        }
      ],
      "stateMutability": "view",
      "type": "function"
    },
    {
      "inputs": [
        {
          "internalType": "uint256",
          "name": "lottery_no",
          "type": "uint256"
        },
        {
          "internalType": "uint256",
          "name": "ticket_no",
          "type": "uint256"
        }
      ],
      "name": "getTicketPrize",
      "outputs": [
        {
          "internalType": "uint256",
          "name": "",
          "type": "uint256"
        }
      ],
      "stateMutability": "view",
      "type": "function"
    },
    {
      "inputs": [
        {
          "internalType": "uint256",
          "name": "lottery_no",
          "type": "uint256"
        }
      ],
      "name": "getTotalPrizeMoney",
      "outputs": [
        {
          "internalType": "uint256",
          "name": "amount",
          "type": "uint256"
        }
      ],
      "stateMutability": "view",
      "type": "function"
    },
    {
      "inputs": [
        {
          "internalType": "uint256",
          "name": "lottery_no",
          "type": "uint256"
        }
      ],
      "name": "getWinningTicket1",
      "outputs": [
        {
          "internalType": "uint256",
          "name": "",
          "type": "uint256"
        }
      ],
      "stateMutability": "view",
      "type": "function"
    },
    {
      "inputs": [
        {
          "internalType": "uint256",
          "name": "lottery_no",
          "type": "uint256"
        }
      ],
      "name": "getWinningTicket2",
      "outputs": [
        {
          "internalType": "uint256",
          "name": "",
          "type": "uint256"
        }
      ],
      "stateMutability": "view",
      "type": "function"
    },
    {
      "inputs": [
        {
          "internalType": "uint256",
          "name": "lottery_no",
          "type": "uint256"
        }
      ],
      "name": "getWinningTicket3",
      "outputs": [
        {
          "internalType": "uint256",
          "name": "",
          "type": "uint256"
        }
      ],
      "stateMutability": "view",
      "type": "function"
    },
    {
      "inputs": [
        {
          "internalType": "enum FinalLottery.TicketTier",
          "name": "tier",
          "type": "uint8"
        }
      ],
      "name": "getamount",
      "outputs": [
        {
          "internalType": "uint256",
          "name": "",
          "type": "uint256"
        }
      ],
      "stateMutability": "pure",
      "type": "function"
    },
    {
      "inputs": [
        {
          "internalType": "uint256",
          "name": "num",
          "type": "uint256"
        }
      ],
      "name": "hashOfANum",
      "outputs": [
        {
          "internalType": "bytes32",
          "name": "",
          "type": "bytes32"
        }
      ],
      "stateMutability": "view",
      "type": "function"
    },
    {
      "inputs": [
        {
          "internalType": "uint256",
          "name": "",
          "type": "uint256"
        }
      ],
      "name": "lotteryInfos",
      "outputs": [
        {
          "internalType": "uint256",
          "name": "lotteryNo",
          "type": "uint256"
        },
        {
          "internalType": "uint256",
          "name": "startTimestamp",
          "type": "uint256"
        }
      ],
      "stateMutability": "view",
      "type": "function"
    },
    {
      "inputs": [],
      "name": "lotteryNoCalculator",
      "outputs": [
        {
          "internalType": "uint256",
          "name": "",
          "type": "uint256"
        }
      ],
      "stateMutability": "view",
      "type": "function"
    },
    {
      "inputs": [
        {
          "internalType": "uint256",
          "name": "",
          "type": "uint256"
        }
      ],
      "name": "moneyCollectedForEachLottery",
      "outputs": [
        {
          "internalType": "uint256",
          "name": "",
          "type": "uint256"
        }
      ],
      "stateMutability": "view",
      "type": "function"
    },
    {
      "inputs": [
        {
          "internalType": "uint256",
          "name": "ticket_no",
          "type": "uint256"
        },
        {
          "internalType": "uint256",
          "name": "random_number",
          "type": "uint256"
        }
      ],
      "name": "revealRndNumber",
      "outputs": [],
      "stateMutability": "nonpayable",
      "type": "function"
    },
    {
      "inputs": [
        {
          "internalType": "uint256",
          "name": "lottery_no",
          "type": "uint256"
        }
      ],
      "name": "ticketCount",
      "outputs": [
        {
          "internalType": "uint256",
          "name": "",
          "type": "uint256"
        }
      ],
      "stateMutability": "view",
      "type": "function"
    },
    {
      "inputs": [
        {
          "internalType": "address",
          "name": "",
          "type": "address"
        },
        {
          "internalType": "uint256",
          "name": "",
          "type": "uint256"
        }
      ],
      "name": "ticketNosArray",
      "outputs": [
        {
          "internalType": "uint256",
          "name": "",
          "type": "uint256"
        }
      ],
      "stateMutability": "view",
      "type": "function"
    },
    {
      "inputs": [
        {
          "internalType": "uint256",
          "name": "lottery_no",
          "type": "uint256"
        }
      ],
      "name": "ticketNosInLotteryGetter",
      "outputs": [
        {
          "internalType": "uint256[]",
          "name": "",
          "type": "uint256[]"
        }
      ],
      "stateMutability": "view",
      "type": "function"
    },
    {
      "inputs": [
        {
          "internalType": "uint256",
          "name": "",
          "type": "uint256"
        }
      ],
      "name": "totalPrizeMoney",
      "outputs": [
        {
          "internalType": "uint256",
          "name": "",
          "type": "uint256"
        }
      ],
      "stateMutability": "view",
      "type": "function"
    },
    {
      "inputs": [
        {
          "internalType": "uint256",
          "name": "lottery_no",
          "type": "uint256"
        },
        {
          "internalType": "uint256",
          "name": "prize",
          "type": "uint256"
        }
      ],
      "name": "transferAmount",
      "outputs": [],
      "stateMutability": "nonpayable",
      "type": "function"
    },
    {
      "inputs": [
        {
          "internalType": "uint256",
          "name": "amount",
          "type": "uint256"
        }
      ],
      "name": "withdrawEther",
      "outputs": [],
      "stateMutability": "payable",
      "type": "function"
    }
  ],
  "bytecode": "0x60806040524260015534801561001457600080fd5b5042600181905550614b958061002b6000396000f3fe6080604052600436106102045760003560e01c80637b16fd6011610118578063ca928efb116100a0578063e3d670d71161006f578063e3d670d714610873578063e4b79b16146108b0578063e54778b5146108ed578063f6789ca01461092b578063ff99a0631461095457610204565b8063ca928efb146107a4578063cb4581d8146107cd578063ce91aa6a1461080a578063e2d2bf341461083557610204565b80639eb76341116100e75780639eb76341146106875780639f45d5af146106b0578063a06cc71a146106ed578063a6588af81461072a578063c41a360a1461076757610204565b80637b16fd60146105c057806390556911146105fd57806398ea5fca146106405780639c7278ca1461064a57610204565b80632b8bdc001161019b5780633bed33ce1161016a5780633bed33ce146104c057806348367d1e146104dc57806357ac796e1461051a578063775f1aec146105455780637a1fb9371461058357610204565b80632b8bdc00146103df5780632e1fe4501461041d5780632e9aeb891461044657806339f7958b1461048357610204565b80630c63f832116101d75780630c63f832146102fd57806312065fe01461033a578063125a7fd6146103655780631572abbe146103a257610204565b806304b35c201461020957806307ac5c8a14610246578063093a63ba146102835780630c40aebd146102c0575b600080fd5b34801561021557600080fd5b50610230600480360381019061022b919061360c565b61097d565b60405161023d9190613648565b60405180910390f35b34801561025257600080fd5b5061026d6004803603810190610268919061360c565b6109ec565b60405161027a9190613648565b60405180910390f35b34801561028f57600080fd5b506102aa60048036038101906102a5919061360c565b610a5b565b6040516102b79190613721565b60405180910390f35b3480156102cc57600080fd5b506102e760048036038101906102e291906137a1565b610ac9565b6040516102f49190613648565b60405180910390f35b34801561030957600080fd5b50610324600480360381019061031f919061360c565b610afa565b6040516103319190613648565b60405180910390f35b34801561034657600080fd5b5061034f610b1d565b60405161035c9190613648565b60405180910390f35b34801561037157600080fd5b5061038c6004803603810190610387919061360c565b610b64565b6040516103999190613648565b60405180910390f35b3480156103ae57600080fd5b506103c960048036038101906103c491906137e1565b610b7c565b6040516103d69190613648565b60405180910390f35b3480156103eb57600080fd5b506104066004803603810190610401919061360c565b610de3565b60405161041492919061383d565b60405180910390f35b34801561042957600080fd5b50610444600480360381019061043f919061360c565b610feb565b005b34801561045257600080fd5b5061046d6004803603810190610468919061360c565b611251565b60405161047a919061387f565b60405180910390f35b34801561048f57600080fd5b506104aa60048036038101906104a591906138bf565b611283565b6040516104b79190613648565b60405180910390f35b6104da60048036038101906104d5919061360c565b611335565b005b3480156104e857600080fd5b5061050360048036038101906104fe91906137e1565b611457565b60405161051192919061383d565b60405180910390f35b34801561052657600080fd5b5061052f6115cc565b60405161053c9190613648565b60405180910390f35b34801561055157600080fd5b5061056c6004803603810190610567919061360c565b6115d6565b60405161057a9291906138ec565b60405180910390f35b34801561058f57600080fd5b506105aa60048036038101906105a5919061360c565b6116a3565b6040516105b79190613648565b60405180910390f35b3480156105cc57600080fd5b506105e760048036038101906105e2919061360c565b6116c0565b6040516105f49190613648565b60405180910390f35b34801561060957600080fd5b50610624600480360381019061061f919061360c565b61172f565b60405161063797969594939291906139b6565b60405180910390f35b61064861183b565b005b34801561065657600080fd5b50610671600480360381019061066c91906137e1565b611893565b60405161067e9190613648565b60405180910390f35b34801561069357600080fd5b506106ae60048036038101906106a991906137e1565b611c4b565b005b3480156106bc57600080fd5b506106d760048036038101906106d2919061360c565b611ed9565b6040516106e49190613648565b60405180910390f35b3480156106f957600080fd5b50610714600480360381019061070f91906137e1565b611ef1565b6040516107219190613648565b60405180910390f35b34801561073657600080fd5b50610751600480360381019061074c919061360c565b6122e2565b60405161075e9190613648565b60405180910390f35b34801561077357600080fd5b5061078e6004803603810190610789919061360c565b6122ff565b60405161079b9190613a25565b60405180910390f35b3480156107b057600080fd5b506107cb60048036038101906107c691906137e1565b61233f565b005b3480156107d957600080fd5b506107f460048036038101906107ef91906137e1565b61241d565b6040516108019190613648565b60405180910390f35b34801561081657600080fd5b5061081f612a24565b60405161082c9190613648565b60405180910390f35b34801561084157600080fd5b5061085c6004803603810190610857919061360c565b612a64565b60405161086a9291906138ec565b60405180910390f35b34801561087f57600080fd5b5061089a60048036038101906108959190613a40565b612a88565b6040516108a79190613648565b60405180910390f35b3480156108bc57600080fd5b506108d760048036038101906108d2919061360c565b612aa0565b6040516108e49190613648565b60405180910390f35b3480156108f957600080fd5b50610914600480360381019061090f91906137e1565b612b50565b6040516109229291906138ec565b60405180910390f35b34801561093757600080fd5b50610952600480360381019061094d9190613acf565b612d32565b005b34801561096057600080fd5b5061097b6004803603810190610976919061360c565b613273565b005b600060056000838152602001908152602001600020600301600560008481526020019081526020016000206002016000815481106109be576109bd613b0f565b5b9060005260206000200154815481106109da576109d9613b0f565b5b90600052602060002001549050919050565b60006005600083815260200190815260200160002060030160056000848152602001908152602001600020600201600081548110610a2d57610a2c613b0f565b5b906000526020600020015481548110610a4957610a48613b0f565b5b90600052602060002001549050919050565b606060056000838152602001908152602001600020600301805480602002602001604051908101604052809291908181526020018280548015610abd57602002820191906000526020600020905b815481526020019060010190808311610aa9575b50505050509050919050565b60036020528160005260406000208181548110610ae557600080fd5b90600052602060002001600091509150505481565b600060056000838152602001908152602001600020600301805490509050919050565b6000600460003373ffffffffffffffffffffffffffffffffffffffff1673ffffffffffffffffffffffffffffffffffffffff16815260200190815260200160002054905090565b60066020528060005260406000206000915090505481565b60008054821115610bc2576040517f08c379a0000000000000000000000000000000000000000000000000000000008152600401610bb990613bc1565b60405180910390fd5b60016008600084815260200190815260200160002060040160009054906101000a900460ff1660ff1614610c2b576040517f08c379a0000000000000000000000000000000000000000000000000000000008152600401610c2290613c2d565b60405180910390fd5b3373ffffffffffffffffffffffffffffffffffffffff166008600084815260200190815260200160002060000160009054906101000a900473ffffffffffffffffffffffffffffffffffffffff1673ffffffffffffffffffffffffffffffffffffffff1614610ccf576040517f08c379a0000000000000000000000000000000000000000000000000000000008152600401610cc690613c99565b60405180910390fd5b6003600560008581526020019081526020016000206002018054905014610d2b576040517f08c379a0000000000000000000000000000000000000000000000000000000008152600401610d2290613d2b565b60405180910390fd5b600080600090505b6003811015610dd8578360056000878152602001908152602001600020600301600560008881526020019081526020016000206002018381548110610d7b57610d7a613b0f565b5b906000526020600020015481548110610d9757610d96613b0f565b5b906000526020600020015403610dc5576207a120600182610db89190613d7a565b610dc29190613dae565b91505b8080610dd090613df0565b915050610d33565b508091505092915050565b6000806000600360003373ffffffffffffffffffffffffffffffffffffffff1673ffffffffffffffffffffffffffffffffffffffff1681526020019081526020016000208054905011610e6b576040517f08c379a0000000000000000000000000000000000000000000000000000000008152600401610e6290613e84565b60405180910390fd5b600080600090505b600360003373ffffffffffffffffffffffffffffffffffffffff1673ffffffffffffffffffffffffffffffffffffffff16815260200190815260200160002080549050811015610fe3578460086000600360003373ffffffffffffffffffffffffffffffffffffffff1673ffffffffffffffffffffffffffffffffffffffff1681526020019081526020016000208481548110610f1357610f12613b0f565b5b90600052602060002001548152602001908152602001600020600201541115610fd057600360003373ffffffffffffffffffffffffffffffffffffffff1673ffffffffffffffffffffffffffffffffffffffff168152602001908152602001600020600182610f829190613ea4565b81548110610f9357610f92613b0f565b5b90600052602060002001549150816008600084815260200190815260200160002060040160009054906101000a900460ff16935093505050610fe6565b8080610fdb90613df0565b915050610e73565b50505b915091565b600054811115611030576040517f08c379a000000000000000000000000000000000000000000000000000000000815260040161102790613f4a565b60405180910390fd5b3373ffffffffffffffffffffffffffffffffffffffff166008600083815260200190815260200160002060000160009054906101000a900473ffffffffffffffffffffffffffffffffffffffff1673ffffffffffffffffffffffffffffffffffffffff16146110d4576040517f08c379a00000000000000000000000000000000000000000000000000000000081526004016110cb90613fdc565b60405180910390fd5b6110dc612a24565b600860008381526020019081526020016000206002015414611133576040517f08c379a000000000000000000000000000000000000000000000000000000000815260040161112a90614048565b60405180910390fd5b60006008600083815260200190815260200160002060020154905060006008600084815260200190815260200160002060040160029054906101000a900460ff169050600061118182611283565b905080600460003373ffffffffffffffffffffffffffffffffffffffff1673ffffffffffffffffffffffffffffffffffffffff16815260200190815260200160002060008282546111d29190613d7a565b92505081905550806006600085815260200190815260200160002060008282546111fc9190613ea4565b9250508190555080600260008282546112159190613ea4565b9250508190555060006008600086815260200190815260200160002060040160016101000a81548160ff02191690831515021790555050505050565b600033826040516020016112669291906140d1565b604051602081830303815290604052805190602001209050919050565b6000806000600381111561129a5761129961393f565b5b8360038111156112ad576112ac61393f565b5b036112bb576050905061132c565b600160038111156112cf576112ce61393f565b5b8360038111156112e2576112e161393f565b5b036112f0576028905061132b565b600060038111156113045761130361393f565b5b8360038111156113175761131661393f565b5b03611325576014905061132a565b600090505b5b5b80915050919050565b80600460003373ffffffffffffffffffffffffffffffffffffffff1673ffffffffffffffffffffffffffffffffffffffff1681526020019081526020016000205410156113b7576040517f08c379a00000000000000000000000000000000000000000000000000000000081526004016113ae90614149565b60405180910390fd5b80600460003373ffffffffffffffffffffffffffffffffffffffff1673ffffffffffffffffffffffffffffffffffffffff16815260200190815260200160002060008282546114069190613ea4565b925050819055503373ffffffffffffffffffffffffffffffffffffffff166108fc829081150290604051600060405180830381858888f19350505050158015611453573d6000803e3d6000fd5b5050565b600080611462612a24565b8311156114a4576040517f08c379a000000000000000000000000000000000000000000000000000000000815260040161149b906141b5565b60405180910390fd5b83600360003373ffffffffffffffffffffffffffffffffffffffff1673ffffffffffffffffffffffffffffffffffffffff168152602001908152602001600020805490501015611529576040517f08c379a000000000000000000000000000000000000000000000000000000000815260040161152090614221565b60405180910390fd5b6000600360003373ffffffffffffffffffffffffffffffffffffffff1673ffffffffffffffffffffffffffffffffffffffff1681526020019081526020016000206001866115779190613ea4565b8154811061158857611587613b0f565b5b9060005260206000200154905060006008600083815260200190815260200160002060040160009054906101000a900460ff16905081819350935050509250929050565b6000600254905090565b60008060006115e3612a24565b905060005b6001826115f59190613d7a565b81101561169b5760005b600360003373ffffffffffffffffffffffffffffffffffffffff1673ffffffffffffffffffffffffffffffffffffffff1681526020019081526020016000208054905081101561168757856008600088815260200190815260200160002060010154036116745781819450945050505061169e565b808061167f90613df0565b9150506115ff565b50808061169390613df0565b9150506115e8565b50505b915091565b600060076000838152602001908152602001600020549050919050565b6000600560008381526020019081526020016000206003016005600084815260200190815260200160002060020160008154811061170157611700613b0f565b5b90600052602060002001548154811061171d5761171c613b0f565b5b90600052602060002001549050919050565b60008060008060008060006008600089815260200190815260200160002060000160009054906101000a900473ffffffffffffffffffffffffffffffffffffffff16600860008a815260200190815260200160002060010154600860008b815260200190815260200160002060020154600860008c815260200190815260200160002060030154600860008d815260200190815260200160002060040160009054906101000a900460ff16600860008e815260200190815260200160002060040160019054906101000a900460ff16600860008f815260200190815260200160002060040160029054906101000a900460ff169650965096509650965096509650919395979092949650565b34600460003373ffffffffffffffffffffffffffffffffffffffff1673ffffffffffffffffffffffffffffffffffffffff168152602001908152602001600020600082825461188a9190613d7a565b92505081905550565b600061189d612a24565b8311156118df576040517f08c379a00000000000000000000000000000000000000000000000000000000081526004016118d6906142b3565b60405180910390fd5b600054821115611924576040517f08c379a000000000000000000000000000000000000000000000000000000000815260040161191b90613bc1565b60405180910390fd5b60016008600084815260200190815260200160002060040160009054906101000a900460ff1660ff161461198d576040517f08c379a00000000000000000000000000000000000000000000000000000000081526004016119849061431f565b60405180910390fd5b3373ffffffffffffffffffffffffffffffffffffffff166008600084815260200190815260200160002060000160009054906101000a900473ffffffffffffffffffffffffffffffffffffffff1673ffffffffffffffffffffffffffffffffffffffff1614611a31576040517f08c379a0000000000000000000000000000000000000000000000000000000008152600401611a2890613c99565b60405180910390fd5b6003600560008581526020019081526020016000206002018054905014611a8d576040517f08c379a0000000000000000000000000000000000000000000000000000000008152600401611a8490613d2b565b60405180910390fd5b6003600560008581526020019081526020016000206002018054905014611af557611ab783613374565b611ac08361357c565b6007600085815260200190815260200160002081905550611af483600760008681526020019081526020016000205461233f565b5b600080600090505b6003811015611b8c578360056000878152602001908152602001600020600301600560008881526020019081526020016000206002018381548110611b4557611b44613b0f565b5b906000526020600020015481548110611b6157611b60613b0f565b5b906000526020600020015403611b7957809150611b8c565b8080611b8490613df0565b915050611afd565b506000611ba5600183611b9f9190613d7a565b8661241d565b90508060026000828254611bb99190613ea4565b9250508190555080600660008781526020019081526020016000206000828254611be39190613ea4565b9250508190555080600460003373ffffffffffffffffffffffffffffffffffffffff1673ffffffffffffffffffffffffffffffffffffffff1681526020019081526020016000206000828254611c399190613d7a565b92505081905550809250505092915050565b600054821115611c90576040517f08c379a0000000000000000000000000000000000000000000000000000000008152600401611c8790613f4a565b60405180910390fd5b3373ffffffffffffffffffffffffffffffffffffffff166008600084815260200190815260200160002060000160009054906101000a900473ffffffffffffffffffffffffffffffffffffffff1673ffffffffffffffffffffffffffffffffffffffff1614611d34576040517f08c379a0000000000000000000000000000000000000000000000000000000008152600401611d2b90613fdc565b60405180910390fd5b6001611d3e612a24565b611d489190613ea4565b600860008481526020019081526020016000206002015414611d9f576040517f08c379a0000000000000000000000000000000000000000000000000000000008152600401611d969061438b565b60405180910390fd5b60006008600084815260200190815260200160002060040160009054906101000a900460ff1660ff1614611e08576040517f08c379a0000000000000000000000000000000000000000000000000000000008152600401611dff906143f7565b60405180910390fd5b60003382604051602001611e1d9291906140d1565b604051602081830303815290604052805190602001209050600080611e41856115d6565b9150915060086000868152602001908152602001600020600301548303611e975760016008600087815260200190815260200160002060040160006101000a81548160ff021916908360ff160217905550611ed2565b6040517f08c379a0000000000000000000000000000000000000000000000000000000008152600401611ec990614463565b60405180910390fd5b5050505050565b60076020528060005260406000206000915090505481565b6000611efb612a24565b831115611f3d576040517f08c379a0000000000000000000000000000000000000000000000000000000008152600401611f34906142b3565b60405180910390fd5b6003600560008581526020019081526020016000206002018054905014611fa557611f6783613374565b611f708361357c565b6007600085815260200190815260200160002081905550611fa483600760008681526020019081526020016000205461233f565b5b600054821115611fea576040517f08c379a0000000000000000000000000000000000000000000000000000000008152600401611fe190613bc1565b60405180910390fd5b3373ffffffffffffffffffffffffffffffffffffffff166008600084815260200190815260200160002060000160009054906101000a900473ffffffffffffffffffffffffffffffffffffffff1673ffffffffffffffffffffffffffffffffffffffff161461208e576040517f08c379a000000000000000000000000000000000000000000000000000000000815260040161208590613c99565b60405180910390fd5b60016008600084815260200190815260200160002060040160009054906101000a900460ff1660ff16146120f7576040517f08c379a00000000000000000000000000000000000000000000000000000000081526004016120ee906144f5565b60405180910390fd5b60008060606000600560008881526020019081526020016000206003016005600089815260200190815260200160002060020160008154811061213d5761213c613b0f565b5b90600052602060002001548154811061215957612158613b0f565b5b90600052602060002001549050600060056000898152602001908152602001600020600301600560008a81526020019081526020016000206002016001815481106121a7576121a6613b0f565b5b9060005260206000200154815481106121c3576121c2613b0f565b5b906000526020600020015490506000600560008a8152602001908152602001600020600301600560008b815260200190815260200160002060020160028154811061221157612210613b0f565b5b90600052602060002001548154811061222d5761222c613b0f565b5b906000526020600020015490508288036122575761224c60018a61241d565b95506001945061229c565b8188036122745761226960028a61241d565b95506001945061229b565b8088036122915761228660038a61241d565b95506001945061229a565b60009450600095505b5b5b7fd73f7c981987819875eab304d6558aecc1d944c068aa8fc4383b7378af31a1a2856040516122cb9190614515565b60405180910390a185965050505050505092915050565b600060066000838152602001908152602001600020549050919050565b60006008600083815260200190815260200160002060000160009054906101000a900473ffffffffffffffffffffffffffffffffffffffff169050919050565b806007600084815260200190815260200160002060008282546123629190613d7a565b9250508190555080600660008481526020019081526020016000205410156123bf576040517f08c379a00000000000000000000000000000000000000000000000000000000081526004016123b6906145c8565b60405180910390fd5b60008160066000858152602001908152602001600020546123e09190613ea4565b905080600660006001866123f49190613d7a565b815260200190815260200160002060008282546124119190613d7a565b92505081905550505050565b6000600183148061242e5750600283145b806124395750600383145b612478576040517f08c379a000000000000000000000000000000000000000000000000000000000815260040161246f90614634565b60405180910390fd5b612480612a24565b8211156124c2576040517f08c379a00000000000000000000000000000000000000000000000000000000081526004016124b9906146a0565b60405180910390fd5b600360056000848152602001908152602001600020600201805490501461251e576040517f08c379a000000000000000000000000000000000000000000000000000000000815260040161251590614732565b60405180910390fd5b600080600560008581526020019081526020016000206003016005600086815260200190815260200160002060020160018761255a9190613ea4565b8154811061256b5761256a613b0f565b5b90600052602060002001548154811061258757612586613b0f565b5b906000526020600020015490506001850361270157600060038111156125b0576125af61393f565b5b6008600083815260200190815260200160002060040160029054906101000a900460ff1660038111156125e6576125e561393f565b5b03612612576002600660008681526020019081526020016000205461260b9190614781565b91506126fc565b600160038111156126265761262561393f565b5b6008600083815260200190815260200160002060040160029054906101000a900460ff16600381111561265c5761265b61393f565b5b0361268857600460066000868152602001908152602001600020546126819190614781565b91506126fb565b6002600381111561269c5761269b61393f565b5b6008600083815260200190815260200160002060040160029054906101000a900460ff1660038111156126d2576126d161393f565b5b036126fa57600860066000868152602001908152602001600020546126f79190614781565b91505b5b5b6129e2565b6002850361286e576000600381111561271d5761271c61393f565b5b6008600083815260200190815260200160002060040160029054906101000a900460ff1660038111156127535761275261393f565b5b0361277f57600460066000868152602001908152602001600020546127789190614781565b9150612869565b600160038111156127935761279261393f565b5b6008600083815260200190815260200160002060040160029054906101000a900460ff1660038111156127c9576127c861393f565b5b036127f557600860066000868152602001908152602001600020546127ee9190614781565b9150612868565b600260038111156128095761280861393f565b5b6008600083815260200190815260200160002060040160029054906101000a900460ff16600381111561283f5761283e61393f565b5b0361286757601060066000868152602001908152602001600020546128649190614781565b91505b5b5b6129e1565b600385036129db576000600381111561288a5761288961393f565b5b6008600083815260200190815260200160002060040160029054906101000a900460ff1660038111156128c0576128bf61393f565b5b036128ec57600860066000868152602001908152602001600020546128e59190614781565b91506129d6565b60016003811115612900576128ff61393f565b5b6008600083815260200190815260200160002060040160029054906101000a900460ff1660038111156129365761293561393f565b5b03612962576010600660008681526020019081526020016000205461295b9190614781565b91506129d5565b600260038111156129765761297561393f565b5b6008600083815260200190815260200160002060040160029054906101000a900460ff1660038111156129ac576129ab61393f565b5b036129d457602060066000868152602001908152602001600020546129d19190614781565b91505b5b5b6129e0565b600091505b5b5b7f974e74184da6a16ed3a4b3389a7052258330f5f98e2eca5b302fde0f5a98babd82604051612a119190613648565b60405180910390a1819250505092915050565b600080429050600060015482612a3a9190613ea4565b90506000600162093a8083612a4f9190614781565b612a599190613d7a565b905080935050505090565b60056020528060005260406000206000915090508060000154908060010154905082565b60046020528060005260406000206000915090505481565b600080612aab612a24565b9050600080600190505b82811015612b455760005b6005600083815260200190815260200160002060030180549050811015612b3157600560008381526020019081526020016000206003018181548110612b0957612b08613b0f565b5b90600052602060002001548603612b1e578192505b8080612b2990613df0565b915050612ac0565b508080612b3d90613df0565b915050612ab5565b508092505050919050565b600080612b5b612a24565b831115612b9d576040517f08c379a0000000000000000000000000000000000000000000000000000000008152600401612b94906142b3565b60405180910390fd5b6003600560008581526020019081526020016000206002018054905014612c0557612bc783613374565b612bd08361357c565b6007600085815260200190815260200160002081905550612c0483600760008681526020019081526020016000205461233f565b5b6001841480612c145750600284145b80612c1f5750600384145b612c5e576040517f08c379a0000000000000000000000000000000000000000000000000000000008152600401612c5590614824565b60405180910390fd5b600060056000858152602001908152602001600020600201600186612c839190613ea4565b81548110612c9457612c93613b0f565b5b90600052602060002001549050600560008581526020019081526020016000206003018181548110612cc957612cc8613b0f565b5b90600052602060002001549250612cdf836115d6565b905080915050612cef858561241d565b91507f9ccbea8acda54bc998251706a6d0054e0a880c3f38e70c8eaf6bd9b383c99dad8383604051612d229291906138ec565b60405180910390a1509250929050565b6001600080828254612d449190613d7a565b925050819055506000612d55612a24565b9050600060038303612dec576014600460003373ffffffffffffffffffffffffffffffffffffffff1673ffffffffffffffffffffffffffffffffffffffff1681526020019081526020016000205411612de3576040517f08c379a0000000000000000000000000000000000000000000000000000000008152600401612dda906148b6565b60405180910390fd5b60029050612f10565b60028303612e7f576028600460003373ffffffffffffffffffffffffffffffffffffffff1673ffffffffffffffffffffffffffffffffffffffff1681526020019081526020016000205411612e76576040517f08c379a0000000000000000000000000000000000000000000000000000000008152600401612e6d90614948565b60405180910390fd5b60019050612f0f565b60018303612f0e576050600460003373ffffffffffffffffffffffffffffffffffffffff1673ffffffffffffffffffffffffffffffffffffffff1681526020019081526020016000205411612f09576040517f08c379a0000000000000000000000000000000000000000000000000000000008152600401612f00906149da565b60405180910390fd5b600090505b5b5b60038210612fc957600360056000600285612f2b9190613ea4565b81526020019081526020016000206002018054905014612fc857612f5a600283612f559190613ea4565b613374565b612f6f600283612f6a9190613ea4565b61357c565b60076000600285612f809190613ea4565b815260200190815260200160002081905550612fc7600283612fa29190613ea4565b60076000600286612fb39190613ea4565b81526020019081526020016000205461233f565b5b5b33600860008054815260200190815260200160002060000160006101000a81548173ffffffffffffffffffffffffffffffffffffffff021916908373ffffffffffffffffffffffffffffffffffffffff16021790555060005460086000805481526020019081526020016000206001018190555081600860008054815260200190815260200160002060020181905550836008600080548152602001908152602001600020600301819055506000600860008054815260200190815260200160002060040160006101000a81548160ff021916908360ff1602179055506001600860008054815260200190815260200160002060040160016101000a81548160ff02191690831515021790555080600860008054815260200190815260200160002060040160026101000a81548160ff021916908360038111156131105761310f61393f565b5b0217905550600360003373ffffffffffffffffffffffffffffffffffffffff1673ffffffffffffffffffffffffffffffffffffffff168152602001908152602001600020600054908060018154018082558091505060019003906000526020600020016000909190919091505561318681611283565b600460003373ffffffffffffffffffffffffffffffffffffffff1673ffffffffffffffffffffffffffffffffffffffff16815260200190815260200160002060008282546131d49190613ea4565b925050819055506131e481611283565b600260008282546131f59190613d7a565b9250508190555060056000838152602001908152602001600020600301600054908060018154018082558091505060019003906000526020600020016000909190919091505561324481611283565b6006600084815260200190815260200160002060008282546132669190613d7a565b9250508190555050505050565b60008061327f836115d6565b915091507f67861b1d1c8fd76d9078e5517f1fed406d719c58d7c157a90c254637ed34c9d26008600085815260200190815260200160002060010154600860008681526020019081526020016000206002015460086000878152602001908152602001600020600301546008600088815260200190815260200160002060040160009054906101000a900460ff166008600089815260200190815260200160002060040160019054906101000a900460ff16600860008a815260200190815260200160002060040160029054906101000a900460ff16604051613367969594939291906149fa565b60405180910390a1505050565b6003600560008381526020019081526020016000206003018054905010156133d1576040517f08c379a00000000000000000000000000000000000000000000000000000000081526004016133c890614af3565b60405180910390fd5b6000600160056000848152602001908152602001600020600301805490506133f99190613ea4565b90506000814260405160200161340f9190614b13565b6040516020818303038152906040528051906020012060001c6134329190614b2e565b90506000826001426134449190613d7a565b6040516020016134549190614b13565b6040516020818303038152906040528051906020012060001c6134779190614b2e565b90506000836002426134899190613d7a565b6040516020016134999190614b13565b6040516020818303038152906040528051906020012060001c6134bc9190614b2e565b90506005600086815260200190815260200160002060020183908060018154018082558091505060019003906000526020600020016000909190919091505560056000868152602001908152602001600020600201829080600181540180825580915050600190039060005260206000200160009091909190915055600560008681526020019081526020016000206002018190806001815401808255809150506001900390600052602060002001600090919091909150555050505050565b60008061358a60018461241d565b9050600061359960028561241d565b905060006135a860038661241d565b905060008183856135b99190613d7a565b6135c39190613d7a565b905080945050505050919050565b600080fd5b6000819050919050565b6135e9816135d6565b81146135f457600080fd5b50565b600081359050613606816135e0565b92915050565b600060208284031215613622576136216135d1565b5b6000613630848285016135f7565b91505092915050565b613642816135d6565b82525050565b600060208201905061365d6000830184613639565b92915050565b600081519050919050565b600082825260208201905092915050565b6000819050602082019050919050565b613698816135d6565b82525050565b60006136aa838361368f565b60208301905092915050565b6000602082019050919050565b60006136ce82613663565b6136d8818561366e565b93506136e38361367f565b8060005b838110156137145781516136fb888261369e565b9750613706836136b6565b9250506001810190506136e7565b5085935050505092915050565b6000602082019050818103600083015261373b81846136c3565b905092915050565b600073ffffffffffffffffffffffffffffffffffffffff82169050919050565b600061376e82613743565b9050919050565b61377e81613763565b811461378957600080fd5b50565b60008135905061379b81613775565b92915050565b600080604083850312156137b8576137b76135d1565b5b60006137c68582860161378c565b92505060206137d7858286016135f7565b9150509250929050565b600080604083850312156137f8576137f76135d1565b5b6000613806858286016135f7565b9250506020613817858286016135f7565b9150509250929050565b600060ff82169050919050565b61383781613821565b82525050565b60006040820190506138526000830185613639565b61385f602083018461382e565b9392505050565b6000819050919050565b61387981613866565b82525050565b60006020820190506138946000830184613870565b92915050565b600481106138a757600080fd5b50565b6000813590506138b98161389a565b92915050565b6000602082840312156138d5576138d46135d1565b5b60006138e3848285016138aa565b91505092915050565b60006040820190506139016000830185613639565b61390e6020830184613639565b9392505050565b61391e81613763565b82525050565b60008115159050919050565b61393981613924565b82525050565b7f4e487b7100000000000000000000000000000000000000000000000000000000600052602160045260246000fd5b6004811061397f5761397e61393f565b5b50565b60008190506139908261396e565b919050565b60006139a082613982565b9050919050565b6139b081613995565b82525050565b600060e0820190506139cb600083018a613915565b6139d86020830189613639565b6139e56040830188613639565b6139f26060830187613870565b6139ff608083018661382e565b613a0c60a0830185613930565b613a1960c08301846139a7565b98975050505050505050565b6000602082019050613a3a6000830184613915565b92915050565b600060208284031215613a5657613a556135d1565b5b6000613a648482850161378c565b91505092915050565b613a7681613866565b8114613a8157600080fd5b50565b600081359050613a9381613a6d565b92915050565b6000819050919050565b613aac81613a99565b8114613ab757600080fd5b50565b600081359050613ac981613aa3565b92915050565b60008060408385031215613ae657613ae56135d1565b5b6000613af485828601613a84565b9250506020613b0585828601613aba565b9150509250929050565b7f4e487b7100000000000000000000000000000000000000000000000000000000600052603260045260246000fd5b600082825260208201905092915050565b7f546865207469636b657420796f75206172652072657175657374696e6720646f60008201527f6573206e6f742065786973740000000000000000000000000000000000000000602082015250565b6000613bab602c83613b3e565b9150613bb682613b4f565b604082019050919050565b60006020820190508181036000830152613bda81613b9e565b9050919050565b7f6e6f742072657665616c65640000000000000000000000000000000000000000600082015250565b6000613c17600c83613b3e565b9150613c2282613be1565b602082019050919050565b60006020820190508181036000830152613c4681613c0a565b9050919050565b7f596f7520617265206e6f7420746865206f776e65722100000000000000000000600082015250565b6000613c83601683613b3e565b9150613c8e82613c4d565b602082019050919050565b60006020820190508181036000830152613cb281613c76565b9050919050565b7f57696e6e657273207469636b65742068617665206e6f74206265656e2073656c60008201527f6563746564207965740000000000000000000000000000000000000000000000602082015250565b6000613d15602983613b3e565b9150613d2082613cb9565b604082019050919050565b60006020820190508181036000830152613d4481613d08565b9050919050565b7f4e487b7100000000000000000000000000000000000000000000000000000000600052601160045260246000fd5b6000613d85826135d6565b9150613d90836135d6565b9250828201905080821115613da857613da7613d4b565b5b92915050565b6000613db9826135d6565b9150613dc4836135d6565b9250828202613dd2816135d6565b91508282048414831517613de957613de8613d4b565b5b5092915050565b6000613dfb826135d6565b91507fffffffffffffffffffffffffffffffffffffffffffffffffffffffffffffffff8203613e2d57613e2c613d4b565b5b600182019050919050565b7f596f7520646f6e6074206861766520616e79207469636b657473000000000000600082015250565b6000613e6e601a83613b3e565b9150613e7982613e38565b602082019050919050565b60006020820190508181036000830152613e9d81613e61565b9050919050565b6000613eaf826135d6565b9150613eba836135d6565b9250828203905081811115613ed257613ed1613d4b565b5b92915050565b7f5468657265206973206e6f207469636b657420776974682074686973206e756d60008201527f62657220696e207468652073797374656d000000000000000000000000000000602082015250565b6000613f34603183613b3e565b9150613f3f82613ed8565b604082019050919050565b60006020820190508181036000830152613f6381613f27565b9050919050565b7f596f7520617265206e6f7420746865206f776e6572206f66207468697320746960008201527f636b657400000000000000000000000000000000000000000000000000000000602082015250565b6000613fc6602483613b3e565b9150613fd182613f6a565b604082019050919050565b60006020820190508181036000830152613ff581613fb9565b9050919050565b7f596f752063616e6e6f7420726566756e6420616e796d6f726500000000000000600082015250565b6000614032601983613b3e565b915061403d82613ffc565b602082019050919050565b6000602082019050818103600083015261406181614025565b9050919050565b60008160601b9050919050565b600061408082614068565b9050919050565b600061409282614075565b9050919050565b6140aa6140a582613763565b614087565b82525050565b6000819050919050565b6140cb6140c6826135d6565b6140b0565b82525050565b60006140dd8285614099565b6014820191506140ed82846140ba565b6020820191508190509392505050565b7f696e73756666696369656e742062616c616e6365000000000000000000000000600082015250565b6000614133601483613b3e565b915061413e826140fd565b602082019050919050565b6000602082019050818103600083015261416281614126565b9050919050565b7f4c6f747465727920686173206e6f742073746172746564207965740000000000600082015250565b600061419f601b83613b3e565b91506141aa82614169565b602082019050919050565b600060208201905081810360008301526141ce81614192565b9050919050565b7f596f7520646f6e607420686176652074686174206d616e79207469636b657473600082015250565b600061420b602083613b3e565b9150614216826141d5565b602082019050919050565b6000602082019050818103600083015261423a816141fe565b9050919050565b7f4c6f747465727920796f75206172652072657175657374696e6720686173206e60008201527f6f74207374617274656420796574210000000000000000000000000000000000602082015250565b600061429d602f83613b3e565b91506142a882614241565b604082019050919050565b600060208201905081810360008301526142cc81614290565b9050919050565b7f5469636b6574206973206e6f742072657665616c656400000000000000000000600082015250565b6000614309601683613b3e565b9150614314826142d3565b602082019050919050565b60006020820190508181036000830152614338816142fc565b9050919050565b7f696e636f72726563742074696d6520746f2072657665616c0000000000000000600082015250565b6000614375601883613b3e565b91506143808261433f565b602082019050919050565b600060208201905081810360008301526143a481614368565b9050919050565b7f536f7272792c20796f75206861766520616c72656164792072657665616c6564600082015250565b60006143e1602083613b3e565b91506143ec826143ab565b602082019050919050565b60006020820190508181036000830152614410816143d4565b9050919050565b7f496e636f7272656374206e756d62657221000000000000000000000000000000600082015250565b600061444d601183613b3e565b915061445882614417565b602082019050919050565b6000602082019050818103600083015261447c81614440565b9050919050565b7f596f752068617665206e6f742072657665616c6564207468652072616e646f6d60008201527f206e756d62657220796574210000000000000000000000000000000000000000602082015250565b60006144df602c83613b3e565b91506144ea82614483565b604082019050919050565b6000602082019050818103600083015261450e816144d2565b9050919050565b600060208201905061452a6000830184613930565b92915050565b7f4c6f747465727920697320696e76616c69642c2062656361757365207468657260008201527f65206973206e6f7420656e6f756768206d6f6e657920696e20746865204c6f7460208201527f7465727920666f7220746865207072697a657300000000000000000000000000604082015250565b60006145b2605383613b3e565b91506145bd82614530565b606082019050919050565b600060208201905081810360008301526145e1816145a5565b9050919050565b7f496e76616c696420707269636520747970652100000000000000000000000000600082015250565b600061461e601383613b3e565b9150614629826145e8565b602082019050919050565b6000602082019050818103600083015261464d81614611565b9050919050565b7f496e76616c6964206c6f7474657279206e756d62657221000000000000000000600082015250565b600061468a601783613b3e565b915061469582614654565b602082019050919050565b600060208201905081810360008301526146b98161467d565b9050919050565b7f5468657265206973206e6f2077696e6e696e67207469636b65742073656c656360008201527f7465642079657421000000000000000000000000000000000000000000000000602082015250565b600061471c602883613b3e565b9150614727826146c0565b604082019050919050565b6000602082019050818103600083015261474b8161470f565b9050919050565b7f4e487b7100000000000000000000000000000000000000000000000000000000600052601260045260246000fd5b600061478c826135d6565b9150614797836135d6565b9250826147a7576147a6614752565b5b828204905092915050565b7f496e76616c6964206e756d626572206f662077696e6e696e67207469636b657460008201527f2100000000000000000000000000000000000000000000000000000000000000602082015250565b600061480e602183613b3e565b9150614819826147b2565b604082019050919050565b6000602082019050818103600083015261483d81614801565b9050919050565b7f696e73756666696369656e742062616c616e636520666f72207175617274657260008201527f207469636b657400000000000000000000000000000000000000000000000000602082015250565b60006148a0602783613b3e565b91506148ab82614844565b604082019050919050565b600060208201905081810360008301526148cf81614893565b9050919050565b7f696e73756666696369656e742062616c616e636520666f722068616c6620746960008201527f636b657400000000000000000000000000000000000000000000000000000000602082015250565b6000614932602483613b3e565b915061493d826148d6565b604082019050919050565b6000602082019050818103600083015261496181614925565b9050919050565b7f696e73756666696369656e742062616c616e636520666f722066756c6c20746960008201527f636b657400000000000000000000000000000000000000000000000000000000602082015250565b60006149c4602483613b3e565b91506149cf82614968565b604082019050919050565b600060208201905081810360008301526149f3816149b7565b9050919050565b600060c082019050614a0f6000830189613639565b614a1c6020830188613639565b614a296040830187613870565b614a36606083018661382e565b614a436080830185613930565b614a5060a08301846139a7565b979650505050505050565b7f5468657265206973206e6f7420656e6f756768207469636b657420666f72207060008201527f69636b696e672077696e6e6572732c206c6f74746572792069732063616e636560208201527f6c6c656421000000000000000000000000000000000000000000000000000000604082015250565b6000614add604583613b3e565b9150614ae882614a5b565b606082019050919050565b60006020820190508181036000830152614b0c81614ad0565b9050919050565b6000614b1f82846140ba565b60208201915081905092915050565b6000614b39826135d6565b9150614b44836135d6565b925082614b5457614b53614752565b5b82820690509291505056fea264697066735822122025f04e935c01b4def62db1f16583f1e52dc14f9b55cbf74ef71fe7aa603bb12864736f6c63430008120033",
  "linkReferences": {},
  "deployedLinkReferences": {}
}