{
  "_format": "hh-sol-artifact-1",
  "contractName": "FinalLottery",
  "sourceName": "contracts/FinalLottery.sol",
  "abi": [
    {
      "inputs": [],
      "stateMutability": "nonpayable",
      "type": "constructor"
    },
    {
      "anonymous": false,
      "inputs": [
        {
          "indexed": false,
          "internalType": "string",
          "name": "prizeName",
          "type": "string"
        },
        {
          "indexed": false,
          "internalType": "uint256",
          "name": "prize",
          "type": "uint256"
        }
      ],
      "name": "AmountOfPrize",
      "type": "event"
    },
    {
      "anonymous": false,
      "inputs": [
        {
          "indexed": false,
          "internalType": "uint256",
          "name": "ticketNo",
          "type": "uint256"
        },
        {
          "indexed": false,
          "internalType": "uint256",
          "name": "lotteryNo",
          "type": "uint256"
        },
        {
          "indexed": false,
          "internalType": "bytes32",
          "name": "ticketHash",
          "type": "bytes32"
        },
        {
          "indexed": false,
          "internalType": "uint256",
          "name": "ticketTimestamp",
          "type": "uint256"
        },
        {
          "indexed": false,
          "internalType": "uint8",
          "name": "status",
          "type": "uint8"
        },
        {
          "indexed": false,
          "internalType": "bool",
          "name": "active",
          "type": "bool"
        },
        {
          "indexed": false,
          "internalType": "enum FinalLottery.TicketTier",
          "name": "ticketTier",
          "type": "uint8"
        }
      ],
      "name": "TicketInfo",
      "type": "event"
    },
    {
      "inputs": [
        {
          "internalType": "address",
          "name": "",
          "type": "address"
        }
      ],
      "name": "balance",
      "outputs": [
        {
          "internalType": "uint256",
          "name": "",
          "type": "uint256"
        }
      ],
      "stateMutability": "view",
      "type": "function"
    },
    {
      "inputs": [
        {
          "internalType": "bytes32",
          "name": "hash_rnd_number",
          "type": "bytes32"
        },
        {
          "internalType": "int256",
          "name": "tier",
          "type": "int256"
        }
      ],
      "name": "buyTicket",
      "outputs": [],
      "stateMutability": "nonpayable",
      "type": "function"
    },
    {
      "inputs": [
        {
          "internalType": "uint256",
          "name": "lottery_no",
          "type": "uint256"
        },
        {
          "internalType": "uint256",
          "name": "ticket_no",
          "type": "uint256"
        }
      ],
      "name": "checkIfTicketWon",
      "outputs": [
        {
          "internalType": "uint256",
          "name": "",
          "type": "uint256"
        }
      ],
      "stateMutability": "nonpayable",
      "type": "function"
    },
    {
      "inputs": [
        {
          "internalType": "uint256",
          "name": "ticket_no",
          "type": "uint256"
        }
      ],
      "name": "collectTicketRefund",
      "outputs": [],
      "stateMutability": "nonpayable",
      "type": "function"
    },
    {
      "inputs": [],
      "name": "depositEther",
      "outputs": [],
      "stateMutability": "payable",
      "type": "function"
    },
    {
      "inputs": [
        {
          "internalType": "uint256",
          "name": "ticket_no",
          "type": "uint256"
        }
      ],
      "name": "findTicketInfosFromNo",
      "outputs": [
        {
          "internalType": "uint256",
          "name": "",
          "type": "uint256"
        },
        {
          "internalType": "uint256",
          "name": "",
          "type": "uint256"
        }
      ],
      "stateMutability": "nonpayable",
      "type": "function"
    },
    {
      "inputs": [
        {
          "internalType": "uint256",
          "name": "lottery_no",
          "type": "uint256"
        }
      ],
      "name": "getLastOwnedTicketNo",
      "outputs": [
        {
          "internalType": "uint256",
          "name": "",
          "type": "uint256"
        },
        {
          "internalType": "uint8",
          "name": "",
          "type": "uint8"
        }
      ],
      "stateMutability": "view",
      "type": "function"
    },
    {
      "inputs": [
        {
          "internalType": "uint256",
          "name": "number",
          "type": "uint256"
        }
      ],
      "name": "getNo",
      "outputs": [
        {
          "internalType": "uint256",
          "name": "",
          "type": "uint256"
        }
      ],
      "stateMutability": "view",
      "type": "function"
    },
    {
      "inputs": [],
      "name": "getRandomNumber",
      "outputs": [
        {
          "internalType": "uint256",
          "name": "",
          "type": "uint256"
        }
      ],
      "stateMutability": "view",
      "type": "function"
    },
    {
      "inputs": [
        {
          "internalType": "uint256",
          "name": "ticket_number",
          "type": "uint256"
        }
      ],
      "name": "getTicketInfo",
      "outputs": [],
      "stateMutability": "nonpayable",
      "type": "function"
    },
    {
      "inputs": [],
      "name": "lotteryNoCalculator",
      "outputs": [
        {
          "internalType": "uint256",
          "name": "",
          "type": "uint256"
        }
      ],
      "stateMutability": "nonpayable",
      "type": "function"
    },
    {
      "inputs": [
        {
          "internalType": "uint256",
          "name": "amount",
          "type": "uint256"
        }
      ],
      "name": "withdrawEther",
      "outputs": [],
      "stateMutability": "payable",
      "type": "function"
    }
  ],
  "bytecode": "0x60806040524260015534801561001457600080fd5b50426001819055506126768061002b6000396000f3fe6080604052600436106100a75760003560e01c8063bf3c1f2e11610064578063bf3c1f2e146101b4578063ce91aa6a146101f1578063dbdff2c11461021c578063e3d670d714610247578063f6789ca014610284578063ff99a063146102ad576100a7565b80632b8bdc00146100ac5780632e1fe450146100ea5780633bed33ce14610113578063775f1aec1461012f57806398ea5fca1461016d578063a06cc71a14610177575b600080fd5b3480156100b857600080fd5b506100d360048036038101906100ce9190611ea9565b6102d6565b6040516100e1929190611f01565b60405180910390f35b3480156100f657600080fd5b50610111600480360381019061010c9190611ea9565b61043c565b005b61012d60048036038101906101289190611ea9565b61065c565b005b34801561013b57600080fd5b5061015660048036038101906101519190611ea9565b61077e565b604051610164929190611f2a565b60405180910390f35b6101756108b9565b005b34801561018357600080fd5b5061019e60048036038101906101999190611f53565b610911565b6040516101ab9190611f93565b60405180910390f35b3480156101c057600080fd5b506101db60048036038101906101d69190611ea9565b61154f565b6040516101e89190611f93565b60405180910390f35b3480156101fd57600080fd5b50610206611559565b6040516102139190611f93565b60405180910390f35b34801561022857600080fd5b50610231611599565b60405161023e9190611f93565b60405180910390f35b34801561025357600080fd5b5061026e6004803603810190610269919061200c565b6115ca565b60405161027b9190611f93565b60405180910390f35b34801561029057600080fd5b506102ab60048036038101906102a691906120a5565b6115e2565b005b3480156102b957600080fd5b506102d460048036038101906102cf9190611ea9565b61183a565b005b60008060006001600260003373ffffffffffffffffffffffffffffffffffffffff1673ffffffffffffffffffffffffffffffffffffffff16815260200190815260200160002060008681526020019081526020016000208054905061033b9190612114565b9050600260003373ffffffffffffffffffffffffffffffffffffffff1673ffffffffffffffffffffffffffffffffffffffff1681526020019081526020016000206000858152602001908152602001600020818154811061039f5761039e612148565b5b906000526020600020906005020160000154600260003373ffffffffffffffffffffffffffffffffffffffff1673ffffffffffffffffffffffffffffffffffffffff1681526020019081526020016000206000868152602001908152602001600020828154811061041357610412612148565b5b906000526020600020906005020160040160009054906101000a900460ff169250925050915091565b6000806104488361077e565b80925081935050506000600260003373ffffffffffffffffffffffffffffffffffffffff1673ffffffffffffffffffffffffffffffffffffffff168152602001908152602001600020600084815260200190815260200160002082815481106104b4576104b3612148565b5b906000526020600020906005020160040160029054906101000a900460ff16905060008060038111156104ea576104e9612177565b5b8260038111156104fd576104fc612177565b5b0361050b5760089050610573565b6001600381111561051f5761051e612177565b5b82600381111561053257610531612177565b5b036105405760049050610572565b6000600381111561055457610553612177565b5b82600381111561056757610566612177565b5b0361057157600290505b5b5b80600360003373ffffffffffffffffffffffffffffffffffffffff1673ffffffffffffffffffffffffffffffffffffffff16815260200190815260200160002060008282546105c291906121a6565b925050819055506000600260003373ffffffffffffffffffffffffffffffffffffffff1673ffffffffffffffffffffffffffffffffffffffff1681526020019081526020016000206000868152602001908152602001600020848154811061062d5761062c612148565b5b906000526020600020906005020160040160016101000a81548160ff0219169083151502179055505050505050565b80600360003373ffffffffffffffffffffffffffffffffffffffff1673ffffffffffffffffffffffffffffffffffffffff1681526020019081526020016000205410156106de576040517f08c379a00000000000000000000000000000000000000000000000000000000081526004016106d590612237565b60405180910390fd5b80600360003373ffffffffffffffffffffffffffffffffffffffff1673ffffffffffffffffffffffffffffffffffffffff168152602001908152602001600020600082825461072d9190612114565b925050819055503373ffffffffffffffffffffffffffffffffffffffff166108fc829081150290604051600060405180830381858888f1935050505015801561077a573d6000803e3d6000fd5b5050565b600080600061078b611559565b905060005b60018261079d91906121a6565b8110156108b15760005b600260003373ffffffffffffffffffffffffffffffffffffffff1673ffffffffffffffffffffffffffffffffffffffff16815260200190815260200160002060008381526020019081526020016000208054905081101561089d5785600260003373ffffffffffffffffffffffffffffffffffffffff1673ffffffffffffffffffffffffffffffffffffffff1681526020019081526020016000206000848152602001908152602001600020828154811061086557610864612148565b5b9060005260206000209060050201600001540361088a578181945094505050506108b4565b808061089590612257565b9150506107a7565b5080806108a990612257565b915050610790565b50505b915091565b34600360003373ffffffffffffffffffffffffffffffffffffffff1673ffffffffffffffffffffffffffffffffffffffff168152602001908152602001600020600082825461090891906121a6565b92505081905550565b6000600360046000858152602001908152602001600020600201805490501461093e5761093d83611bde565b5b600060606000600460008781526020019081526020016000206003016004600088815260200190815260200160002060020160008154811061098357610982612148565b5b90600052602060002001548154811061099f5761099e612148565b5b90600052602060002001549050600060046000888152602001908152602001600020600301600460008981526020019081526020016000206002016001815481106109ed576109ec612148565b5b906000526020600020015481548110610a0957610a08612148565b5b90600052602060002001549050600060046000898152602001908152602001600020600301600460008a8152602001908152602001600020600201600281548110610a5757610a56612148565b5b906000526020600020015481548110610a7357610a72612148565b5b906000526020600020015490506000610a8b8861077e565b91505062124f80600460008b815260200190815260200160002060040181905550838803610e1e5760006003811115610ac757610ac6612177565b5b600260003373ffffffffffffffffffffffffffffffffffffffff1673ffffffffffffffffffffffffffffffffffffffff16815260200190815260200160002060008b81526020019081526020016000208281548110610b2957610b28612148565b5b906000526020600020906005020160040160029054906101000a900460ff166003811115610b5a57610b59612177565b5b03610bc1576002600460008b815260200190815260200160002060040154610b8291906122ce565b95506040518060400160405280600a81526020017f46756c6c204669727374000000000000000000000000000000000000000000008152509450610e19565b60016003811115610bd557610bd4612177565b5b600260003373ffffffffffffffffffffffffffffffffffffffff1673ffffffffffffffffffffffffffffffffffffffff16815260200190815260200160002060008b81526020019081526020016000208281548110610c3757610c36612148565b5b906000526020600020906005020160040160029054906101000a900460ff166003811115610c6857610c67612177565b5b03610cce5760048060008b815260200190815260200160002060040154610c8f91906122ce565b95506040518060400160405280600a81526020017f48616c66204669727374000000000000000000000000000000000000000000008152509450610e18565b60026003811115610ce257610ce1612177565b5b600260003373ffffffffffffffffffffffffffffffffffffffff1673ffffffffffffffffffffffffffffffffffffffff16815260200190815260200160002060008b81526020019081526020016000208281548110610d4457610d43612148565b5b906000526020600020906005020160040160029054906101000a900460ff166003811115610d7557610d74612177565b5b03610ddc576008600460008b815260200190815260200160002060040154610d9d91906122ce565b95506040518060400160405280600d81526020017f51756172746572204669727374000000000000000000000000000000000000008152509450610e17565b6040517f08c379a0000000000000000000000000000000000000000000000000000000008152600401610e0e9061234b565b60405180910390fd5b5b5b61150a565b8288036111905760006003811115610e3957610e38612177565b5b600260003373ffffffffffffffffffffffffffffffffffffffff1673ffffffffffffffffffffffffffffffffffffffff16815260200190815260200160002060008b81526020019081526020016000208281548110610e9b57610e9a612148565b5b906000526020600020906005020160040160029054906101000a900460ff166003811115610ecc57610ecb612177565b5b03610f32576040518060400160405280600b81526020017f46756c6c205365636f6e64000000000000000000000000000000000000000000815250945060048060008b815260200190815260200160002060040154610f2b91906122ce565b955061118b565b60016003811115610f4657610f45612177565b5b600260003373ffffffffffffffffffffffffffffffffffffffff1673ffffffffffffffffffffffffffffffffffffffff16815260200190815260200160002060008b81526020019081526020016000208281548110610fa857610fa7612148565b5b906000526020600020906005020160040160029054906101000a900460ff166003811115610fd957610fd8612177565b5b03611040576040518060400160405280600b81526020017f48616c66205365636f6e6400000000000000000000000000000000000000000081525094506008600460008b81526020019081526020016000206004015461103991906122ce565b955061118a565b6002600381111561105457611053612177565b5b600260003373ffffffffffffffffffffffffffffffffffffffff1673ffffffffffffffffffffffffffffffffffffffff16815260200190815260200160002060008b815260200190815260200160002082815481106110b6576110b5612148565b5b906000526020600020906005020160040160029054906101000a900460ff1660038111156110e7576110e6612177565b5b0361114e576040518060400160405280600e81526020017f51756172746572205365636f6e6400000000000000000000000000000000000081525094506010600460008b81526020019081526020016000206004015461114791906122ce565b9550611189565b6040517f08c379a00000000000000000000000000000000000000000000000000000000081526004016111809061234b565b60405180910390fd5b5b5b611509565b81880361150357600060038111156111ab576111aa612177565b5b600260003373ffffffffffffffffffffffffffffffffffffffff1673ffffffffffffffffffffffffffffffffffffffff16815260200190815260200160002060008b8152602001908152602001600020828154811061120d5761120c612148565b5b906000526020600020906005020160040160029054906101000a900460ff16600381111561123e5761123d612177565b5b036112a5576040518060400160405280600a81526020017f46756c6c2054686972640000000000000000000000000000000000000000000081525094506008600460008b81526020019081526020016000206004015461129e91906122ce565b95506114fe565b600160038111156112b9576112b8612177565b5b600260003373ffffffffffffffffffffffffffffffffffffffff1673ffffffffffffffffffffffffffffffffffffffff16815260200190815260200160002060008b8152602001908152602001600020828154811061131b5761131a612148565b5b906000526020600020906005020160040160029054906101000a900460ff16600381111561134c5761134b612177565b5b036113b3576040518060400160405280600a81526020017f48616c662054686972640000000000000000000000000000000000000000000081525094506010600460008b8152602001908152602001600020600401546113ac91906122ce565b95506114fd565b600260038111156113c7576113c6612177565b5b600260003373ffffffffffffffffffffffffffffffffffffffff1673ffffffffffffffffffffffffffffffffffffffff16815260200190815260200160002060008b8152602001908152602001600020828154811061142957611428612148565b5b906000526020600020906005020160040160029054906101000a900460ff16600381111561145a57611459612177565b5b036114c1576040518060400160405280600d81526020017f517561727465722054686972640000000000000000000000000000000000000081525094506020600460008b8152602001908152602001600020600401546114ba91906122ce565b95506114fc565b6040517f08c379a00000000000000000000000000000000000000000000000000000000081526004016114f39061234b565b60405180910390fd5b5b5b611508565b600095505b5b5b7f47d11ec30af726942ac6508eadccdf4c14a1c898a0433e77427b8c40a3a43644858760405161153b9291906123ea565b60405180910390a150505050505092915050565b6000819050919050565b60008042905060006001548261156f9190612114565b90506000600162093a808361158491906122ce565b61158e91906121a6565b905080935050505090565b6000426040516020016115ac919061243b565b6040516020818303038152906040528051906020012060001c905090565b60036020528060005260406000206000915090505481565b60006115ec611559565b9050600060018314806115ff5750600283145b8061160a5750600383145b611649576040517f08c379a0000000000000000000000000000000000000000000000000000000008152600401611640906124a2565b60405180910390fd5b600160008082825461165b91906121a6565b92505081905550600183036116735760009050611693565b600283036116845760019050611692565b6003830361169157600290505b5b5b600260003373ffffffffffffffffffffffffffffffffffffffff1673ffffffffffffffffffffffffffffffffffffffff16815260200190815260200160002060008381526020019081526020016000206040518060e001604052806000548152602001848152602001868152602001428152602001600060ff16815260200160011515815260200183600381111561172e5761172d612177565b5b81525090806001815401808255809150506001900390600052602060002090600502016000909190919091506000820151816000015560208201518160010155604082015181600201556060820151816003015560808201518160040160006101000a81548160ff021916908360ff16021790555060a08201518160040160016101000a81548160ff02191690831515021790555060c08201518160040160026101000a81548160ff021916908360038111156117ee576117ed612177565b5b0217905550505060046000838152602001908152602001600020600301600054908060018154018082558091505060019003906000526020600020016000909190919091505550505050565b6000806118468361077e565b915091507fbce7d9c77b584a77086d92f0e16950470c847bca6700cd4d91240c581f5a611a600260003373ffffffffffffffffffffffffffffffffffffffff1673ffffffffffffffffffffffffffffffffffffffff168152602001908152602001600020600084815260200190815260200160002082815481106118cd576118cc612148565b5b906000526020600020906005020160000154600260003373ffffffffffffffffffffffffffffffffffffffff1673ffffffffffffffffffffffffffffffffffffffff1681526020019081526020016000206000858152602001908152602001600020838154811061194157611940612148565b5b906000526020600020906005020160010154600260003373ffffffffffffffffffffffffffffffffffffffff1673ffffffffffffffffffffffffffffffffffffffff168152602001908152602001600020600086815260200190815260200160002084815481106119b5576119b4612148565b5b906000526020600020906005020160020154600260003373ffffffffffffffffffffffffffffffffffffffff1673ffffffffffffffffffffffffffffffffffffffff16815260200190815260200160002060008781526020019081526020016000208581548110611a2957611a28612148565b5b906000526020600020906005020160030154600260003373ffffffffffffffffffffffffffffffffffffffff1673ffffffffffffffffffffffffffffffffffffffff16815260200190815260200160002060008881526020019081526020016000208681548110611a9d57611a9c612148565b5b906000526020600020906005020160040160009054906101000a900460ff16600260003373ffffffffffffffffffffffffffffffffffffffff1673ffffffffffffffffffffffffffffffffffffffff16815260200190815260200160002060008981526020019081526020016000208781548110611b1e57611b1d612148565b5b906000526020600020906005020160040160019054906101000a900460ff16600260003373ffffffffffffffffffffffffffffffffffffffff1673ffffffffffffffffffffffffffffffffffffffff16815260200190815260200160002060008a81526020019081526020016000208881548110611b9f57611b9e612148565b5b906000526020600020906005020160040160029054906101000a900460ff16604051611bd19796959493929190612534565b60405180910390a1505050565b6003600460008381526020019081526020016000206003018054905011611c3a576040517f08c379a0000000000000000000000000000000000000000000000000000000008152600401611c31906125ef565b60405180910390fd5b60006004600083815260200190815260200160002060030180549050905060006004600084815260200190815260200160002060030180549050611c7c611599565b611c86919061260f565b905060006004600085815260200190815260200160002060030180549050611cac611599565b611cb6919061260f565b905060006004600086815260200190815260200160002060030180549050611cdc611599565b611ce6919061260f565b90505b81831480611cf657508082145b80611d0057508083145b15611e6757818303611d3d57600184611d199190612114565b8314611d3357600182611d2c91906121a6565b9250611d38565b600092505b611dab565b808203611d7557600184611d519190612114565b8214611d6b57600181611d6491906121a6565b9150611d70565b600091505b611daa565b808303611da957600184611d899190612114565b8314611da357600181611d9c91906121a6565b9250611da8565b600092505b5b5b5b600460008681526020019081526020016000206002018390806001815401808255809150506001900390600052602060002001600090919091909150556004600086815260200190815260200160002060020182908060018154018082558091505060019003906000526020600020016000909190919091505560046000868152602001908152602001600020600201819080600181540180825580915050600190039060005260206000200160009091909190915055611ce9565b5050505050565b600080fd5b6000819050919050565b611e8681611e73565b8114611e9157600080fd5b50565b600081359050611ea381611e7d565b92915050565b600060208284031215611ebf57611ebe611e6e565b5b6000611ecd84828501611e94565b91505092915050565b611edf81611e73565b82525050565b600060ff82169050919050565b611efb81611ee5565b82525050565b6000604082019050611f166000830185611ed6565b611f236020830184611ef2565b9392505050565b6000604082019050611f3f6000830185611ed6565b611f4c6020830184611ed6565b9392505050565b60008060408385031215611f6a57611f69611e6e565b5b6000611f7885828601611e94565b9250506020611f8985828601611e94565b9150509250929050565b6000602082019050611fa86000830184611ed6565b92915050565b600073ffffffffffffffffffffffffffffffffffffffff82169050919050565b6000611fd982611fae565b9050919050565b611fe981611fce565b8114611ff457600080fd5b50565b60008135905061200681611fe0565b92915050565b60006020828403121561202257612021611e6e565b5b600061203084828501611ff7565b91505092915050565b6000819050919050565b61204c81612039565b811461205757600080fd5b50565b60008135905061206981612043565b92915050565b6000819050919050565b6120828161206f565b811461208d57600080fd5b50565b60008135905061209f81612079565b92915050565b600080604083850312156120bc576120bb611e6e565b5b60006120ca8582860161205a565b92505060206120db85828601612090565b9150509250929050565b7f4e487b7100000000000000000000000000000000000000000000000000000000600052601160045260246000fd5b600061211f82611e73565b915061212a83611e73565b9250828203905081811115612142576121416120e5565b5b92915050565b7f4e487b7100000000000000000000000000000000000000000000000000000000600052603260045260246000fd5b7f4e487b7100000000000000000000000000000000000000000000000000000000600052602160045260246000fd5b60006121b182611e73565b91506121bc83611e73565b92508282019050808211156121d4576121d36120e5565b5b92915050565b600082825260208201905092915050565b7f696e73756666696369656e742062616c616e6365000000000000000000000000600082015250565b60006122216014836121da565b915061222c826121eb565b602082019050919050565b6000602082019050818103600083015261225081612214565b9050919050565b600061226282611e73565b91507fffffffffffffffffffffffffffffffffffffffffffffffffffffffffffffffff8203612294576122936120e5565b5b600182019050919050565b7f4e487b7100000000000000000000000000000000000000000000000000000000600052601260045260246000fd5b60006122d982611e73565b91506122e483611e73565b9250826122f4576122f361229f565b5b828204905092915050565b7f496e76616c6964206f7065726174696f6e2e0000000000000000000000000000600082015250565b60006123356012836121da565b9150612340826122ff565b602082019050919050565b6000602082019050818103600083015261236481612328565b9050919050565b600081519050919050565b60005b83811015612394578082015181840152602081019050612379565b60008484015250505050565b6000601f19601f8301169050919050565b60006123bc8261236b565b6123c681856121da565b93506123d6818560208601612376565b6123df816123a0565b840191505092915050565b6000604082019050818103600083015261240481856123b1565b90506124136020830184611ed6565b9392505050565b6000819050919050565b61243561243082611e73565b61241a565b82525050565b60006124478284612424565b60208201915081905092915050565b7f57726f6e6720496e707574000000000000000000000000000000000000000000600082015250565b600061248c600b836121da565b915061249782612456565b602082019050919050565b600060208201905081810360008301526124bb8161247f565b9050919050565b6124cb81612039565b82525050565b60008115159050919050565b6124e6816124d1565b82525050565b600481106124fd576124fc612177565b5b50565b600081905061250e826124ec565b919050565b600061251e82612500565b9050919050565b61252e81612513565b82525050565b600060e082019050612549600083018a611ed6565b6125566020830189611ed6565b61256360408301886124c2565b6125706060830187611ed6565b61257d6080830186611ef2565b61258a60a08301856124dd565b61259760c0830184612525565b98975050505050505050565b7f6e6f7420656e6f756768207469636b6574730000000000000000000000000000600082015250565b60006125d96012836121da565b91506125e4826125a3565b602082019050919050565b60006020820190508181036000830152612608816125cc565b9050919050565b600061261a82611e73565b915061262583611e73565b9250826126355761263461229f565b5b82820690509291505056fea26469706673582212206e8725a51dfb03185c2bc838392dbc2ea50c09a9362852b94e6321329544a8f564736f6c63430008120033",
  "linkReferences": {},
  "deployedLinkReferences": {}
}