{
  "_format": "hh-sol-artifact-1",
  "contractName": "FinalLottery",
  "sourceName": "contracts/FinalLottery.sol",
  "abi": [
    {
      "inputs": [],
      "stateMutability": "nonpayable",
      "type": "constructor"
    },
    {
      "anonymous": false,
      "inputs": [
        {
          "indexed": false,
          "internalType": "uint256",
          "name": "ticketNo",
          "type": "uint256"
        },
        {
          "indexed": false,
          "internalType": "uint256",
          "name": "lotteryNo",
          "type": "uint256"
        },
        {
          "indexed": false,
          "internalType": "bytes32",
          "name": "ticketHash",
          "type": "bytes32"
        },
        {
          "indexed": false,
          "internalType": "uint256",
          "name": "ticketTimestamp",
          "type": "uint256"
        },
        {
          "indexed": false,
          "internalType": "uint8",
          "name": "status",
          "type": "uint8"
        },
        {
          "indexed": false,
          "internalType": "bool",
          "name": "active",
          "type": "bool"
        },
        {
          "indexed": false,
          "internalType": "enum FinalLottery.TicketTier",
          "name": "ticketTier",
          "type": "uint8"
        }
      ],
      "name": "TicketInfo",
      "type": "event"
    },
    {
      "inputs": [
        {
          "internalType": "address",
          "name": "",
          "type": "address"
        }
      ],
      "name": "balance",
      "outputs": [
        {
          "internalType": "uint256",
          "name": "",
          "type": "uint256"
        }
      ],
      "stateMutability": "view",
      "type": "function"
    },
    {
      "inputs": [
        {
          "internalType": "bytes32",
          "name": "hash_rnd_number",
          "type": "bytes32"
        },
        {
          "internalType": "int256",
          "name": "tier",
          "type": "int256"
        }
      ],
      "name": "buyTicket",
      "outputs": [],
      "stateMutability": "nonpayable",
      "type": "function"
    },
    {
      "inputs": [
        {
          "internalType": "uint256",
          "name": "ticket_no",
          "type": "uint256"
        }
      ],
      "name": "collectTicketRefund",
      "outputs": [],
      "stateMutability": "nonpayable",
      "type": "function"
    },
    {
      "inputs": [],
      "name": "depositEther",
      "outputs": [],
      "stateMutability": "payable",
      "type": "function"
    },
    {
      "inputs": [
        {
          "internalType": "uint256",
          "name": "ticket_no",
          "type": "uint256"
        }
      ],
      "name": "findTicketInfosFromNo",
      "outputs": [
        {
          "internalType": "uint256",
          "name": "",
          "type": "uint256"
        },
        {
          "internalType": "uint256",
          "name": "",
          "type": "uint256"
        }
      ],
      "stateMutability": "nonpayable",
      "type": "function"
    },
    {
      "inputs": [
        {
          "internalType": "uint256",
          "name": "lottery_no",
          "type": "uint256"
        }
      ],
      "name": "getLastOwnedTicketNo",
      "outputs": [
        {
          "internalType": "uint256",
          "name": "",
          "type": "uint256"
        },
        {
          "internalType": "uint8",
          "name": "",
          "type": "uint8"
        }
      ],
      "stateMutability": "view",
      "type": "function"
    },
    {
      "inputs": [
        {
          "internalType": "uint256",
          "name": "ticket_number",
          "type": "uint256"
        }
      ],
      "name": "getTicketInfo",
      "outputs": [],
      "stateMutability": "nonpayable",
      "type": "function"
    },
    {
      "inputs": [],
      "name": "lotteryNoCalculator",
      "outputs": [
        {
          "internalType": "uint256",
          "name": "",
          "type": "uint256"
        }
      ],
      "stateMutability": "nonpayable",
      "type": "function"
    },
    {
      "inputs": [
        {
          "internalType": "uint256",
          "name": "amount",
          "type": "uint256"
        }
      ],
      "name": "withdrawEther",
      "outputs": [],
      "stateMutability": "payable",
      "type": "function"
    }
  ],
  "bytecode": "0x60806040524260015534801561001457600080fd5b50426001819055506114738061002b6000396000f3fe6080604052600436106100865760003560e01c806398ea5fca1161005957806398ea5fca1461014c578063ce91aa6a14610156578063e3d670d714610181578063f6789ca0146101be578063ff99a063146101e757610086565b80632b8bdc001461008b5780632e1fe450146100c95780633bed33ce146100f2578063775f1aec1461010e575b600080fd5b34801561009757600080fd5b506100b260048036038101906100ad9190610eda565b610210565b6040516100c0929190610f32565b60405180910390f35b3480156100d557600080fd5b506100f060048036038101906100eb9190610eda565b610376565b005b61010c60048036038101906101079190610eda565b610596565b005b34801561011a57600080fd5b5061013560048036038101906101309190610eda565b6106b8565b604051610143929190610f5b565b60405180910390f35b6101546107f3565b005b34801561016257600080fd5b5061016b61084b565b6040516101789190610f84565b60405180910390f35b34801561018d57600080fd5b506101a860048036038101906101a39190610ffd565b61088b565b6040516101b59190610f84565b60405180910390f35b3480156101ca57600080fd5b506101e560048036038101906101e09190611096565b6108a3565b005b3480156101f357600080fd5b5061020e60048036038101906102099190610eda565b610afb565b005b60008060006001600260003373ffffffffffffffffffffffffffffffffffffffff1673ffffffffffffffffffffffffffffffffffffffff1681526020019081526020016000206000868152602001908152602001600020805490506102759190611105565b9050600260003373ffffffffffffffffffffffffffffffffffffffff1673ffffffffffffffffffffffffffffffffffffffff168152602001908152602001600020600085815260200190815260200160002081815481106102d9576102d8611139565b5b906000526020600020906005020160000154600260003373ffffffffffffffffffffffffffffffffffffffff1673ffffffffffffffffffffffffffffffffffffffff1681526020019081526020016000206000868152602001908152602001600020828154811061034d5761034c611139565b5b906000526020600020906005020160040160009054906101000a900460ff169250925050915091565b600080610382836106b8565b80925081935050506000600260003373ffffffffffffffffffffffffffffffffffffffff1673ffffffffffffffffffffffffffffffffffffffff168152602001908152602001600020600084815260200190815260200160002082815481106103ee576103ed611139565b5b906000526020600020906005020160040160029054906101000a900460ff169050600080600381111561042457610423611168565b5b82600381111561043757610436611168565b5b0361044557600890506104ad565b6001600381111561045957610458611168565b5b82600381111561046c5761046b611168565b5b0361047a57600490506104ac565b6000600381111561048e5761048d611168565b5b8260038111156104a1576104a0611168565b5b036104ab57600290505b5b5b80600360003373ffffffffffffffffffffffffffffffffffffffff1673ffffffffffffffffffffffffffffffffffffffff16815260200190815260200160002060008282546104fc9190611197565b925050819055506000600260003373ffffffffffffffffffffffffffffffffffffffff1673ffffffffffffffffffffffffffffffffffffffff1681526020019081526020016000206000868152602001908152602001600020848154811061056757610566611139565b5b906000526020600020906005020160040160016101000a81548160ff0219169083151502179055505050505050565b80600360003373ffffffffffffffffffffffffffffffffffffffff1673ffffffffffffffffffffffffffffffffffffffff168152602001908152602001600020541015610618576040517f08c379a000000000000000000000000000000000000000000000000000000000815260040161060f90611228565b60405180910390fd5b80600360003373ffffffffffffffffffffffffffffffffffffffff1673ffffffffffffffffffffffffffffffffffffffff16815260200190815260200160002060008282546106679190611105565b925050819055503373ffffffffffffffffffffffffffffffffffffffff166108fc829081150290604051600060405180830381858888f193505050501580156106b4573d6000803e3d6000fd5b5050565b60008060006106c561084b565b905060005b6001826106d79190611197565b8110156107eb5760005b600260003373ffffffffffffffffffffffffffffffffffffffff1673ffffffffffffffffffffffffffffffffffffffff1681526020019081526020016000206000838152602001908152602001600020805490508110156107d75785600260003373ffffffffffffffffffffffffffffffffffffffff1673ffffffffffffffffffffffffffffffffffffffff1681526020019081526020016000206000848152602001908152602001600020828154811061079f5761079e611139565b5b906000526020600020906005020160000154036107c4578181945094505050506107ee565b80806107cf90611248565b9150506106e1565b5080806107e390611248565b9150506106ca565b50505b915091565b34600360003373ffffffffffffffffffffffffffffffffffffffff1673ffffffffffffffffffffffffffffffffffffffff16815260200190815260200160002060008282546108429190611197565b92505081905550565b6000804290506000600154826108619190611105565b90506000600162093a808361087691906112bf565b6108809190611197565b905080935050505090565b60036020528060005260406000206000915090505481565b60006108ad61084b565b9050600060018314806108c05750600283145b806108cb5750600383145b61090a576040517f08c379a00000000000000000000000000000000000000000000000000000000081526004016109019061133c565b60405180910390fd5b600160008082825461091c9190611197565b92505081905550600183036109345760009050610954565b600283036109455760019050610953565b6003830361095257600290505b5b5b600260003373ffffffffffffffffffffffffffffffffffffffff1673ffffffffffffffffffffffffffffffffffffffff16815260200190815260200160002060008381526020019081526020016000206040518060e001604052806000548152602001848152602001868152602001428152602001600060ff1681526020016001151581526020018360038111156109ef576109ee611168565b5b81525090806001815401808255809150506001900390600052602060002090600502016000909190919091506000820151816000015560208201518160010155604082015181600201556060820151816003015560808201518160040160006101000a81548160ff021916908360ff16021790555060a08201518160040160016101000a81548160ff02191690831515021790555060c08201518160040160026101000a81548160ff02191690836003811115610aaf57610aae611168565b5b0217905550505060046000838152602001908152602001600020600301600054908060018154018082558091505060019003906000526020600020016000909190919091505550505050565b600080610b07836106b8565b915091507fbce7d9c77b584a77086d92f0e16950470c847bca6700cd4d91240c581f5a611a600260003373ffffffffffffffffffffffffffffffffffffffff1673ffffffffffffffffffffffffffffffffffffffff16815260200190815260200160002060008481526020019081526020016000208281548110610b8e57610b8d611139565b5b906000526020600020906005020160000154600260003373ffffffffffffffffffffffffffffffffffffffff1673ffffffffffffffffffffffffffffffffffffffff16815260200190815260200160002060008581526020019081526020016000208381548110610c0257610c01611139565b5b906000526020600020906005020160010154600260003373ffffffffffffffffffffffffffffffffffffffff1673ffffffffffffffffffffffffffffffffffffffff16815260200190815260200160002060008681526020019081526020016000208481548110610c7657610c75611139565b5b906000526020600020906005020160020154600260003373ffffffffffffffffffffffffffffffffffffffff1673ffffffffffffffffffffffffffffffffffffffff16815260200190815260200160002060008781526020019081526020016000208581548110610cea57610ce9611139565b5b906000526020600020906005020160030154600260003373ffffffffffffffffffffffffffffffffffffffff1673ffffffffffffffffffffffffffffffffffffffff16815260200190815260200160002060008881526020019081526020016000208681548110610d5e57610d5d611139565b5b906000526020600020906005020160040160009054906101000a900460ff16600260003373ffffffffffffffffffffffffffffffffffffffff1673ffffffffffffffffffffffffffffffffffffffff16815260200190815260200160002060008981526020019081526020016000208781548110610ddf57610dde611139565b5b906000526020600020906005020160040160019054906101000a900460ff16600260003373ffffffffffffffffffffffffffffffffffffffff1673ffffffffffffffffffffffffffffffffffffffff16815260200190815260200160002060008a81526020019081526020016000208881548110610e6057610e5f611139565b5b906000526020600020906005020160040160029054906101000a900460ff16604051610e9297969594939291906113ce565b60405180910390a1505050565b600080fd5b6000819050919050565b610eb781610ea4565b8114610ec257600080fd5b50565b600081359050610ed481610eae565b92915050565b600060208284031215610ef057610eef610e9f565b5b6000610efe84828501610ec5565b91505092915050565b610f1081610ea4565b82525050565b600060ff82169050919050565b610f2c81610f16565b82525050565b6000604082019050610f476000830185610f07565b610f546020830184610f23565b9392505050565b6000604082019050610f706000830185610f07565b610f7d6020830184610f07565b9392505050565b6000602082019050610f996000830184610f07565b92915050565b600073ffffffffffffffffffffffffffffffffffffffff82169050919050565b6000610fca82610f9f565b9050919050565b610fda81610fbf565b8114610fe557600080fd5b50565b600081359050610ff781610fd1565b92915050565b60006020828403121561101357611012610e9f565b5b600061102184828501610fe8565b91505092915050565b6000819050919050565b61103d8161102a565b811461104857600080fd5b50565b60008135905061105a81611034565b92915050565b6000819050919050565b61107381611060565b811461107e57600080fd5b50565b6000813590506110908161106a565b92915050565b600080604083850312156110ad576110ac610e9f565b5b60006110bb8582860161104b565b92505060206110cc85828601611081565b9150509250929050565b7f4e487b7100000000000000000000000000000000000000000000000000000000600052601160045260246000fd5b600061111082610ea4565b915061111b83610ea4565b9250828203905081811115611133576111326110d6565b5b92915050565b7f4e487b7100000000000000000000000000000000000000000000000000000000600052603260045260246000fd5b7f4e487b7100000000000000000000000000000000000000000000000000000000600052602160045260246000fd5b60006111a282610ea4565b91506111ad83610ea4565b92508282019050808211156111c5576111c46110d6565b5b92915050565b600082825260208201905092915050565b7f696e73756666696369656e742062616c616e6365000000000000000000000000600082015250565b60006112126014836111cb565b915061121d826111dc565b602082019050919050565b6000602082019050818103600083015261124181611205565b9050919050565b600061125382610ea4565b91507fffffffffffffffffffffffffffffffffffffffffffffffffffffffffffffffff8203611285576112846110d6565b5b600182019050919050565b7f4e487b7100000000000000000000000000000000000000000000000000000000600052601260045260246000fd5b60006112ca82610ea4565b91506112d583610ea4565b9250826112e5576112e4611290565b5b828204905092915050565b7f57726f6e6720496e707574000000000000000000000000000000000000000000600082015250565b6000611326600b836111cb565b9150611331826112f0565b602082019050919050565b6000602082019050818103600083015261135581611319565b9050919050565b6113658161102a565b82525050565b60008115159050919050565b6113808161136b565b82525050565b6004811061139757611396611168565b5b50565b60008190506113a882611386565b919050565b60006113b88261139a565b9050919050565b6113c8816113ad565b82525050565b600060e0820190506113e3600083018a610f07565b6113f06020830189610f07565b6113fd604083018861135c565b61140a6060830187610f07565b6114176080830186610f23565b61142460a0830185611377565b61143160c08301846113bf565b9897505050505050505056fea26469706673582212200e26dfdcc1938ce85f1f14070fb6f69f98c2f62905ff27e89fe79385564e43fc64736f6c63430008120033",
  "linkReferences": {},
  "deployedLinkReferences": {}
}