{
  "_format": "hh-sol-artifact-1",
  "contractName": "FinalLottery",
  "sourceName": "contracts/FinalLottery.sol",
  "abi": [
    {
      "inputs": [],
      "stateMutability": "nonpayable",
      "type": "constructor"
    },
    {
      "anonymous": false,
      "inputs": [
        {
          "indexed": false,
          "internalType": "string",
          "name": "prizeName",
          "type": "string"
        },
        {
          "indexed": false,
          "internalType": "uint256",
          "name": "prize",
          "type": "uint256"
        }
      ],
      "name": "AmountOfPrize",
      "type": "event"
    },
    {
      "anonymous": false,
      "inputs": [
        {
          "indexed": false,
          "internalType": "uint256",
          "name": "ticketNo",
          "type": "uint256"
        },
        {
          "indexed": false,
          "internalType": "uint256",
          "name": "lotteryNo",
          "type": "uint256"
        },
        {
          "indexed": false,
          "internalType": "bytes32",
          "name": "ticketHash",
          "type": "bytes32"
        },
        {
          "indexed": false,
          "internalType": "uint8",
          "name": "status",
          "type": "uint8"
        },
        {
          "indexed": false,
          "internalType": "bool",
          "name": "active",
          "type": "bool"
        },
        {
          "indexed": false,
          "internalType": "enum FinalLottery.TicketTier",
          "name": "ticketTier",
          "type": "uint8"
        }
      ],
      "name": "TicketInfo",
      "type": "event"
    },
    {
      "anonymous": false,
      "inputs": [
        {
          "indexed": false,
          "internalType": "bool",
          "name": "isWin",
          "type": "bool"
        }
      ],
      "name": "Winner",
      "type": "event"
    },
    {
      "anonymous": false,
      "inputs": [
        {
          "indexed": false,
          "internalType": "uint256",
          "name": "ticketNo",
          "type": "uint256"
        },
        {
          "indexed": false,
          "internalType": "uint256",
          "name": "amount",
          "type": "uint256"
        }
      ],
      "name": "WinningTicket",
      "type": "event"
    },
    {
      "inputs": [
        {
          "internalType": "address",
          "name": "",
          "type": "address"
        }
      ],
      "name": "balance",
      "outputs": [
        {
          "internalType": "uint256",
          "name": "",
          "type": "uint256"
        }
      ],
      "stateMutability": "view",
      "type": "function"
    },
    {
      "inputs": [
        {
          "internalType": "bytes32",
          "name": "hash_rnd_number",
          "type": "bytes32"
        },
        {
          "internalType": "int256",
          "name": "tier",
          "type": "int256"
        }
      ],
      "name": "buyTicket",
      "outputs": [],
      "stateMutability": "nonpayable",
      "type": "function"
    },
    {
      "inputs": [
        {
          "internalType": "uint256",
          "name": "thPrice",
          "type": "uint256"
        },
        {
          "internalType": "uint256",
          "name": "lottery_no",
          "type": "uint256"
        }
      ],
      "name": "calculateSinglePriceValue",
      "outputs": [
        {
          "internalType": "uint256",
          "name": "",
          "type": "uint256"
        }
      ],
      "stateMutability": "nonpayable",
      "type": "function"
    },
    {
      "inputs": [
        {
          "internalType": "uint256",
          "name": "lottery_no",
          "type": "uint256"
        },
        {
          "internalType": "uint256",
          "name": "ticket_no",
          "type": "uint256"
        }
      ],
      "name": "checkIfTicketWon",
      "outputs": [
        {
          "internalType": "uint256",
          "name": "",
          "type": "uint256"
        }
      ],
      "stateMutability": "nonpayable",
      "type": "function"
    },
    {
      "inputs": [
        {
          "internalType": "uint256",
          "name": "lottery_no",
          "type": "uint256"
        },
        {
          "internalType": "uint256",
          "name": "ticket_no",
          "type": "uint256"
        }
      ],
      "name": "collectTicketPrize",
      "outputs": [
        {
          "internalType": "uint256",
          "name": "",
          "type": "uint256"
        }
      ],
      "stateMutability": "nonpayable",
      "type": "function"
    },
    {
      "inputs": [
        {
          "internalType": "uint256",
          "name": "ticket_no",
          "type": "uint256"
        }
      ],
      "name": "collectTicketRefund",
      "outputs": [],
      "stateMutability": "nonpayable",
      "type": "function"
    },
    {
      "inputs": [],
      "name": "depositEther",
      "outputs": [],
      "stateMutability": "payable",
      "type": "function"
    },
    {
      "inputs": [
        {
          "internalType": "uint256",
          "name": "ticket_no",
          "type": "uint256"
        }
      ],
      "name": "findTicketInfosFromNo",
      "outputs": [
        {
          "internalType": "uint256",
          "name": "",
          "type": "uint256"
        },
        {
          "internalType": "uint256",
          "name": "",
          "type": "uint256"
        }
      ],
      "stateMutability": "nonpayable",
      "type": "function"
    },
    {
      "inputs": [],
      "name": "getBalance",
      "outputs": [
        {
          "internalType": "uint256",
          "name": "",
          "type": "uint256"
        }
      ],
      "stateMutability": "view",
      "type": "function"
    },
    {
      "inputs": [
        {
          "internalType": "uint256",
          "name": "i",
          "type": "uint256"
        },
        {
          "internalType": "uint256",
          "name": "lottery_no",
          "type": "uint256"
        }
      ],
      "name": "getIthOwnedTicketNo",
      "outputs": [
        {
          "internalType": "uint256",
          "name": "",
          "type": "uint256"
        },
        {
          "internalType": "uint8",
          "name": "status",
          "type": "uint8"
        }
      ],
      "stateMutability": "nonpayable",
      "type": "function"
    },
    {
      "inputs": [
        {
          "internalType": "uint256",
          "name": "i",
          "type": "uint256"
        },
        {
          "internalType": "uint256",
          "name": "lottery_no",
          "type": "uint256"
        }
      ],
      "name": "getIthWinningTicket",
      "outputs": [
        {
          "internalType": "uint256",
          "name": "ticket_no",
          "type": "uint256"
        },
        {
          "internalType": "uint256",
          "name": "amount",
          "type": "uint256"
        }
      ],
      "stateMutability": "nonpayable",
      "type": "function"
    },
    {
      "inputs": [
        {
          "internalType": "uint256",
          "name": "lottery_no",
          "type": "uint256"
        }
      ],
      "name": "getLastOwnedTicketNo",
      "outputs": [
        {
          "internalType": "uint256",
          "name": "",
          "type": "uint256"
        },
        {
          "internalType": "uint8",
          "name": "",
          "type": "uint8"
        }
      ],
      "stateMutability": "view",
      "type": "function"
    },
    {
      "inputs": [
        {
          "internalType": "uint256",
          "name": "lottery_no",
          "type": "uint256"
        }
      ],
      "name": "getLotteryMoneyCollected",
      "outputs": [
        {
          "internalType": "uint256",
          "name": "",
          "type": "uint256"
        }
      ],
      "stateMutability": "view",
      "type": "function"
    },
    {
      "inputs": [],
      "name": "getMoneyCollected",
      "outputs": [
        {
          "internalType": "uint256",
          "name": "amount",
          "type": "uint256"
        }
      ],
      "stateMutability": "view",
      "type": "function"
    },
    {
      "inputs": [
        {
          "internalType": "uint256",
          "name": "ticket_no",
          "type": "uint256"
        }
      ],
      "name": "getOwner",
      "outputs": [
        {
          "internalType": "address",
          "name": "",
          "type": "address"
        }
      ],
      "stateMutability": "view",
      "type": "function"
    },
    {
      "inputs": [
        {
          "internalType": "uint256",
          "name": "ticket_number",
          "type": "uint256"
        }
      ],
      "name": "getTicketInfo",
      "outputs": [],
      "stateMutability": "nonpayable",
      "type": "function"
    },
    {
      "inputs": [
        {
          "internalType": "uint256",
          "name": "ticket_no",
          "type": "uint256"
        }
      ],
      "name": "getTicketInfos",
      "outputs": [
        {
          "internalType": "address",
          "name": "",
          "type": "address"
        },
        {
          "internalType": "uint256",
          "name": "",
          "type": "uint256"
        },
        {
          "internalType": "uint256",
          "name": "",
          "type": "uint256"
        },
        {
          "internalType": "bytes32",
          "name": "",
          "type": "bytes32"
        },
        {
          "internalType": "uint8",
          "name": "",
          "type": "uint8"
        },
        {
          "internalType": "bool",
          "name": "",
          "type": "bool"
        },
        {
          "internalType": "enum FinalLottery.TicketTier",
          "name": "",
          "type": "uint8"
        }
      ],
      "stateMutability": "view",
      "type": "function"
    },
    {
      "inputs": [
        {
          "internalType": "uint256",
          "name": "lottery_no",
          "type": "uint256"
        },
        {
          "internalType": "uint256",
          "name": "ticket_no",
          "type": "uint256"
        }
      ],
      "name": "getTicketPrize",
      "outputs": [
        {
          "internalType": "uint256",
          "name": "",
          "type": "uint256"
        }
      ],
      "stateMutability": "view",
      "type": "function"
    },
    {
      "inputs": [
        {
          "internalType": "uint256",
          "name": "lottery_no",
          "type": "uint256"
        }
      ],
      "name": "getTotalPrizeMoney",
      "outputs": [
        {
          "internalType": "uint256",
          "name": "amount",
          "type": "uint256"
        }
      ],
      "stateMutability": "view",
      "type": "function"
    },
    {
      "inputs": [
        {
          "internalType": "uint256",
          "name": "lottery_no",
          "type": "uint256"
        }
      ],
      "name": "getWinningTicket1",
      "outputs": [
        {
          "internalType": "uint256",
          "name": "",
          "type": "uint256"
        }
      ],
      "stateMutability": "view",
      "type": "function"
    },
    {
      "inputs": [
        {
          "internalType": "uint256",
          "name": "lottery_no",
          "type": "uint256"
        }
      ],
      "name": "getWinningTicket2",
      "outputs": [
        {
          "internalType": "uint256",
          "name": "",
          "type": "uint256"
        }
      ],
      "stateMutability": "view",
      "type": "function"
    },
    {
      "inputs": [
        {
          "internalType": "uint256",
          "name": "lottery_no",
          "type": "uint256"
        }
      ],
      "name": "getWinningTicket3",
      "outputs": [
        {
          "internalType": "uint256",
          "name": "",
          "type": "uint256"
        }
      ],
      "stateMutability": "view",
      "type": "function"
    },
    {
      "inputs": [
        {
          "internalType": "enum FinalLottery.TicketTier",
          "name": "tier",
          "type": "uint8"
        }
      ],
      "name": "getamount",
      "outputs": [
        {
          "internalType": "uint256",
          "name": "",
          "type": "uint256"
        }
      ],
      "stateMutability": "pure",
      "type": "function"
    },
    {
      "inputs": [
        {
          "internalType": "uint256",
          "name": "num",
          "type": "uint256"
        }
      ],
      "name": "hashOfANum",
      "outputs": [
        {
          "internalType": "bytes32",
          "name": "",
          "type": "bytes32"
        }
      ],
      "stateMutability": "view",
      "type": "function"
    },
    {
      "inputs": [
        {
          "internalType": "uint256",
          "name": "",
          "type": "uint256"
        }
      ],
      "name": "lotteryInfos",
      "outputs": [
        {
          "internalType": "uint256",
          "name": "lotteryNo",
          "type": "uint256"
        },
        {
          "internalType": "uint256",
          "name": "startTimestamp",
          "type": "uint256"
        }
      ],
      "stateMutability": "view",
      "type": "function"
    },
    {
      "inputs": [
        {
          "internalType": "uint256",
          "name": "",
          "type": "uint256"
        }
      ],
      "name": "moneyCollectedForEachLottery",
      "outputs": [
        {
          "internalType": "uint256",
          "name": "",
          "type": "uint256"
        }
      ],
      "stateMutability": "view",
      "type": "function"
    },
    {
      "inputs": [
        {
          "internalType": "uint256",
          "name": "ticket_no",
          "type": "uint256"
        },
        {
          "internalType": "uint256",
          "name": "random_number",
          "type": "uint256"
        }
      ],
      "name": "revealRndNumber",
      "outputs": [],
      "stateMutability": "nonpayable",
      "type": "function"
    },
    {
      "inputs": [
        {
          "internalType": "uint256",
          "name": "lottery_no",
          "type": "uint256"
        }
      ],
      "name": "ticketCount",
      "outputs": [
        {
          "internalType": "uint256",
          "name": "",
          "type": "uint256"
        }
      ],
      "stateMutability": "view",
      "type": "function"
    },
    {
      "inputs": [
        {
          "internalType": "uint256",
          "name": "lottery_no",
          "type": "uint256"
        }
      ],
      "name": "ticketNosInLotteryGetter",
      "outputs": [
        {
          "internalType": "uint256[]",
          "name": "",
          "type": "uint256[]"
        }
      ],
      "stateMutability": "view",
      "type": "function"
    },
    {
      "inputs": [
        {
          "internalType": "address",
          "name": "",
          "type": "address"
        },
        {
          "internalType": "uint256",
          "name": "",
          "type": "uint256"
        },
        {
          "internalType": "uint256",
          "name": "",
          "type": "uint256"
        }
      ],
      "name": "tickets",
      "outputs": [
        {
          "internalType": "address",
          "name": "owner",
          "type": "address"
        },
        {
          "internalType": "uint256",
          "name": "ticketNo",
          "type": "uint256"
        },
        {
          "internalType": "uint256",
          "name": "lotteryNo",
          "type": "uint256"
        },
        {
          "internalType": "bytes32",
          "name": "ticketHash",
          "type": "bytes32"
        },
        {
          "internalType": "uint8",
          "name": "status",
          "type": "uint8"
        },
        {
          "internalType": "bool",
          "name": "active",
          "type": "bool"
        },
        {
          "internalType": "enum FinalLottery.TicketTier",
          "name": "ticketTier",
          "type": "uint8"
        }
      ],
      "stateMutability": "view",
      "type": "function"
    },
    {
      "inputs": [
        {
          "internalType": "uint256",
          "name": "",
          "type": "uint256"
        }
      ],
      "name": "totalPrizeMoney",
      "outputs": [
        {
          "internalType": "uint256",
          "name": "",
          "type": "uint256"
        }
      ],
      "stateMutability": "view",
      "type": "function"
    },
    {
      "inputs": [
        {
          "internalType": "uint256",
          "name": "lottery_no",
          "type": "uint256"
        },
        {
          "internalType": "uint256",
          "name": "prize",
          "type": "uint256"
        }
      ],
      "name": "transferAmount",
      "outputs": [],
      "stateMutability": "nonpayable",
      "type": "function"
    },
    {
      "inputs": [
        {
          "internalType": "uint256",
          "name": "amount",
          "type": "uint256"
        }
      ],
      "name": "withdrawEther",
      "outputs": [],
      "stateMutability": "payable",
      "type": "function"
    }
  ],
  "bytecode": "0x60806040524260015534801561001457600080fd5b5042600181905550614eba8061002b6000396000f3fe6080604052600436106101ee5760003560e01c80637a1fb9371161010d578063a6588af8116100a0578063e2d2bf341161006f578063e2d2bf34146107fa578063e3d670d714610838578063e54778b514610875578063f6789ca0146108b3578063ff99a063146108dc576101ee565b8063a6588af81461071a578063c41a360a14610757578063ca928efb14610794578063cb4581d8146107bd576101ee565b80639c7278ca116100dc5780639c7278ca1461063a5780639eb76341146106775780639f45d5af146106a0578063a06cc71a146106dd576101ee565b80637a1fb937146105735780637b16fd60146105b057806390556911146105ed57806398ea5fca14610630576101ee565b80632b8bdc00116101855780633bed33ce116101545780633bed33ce146104b057806348367d1e146104cc57806357ac796e1461050a578063775f1aec14610535576101ee565b80632b8bdc00146103cf5780632e1fe4501461040d5780632e9aeb891461043657806339f7958b14610473576101ee565b806312065fe0116101c157806312065fe0146102e7578063125a7fd6146103125780631572abbe1461034f5780632115f4d11461038c576101ee565b806304b35c20146101f357806307ac5c8a14610230578063093a63ba1461026d5780630c63f832146102aa575b600080fd5b3480156101ff57600080fd5b5061021a600480360381019061021591906139d6565b610905565b6040516102279190613a12565b60405180910390f35b34801561023c57600080fd5b50610257600480360381019061025291906139d6565b610974565b6040516102649190613a12565b60405180910390f35b34801561027957600080fd5b50610294600480360381019061028f91906139d6565b6109e3565b6040516102a19190613aeb565b60405180910390f35b3480156102b657600080fd5b506102d160048036038101906102cc91906139d6565b610a51565b6040516102de9190613a12565b60405180910390f35b3480156102f357600080fd5b506102fc610a74565b6040516103099190613a12565b60405180910390f35b34801561031e57600080fd5b50610339600480360381019061033491906139d6565b610abb565b6040516103469190613a12565b60405180910390f35b34801561035b57600080fd5b5061037660048036038101906103719190613b0d565b610ad3565b6040516103839190613a12565b60405180910390f35b34801561039857600080fd5b506103b360048036038101906103ae9190613bab565b610b89565b6040516103c69796959493929190613cd4565b60405180910390f35b3480156103db57600080fd5b506103f660048036038101906103f191906139d6565b610c3c565b604051610404929190613d43565b60405180910390f35b34801561041957600080fd5b50610434600480360381019061042f91906139d6565b610e38565b005b34801561044257600080fd5b5061045d600480360381019061045891906139d6565b6111ea565b60405161046a9190613d6c565b60405180910390f35b34801561047f57600080fd5b5061049a60048036038101906104959190613dac565b61121c565b6040516104a79190613a12565b60405180910390f35b6104ca60048036038101906104c591906139d6565b6112ce565b005b3480156104d857600080fd5b506104f360048036038101906104ee9190613b0d565b6113f0565b604051610501929190613d43565b60405180910390f35b34801561051657600080fd5b5061051f611661565b60405161052c9190613a12565b60405180910390f35b34801561054157600080fd5b5061055c600480360381019061055791906139d6565b61166b565b60405161056a929190613dd9565b60405180910390f35b34801561057f57600080fd5b5061059a600480360381019061059591906139d6565b6117a6565b6040516105a79190613a12565b60405180910390f35b3480156105bc57600080fd5b506105d760048036038101906105d291906139d6565b6117c3565b6040516105e49190613a12565b60405180910390f35b3480156105f957600080fd5b50610614600480360381019061060f91906139d6565b611832565b6040516106279796959493929190613cd4565b60405180910390f35b61063861193e565b005b34801561064657600080fd5b50610661600480360381019061065c9190613b0d565b611996565b60405161066e9190613a12565b60405180910390f35b34801561068357600080fd5b5061069e60048036038101906106999190613b0d565b611bbf565b005b3480156106ac57600080fd5b506106c760048036038101906106c291906139d6565b611e9b565b6040516106d49190613a12565b60405180910390f35b3480156106e957600080fd5b5061070460048036038101906106ff9190613b0d565b611eb3565b6040516107119190613a12565b60405180910390f35b34801561072657600080fd5b50610741600480360381019061073c91906139d6565b6122a4565b60405161074e9190613a12565b60405180910390f35b34801561076357600080fd5b5061077e600480360381019061077991906139d6565b6122c1565b60405161078b9190613e02565b60405180910390f35b3480156107a057600080fd5b506107bb60048036038101906107b69190613b0d565b612301565b005b3480156107c957600080fd5b506107e460048036038101906107df9190613b0d565b6123df565b6040516107f19190613a12565b60405180910390f35b34801561080657600080fd5b50610821600480360381019061081c91906139d6565b612a10565b60405161082f929190613dd9565b60405180910390f35b34801561084457600080fd5b5061085f600480360381019061085a9190613e1d565b612a34565b60405161086c9190613a12565b60405180910390f35b34801561088157600080fd5b5061089c60048036038101906108979190613b0d565b612a4c565b6040516108aa929190613dd9565b60405180910390f35b3480156108bf57600080fd5b506108da60048036038101906108d59190613eac565b612c22565b005b3480156108e857600080fd5b5061090360048036038101906108fe91906139d6565b6132bc565b005b6000600560008381526020019081526020016000206003016005600084815260200190815260200160002060020160008154811061094657610945613eec565b5b90600052602060002001548154811061096257610961613eec565b5b90600052602060002001549050919050565b600060056000838152602001908152602001600020600301600560008481526020019081526020016000206002016000815481106109b5576109b4613eec565b5b9060005260206000200154815481106109d1576109d0613eec565b5b90600052602060002001549050919050565b606060056000838152602001908152602001600020600301805480602002602001604051908101604052809291908181526020018280548015610a4557602002820191906000526020600020905b815481526020019060010190808311610a31575b50505050509050919050565b600060056000838152602001908152602001600020600301805490509050919050565b6000600460003373ffffffffffffffffffffffffffffffffffffffff1673ffffffffffffffffffffffffffffffffffffffff16815260200190815260200160002054905090565b60066020528060005260406000206000915090505481565b60008060005b6003811015610b7e578360056000878152602001908152602001600020600301600560008881526020019081526020016000206002018381548110610b2157610b20613eec565b5b906000526020600020015481548110610b3d57610b3c613eec565b5b906000526020600020015403610b6b576207a120600182610b5e9190613f4a565b610b689190613f7e565b91505b8080610b7690613fc0565b915050610ad9565b508091505092915050565b60036020528260005260406000206020528160005260406000208181548110610bb157600080fd5b906000526020600020906005020160009250925050508060000160009054906101000a900473ffffffffffffffffffffffffffffffffffffffff16908060010154908060020154908060030154908060040160009054906101000a900460ff16908060040160019054906101000a900460ff16908060040160029054906101000a900460ff16905087565b6000806000600360003373ffffffffffffffffffffffffffffffffffffffff1673ffffffffffffffffffffffffffffffffffffffff16815260200190815260200160002060008581526020019081526020016000208054905011610cd5576040517f08c379a0000000000000000000000000000000000000000000000000000000008152600401610ccc90614065565b60405180910390fd5b60006001600360003373ffffffffffffffffffffffffffffffffffffffff1673ffffffffffffffffffffffffffffffffffffffff168152602001908152602001600020600086815260200190815260200160002080549050610d379190614085565b9050600360003373ffffffffffffffffffffffffffffffffffffffff1673ffffffffffffffffffffffffffffffffffffffff16815260200190815260200160002060008581526020019081526020016000208181548110610d9b57610d9a613eec565b5b906000526020600020906005020160010154600360003373ffffffffffffffffffffffffffffffffffffffff1673ffffffffffffffffffffffffffffffffffffffff16815260200190815260200160002060008681526020019081526020016000208281548110610e0f57610e0e613eec565b5b906000526020600020906005020160040160009054906101000a900460ff169250925050915091565b600054811115610e7d576040517f08c379a0000000000000000000000000000000000000000000000000000000008152600401610e749061412b565b60405180910390fd5b3373ffffffffffffffffffffffffffffffffffffffff166008600083815260200190815260200160002060000160009054906101000a900473ffffffffffffffffffffffffffffffffffffffff1673ffffffffffffffffffffffffffffffffffffffff1614610f21576040517f08c379a0000000000000000000000000000000000000000000000000000000008152600401610f18906141bd565b60405180910390fd5b610f296135eb565b600860008381526020019081526020016000206002015414610f80576040517f08c379a0000000000000000000000000000000000000000000000000000000008152600401610f7790614229565b60405180910390fd5b60006008600083815260200190815260200160002060040160009054906101000a900460ff1660ff1614610fe9576040517f08c379a0000000000000000000000000000000000000000000000000000000008152600401610fe0906142bb565b60405180910390fd5b600080610ff58361166b565b80925081935050506000600360003373ffffffffffffffffffffffffffffffffffffffff1673ffffffffffffffffffffffffffffffffffffffff1681526020019081526020016000206000848152602001908152602001600020828154811061106157611060613eec565b5b906000526020600020906005020160040160029054906101000a900460ff169050600061108d8261121c565b905080600460003373ffffffffffffffffffffffffffffffffffffffff1673ffffffffffffffffffffffffffffffffffffffff16815260200190815260200160002060008282546110de9190613f4a565b92505081905550806006600086815260200190815260200160002060008282546111089190614085565b9250508190555080600260008282546111219190614085565b925050819055506000600360003373ffffffffffffffffffffffffffffffffffffffff1673ffffffffffffffffffffffffffffffffffffffff1681526020019081526020016000206000868152602001908152602001600020848154811061118c5761118b613eec565b5b906000526020600020906005020160040160016101000a81548160ff02191690831515021790555060006008600087815260200190815260200160002060040160016101000a81548160ff0219169083151502179055505050505050565b600033826040516020016111ff929190614344565b604051602081830303815290604052805190602001209050919050565b6000806000600381111561123357611232613c5d565b5b83600381111561124657611245613c5d565b5b0361125457605090506112c5565b6001600381111561126857611267613c5d565b5b83600381111561127b5761127a613c5d565b5b0361128957602890506112c4565b6000600381111561129d5761129c613c5d565b5b8360038111156112b0576112af613c5d565b5b036112be57601490506112c3565b600090505b5b5b80915050919050565b80600460003373ffffffffffffffffffffffffffffffffffffffff1673ffffffffffffffffffffffffffffffffffffffff168152602001908152602001600020541015611350576040517f08c379a0000000000000000000000000000000000000000000000000000000008152600401611347906143bc565b60405180910390fd5b80600460003373ffffffffffffffffffffffffffffffffffffffff1673ffffffffffffffffffffffffffffffffffffffff168152602001908152602001600020600082825461139f9190614085565b925050819055503373ffffffffffffffffffffffffffffffffffffffff166108fc829081150290604051600060405180830381858888f193505050501580156113ec573d6000803e3d6000fd5b5050565b6000806113fb6135eb565b83111561143d576040517f08c379a00000000000000000000000000000000000000000000000000000000081526004016114349061444e565b60405180910390fd5b83600360003373ffffffffffffffffffffffffffffffffffffffff1673ffffffffffffffffffffffffffffffffffffffff16815260200190815260200160002060008581526020019081526020016000208054905010156114d3576040517f08c379a00000000000000000000000000000000000000000000000000000000081526004016114ca906144ba565b60405180910390fd5b6114db61392e565b600360003373ffffffffffffffffffffffffffffffffffffffff1673ffffffffffffffffffffffffffffffffffffffff1681526020019081526020016000206000858152602001908152602001600020858154811061153d5761153c613eec565b5b90600052602060002090600502016040518060e00160405290816000820160009054906101000a900473ffffffffffffffffffffffffffffffffffffffff1673ffffffffffffffffffffffffffffffffffffffff1673ffffffffffffffffffffffffffffffffffffffff1681526020016001820154815260200160028201548152602001600382015481526020016004820160009054906101000a900460ff1660ff1660ff1681526020016004820160019054906101000a900460ff161515151581526020016004820160029054906101000a900460ff16600381111561162757611626613c5d565b5b600381111561163957611638613c5d565b5b8152505090506000816020015190506000826080015190508181945094505050509250929050565b6000600254905090565b60008060006116786135eb565b905060005b60018261168a9190613f4a565b81101561179e5760005b600360003373ffffffffffffffffffffffffffffffffffffffff1673ffffffffffffffffffffffffffffffffffffffff16815260200190815260200160002060008381526020019081526020016000208054905081101561178a5785600360003373ffffffffffffffffffffffffffffffffffffffff1673ffffffffffffffffffffffffffffffffffffffff1681526020019081526020016000206000848152602001908152602001600020828154811061175257611751613eec565b5b90600052602060002090600502016001015403611777578181945094505050506117a1565b808061178290613fc0565b915050611694565b50808061179690613fc0565b91505061167d565b50505b915091565b600060076000838152602001908152602001600020549050919050565b6000600560008381526020019081526020016000206003016005600084815260200190815260200160002060020160008154811061180457611803613eec565b5b9060005260206000200154815481106118205761181f613eec565b5b90600052602060002001549050919050565b60008060008060008060006008600089815260200190815260200160002060000160009054906101000a900473ffffffffffffffffffffffffffffffffffffffff16600860008a815260200190815260200160002060010154600860008b815260200190815260200160002060020154600860008c815260200190815260200160002060030154600860008d815260200190815260200160002060040160009054906101000a900460ff16600860008e815260200190815260200160002060040160019054906101000a900460ff16600860008f815260200190815260200160002060040160029054906101000a900460ff169650965096509650965096509650919395979092949650565b34600460003373ffffffffffffffffffffffffffffffffffffffff1673ffffffffffffffffffffffffffffffffffffffff168152602001908152602001600020600082825461198d9190613f4a565b92505081905550565b600060016008600084815260200190815260200160002060040160009054906101000a900460ff1660ff1614611a01576040517f08c379a00000000000000000000000000000000000000000000000000000000081526004016119f890614526565b60405180910390fd5b6003600560008581526020019081526020016000206002018054905014611a6957611a2b8361362b565b611a34836138d9565b6007600085815260200190815260200160002081905550611a68836007600086815260200190815260200160002054612301565b5b600080600090505b6003811015611b00578360056000878152602001908152602001600020600301600560008881526020019081526020016000206002018381548110611ab957611ab8613eec565b5b906000526020600020015481548110611ad557611ad4613eec565b5b906000526020600020015403611aed57809150611b00565b8080611af890613fc0565b915050611a71565b506000611b19600183611b139190613f4a565b866123df565b90508060026000828254611b2d9190614085565b9250508190555080600660008781526020019081526020016000206000828254611b579190614085565b9250508190555080600460003373ffffffffffffffffffffffffffffffffffffffff1673ffffffffffffffffffffffffffffffffffffffff1681526020019081526020016000206000828254611bad9190613f4a565b92505081905550809250505092915050565b600054821115611c04576040517f08c379a0000000000000000000000000000000000000000000000000000000008152600401611bfb9061412b565b60405180910390fd5b3373ffffffffffffffffffffffffffffffffffffffff166008600084815260200190815260200160002060000160009054906101000a900473ffffffffffffffffffffffffffffffffffffffff1673ffffffffffffffffffffffffffffffffffffffff1614611ca8576040517f08c379a0000000000000000000000000000000000000000000000000000000008152600401611c9f906141bd565b60405180910390fd5b6001611cb26135eb565b611cbc9190614085565b600860008481526020019081526020016000206002015414611d13576040517f08c379a0000000000000000000000000000000000000000000000000000000008152600401611d0a90614592565b60405180910390fd5b60006008600084815260200190815260200160002060040160009054906101000a900460ff1660ff1614611d7c576040517f08c379a0000000000000000000000000000000000000000000000000000000008152600401611d73906145fe565b60405180910390fd5b60003382604051602001611d91929190614344565b604051602081830303815290604052805190602001209050600080611db58561166b565b9150915060086000868152602001908152602001600020600301548303611e945760016008600087815260200190815260200160002060040160006101000a81548160ff021916908360ff1602179055506001600360003373ffffffffffffffffffffffffffffffffffffffff1673ffffffffffffffffffffffffffffffffffffffff16815260200190815260200160002060008481526020019081526020016000208281548110611e6a57611e69613eec565b5b906000526020600020906005020160040160006101000a81548160ff021916908360ff1602179055505b5050505050565b60076020528060005260406000206000915090505481565b6000611ebd6135eb565b831115611eff576040517f08c379a0000000000000000000000000000000000000000000000000000000008152600401611ef690614690565b60405180910390fd5b600054821115611f44576040517f08c379a0000000000000000000000000000000000000000000000000000000008152600401611f3b90614690565b60405180910390fd5b3373ffffffffffffffffffffffffffffffffffffffff166008600084815260200190815260200160002060000160009054906101000a900473ffffffffffffffffffffffffffffffffffffffff1673ffffffffffffffffffffffffffffffffffffffff1614611fe8576040517f08c379a0000000000000000000000000000000000000000000000000000000008152600401611fdf906146fc565b60405180910390fd5b60016008600084815260200190815260200160002060040160009054906101000a900460ff1660ff1614612051576040517f08c379a00000000000000000000000000000000000000000000000000000000081526004016120489061478e565b60405180910390fd5b60036005600085815260200190815260200160002060020180549050146120b95761207b8361362b565b612084836138d9565b60076000858152602001908152602001600020819055506120b8836007600086815260200190815260200160002054612301565b5b6000806060600060056000888152602001908152602001600020600301600560008981526020019081526020016000206002016000815481106120ff576120fe613eec565b5b90600052602060002001548154811061211b5761211a613eec565b5b90600052602060002001549050600060056000898152602001908152602001600020600301600560008a815260200190815260200160002060020160018154811061216957612168613eec565b5b90600052602060002001548154811061218557612184613eec565b5b906000526020600020015490506000600560008a8152602001908152602001600020600301600560008b81526020019081526020016000206002016002815481106121d3576121d2613eec565b5b9060005260206000200154815481106121ef576121ee613eec565b5b906000526020600020015490508288036122195761220e60018a6123df565b95506001945061225e565b8188036122365761222b60028a6123df565b95506001945061225d565b8088036122535761224860038a6123df565b95506001945061225c565b60009450600095505b5b5b7fd73f7c981987819875eab304d6558aecc1d944c068aa8fc4383b7378af31a1a28560405161228d91906147ae565b60405180910390a185965050505050505092915050565b600060066000838152602001908152602001600020549050919050565b60006008600083815260200190815260200160002060000160009054906101000a900473ffffffffffffffffffffffffffffffffffffffff169050919050565b806007600084815260200190815260200160002060008282546123249190613f4a565b925050819055508060066000848152602001908152602001600020541015612381576040517f08c379a000000000000000000000000000000000000000000000000000000000815260040161237890614861565b60405180910390fd5b60008160066000858152602001908152602001600020546123a29190614085565b905080600660006001866123b69190613f4a565b815260200190815260200160002060008282546123d39190613f4a565b92505081905550505050565b600060018314806123f05750600283145b806123fb5750600383145b61243a576040517f08c379a0000000000000000000000000000000000000000000000000000000008152600401612431906148cd565b60405180910390fd5b6124426135eb565b821115612484576040517f08c379a000000000000000000000000000000000000000000000000000000000815260040161247b90614939565b60405180910390fd5b60008060056000858152602001908152602001600020600301600560008681526020019081526020016000206002016001876124c09190614085565b815481106124d1576124d0613eec565b5b9060005260206000200154815481106124ed576124ec613eec565b5b90600052602060002001549050600185036126a6576000600381111561251657612515613c5d565b5b6008600083815260200190815260200160002060040160029054906101000a900460ff16600381111561254c5761254b613c5d565b5b0361257857600260066000868152602001908152602001600020546125719190614988565b91506126a1565b6001600381111561258c5761258b613c5d565b5b6008600083815260200190815260200160002060040160029054906101000a900460ff1660038111156125c2576125c1613c5d565b5b036125ee57600460066000868152602001908152602001600020546125e79190614988565b91506126a0565b6002600381111561260257612601613c5d565b5b6008600083815260200190815260200160002060040160029054906101000a900460ff16600381111561263857612637613c5d565b5b03612664576008600660008681526020019081526020016000205461265d9190614988565b915061269f565b6040517f08c379a000000000000000000000000000000000000000000000000000000000815260040161269690614a05565b60405180910390fd5b5b5b612a05565b6002850361285257600060038111156126c2576126c1613c5d565b5b6008600083815260200190815260200160002060040160029054906101000a900460ff1660038111156126f8576126f7613c5d565b5b03612724576004600660008681526020019081526020016000205461271d9190614988565b915061284d565b6001600381111561273857612737613c5d565b5b6008600083815260200190815260200160002060040160029054906101000a900460ff16600381111561276e5761276d613c5d565b5b0361279a57600860066000868152602001908152602001600020546127939190614988565b915061284c565b600260038111156127ae576127ad613c5d565b5b6008600083815260200190815260200160002060040160029054906101000a900460ff1660038111156127e4576127e3613c5d565b5b0361281057601060066000868152602001908152602001600020546128099190614988565b915061284b565b6040517f08c379a000000000000000000000000000000000000000000000000000000000815260040161284290614a05565b60405180910390fd5b5b5b612a04565b600385036129fe576000600381111561286e5761286d613c5d565b5b6008600083815260200190815260200160002060040160029054906101000a900460ff1660038111156128a4576128a3613c5d565b5b036128d057600860066000868152602001908152602001600020546128c99190614988565b91506129f9565b600160038111156128e4576128e3613c5d565b5b6008600083815260200190815260200160002060040160029054906101000a900460ff16600381111561291a57612919613c5d565b5b03612946576010600660008681526020019081526020016000205461293f9190614988565b91506129f8565b6002600381111561295a57612959613c5d565b5b6008600083815260200190815260200160002060040160029054906101000a900460ff1660038111156129905761298f613c5d565b5b036129bc57602060066000868152602001908152602001600020546129b59190614988565b91506129f7565b6040517f08c379a00000000000000000000000000000000000000000000000000000000081526004016129ee90614a05565b60405180910390fd5b5b5b612a03565b600091505b5b5b819250505092915050565b60056020528060005260406000206000915090508060000154908060010154905082565b60046020528060005260406000206000915090505481565b600080612a576135eb565b831115612a99576040517f08c379a0000000000000000000000000000000000000000000000000000000008152600401612a9090614690565b60405180910390fd5b6003600560008581526020019081526020016000206002018054905014612af5576040517f08c379a0000000000000000000000000000000000000000000000000000000008152600401612aec90614a97565b60405180910390fd5b6001841480612b045750600284145b80612b0f5750600384145b612b4e576040517f08c379a0000000000000000000000000000000000000000000000000000000008152600401612b4590614b29565b60405180910390fd5b600060056000858152602001908152602001600020600201600186612b739190614085565b81548110612b8457612b83613eec565b5b90600052602060002001549050600560008581526020019081526020016000206003018181548110612bb957612bb8613eec565b5b90600052602060002001549250612bcf8361166b565b905080915050612bdf85856123df565b91507f9ccbea8acda54bc998251706a6d0054e0a880c3f38e70c8eaf6bd9b383c99dad8383604051612c12929190613dd9565b60405180910390a1509250929050565b6001600080828254612c349190613f4a565b925050819055506000612c456135eb565b9050600060028303612ce0576404a817c800600460003373ffffffffffffffffffffffffffffffffffffffff1673ffffffffffffffffffffffffffffffffffffffff1681526020019081526020016000205411612cd7576040517f08c379a0000000000000000000000000000000000000000000000000000000008152600401612cce90614bbb565b60405180910390fd5b60029050612e0c565b60048303612d77576409502f9000600460003373ffffffffffffffffffffffffffffffffffffffff1673ffffffffffffffffffffffffffffffffffffffff1681526020019081526020016000205411612d6e576040517f08c379a0000000000000000000000000000000000000000000000000000000008152600401612d6590614c27565b60405180910390fd5b60019050612e0b565b60088303612e0a576412a05f2000600460003373ffffffffffffffffffffffffffffffffffffffff1673ffffffffffffffffffffffffffffffffffffffff1681526020019081526020016000205411612e05576040517f08c379a0000000000000000000000000000000000000000000000000000000008152600401612dfc90614c93565b60405180910390fd5b600090505b5b5b60038210612ec557600360056000600285612e279190614085565b81526020019081526020016000206002018054905014612ec457612e56600283612e519190614085565b61362b565b612e6b600283612e669190614085565b6138d9565b60076000600285612e7c9190614085565b815260200190815260200160002081905550612ec3600283612e9e9190614085565b60076000600286612eaf9190614085565b815260200190815260200160002054612301565b5b5b600360003373ffffffffffffffffffffffffffffffffffffffff1673ffffffffffffffffffffffffffffffffffffffff16815260200190815260200160002060008381526020019081526020016000206040518060e001604052803373ffffffffffffffffffffffffffffffffffffffff1681526020016000548152602001848152602001868152602001600060ff168152602001600115158152602001836003811115612f7657612f75613c5d565b5b815250908060018154018082558091505060019003906000526020600020906005020160009091909190915060008201518160000160006101000a81548173ffffffffffffffffffffffffffffffffffffffff021916908373ffffffffffffffffffffffffffffffffffffffff16021790555060208201518160010155604082015181600201556060820151816003015560808201518160040160006101000a81548160ff021916908360ff16021790555060a08201518160040160016101000a81548160ff02191690831515021790555060c08201518160040160026101000a81548160ff0219169083600381111561307357613072613c5d565b5b0217905550505033600860008054815260200190815260200160002060000160006101000a81548173ffffffffffffffffffffffffffffffffffffffff021916908373ffffffffffffffffffffffffffffffffffffffff16021790555060005460086000805481526020019081526020016000206001018190555081600860008054815260200190815260200160002060020181905550836008600080548152602001908152602001600020600301819055506000600860008054815260200190815260200160002060040160006101000a81548160ff021916908360ff1602179055506001600860008054815260200190815260200160002060040160016101000a81548160ff02191690831515021790555080600860008054815260200190815260200160002060040160026101000a81548160ff021916908360038111156131c1576131c0613c5d565b5b02179055506131cf8161121c565b600460003373ffffffffffffffffffffffffffffffffffffffff1673ffffffffffffffffffffffffffffffffffffffff168152602001908152602001600020600082825461321d9190614085565b9250508190555061322d8161121c565b6002600082825461323e9190613f4a565b9250508190555060056000838152602001908152602001600020600301600054908060018154018082558091505060019003906000526020600020016000909190919091505561328d8161121c565b6006600084815260200190815260200160002060008282546132af9190613f4a565b9250508190555050505050565b6000806132c88361166b565b915091507f67861b1d1c8fd76d9078e5517f1fed406d719c58d7c157a90c254637ed34c9d2600360003373ffffffffffffffffffffffffffffffffffffffff1673ffffffffffffffffffffffffffffffffffffffff1681526020019081526020016000206000848152602001908152602001600020828154811061334f5761334e613eec565b5b906000526020600020906005020160010154600360003373ffffffffffffffffffffffffffffffffffffffff1673ffffffffffffffffffffffffffffffffffffffff168152602001908152602001600020600085815260200190815260200160002083815481106133c3576133c2613eec565b5b906000526020600020906005020160020154600360003373ffffffffffffffffffffffffffffffffffffffff1673ffffffffffffffffffffffffffffffffffffffff1681526020019081526020016000206000868152602001908152602001600020848154811061343757613436613eec565b5b906000526020600020906005020160030154600360003373ffffffffffffffffffffffffffffffffffffffff1673ffffffffffffffffffffffffffffffffffffffff168152602001908152602001600020600087815260200190815260200160002085815481106134ab576134aa613eec565b5b906000526020600020906005020160040160009054906101000a900460ff16600360003373ffffffffffffffffffffffffffffffffffffffff1673ffffffffffffffffffffffffffffffffffffffff1681526020019081526020016000206000888152602001908152602001600020868154811061352c5761352b613eec565b5b906000526020600020906005020160040160019054906101000a900460ff16600360003373ffffffffffffffffffffffffffffffffffffffff1673ffffffffffffffffffffffffffffffffffffffff168152602001908152602001600020600089815260200190815260200160002087815481106135ad576135ac613eec565b5b906000526020600020906005020160040160029054906101000a900460ff166040516135de96959493929190614cb3565b60405180910390a1505050565b6000804290506000600154826136019190614085565b90506000600162093a80836136169190614988565b6136209190613f4a565b905080935050505090565b600360056000838152602001908152602001600020600301805490501015613688576040517f08c379a000000000000000000000000000000000000000000000000000000000815260040161367f90614dac565b60405180910390fd5b60036005600083815260200190815260200160002060020180549050036136e4576040517f08c379a00000000000000000000000000000000000000000000000000000000081526004016136db90614e18565b60405180910390fd5b6136ec6135eb565b81111561372e576040517f08c379a000000000000000000000000000000000000000000000000000000000815260040161372590614939565b60405180910390fd5b6000600160056000848152602001908152602001600020600301805490506137569190614085565b90506000814260405160200161376c9190614e38565b6040516020818303038152906040528051906020012060001c61378f9190614e53565b90506000826001426137a19190613f4a565b6040516020016137b19190614e38565b6040516020818303038152906040528051906020012060001c6137d49190614e53565b90506000836002426137e69190613f4a565b6040516020016137f69190614e38565b6040516020818303038152906040528051906020012060001c6138199190614e53565b90506005600086815260200190815260200160002060020183908060018154018082558091505060019003906000526020600020016000909190919091505560056000868152602001908152602001600020600201829080600181540180825580915050600190039060005260206000200160009091909190915055600560008681526020019081526020016000206002018190806001815401808255809150506001900390600052602060002001600090919091909150555050505050565b6000806138e76001846123df565b905060006138f66002856123df565b905060006139056003866123df565b905060008183856139169190613f4a565b6139209190613f4a565b905080945050505050919050565b6040518060e00160405280600073ffffffffffffffffffffffffffffffffffffffff168152602001600081526020016000815260200160008019168152602001600060ff1681526020016000151581526020016000600381111561399557613994613c5d565b5b81525090565b600080fd5b6000819050919050565b6139b3816139a0565b81146139be57600080fd5b50565b6000813590506139d0816139aa565b92915050565b6000602082840312156139ec576139eb61399b565b5b60006139fa848285016139c1565b91505092915050565b613a0c816139a0565b82525050565b6000602082019050613a276000830184613a03565b92915050565b600081519050919050565b600082825260208201905092915050565b6000819050602082019050919050565b613a62816139a0565b82525050565b6000613a748383613a59565b60208301905092915050565b6000602082019050919050565b6000613a9882613a2d565b613aa28185613a38565b9350613aad83613a49565b8060005b83811015613ade578151613ac58882613a68565b9750613ad083613a80565b925050600181019050613ab1565b5085935050505092915050565b60006020820190508181036000830152613b058184613a8d565b905092915050565b60008060408385031215613b2457613b2361399b565b5b6000613b32858286016139c1565b9250506020613b43858286016139c1565b9150509250929050565b600073ffffffffffffffffffffffffffffffffffffffff82169050919050565b6000613b7882613b4d565b9050919050565b613b8881613b6d565b8114613b9357600080fd5b50565b600081359050613ba581613b7f565b92915050565b600080600060608486031215613bc457613bc361399b565b5b6000613bd286828701613b96565b9350506020613be3868287016139c1565b9250506040613bf4868287016139c1565b9150509250925092565b613c0781613b6d565b82525050565b6000819050919050565b613c2081613c0d565b82525050565b600060ff82169050919050565b613c3c81613c26565b82525050565b60008115159050919050565b613c5781613c42565b82525050565b7f4e487b7100000000000000000000000000000000000000000000000000000000600052602160045260246000fd5b60048110613c9d57613c9c613c5d565b5b50565b6000819050613cae82613c8c565b919050565b6000613cbe82613ca0565b9050919050565b613cce81613cb3565b82525050565b600060e082019050613ce9600083018a613bfe565b613cf66020830189613a03565b613d036040830188613a03565b613d106060830187613c17565b613d1d6080830186613c33565b613d2a60a0830185613c4e565b613d3760c0830184613cc5565b98975050505050505050565b6000604082019050613d586000830185613a03565b613d656020830184613c33565b9392505050565b6000602082019050613d816000830184613c17565b92915050565b60048110613d9457600080fd5b50565b600081359050613da681613d87565b92915050565b600060208284031215613dc257613dc161399b565b5b6000613dd084828501613d97565b91505092915050565b6000604082019050613dee6000830185613a03565b613dfb6020830184613a03565b9392505050565b6000602082019050613e176000830184613bfe565b92915050565b600060208284031215613e3357613e3261399b565b5b6000613e4184828501613b96565b91505092915050565b613e5381613c0d565b8114613e5e57600080fd5b50565b600081359050613e7081613e4a565b92915050565b6000819050919050565b613e8981613e76565b8114613e9457600080fd5b50565b600081359050613ea681613e80565b92915050565b60008060408385031215613ec357613ec261399b565b5b6000613ed185828601613e61565b9250506020613ee285828601613e97565b9150509250929050565b7f4e487b7100000000000000000000000000000000000000000000000000000000600052603260045260246000fd5b7f4e487b7100000000000000000000000000000000000000000000000000000000600052601160045260246000fd5b6000613f55826139a0565b9150613f60836139a0565b9250828201905080821115613f7857613f77613f1b565b5b92915050565b6000613f89826139a0565b9150613f94836139a0565b9250828202613fa2816139a0565b91508282048414831517613fb957613fb8613f1b565b5b5092915050565b6000613fcb826139a0565b91507fffffffffffffffffffffffffffffffffffffffffffffffffffffffffffffffff8203613ffd57613ffc613f1b565b5b600182019050919050565b600082825260208201905092915050565b7f596f7520646f6e6074206861766520616e79207469636b657473000000000000600082015250565b600061404f601a83614008565b915061405a82614019565b602082019050919050565b6000602082019050818103600083015261407e81614042565b9050919050565b6000614090826139a0565b915061409b836139a0565b92508282039050818111156140b3576140b2613f1b565b5b92915050565b7f5468657265206973206e6f207469636b657420776974682074686973206e756d60008201527f62657220696e207468652073797374656d000000000000000000000000000000602082015250565b6000614115603183614008565b9150614120826140b9565b604082019050919050565b6000602082019050818103600083015261414481614108565b9050919050565b7f596f7520617265206e6f7420746865206f776e6572206f66207468697320746960008201527f636b657400000000000000000000000000000000000000000000000000000000602082015250565b60006141a7602483614008565b91506141b28261414b565b604082019050919050565b600060208201905081810360008301526141d68161419a565b9050919050565b7f596f752063616e6e6f7420726566756e6420616e796d6f726500000000000000600082015250565b6000614213601983614008565b915061421e826141dd565b602082019050919050565b6000602082019050818103600083015261424281614206565b9050919050565b7f596f752063616e6e6f7420726566756e6420616e796d6f72652c207469636b6560008201527f7420697320616c72656164792072657665616c65640000000000000000000000602082015250565b60006142a5603583614008565b91506142b082614249565b604082019050919050565b600060208201905081810360008301526142d481614298565b9050919050565b60008160601b9050919050565b60006142f3826142db565b9050919050565b6000614305826142e8565b9050919050565b61431d61431882613b6d565b6142fa565b82525050565b6000819050919050565b61433e614339826139a0565b614323565b82525050565b6000614350828561430c565b601482019150614360828461432d565b6020820191508190509392505050565b7f696e73756666696369656e742062616c616e6365000000000000000000000000600082015250565b60006143a6601483614008565b91506143b182614370565b602082019050919050565b600060208201905081810360008301526143d581614399565b9050919050565b7f4c6f747465727920796f75206172652072657175657374696e6720686173206e60008201527f6f74207374617274656420796574000000000000000000000000000000000000602082015250565b6000614438602e83614008565b9150614443826143dc565b604082019050919050565b600060208201905081810360008301526144678161442b565b9050919050565b7f596f7520646f6e607420686176652074686174206d616e79207469636b657473600082015250565b60006144a4602083614008565b91506144af8261446e565b602082019050919050565b600060208201905081810360008301526144d381614497565b9050919050565b7f6e6f742072657665616c65640000000000000000000000000000000000000000600082015250565b6000614510600c83614008565b915061451b826144da565b602082019050919050565b6000602082019050818103600083015261453f81614503565b9050919050565b7f696e636f72726563742074696d6520746f2072657665616c0000000000000000600082015250565b600061457c601883614008565b915061458782614546565b602082019050919050565b600060208201905081810360008301526145ab8161456f565b9050919050565b7f536f7272792c20796f75206861766520616c72656164792072657665616c6564600082015250565b60006145e8602083614008565b91506145f3826145b2565b602082019050919050565b60006020820190508181036000830152614617816145db565b9050919050565b7f4c6f747465727920796f75206172652072657175657374696e6720686173206e60008201527f6f74207374617274656420796574210000000000000000000000000000000000602082015250565b600061467a602f83614008565b91506146858261461e565b604082019050919050565b600060208201905081810360008301526146a98161466d565b9050919050565b7f596f7520617265206e6f7420746865206f776e65722100000000000000000000600082015250565b60006146e6601683614008565b91506146f1826146b0565b602082019050919050565b60006020820190508181036000830152614715816146d9565b9050919050565b7f596f752068617665206e6f742072657665616c6564207468652072616e646f6d60008201527f206e756d62657220796574210000000000000000000000000000000000000000602082015250565b6000614778602c83614008565b91506147838261471c565b604082019050919050565b600060208201905081810360008301526147a78161476b565b9050919050565b60006020820190506147c36000830184613c4e565b92915050565b7f4c6f747465727920697320696e76616c69642c2062656361757365207468657260008201527f65206973206e6f7420656e6f756768206d6f6e657920696e20746865204c6f7460208201527f7465727920666f7220746865207072697a657300000000000000000000000000604082015250565b600061484b605383614008565b9150614856826147c9565b606082019050919050565b6000602082019050818103600083015261487a8161483e565b9050919050565b7f496e76616c696420707269636520747970652100000000000000000000000000600082015250565b60006148b7601383614008565b91506148c282614881565b602082019050919050565b600060208201905081810360008301526148e6816148aa565b9050919050565b7f496e76616c6964206c6f7474657279206e756d62657221000000000000000000600082015250565b6000614923601783614008565b915061492e826148ed565b602082019050919050565b6000602082019050818103600083015261495281614916565b9050919050565b7f4e487b7100000000000000000000000000000000000000000000000000000000600052601260045260246000fd5b6000614993826139a0565b915061499e836139a0565b9250826149ae576149ad614959565b5b828204905092915050565b7f496e76616c6964206f7065726174696f6e2e0000000000000000000000000000600082015250565b60006149ef601283614008565b91506149fa826149b9565b602082019050919050565b60006020820190508181036000830152614a1e816149e2565b9050919050565b7f5468657265206973206e6f2077696e6e696e67207469636b65742073656c656360008201527f7465642079657421000000000000000000000000000000000000000000000000602082015250565b6000614a81602883614008565b9150614a8c82614a25565b604082019050919050565b60006020820190508181036000830152614ab081614a74565b9050919050565b7f496e76616c6964206e756d626572206f662077696e6e696e67207469636b657460008201527f2100000000000000000000000000000000000000000000000000000000000000602082015250565b6000614b13602183614008565b9150614b1e82614ab7565b604082019050919050565b60006020820190508181036000830152614b4281614b06565b9050919050565b7f696e73756666696369656e742062616c616e636520666f72207175617274657260008201527f207469636b657400000000000000000000000000000000000000000000000000602082015250565b6000614ba5602783614008565b9150614bb082614b49565b604082019050919050565b60006020820190508181036000830152614bd481614b98565b9050919050565b7f696e73756666696369656e742062616c616e63652068616c66207469636b6574600082015250565b6000614c11602083614008565b9150614c1c82614bdb565b602082019050919050565b60006020820190508181036000830152614c4081614c04565b9050919050565b7f696e73756666696369656e742062616c616e63652066756c6c207469636b6574600082015250565b6000614c7d602083614008565b9150614c8882614c47565b602082019050919050565b60006020820190508181036000830152614cac81614c70565b9050919050565b600060c082019050614cc86000830189613a03565b614cd56020830188613a03565b614ce26040830187613c17565b614cef6060830186613c33565b614cfc6080830185613c4e565b614d0960a0830184613cc5565b979650505050505050565b7f5468657265206973206e6f7420656e6f756768207469636b657420666f72207060008201527f69636b696e672077696e6e6572732c206c6f74746572792069732063616e636560208201527f6c6c656421000000000000000000000000000000000000000000000000000000604082015250565b6000614d96604583614008565b9150614da182614d14565b606082019050919050565b60006020820190508181036000830152614dc581614d89565b9050919050565b7f57696e6e6572732061726520616c72656164792073656c65637465642e000000600082015250565b6000614e02601d83614008565b9150614e0d82614dcc565b602082019050919050565b60006020820190508181036000830152614e3181614df5565b9050919050565b6000614e44828461432d565b60208201915081905092915050565b6000614e5e826139a0565b9150614e69836139a0565b925082614e7957614e78614959565b5b82820690509291505056fea2646970667358221220243ff9a5695758f0f51f5bc588d869d5ba0424849be1ac5d425915aa0b5bba3964736f6c63430008120033",
  "linkReferences": {},
  "deployedLinkReferences": {}
}