{
  "_format": "hh-sol-artifact-1",
  "contractName": "FinalLottery",
  "sourceName": "contracts/FinalLottery.sol",
  "abi": [
    {
      "inputs": [],
      "stateMutability": "nonpayable",
      "type": "constructor"
    },
    {
      "anonymous": false,
      "inputs": [
        {
          "indexed": false,
          "internalType": "string",
          "name": "prizeName",
          "type": "string"
        },
        {
          "indexed": false,
          "internalType": "uint256",
          "name": "prize",
          "type": "uint256"
        }
      ],
      "name": "AmountOfPrize",
      "type": "event"
    },
    {
      "anonymous": false,
      "inputs": [
        {
          "indexed": false,
          "internalType": "uint256",
          "name": "totalPrice",
          "type": "uint256"
        }
      ],
      "name": "SinglePriceVal",
      "type": "event"
    },
    {
      "anonymous": false,
      "inputs": [
        {
          "indexed": false,
          "internalType": "uint256",
          "name": "ticketNo",
          "type": "uint256"
        },
        {
          "indexed": false,
          "internalType": "uint256",
          "name": "lotteryNo",
          "type": "uint256"
        },
        {
          "indexed": false,
          "internalType": "bytes32",
          "name": "ticketHash",
          "type": "bytes32"
        },
        {
          "indexed": false,
          "internalType": "uint8",
          "name": "status",
          "type": "uint8"
        },
        {
          "indexed": false,
          "internalType": "bool",
          "name": "active",
          "type": "bool"
        },
        {
          "indexed": false,
          "internalType": "enum FinalLottery.TicketTier",
          "name": "ticketTier",
          "type": "uint8"
        }
      ],
      "name": "TicketInfo",
      "type": "event"
    },
    {
      "anonymous": false,
      "inputs": [
        {
          "indexed": false,
          "internalType": "bool",
          "name": "isWin",
          "type": "bool"
        }
      ],
      "name": "Winner",
      "type": "event"
    },
    {
      "anonymous": false,
      "inputs": [
        {
          "indexed": false,
          "internalType": "uint256",
          "name": "ticketNo",
          "type": "uint256"
        },
        {
          "indexed": false,
          "internalType": "uint256",
          "name": "amount",
          "type": "uint256"
        }
      ],
      "name": "WinningTicket",
      "type": "event"
    },
    {
      "inputs": [
        {
          "internalType": "address",
          "name": "",
          "type": "address"
        }
      ],
      "name": "balance",
      "outputs": [
        {
          "internalType": "uint256",
          "name": "",
          "type": "uint256"
        }
      ],
      "stateMutability": "view",
      "type": "function"
    },
    {
      "inputs": [
        {
          "internalType": "bytes32",
          "name": "hash_rnd_number",
          "type": "bytes32"
        },
        {
          "internalType": "int256",
          "name": "tier",
          "type": "int256"
        }
      ],
      "name": "buyTicket",
      "outputs": [],
      "stateMutability": "nonpayable",
      "type": "function"
    },
    {
      "inputs": [
        {
          "internalType": "uint256",
          "name": "thPrice",
          "type": "uint256"
        },
        {
          "internalType": "uint256",
          "name": "lottery_no",
          "type": "uint256"
        }
      ],
      "name": "calculateSinglePriceValue",
      "outputs": [
        {
          "internalType": "uint256",
          "name": "",
          "type": "uint256"
        }
      ],
      "stateMutability": "nonpayable",
      "type": "function"
    },
    {
      "inputs": [
        {
          "internalType": "uint256",
          "name": "lottery_no",
          "type": "uint256"
        },
        {
          "internalType": "uint256",
          "name": "ticket_no",
          "type": "uint256"
        }
      ],
      "name": "checkIfTicketWon",
      "outputs": [
        {
          "internalType": "uint256",
          "name": "",
          "type": "uint256"
        }
      ],
      "stateMutability": "nonpayable",
      "type": "function"
    },
    {
      "inputs": [
        {
          "internalType": "uint256",
          "name": "lottery_no",
          "type": "uint256"
        },
        {
          "internalType": "uint256",
          "name": "ticket_no",
          "type": "uint256"
        }
      ],
      "name": "collectTicketPrize",
      "outputs": [
        {
          "internalType": "uint256",
          "name": "",
          "type": "uint256"
        }
      ],
      "stateMutability": "nonpayable",
      "type": "function"
    },
    {
      "inputs": [
        {
          "internalType": "uint256",
          "name": "ticket_no",
          "type": "uint256"
        }
      ],
      "name": "collectTicketRefund",
      "outputs": [],
      "stateMutability": "nonpayable",
      "type": "function"
    },
    {
      "inputs": [],
      "name": "depositEther",
      "outputs": [],
      "stateMutability": "payable",
      "type": "function"
    },
    {
      "inputs": [
        {
          "internalType": "uint256",
          "name": "ticket_no",
          "type": "uint256"
        }
      ],
      "name": "findLotteryNoFromTicketNo",
      "outputs": [
        {
          "internalType": "uint256",
          "name": "",
          "type": "uint256"
        }
      ],
      "stateMutability": "nonpayable",
      "type": "function"
    },
    {
      "inputs": [
        {
          "internalType": "uint256",
          "name": "ticket_no",
          "type": "uint256"
        }
      ],
      "name": "findTicketInfosFromNo",
      "outputs": [
        {
          "internalType": "uint256",
          "name": "",
          "type": "uint256"
        },
        {
          "internalType": "uint256",
          "name": "",
          "type": "uint256"
        }
      ],
      "stateMutability": "nonpayable",
      "type": "function"
    },
    {
      "inputs": [],
      "name": "getBalance",
      "outputs": [
        {
          "internalType": "uint256",
          "name": "",
          "type": "uint256"
        }
      ],
      "stateMutability": "view",
      "type": "function"
    },
    {
      "inputs": [
        {
          "internalType": "uint256",
          "name": "i",
          "type": "uint256"
        },
        {
          "internalType": "uint256",
          "name": "lottery_no",
          "type": "uint256"
        }
      ],
      "name": "getIthOwnedTicketNo",
      "outputs": [
        {
          "internalType": "uint256",
          "name": "",
          "type": "uint256"
        },
        {
          "internalType": "uint8",
          "name": "",
          "type": "uint8"
        }
      ],
      "stateMutability": "view",
      "type": "function"
    },
    {
      "inputs": [
        {
          "internalType": "uint256",
          "name": "i",
          "type": "uint256"
        },
        {
          "internalType": "uint256",
          "name": "lottery_no",
          "type": "uint256"
        }
      ],
      "name": "getIthWinningTicket",
      "outputs": [
        {
          "internalType": "uint256",
          "name": "ticket_no",
          "type": "uint256"
        },
        {
          "internalType": "uint256",
          "name": "amount",
          "type": "uint256"
        }
      ],
      "stateMutability": "nonpayable",
      "type": "function"
    },
    {
      "inputs": [
        {
          "internalType": "uint256",
          "name": "lottery_no",
          "type": "uint256"
        }
      ],
      "name": "getLastOwnedTicketNo",
      "outputs": [
        {
          "internalType": "uint256",
          "name": "",
          "type": "uint256"
        },
        {
          "internalType": "uint8",
          "name": "",
          "type": "uint8"
        }
      ],
      "stateMutability": "view",
      "type": "function"
    },
    {
      "inputs": [
        {
          "internalType": "uint256",
          "name": "lottery_no",
          "type": "uint256"
        }
      ],
      "name": "getLotteryMoneyCollected",
      "outputs": [
        {
          "internalType": "uint256",
          "name": "",
          "type": "uint256"
        }
      ],
      "stateMutability": "view",
      "type": "function"
    },
    {
      "inputs": [],
      "name": "getMoneyCollected",
      "outputs": [
        {
          "internalType": "uint256",
          "name": "amount",
          "type": "uint256"
        }
      ],
      "stateMutability": "view",
      "type": "function"
    },
    {
      "inputs": [
        {
          "internalType": "uint256",
          "name": "ticket_no",
          "type": "uint256"
        }
      ],
      "name": "getOwner",
      "outputs": [
        {
          "internalType": "address",
          "name": "",
          "type": "address"
        }
      ],
      "stateMutability": "view",
      "type": "function"
    },
    {
      "inputs": [
        {
          "internalType": "uint256",
          "name": "ticket_number",
          "type": "uint256"
        }
      ],
      "name": "getTicketInfo",
      "outputs": [],
      "stateMutability": "nonpayable",
      "type": "function"
    },
    {
      "inputs": [
        {
          "internalType": "uint256",
          "name": "ticket_no",
          "type": "uint256"
        }
      ],
      "name": "getTicketInfos",
      "outputs": [
        {
          "internalType": "address",
          "name": "",
          "type": "address"
        },
        {
          "internalType": "uint256",
          "name": "",
          "type": "uint256"
        },
        {
          "internalType": "uint256",
          "name": "",
          "type": "uint256"
        },
        {
          "internalType": "bytes32",
          "name": "",
          "type": "bytes32"
        },
        {
          "internalType": "uint8",
          "name": "",
          "type": "uint8"
        },
        {
          "internalType": "bool",
          "name": "",
          "type": "bool"
        },
        {
          "internalType": "enum FinalLottery.TicketTier",
          "name": "",
          "type": "uint8"
        }
      ],
      "stateMutability": "view",
      "type": "function"
    },
    {
      "inputs": [
        {
          "internalType": "uint256",
          "name": "lottery_no",
          "type": "uint256"
        },
        {
          "internalType": "uint256",
          "name": "ticket_no",
          "type": "uint256"
        }
      ],
      "name": "getTicketPrize",
      "outputs": [
        {
          "internalType": "uint256",
          "name": "",
          "type": "uint256"
        }
      ],
      "stateMutability": "view",
      "type": "function"
    },
    {
      "inputs": [
        {
          "internalType": "uint256",
          "name": "lottery_no",
          "type": "uint256"
        }
      ],
      "name": "getTotalPrizeMoney",
      "outputs": [
        {
          "internalType": "uint256",
          "name": "amount",
          "type": "uint256"
        }
      ],
      "stateMutability": "view",
      "type": "function"
    },
    {
      "inputs": [
        {
          "internalType": "uint256",
          "name": "lottery_no",
          "type": "uint256"
        }
      ],
      "name": "getWinningTicket1",
      "outputs": [
        {
          "internalType": "uint256",
          "name": "",
          "type": "uint256"
        }
      ],
      "stateMutability": "view",
      "type": "function"
    },
    {
      "inputs": [
        {
          "internalType": "uint256",
          "name": "lottery_no",
          "type": "uint256"
        }
      ],
      "name": "getWinningTicket2",
      "outputs": [
        {
          "internalType": "uint256",
          "name": "",
          "type": "uint256"
        }
      ],
      "stateMutability": "view",
      "type": "function"
    },
    {
      "inputs": [
        {
          "internalType": "uint256",
          "name": "lottery_no",
          "type": "uint256"
        }
      ],
      "name": "getWinningTicket3",
      "outputs": [
        {
          "internalType": "uint256",
          "name": "",
          "type": "uint256"
        }
      ],
      "stateMutability": "view",
      "type": "function"
    },
    {
      "inputs": [
        {
          "internalType": "enum FinalLottery.TicketTier",
          "name": "tier",
          "type": "uint8"
        }
      ],
      "name": "getamount",
      "outputs": [
        {
          "internalType": "uint256",
          "name": "",
          "type": "uint256"
        }
      ],
      "stateMutability": "pure",
      "type": "function"
    },
    {
      "inputs": [
        {
          "internalType": "uint256",
          "name": "num",
          "type": "uint256"
        }
      ],
      "name": "hashOfANum",
      "outputs": [
        {
          "internalType": "bytes32",
          "name": "",
          "type": "bytes32"
        }
      ],
      "stateMutability": "view",
      "type": "function"
    },
    {
      "inputs": [
        {
          "internalType": "uint256",
          "name": "",
          "type": "uint256"
        }
      ],
      "name": "lotteryInfos",
      "outputs": [
        {
          "internalType": "uint256",
          "name": "lotteryNo",
          "type": "uint256"
        },
        {
          "internalType": "uint256",
          "name": "startTimestamp",
          "type": "uint256"
        }
      ],
      "stateMutability": "view",
      "type": "function"
    },
    {
      "inputs": [],
      "name": "lotteryNoCalculator",
      "outputs": [
        {
          "internalType": "uint256",
          "name": "",
          "type": "uint256"
        }
      ],
      "stateMutability": "view",
      "type": "function"
    },
    {
      "inputs": [
        {
          "internalType": "uint256",
          "name": "",
          "type": "uint256"
        }
      ],
      "name": "moneyCollectedForEachLottery",
      "outputs": [
        {
          "internalType": "uint256",
          "name": "",
          "type": "uint256"
        }
      ],
      "stateMutability": "view",
      "type": "function"
    },
    {
      "inputs": [
        {
          "internalType": "uint256",
          "name": "ticket_no",
          "type": "uint256"
        },
        {
          "internalType": "uint256",
          "name": "random_number",
          "type": "uint256"
        }
      ],
      "name": "revealRndNumber",
      "outputs": [],
      "stateMutability": "nonpayable",
      "type": "function"
    },
    {
      "inputs": [
        {
          "internalType": "uint256",
          "name": "lottery_no",
          "type": "uint256"
        }
      ],
      "name": "ticketCount",
      "outputs": [
        {
          "internalType": "uint256",
          "name": "",
          "type": "uint256"
        }
      ],
      "stateMutability": "view",
      "type": "function"
    },
    {
      "inputs": [
        {
          "internalType": "address",
          "name": "",
          "type": "address"
        },
        {
          "internalType": "uint256",
          "name": "",
          "type": "uint256"
        }
      ],
      "name": "ticketNosArray",
      "outputs": [
        {
          "internalType": "uint256",
          "name": "",
          "type": "uint256"
        }
      ],
      "stateMutability": "view",
      "type": "function"
    },
    {
      "inputs": [
        {
          "internalType": "uint256",
          "name": "lottery_no",
          "type": "uint256"
        }
      ],
      "name": "ticketNosInLotteryGetter",
      "outputs": [
        {
          "internalType": "uint256[]",
          "name": "",
          "type": "uint256[]"
        }
      ],
      "stateMutability": "view",
      "type": "function"
    },
    {
      "inputs": [
        {
          "internalType": "uint256",
          "name": "",
          "type": "uint256"
        }
      ],
      "name": "totalPrizeMoney",
      "outputs": [
        {
          "internalType": "uint256",
          "name": "",
          "type": "uint256"
        }
      ],
      "stateMutability": "view",
      "type": "function"
    },
    {
      "inputs": [
        {
          "internalType": "uint256",
          "name": "lottery_no",
          "type": "uint256"
        },
        {
          "internalType": "uint256",
          "name": "prize",
          "type": "uint256"
        }
      ],
      "name": "transferAmount",
      "outputs": [],
      "stateMutability": "nonpayable",
      "type": "function"
    },
    {
      "inputs": [
        {
          "internalType": "uint256",
          "name": "amount",
          "type": "uint256"
        }
      ],
      "name": "withdrawEther",
      "outputs": [],
      "stateMutability": "payable",
      "type": "function"
    }
  ],
  "bytecode": "0x60806040524260015534801561001457600080fd5b5042600181905550614b238061002b6000396000f3fe6080604052600436106102045760003560e01c80637b16fd6011610118578063ca928efb116100a0578063e3d670d71161006f578063e3d670d714610873578063e4b79b16146108b0578063e54778b5146108ed578063f6789ca01461092b578063ff99a0631461095457610204565b8063ca928efb146107a4578063cb4581d8146107cd578063ce91aa6a1461080a578063e2d2bf341461083557610204565b80639eb76341116100e75780639eb76341146106875780639f45d5af146106b0578063a06cc71a146106ed578063a6588af81461072a578063c41a360a1461076757610204565b80637b16fd60146105c057806390556911146105fd57806398ea5fca146106405780639c7278ca1461064a57610204565b80632b8bdc001161019b5780633bed33ce1161016a5780633bed33ce146104c057806348367d1e146104dc57806357ac796e1461051a578063775f1aec146105455780637a1fb9371461058357610204565b80632b8bdc00146103df5780632e1fe4501461041d5780632e9aeb891461044657806339f7958b1461048357610204565b80630c63f832116101d75780630c63f832146102fd57806312065fe01461033a578063125a7fd6146103655780631572abbe146103a257610204565b806304b35c201461020957806307ac5c8a14610246578063093a63ba146102835780630c40aebd146102c0575b600080fd5b34801561021557600080fd5b50610230600480360381019061022b9190613606565b61097d565b60405161023d9190613642565b60405180910390f35b34801561025257600080fd5b5061026d60048036038101906102689190613606565b6109ec565b60405161027a9190613642565b60405180910390f35b34801561028f57600080fd5b506102aa60048036038101906102a59190613606565b610a5b565b6040516102b7919061371b565b60405180910390f35b3480156102cc57600080fd5b506102e760048036038101906102e2919061379b565b610ac9565b6040516102f49190613642565b60405180910390f35b34801561030957600080fd5b50610324600480360381019061031f9190613606565b610afa565b6040516103319190613642565b60405180910390f35b34801561034657600080fd5b5061034f610b1d565b60405161035c9190613642565b60405180910390f35b34801561037157600080fd5b5061038c60048036038101906103879190613606565b610b64565b6040516103999190613642565b60405180910390f35b3480156103ae57600080fd5b506103c960048036038101906103c491906137db565b610b7c565b6040516103d69190613642565b60405180910390f35b3480156103eb57600080fd5b5061040660048036038101906104019190613606565b610de3565b604051610414929190613837565b60405180910390f35b34801561042957600080fd5b50610444600480360381019061043f9190613606565b610feb565b005b34801561045257600080fd5b5061046d60048036038101906104689190613606565b61124b565b60405161047a9190613879565b60405180910390f35b34801561048f57600080fd5b506104aa60048036038101906104a591906138b9565b61127d565b6040516104b79190613642565b60405180910390f35b6104da60048036038101906104d59190613606565b61132f565b005b3480156104e857600080fd5b5061050360048036038101906104fe91906137db565b611451565b604051610511929190613837565b60405180910390f35b34801561052657600080fd5b5061052f6115c6565b60405161053c9190613642565b60405180910390f35b34801561055157600080fd5b5061056c60048036038101906105679190613606565b6115d0565b60405161057a9291906138e6565b60405180910390f35b34801561058f57600080fd5b506105aa60048036038101906105a59190613606565b61169d565b6040516105b79190613642565b60405180910390f35b3480156105cc57600080fd5b506105e760048036038101906105e29190613606565b6116ba565b6040516105f49190613642565b60405180910390f35b34801561060957600080fd5b50610624600480360381019061061f9190613606565b611729565b60405161063797969594939291906139b0565b60405180910390f35b610648611835565b005b34801561065657600080fd5b50610671600480360381019061066c91906137db565b61188d565b60405161067e9190613642565b60405180910390f35b34801561069357600080fd5b506106ae60048036038101906106a991906137db565b611c45565b005b3480156106bc57600080fd5b506106d760048036038101906106d29190613606565b611ed3565b6040516106e49190613642565b60405180910390f35b3480156106f957600080fd5b50610714600480360381019061070f91906137db565b611eeb565b6040516107219190613642565b60405180910390f35b34801561073657600080fd5b50610751600480360381019061074c9190613606565b6122dc565b60405161075e9190613642565b60405180910390f35b34801561077357600080fd5b5061078e60048036038101906107899190613606565b6122f9565b60405161079b9190613a1f565b60405180910390f35b3480156107b057600080fd5b506107cb60048036038101906107c691906137db565b612339565b005b3480156107d957600080fd5b506107f460048036038101906107ef91906137db565b612417565b6040516108019190613642565b60405180910390f35b34801561081657600080fd5b5061081f612a1e565b60405161082c9190613642565b60405180910390f35b34801561084157600080fd5b5061085c60048036038101906108579190613606565b612a5e565b60405161086a9291906138e6565b60405180910390f35b34801561087f57600080fd5b5061089a60048036038101906108959190613a3a565b612a82565b6040516108a79190613642565b60405180910390f35b3480156108bc57600080fd5b506108d760048036038101906108d29190613606565b612a9a565b6040516108e49190613642565b60405180910390f35b3480156108f957600080fd5b50610914600480360381019061090f91906137db565b612b4a565b6040516109229291906138e6565b60405180910390f35b34801561093757600080fd5b50610952600480360381019061094d9190613ac9565b612d2c565b005b34801561096057600080fd5b5061097b60048036038101906109769190613606565b61326d565b005b600060056000838152602001908152602001600020600301600560008481526020019081526020016000206002016000815481106109be576109bd613b09565b5b9060005260206000200154815481106109da576109d9613b09565b5b90600052602060002001549050919050565b60006005600083815260200190815260200160002060030160056000848152602001908152602001600020600201600081548110610a2d57610a2c613b09565b5b906000526020600020015481548110610a4957610a48613b09565b5b90600052602060002001549050919050565b606060056000838152602001908152602001600020600301805480602002602001604051908101604052809291908181526020018280548015610abd57602002820191906000526020600020905b815481526020019060010190808311610aa9575b50505050509050919050565b60036020528160005260406000208181548110610ae557600080fd5b90600052602060002001600091509150505481565b600060056000838152602001908152602001600020600301805490509050919050565b6000600460003373ffffffffffffffffffffffffffffffffffffffff1673ffffffffffffffffffffffffffffffffffffffff16815260200190815260200160002054905090565b60066020528060005260406000206000915090505481565b60008054821115610bc2576040517f08c379a0000000000000000000000000000000000000000000000000000000008152600401610bb990613bbb565b60405180910390fd5b60016008600084815260200190815260200160002060040160009054906101000a900460ff1660ff1614610c2b576040517f08c379a0000000000000000000000000000000000000000000000000000000008152600401610c2290613c27565b60405180910390fd5b3373ffffffffffffffffffffffffffffffffffffffff166008600084815260200190815260200160002060000160009054906101000a900473ffffffffffffffffffffffffffffffffffffffff1673ffffffffffffffffffffffffffffffffffffffff1614610ccf576040517f08c379a0000000000000000000000000000000000000000000000000000000008152600401610cc690613c93565b60405180910390fd5b6003600560008581526020019081526020016000206002018054905014610d2b576040517f08c379a0000000000000000000000000000000000000000000000000000000008152600401610d2290613d25565b60405180910390fd5b600080600090505b6003811015610dd8578360056000878152602001908152602001600020600301600560008881526020019081526020016000206002018381548110610d7b57610d7a613b09565b5b906000526020600020015481548110610d9757610d96613b09565b5b906000526020600020015403610dc5576207a120600182610db89190613d74565b610dc29190613da8565b91505b8080610dd090613dea565b915050610d33565b508091505092915050565b6000806000600360003373ffffffffffffffffffffffffffffffffffffffff1673ffffffffffffffffffffffffffffffffffffffff1681526020019081526020016000208054905011610e6b576040517f08c379a0000000000000000000000000000000000000000000000000000000008152600401610e6290613e7e565b60405180910390fd5b600080600090505b600360003373ffffffffffffffffffffffffffffffffffffffff1673ffffffffffffffffffffffffffffffffffffffff16815260200190815260200160002080549050811015610fe3578460086000600360003373ffffffffffffffffffffffffffffffffffffffff1673ffffffffffffffffffffffffffffffffffffffff1681526020019081526020016000208481548110610f1357610f12613b09565b5b90600052602060002001548152602001908152602001600020600201541115610fd057600360003373ffffffffffffffffffffffffffffffffffffffff1673ffffffffffffffffffffffffffffffffffffffff168152602001908152602001600020600182610f829190613e9e565b81548110610f9357610f92613b09565b5b90600052602060002001549150816008600084815260200190815260200160002060040160009054906101000a900460ff16935093505050610fe6565b8080610fdb90613dea565b915050610e73565b50505b915091565b600054811115611030576040517f08c379a000000000000000000000000000000000000000000000000000000000815260040161102790613f44565b60405180910390fd5b3373ffffffffffffffffffffffffffffffffffffffff166008600083815260200190815260200160002060000160009054906101000a900473ffffffffffffffffffffffffffffffffffffffff1673ffffffffffffffffffffffffffffffffffffffff16146110d4576040517f08c379a00000000000000000000000000000000000000000000000000000000081526004016110cb90613fd6565b60405180910390fd5b6110dc612a1e565b600860008381526020019081526020016000206002015414611133576040517f08c379a000000000000000000000000000000000000000000000000000000000815260040161112a90614042565b60405180910390fd5b60008061113f836115d0565b809250819350505060006008600085815260200190815260200160002060040160029054906101000a900460ff169050600061117a8261127d565b905080600460003373ffffffffffffffffffffffffffffffffffffffff1673ffffffffffffffffffffffffffffffffffffffff16815260200190815260200160002060008282546111cb9190613d74565b92505081905550806006600086815260200190815260200160002060008282546111f59190613e9e565b92505081905550806002600082825461120e9190613e9e565b9250508190555060006008600087815260200190815260200160002060040160016101000a81548160ff0219169083151502179055505050505050565b600033826040516020016112609291906140cb565b604051602081830303815290604052805190602001209050919050565b6000806000600381111561129457611293613939565b5b8360038111156112a7576112a6613939565b5b036112b55760509050611326565b600160038111156112c9576112c8613939565b5b8360038111156112dc576112db613939565b5b036112ea5760289050611325565b600060038111156112fe576112fd613939565b5b83600381111561131157611310613939565b5b0361131f5760149050611324565b600090505b5b5b80915050919050565b80600460003373ffffffffffffffffffffffffffffffffffffffff1673ffffffffffffffffffffffffffffffffffffffff1681526020019081526020016000205410156113b1576040517f08c379a00000000000000000000000000000000000000000000000000000000081526004016113a890614143565b60405180910390fd5b80600460003373ffffffffffffffffffffffffffffffffffffffff1673ffffffffffffffffffffffffffffffffffffffff16815260200190815260200160002060008282546114009190613e9e565b925050819055503373ffffffffffffffffffffffffffffffffffffffff166108fc829081150290604051600060405180830381858888f1935050505015801561144d573d6000803e3d6000fd5b5050565b60008061145c612a1e565b83111561149e576040517f08c379a0000000000000000000000000000000000000000000000000000000008152600401611495906141af565b60405180910390fd5b83600360003373ffffffffffffffffffffffffffffffffffffffff1673ffffffffffffffffffffffffffffffffffffffff168152602001908152602001600020805490501015611523576040517f08c379a000000000000000000000000000000000000000000000000000000000815260040161151a9061421b565b60405180910390fd5b6000600360003373ffffffffffffffffffffffffffffffffffffffff1673ffffffffffffffffffffffffffffffffffffffff1681526020019081526020016000206001866115719190613e9e565b8154811061158257611581613b09565b5b9060005260206000200154905060006008600083815260200190815260200160002060040160009054906101000a900460ff16905081819350935050509250929050565b6000600254905090565b60008060006115dd612a1e565b905060005b6001826115ef9190613d74565b8110156116955760005b600360003373ffffffffffffffffffffffffffffffffffffffff1673ffffffffffffffffffffffffffffffffffffffff16815260200190815260200160002080549050811015611681578560086000888152602001908152602001600020600101540361166e57818194509450505050611698565b808061167990613dea565b9150506115f9565b50808061168d90613dea565b9150506115e2565b50505b915091565b600060076000838152602001908152602001600020549050919050565b600060056000838152602001908152602001600020600301600560008481526020019081526020016000206002016000815481106116fb576116fa613b09565b5b90600052602060002001548154811061171757611716613b09565b5b90600052602060002001549050919050565b60008060008060008060006008600089815260200190815260200160002060000160009054906101000a900473ffffffffffffffffffffffffffffffffffffffff16600860008a815260200190815260200160002060010154600860008b815260200190815260200160002060020154600860008c815260200190815260200160002060030154600860008d815260200190815260200160002060040160009054906101000a900460ff16600860008e815260200190815260200160002060040160019054906101000a900460ff16600860008f815260200190815260200160002060040160029054906101000a900460ff169650965096509650965096509650919395979092949650565b34600460003373ffffffffffffffffffffffffffffffffffffffff1673ffffffffffffffffffffffffffffffffffffffff16815260200190815260200160002060008282546118849190613d74565b92505081905550565b6000611897612a1e565b8311156118d9576040517f08c379a00000000000000000000000000000000000000000000000000000000081526004016118d0906142ad565b60405180910390fd5b60005482111561191e576040517f08c379a000000000000000000000000000000000000000000000000000000000815260040161191590613bbb565b60405180910390fd5b60016008600084815260200190815260200160002060040160009054906101000a900460ff1660ff1614611987576040517f08c379a000000000000000000000000000000000000000000000000000000000815260040161197e90613c27565b60405180910390fd5b3373ffffffffffffffffffffffffffffffffffffffff166008600084815260200190815260200160002060000160009054906101000a900473ffffffffffffffffffffffffffffffffffffffff1673ffffffffffffffffffffffffffffffffffffffff1614611a2b576040517f08c379a0000000000000000000000000000000000000000000000000000000008152600401611a2290613c93565b60405180910390fd5b6003600560008581526020019081526020016000206002018054905014611a87576040517f08c379a0000000000000000000000000000000000000000000000000000000008152600401611a7e90613d25565b60405180910390fd5b6003600560008581526020019081526020016000206002018054905014611aef57611ab18361336e565b611aba83613576565b6007600085815260200190815260200160002081905550611aee836007600086815260200190815260200160002054612339565b5b600080600090505b6003811015611b86578360056000878152602001908152602001600020600301600560008881526020019081526020016000206002018381548110611b3f57611b3e613b09565b5b906000526020600020015481548110611b5b57611b5a613b09565b5b906000526020600020015403611b7357809150611b86565b8080611b7e90613dea565b915050611af7565b506000611b9f600183611b999190613d74565b86612417565b90508060026000828254611bb39190613e9e565b9250508190555080600660008781526020019081526020016000206000828254611bdd9190613e9e565b9250508190555080600460003373ffffffffffffffffffffffffffffffffffffffff1673ffffffffffffffffffffffffffffffffffffffff1681526020019081526020016000206000828254611c339190613d74565b92505081905550809250505092915050565b600054821115611c8a576040517f08c379a0000000000000000000000000000000000000000000000000000000008152600401611c8190613f44565b60405180910390fd5b3373ffffffffffffffffffffffffffffffffffffffff166008600084815260200190815260200160002060000160009054906101000a900473ffffffffffffffffffffffffffffffffffffffff1673ffffffffffffffffffffffffffffffffffffffff1614611d2e576040517f08c379a0000000000000000000000000000000000000000000000000000000008152600401611d2590613fd6565b60405180910390fd5b6001611d38612a1e565b611d429190613e9e565b600860008481526020019081526020016000206002015414611d99576040517f08c379a0000000000000000000000000000000000000000000000000000000008152600401611d9090614319565b60405180910390fd5b60006008600084815260200190815260200160002060040160009054906101000a900460ff1660ff1614611e02576040517f08c379a0000000000000000000000000000000000000000000000000000000008152600401611df990614385565b60405180910390fd5b60003382604051602001611e179291906140cb565b604051602081830303815290604052805190602001209050600080611e3b856115d0565b9150915060086000868152602001908152602001600020600301548303611e915760016008600087815260200190815260200160002060040160006101000a81548160ff021916908360ff160217905550611ecc565b6040517f08c379a0000000000000000000000000000000000000000000000000000000008152600401611ec3906143f1565b60405180910390fd5b5050505050565b60076020528060005260406000206000915090505481565b6000611ef5612a1e565b831115611f37576040517f08c379a0000000000000000000000000000000000000000000000000000000008152600401611f2e906142ad565b60405180910390fd5b6003600560008581526020019081526020016000206002018054905014611f9f57611f618361336e565b611f6a83613576565b6007600085815260200190815260200160002081905550611f9e836007600086815260200190815260200160002054612339565b5b600054821115611fe4576040517f08c379a0000000000000000000000000000000000000000000000000000000008152600401611fdb90613bbb565b60405180910390fd5b3373ffffffffffffffffffffffffffffffffffffffff166008600084815260200190815260200160002060000160009054906101000a900473ffffffffffffffffffffffffffffffffffffffff1673ffffffffffffffffffffffffffffffffffffffff1614612088576040517f08c379a000000000000000000000000000000000000000000000000000000000815260040161207f90613c93565b60405180910390fd5b60016008600084815260200190815260200160002060040160009054906101000a900460ff1660ff16146120f1576040517f08c379a00000000000000000000000000000000000000000000000000000000081526004016120e890614483565b60405180910390fd5b60008060606000600560008881526020019081526020016000206003016005600089815260200190815260200160002060020160008154811061213757612136613b09565b5b90600052602060002001548154811061215357612152613b09565b5b90600052602060002001549050600060056000898152602001908152602001600020600301600560008a81526020019081526020016000206002016001815481106121a1576121a0613b09565b5b9060005260206000200154815481106121bd576121bc613b09565b5b906000526020600020015490506000600560008a8152602001908152602001600020600301600560008b815260200190815260200160002060020160028154811061220b5761220a613b09565b5b90600052602060002001548154811061222757612226613b09565b5b906000526020600020015490508288036122515761224660018a612417565b955060019450612296565b81880361226e5761226360028a612417565b955060019450612295565b80880361228b5761228060038a612417565b955060019450612294565b60009450600095505b5b5b7fd73f7c981987819875eab304d6558aecc1d944c068aa8fc4383b7378af31a1a2856040516122c591906144a3565b60405180910390a185965050505050505092915050565b600060066000838152602001908152602001600020549050919050565b60006008600083815260200190815260200160002060000160009054906101000a900473ffffffffffffffffffffffffffffffffffffffff169050919050565b8060076000848152602001908152602001600020600082825461235c9190613d74565b9250508190555080600660008481526020019081526020016000205410156123b9576040517f08c379a00000000000000000000000000000000000000000000000000000000081526004016123b090614556565b60405180910390fd5b60008160066000858152602001908152602001600020546123da9190613e9e565b905080600660006001866123ee9190613d74565b8152602001908152602001600020600082825461240b9190613d74565b92505081905550505050565b600060018314806124285750600283145b806124335750600383145b612472576040517f08c379a0000000000000000000000000000000000000000000000000000000008152600401612469906145c2565b60405180910390fd5b61247a612a1e565b8211156124bc576040517f08c379a00000000000000000000000000000000000000000000000000000000081526004016124b39061462e565b60405180910390fd5b6003600560008481526020019081526020016000206002018054905014612518576040517f08c379a000000000000000000000000000000000000000000000000000000000815260040161250f906146c0565b60405180910390fd5b60008060056000858152602001908152602001600020600301600560008681526020019081526020016000206002016001876125549190613e9e565b8154811061256557612564613b09565b5b90600052602060002001548154811061258157612580613b09565b5b90600052602060002001549050600185036126fb57600060038111156125aa576125a9613939565b5b6008600083815260200190815260200160002060040160029054906101000a900460ff1660038111156125e0576125df613939565b5b0361260c5760026006600086815260200190815260200160002054612605919061470f565b91506126f6565b600160038111156126205761261f613939565b5b6008600083815260200190815260200160002060040160029054906101000a900460ff16600381111561265657612655613939565b5b03612682576004600660008681526020019081526020016000205461267b919061470f565b91506126f5565b6002600381111561269657612695613939565b5b6008600083815260200190815260200160002060040160029054906101000a900460ff1660038111156126cc576126cb613939565b5b036126f457600860066000868152602001908152602001600020546126f1919061470f565b91505b5b5b6129dc565b60028503612868576000600381111561271757612716613939565b5b6008600083815260200190815260200160002060040160029054906101000a900460ff16600381111561274d5761274c613939565b5b036127795760046006600086815260200190815260200160002054612772919061470f565b9150612863565b6001600381111561278d5761278c613939565b5b6008600083815260200190815260200160002060040160029054906101000a900460ff1660038111156127c3576127c2613939565b5b036127ef57600860066000868152602001908152602001600020546127e8919061470f565b9150612862565b6002600381111561280357612802613939565b5b6008600083815260200190815260200160002060040160029054906101000a900460ff16600381111561283957612838613939565b5b03612861576010600660008681526020019081526020016000205461285e919061470f565b91505b5b5b6129db565b600385036129d5576000600381111561288457612883613939565b5b6008600083815260200190815260200160002060040160029054906101000a900460ff1660038111156128ba576128b9613939565b5b036128e657600860066000868152602001908152602001600020546128df919061470f565b91506129d0565b600160038111156128fa576128f9613939565b5b6008600083815260200190815260200160002060040160029054906101000a900460ff1660038111156129305761292f613939565b5b0361295c5760106006600086815260200190815260200160002054612955919061470f565b91506129cf565b600260038111156129705761296f613939565b5b6008600083815260200190815260200160002060040160029054906101000a900460ff1660038111156129a6576129a5613939565b5b036129ce57602060066000868152602001908152602001600020546129cb919061470f565b91505b5b5b6129da565b600091505b5b5b7f974e74184da6a16ed3a4b3389a7052258330f5f98e2eca5b302fde0f5a98babd82604051612a0b9190613642565b60405180910390a1819250505092915050565b600080429050600060015482612a349190613e9e565b90506000600162093a8083612a49919061470f565b612a539190613d74565b905080935050505090565b60056020528060005260406000206000915090508060000154908060010154905082565b60046020528060005260406000206000915090505481565b600080612aa5612a1e565b9050600080600190505b82811015612b3f5760005b6005600083815260200190815260200160002060030180549050811015612b2b57600560008381526020019081526020016000206003018181548110612b0357612b02613b09565b5b90600052602060002001548603612b18578192505b8080612b2390613dea565b915050612aba565b508080612b3790613dea565b915050612aaf565b508092505050919050565b600080612b55612a1e565b831115612b97576040517f08c379a0000000000000000000000000000000000000000000000000000000008152600401612b8e906142ad565b60405180910390fd5b6003600560008581526020019081526020016000206002018054905014612bff57612bc18361336e565b612bca83613576565b6007600085815260200190815260200160002081905550612bfe836007600086815260200190815260200160002054612339565b5b6001841480612c0e5750600284145b80612c195750600384145b612c58576040517f08c379a0000000000000000000000000000000000000000000000000000000008152600401612c4f906147b2565b60405180910390fd5b600060056000858152602001908152602001600020600201600186612c7d9190613e9e565b81548110612c8e57612c8d613b09565b5b90600052602060002001549050600560008581526020019081526020016000206003018181548110612cc357612cc2613b09565b5b90600052602060002001549250612cd9836115d0565b905080915050612ce98585612417565b91507f9ccbea8acda54bc998251706a6d0054e0a880c3f38e70c8eaf6bd9b383c99dad8383604051612d1c9291906138e6565b60405180910390a1509250929050565b6001600080828254612d3e9190613d74565b925050819055506000612d4f612a1e565b9050600060038303612de6576014600460003373ffffffffffffffffffffffffffffffffffffffff1673ffffffffffffffffffffffffffffffffffffffff1681526020019081526020016000205411612ddd576040517f08c379a0000000000000000000000000000000000000000000000000000000008152600401612dd490614844565b60405180910390fd5b60029050612f0a565b60028303612e79576028600460003373ffffffffffffffffffffffffffffffffffffffff1673ffffffffffffffffffffffffffffffffffffffff1681526020019081526020016000205411612e70576040517f08c379a0000000000000000000000000000000000000000000000000000000008152600401612e67906148d6565b60405180910390fd5b60019050612f09565b60018303612f08576050600460003373ffffffffffffffffffffffffffffffffffffffff1673ffffffffffffffffffffffffffffffffffffffff1681526020019081526020016000205411612f03576040517f08c379a0000000000000000000000000000000000000000000000000000000008152600401612efa90614968565b60405180910390fd5b600090505b5b5b60038210612fc357600360056000600285612f259190613e9e565b81526020019081526020016000206002018054905014612fc257612f54600283612f4f9190613e9e565b61336e565b612f69600283612f649190613e9e565b613576565b60076000600285612f7a9190613e9e565b815260200190815260200160002081905550612fc1600283612f9c9190613e9e565b60076000600286612fad9190613e9e565b815260200190815260200160002054612339565b5b5b33600860008054815260200190815260200160002060000160006101000a81548173ffffffffffffffffffffffffffffffffffffffff021916908373ffffffffffffffffffffffffffffffffffffffff16021790555060005460086000805481526020019081526020016000206001018190555081600860008054815260200190815260200160002060020181905550836008600080548152602001908152602001600020600301819055506000600860008054815260200190815260200160002060040160006101000a81548160ff021916908360ff1602179055506001600860008054815260200190815260200160002060040160016101000a81548160ff02191690831515021790555080600860008054815260200190815260200160002060040160026101000a81548160ff0219169083600381111561310a57613109613939565b5b0217905550600360003373ffffffffffffffffffffffffffffffffffffffff1673ffffffffffffffffffffffffffffffffffffffff16815260200190815260200160002060005490806001815401808255809150506001900390600052602060002001600090919091909150556131808161127d565b600460003373ffffffffffffffffffffffffffffffffffffffff1673ffffffffffffffffffffffffffffffffffffffff16815260200190815260200160002060008282546131ce9190613e9e565b925050819055506131de8161127d565b600260008282546131ef9190613d74565b9250508190555060056000838152602001908152602001600020600301600054908060018154018082558091505060019003906000526020600020016000909190919091505561323e8161127d565b6006600084815260200190815260200160002060008282546132609190613d74565b9250508190555050505050565b600080613279836115d0565b915091507f67861b1d1c8fd76d9078e5517f1fed406d719c58d7c157a90c254637ed34c9d26008600085815260200190815260200160002060010154600860008681526020019081526020016000206002015460086000878152602001908152602001600020600301546008600088815260200190815260200160002060040160009054906101000a900460ff166008600089815260200190815260200160002060040160019054906101000a900460ff16600860008a815260200190815260200160002060040160029054906101000a900460ff1660405161336196959493929190614988565b60405180910390a1505050565b6003600560008381526020019081526020016000206003018054905010156133cb576040517f08c379a00000000000000000000000000000000000000000000000000000000081526004016133c290614a81565b60405180910390fd5b6000600160056000848152602001908152602001600020600301805490506133f39190613e9e565b9050600081426040516020016134099190614aa1565b6040516020818303038152906040528051906020012060001c61342c9190614abc565b905060008260014261343e9190613d74565b60405160200161344e9190614aa1565b6040516020818303038152906040528051906020012060001c6134719190614abc565b90506000836002426134839190613d74565b6040516020016134939190614aa1565b6040516020818303038152906040528051906020012060001c6134b69190614abc565b90506005600086815260200190815260200160002060020183908060018154018082558091505060019003906000526020600020016000909190919091505560056000868152602001908152602001600020600201829080600181540180825580915050600190039060005260206000200160009091909190915055600560008681526020019081526020016000206002018190806001815401808255809150506001900390600052602060002001600090919091909150555050505050565b600080613584600184612417565b90506000613593600285612417565b905060006135a2600386612417565b905060008183856135b39190613d74565b6135bd9190613d74565b905080945050505050919050565b600080fd5b6000819050919050565b6135e3816135d0565b81146135ee57600080fd5b50565b600081359050613600816135da565b92915050565b60006020828403121561361c5761361b6135cb565b5b600061362a848285016135f1565b91505092915050565b61363c816135d0565b82525050565b60006020820190506136576000830184613633565b92915050565b600081519050919050565b600082825260208201905092915050565b6000819050602082019050919050565b613692816135d0565b82525050565b60006136a48383613689565b60208301905092915050565b6000602082019050919050565b60006136c88261365d565b6136d28185613668565b93506136dd83613679565b8060005b8381101561370e5781516136f58882613698565b9750613700836136b0565b9250506001810190506136e1565b5085935050505092915050565b6000602082019050818103600083015261373581846136bd565b905092915050565b600073ffffffffffffffffffffffffffffffffffffffff82169050919050565b60006137688261373d565b9050919050565b6137788161375d565b811461378357600080fd5b50565b6000813590506137958161376f565b92915050565b600080604083850312156137b2576137b16135cb565b5b60006137c085828601613786565b92505060206137d1858286016135f1565b9150509250929050565b600080604083850312156137f2576137f16135cb565b5b6000613800858286016135f1565b9250506020613811858286016135f1565b9150509250929050565b600060ff82169050919050565b6138318161381b565b82525050565b600060408201905061384c6000830185613633565b6138596020830184613828565b9392505050565b6000819050919050565b61387381613860565b82525050565b600060208201905061388e600083018461386a565b92915050565b600481106138a157600080fd5b50565b6000813590506138b381613894565b92915050565b6000602082840312156138cf576138ce6135cb565b5b60006138dd848285016138a4565b91505092915050565b60006040820190506138fb6000830185613633565b6139086020830184613633565b9392505050565b6139188161375d565b82525050565b60008115159050919050565b6139338161391e565b82525050565b7f4e487b7100000000000000000000000000000000000000000000000000000000600052602160045260246000fd5b6004811061397957613978613939565b5b50565b600081905061398a82613968565b919050565b600061399a8261397c565b9050919050565b6139aa8161398f565b82525050565b600060e0820190506139c5600083018a61390f565b6139d26020830189613633565b6139df6040830188613633565b6139ec606083018761386a565b6139f96080830186613828565b613a0660a083018561392a565b613a1360c08301846139a1565b98975050505050505050565b6000602082019050613a34600083018461390f565b92915050565b600060208284031215613a5057613a4f6135cb565b5b6000613a5e84828501613786565b91505092915050565b613a7081613860565b8114613a7b57600080fd5b50565b600081359050613a8d81613a67565b92915050565b6000819050919050565b613aa681613a93565b8114613ab157600080fd5b50565b600081359050613ac381613a9d565b92915050565b60008060408385031215613ae057613adf6135cb565b5b6000613aee85828601613a7e565b9250506020613aff85828601613ab4565b9150509250929050565b7f4e487b7100000000000000000000000000000000000000000000000000000000600052603260045260246000fd5b600082825260208201905092915050565b7f546865207469636b657420796f75206172652072657175657374696e6720646f60008201527f6573206e6f742065786973740000000000000000000000000000000000000000602082015250565b6000613ba5602c83613b38565b9150613bb082613b49565b604082019050919050565b60006020820190508181036000830152613bd481613b98565b9050919050565b7f6e6f742072657665616c65640000000000000000000000000000000000000000600082015250565b6000613c11600c83613b38565b9150613c1c82613bdb565b602082019050919050565b60006020820190508181036000830152613c4081613c04565b9050919050565b7f596f7520617265206e6f7420746865206f776e65722100000000000000000000600082015250565b6000613c7d601683613b38565b9150613c8882613c47565b602082019050919050565b60006020820190508181036000830152613cac81613c70565b9050919050565b7f57696e6e657273207469636b65742068617665206e6f74206265656e2073656c60008201527f6563746564207965740000000000000000000000000000000000000000000000602082015250565b6000613d0f602983613b38565b9150613d1a82613cb3565b604082019050919050565b60006020820190508181036000830152613d3e81613d02565b9050919050565b7f4e487b7100000000000000000000000000000000000000000000000000000000600052601160045260246000fd5b6000613d7f826135d0565b9150613d8a836135d0565b9250828201905080821115613da257613da1613d45565b5b92915050565b6000613db3826135d0565b9150613dbe836135d0565b9250828202613dcc816135d0565b91508282048414831517613de357613de2613d45565b5b5092915050565b6000613df5826135d0565b91507fffffffffffffffffffffffffffffffffffffffffffffffffffffffffffffffff8203613e2757613e26613d45565b5b600182019050919050565b7f596f7520646f6e6074206861766520616e79207469636b657473000000000000600082015250565b6000613e68601a83613b38565b9150613e7382613e32565b602082019050919050565b60006020820190508181036000830152613e9781613e5b565b9050919050565b6000613ea9826135d0565b9150613eb4836135d0565b9250828203905081811115613ecc57613ecb613d45565b5b92915050565b7f5468657265206973206e6f207469636b657420776974682074686973206e756d60008201527f62657220696e207468652073797374656d000000000000000000000000000000602082015250565b6000613f2e603183613b38565b9150613f3982613ed2565b604082019050919050565b60006020820190508181036000830152613f5d81613f21565b9050919050565b7f596f7520617265206e6f7420746865206f776e6572206f66207468697320746960008201527f636b657400000000000000000000000000000000000000000000000000000000602082015250565b6000613fc0602483613b38565b9150613fcb82613f64565b604082019050919050565b60006020820190508181036000830152613fef81613fb3565b9050919050565b7f596f752063616e6e6f7420726566756e6420616e796d6f726500000000000000600082015250565b600061402c601983613b38565b915061403782613ff6565b602082019050919050565b6000602082019050818103600083015261405b8161401f565b9050919050565b60008160601b9050919050565b600061407a82614062565b9050919050565b600061408c8261406f565b9050919050565b6140a461409f8261375d565b614081565b82525050565b6000819050919050565b6140c56140c0826135d0565b6140aa565b82525050565b60006140d78285614093565b6014820191506140e782846140b4565b6020820191508190509392505050565b7f696e73756666696369656e742062616c616e6365000000000000000000000000600082015250565b600061412d601483613b38565b9150614138826140f7565b602082019050919050565b6000602082019050818103600083015261415c81614120565b9050919050565b7f4c6f747465727920686173206e6f742073746172746564207965740000000000600082015250565b6000614199601b83613b38565b91506141a482614163565b602082019050919050565b600060208201905081810360008301526141c88161418c565b9050919050565b7f596f7520646f6e607420686176652074686174206d616e79207469636b657473600082015250565b6000614205602083613b38565b9150614210826141cf565b602082019050919050565b60006020820190508181036000830152614234816141f8565b9050919050565b7f4c6f747465727920796f75206172652072657175657374696e6720686173206e60008201527f6f74207374617274656420796574210000000000000000000000000000000000602082015250565b6000614297602f83613b38565b91506142a28261423b565b604082019050919050565b600060208201905081810360008301526142c68161428a565b9050919050565b7f696e636f72726563742074696d6520746f2072657665616c0000000000000000600082015250565b6000614303601883613b38565b915061430e826142cd565b602082019050919050565b60006020820190508181036000830152614332816142f6565b9050919050565b7f536f7272792c20796f75206861766520616c72656164792072657665616c6564600082015250565b600061436f602083613b38565b915061437a82614339565b602082019050919050565b6000602082019050818103600083015261439e81614362565b9050919050565b7f496e636f7272656374206e756d62657221000000000000000000000000000000600082015250565b60006143db601183613b38565b91506143e6826143a5565b602082019050919050565b6000602082019050818103600083015261440a816143ce565b9050919050565b7f596f752068617665206e6f742072657665616c6564207468652072616e646f6d60008201527f206e756d62657220796574210000000000000000000000000000000000000000602082015250565b600061446d602c83613b38565b915061447882614411565b604082019050919050565b6000602082019050818103600083015261449c81614460565b9050919050565b60006020820190506144b8600083018461392a565b92915050565b7f4c6f747465727920697320696e76616c69642c2062656361757365207468657260008201527f65206973206e6f7420656e6f756768206d6f6e657920696e20746865204c6f7460208201527f7465727920666f7220746865207072697a657300000000000000000000000000604082015250565b6000614540605383613b38565b915061454b826144be565b606082019050919050565b6000602082019050818103600083015261456f81614533565b9050919050565b7f496e76616c696420707269636520747970652100000000000000000000000000600082015250565b60006145ac601383613b38565b91506145b782614576565b602082019050919050565b600060208201905081810360008301526145db8161459f565b9050919050565b7f496e76616c6964206c6f7474657279206e756d62657221000000000000000000600082015250565b6000614618601783613b38565b9150614623826145e2565b602082019050919050565b600060208201905081810360008301526146478161460b565b9050919050565b7f5468657265206973206e6f2077696e6e696e67207469636b65742073656c656360008201527f7465642079657421000000000000000000000000000000000000000000000000602082015250565b60006146aa602883613b38565b91506146b58261464e565b604082019050919050565b600060208201905081810360008301526146d98161469d565b9050919050565b7f4e487b7100000000000000000000000000000000000000000000000000000000600052601260045260246000fd5b600061471a826135d0565b9150614725836135d0565b925082614735576147346146e0565b5b828204905092915050565b7f496e76616c6964206e756d626572206f662077696e6e696e67207469636b657460008201527f2100000000000000000000000000000000000000000000000000000000000000602082015250565b600061479c602183613b38565b91506147a782614740565b604082019050919050565b600060208201905081810360008301526147cb8161478f565b9050919050565b7f696e73756666696369656e742062616c616e636520666f72207175617274657260008201527f207469636b657400000000000000000000000000000000000000000000000000602082015250565b600061482e602783613b38565b9150614839826147d2565b604082019050919050565b6000602082019050818103600083015261485d81614821565b9050919050565b7f696e73756666696369656e742062616c616e636520666f722068616c6620746960008201527f636b657400000000000000000000000000000000000000000000000000000000602082015250565b60006148c0602483613b38565b91506148cb82614864565b604082019050919050565b600060208201905081810360008301526148ef816148b3565b9050919050565b7f696e73756666696369656e742062616c616e636520666f722066756c6c20746960008201527f636b657400000000000000000000000000000000000000000000000000000000602082015250565b6000614952602483613b38565b915061495d826148f6565b604082019050919050565b6000602082019050818103600083015261498181614945565b9050919050565b600060c08201905061499d6000830189613633565b6149aa6020830188613633565b6149b7604083018761386a565b6149c46060830186613828565b6149d1608083018561392a565b6149de60a08301846139a1565b979650505050505050565b7f5468657265206973206e6f7420656e6f756768207469636b657420666f72207060008201527f69636b696e672077696e6e6572732c206c6f74746572792069732063616e636560208201527f6c6c656421000000000000000000000000000000000000000000000000000000604082015250565b6000614a6b604583613b38565b9150614a76826149e9565b606082019050919050565b60006020820190508181036000830152614a9a81614a5e565b9050919050565b6000614aad82846140b4565b60208201915081905092915050565b6000614ac7826135d0565b9150614ad2836135d0565b925082614ae257614ae16146e0565b5b82820690509291505056fea26469706673582212204027ec54f898a2c06f7a9b6ea9820f4f036213962d34659145691df8e18844ab64736f6c63430008120033",
  "linkReferences": {},
  "deployedLinkReferences": {}
}