{
  "_format": "hh-sol-artifact-1",
  "contractName": "FinalLottery",
  "sourceName": "contracts/FinalLottery.sol",
  "abi": [
    {
      "inputs": [],
      "stateMutability": "nonpayable",
      "type": "constructor"
    },
    {
      "anonymous": false,
      "inputs": [
        {
          "indexed": false,
          "internalType": "string",
          "name": "prizeName",
          "type": "string"
        },
        {
          "indexed": false,
          "internalType": "uint256",
          "name": "prize",
          "type": "uint256"
        }
      ],
      "name": "AmountOfPrize",
      "type": "event"
    },
    {
      "anonymous": false,
      "inputs": [
        {
          "indexed": false,
          "internalType": "uint256",
          "name": "totalPrice",
          "type": "uint256"
        }
      ],
      "name": "SinglePriceVal",
      "type": "event"
    },
    {
      "anonymous": false,
      "inputs": [
        {
          "indexed": false,
          "internalType": "uint256",
          "name": "ticketNo",
          "type": "uint256"
        },
        {
          "indexed": false,
          "internalType": "uint256",
          "name": "lotteryNo",
          "type": "uint256"
        },
        {
          "indexed": false,
          "internalType": "bytes32",
          "name": "ticketHash",
          "type": "bytes32"
        },
        {
          "indexed": false,
          "internalType": "uint8",
          "name": "status",
          "type": "uint8"
        },
        {
          "indexed": false,
          "internalType": "bool",
          "name": "active",
          "type": "bool"
        },
        {
          "indexed": false,
          "internalType": "enum FinalLottery.TicketTier",
          "name": "ticketTier",
          "type": "uint8"
        }
      ],
      "name": "TicketInfo",
      "type": "event"
    },
    {
      "anonymous": false,
      "inputs": [
        {
          "indexed": false,
          "internalType": "bool",
          "name": "isWin",
          "type": "bool"
        }
      ],
      "name": "Winner",
      "type": "event"
    },
    {
      "anonymous": false,
      "inputs": [
        {
          "indexed": false,
          "internalType": "uint256",
          "name": "ticketNo",
          "type": "uint256"
        },
        {
          "indexed": false,
          "internalType": "uint256",
          "name": "amount",
          "type": "uint256"
        }
      ],
      "name": "WinningTicket",
      "type": "event"
    },
    {
      "inputs": [
        {
          "internalType": "address",
          "name": "",
          "type": "address"
        }
      ],
      "name": "balance",
      "outputs": [
        {
          "internalType": "uint256",
          "name": "",
          "type": "uint256"
        }
      ],
      "stateMutability": "view",
      "type": "function"
    },
    {
      "inputs": [
        {
          "internalType": "bytes32",
          "name": "hash_rnd_number",
          "type": "bytes32"
        },
        {
          "internalType": "int256",
          "name": "tier",
          "type": "int256"
        }
      ],
      "name": "buyTicket",
      "outputs": [],
      "stateMutability": "nonpayable",
      "type": "function"
    },
    {
      "inputs": [
        {
          "internalType": "uint256",
          "name": "lottery_no",
          "type": "uint256"
        },
        {
          "internalType": "uint256",
          "name": "ticket_no",
          "type": "uint256"
        }
      ],
      "name": "checkIfTicketWon",
      "outputs": [
        {
          "internalType": "uint256",
          "name": "",
          "type": "uint256"
        }
      ],
      "stateMutability": "nonpayable",
      "type": "function"
    },
    {
      "inputs": [
        {
          "internalType": "uint256",
          "name": "lottery_no",
          "type": "uint256"
        },
        {
          "internalType": "uint256",
          "name": "ticket_no",
          "type": "uint256"
        }
      ],
      "name": "collectTicketPrize",
      "outputs": [
        {
          "internalType": "uint256",
          "name": "",
          "type": "uint256"
        }
      ],
      "stateMutability": "nonpayable",
      "type": "function"
    },
    {
      "inputs": [
        {
          "internalType": "uint256",
          "name": "ticket_no",
          "type": "uint256"
        }
      ],
      "name": "collectTicketRefund",
      "outputs": [],
      "stateMutability": "nonpayable",
      "type": "function"
    },
    {
      "inputs": [],
      "name": "depositEther",
      "outputs": [],
      "stateMutability": "payable",
      "type": "function"
    },
    {
      "inputs": [
        {
          "internalType": "uint256",
          "name": "ticket_no",
          "type": "uint256"
        }
      ],
      "name": "findLotteryNoFromTicketNo",
      "outputs": [
        {
          "internalType": "uint256",
          "name": "",
          "type": "uint256"
        }
      ],
      "stateMutability": "nonpayable",
      "type": "function"
    },
    {
      "inputs": [
        {
          "internalType": "uint256",
          "name": "ticket_no",
          "type": "uint256"
        }
      ],
      "name": "findTicketInfosFromNo",
      "outputs": [
        {
          "internalType": "uint256",
          "name": "",
          "type": "uint256"
        },
        {
          "internalType": "uint256",
          "name": "",
          "type": "uint256"
        }
      ],
      "stateMutability": "view",
      "type": "function"
    },
    {
      "inputs": [],
      "name": "getBalance",
      "outputs": [
        {
          "internalType": "uint256",
          "name": "",
          "type": "uint256"
        }
      ],
      "stateMutability": "view",
      "type": "function"
    },
    {
      "inputs": [
        {
          "internalType": "uint256",
          "name": "i",
          "type": "uint256"
        },
        {
          "internalType": "uint256",
          "name": "lottery_no",
          "type": "uint256"
        }
      ],
      "name": "getIthOwnedTicketNo",
      "outputs": [
        {
          "internalType": "uint256",
          "name": "",
          "type": "uint256"
        },
        {
          "internalType": "uint8",
          "name": "",
          "type": "uint8"
        }
      ],
      "stateMutability": "view",
      "type": "function"
    },
    {
      "inputs": [
        {
          "internalType": "uint256",
          "name": "i",
          "type": "uint256"
        },
        {
          "internalType": "uint256",
          "name": "lottery_no",
          "type": "uint256"
        }
      ],
      "name": "getIthWinningTicket",
      "outputs": [
        {
          "internalType": "uint256",
          "name": "ticket_no",
          "type": "uint256"
        },
        {
          "internalType": "uint256",
          "name": "amount",
          "type": "uint256"
        }
      ],
      "stateMutability": "nonpayable",
      "type": "function"
    },
    {
      "inputs": [
        {
          "internalType": "uint256",
          "name": "lottery_no",
          "type": "uint256"
        }
      ],
      "name": "getLastOwnedTicketNo",
      "outputs": [
        {
          "internalType": "uint256",
          "name": "",
          "type": "uint256"
        },
        {
          "internalType": "uint8",
          "name": "",
          "type": "uint8"
        }
      ],
      "stateMutability": "view",
      "type": "function"
    },
    {
      "inputs": [
        {
          "internalType": "enum FinalLottery.TicketTier",
          "name": "tier",
          "type": "uint8"
        }
      ],
      "name": "getamount",
      "outputs": [
        {
          "internalType": "uint256",
          "name": "",
          "type": "uint256"
        }
      ],
      "stateMutability": "pure",
      "type": "function"
    },
    {
      "inputs": [
        {
          "internalType": "uint256",
          "name": "num",
          "type": "uint256"
        }
      ],
      "name": "hashOfANum",
      "outputs": [
        {
          "internalType": "bytes32",
          "name": "",
          "type": "bytes32"
        }
      ],
      "stateMutability": "view",
      "type": "function"
    },
    {
      "inputs": [
        {
          "internalType": "uint256",
          "name": "",
          "type": "uint256"
        }
      ],
      "name": "lotteryInfos",
      "outputs": [
        {
          "internalType": "uint256",
          "name": "lotteryNo",
          "type": "uint256"
        },
        {
          "internalType": "uint256",
          "name": "startTimestamp",
          "type": "uint256"
        }
      ],
      "stateMutability": "view",
      "type": "function"
    },
    {
      "inputs": [],
      "name": "lotteryNoCalculator",
      "outputs": [
        {
          "internalType": "uint256",
          "name": "",
          "type": "uint256"
        }
      ],
      "stateMutability": "view",
      "type": "function"
    },
    {
      "inputs": [
        {
          "internalType": "uint256",
          "name": "",
          "type": "uint256"
        }
      ],
      "name": "moneyCollectedForEachLottery",
      "outputs": [
        {
          "internalType": "uint256",
          "name": "",
          "type": "uint256"
        }
      ],
      "stateMutability": "view",
      "type": "function"
    },
    {
      "inputs": [
        {
          "internalType": "uint256",
          "name": "ticket_no",
          "type": "uint256"
        },
        {
          "internalType": "uint256",
          "name": "random_number",
          "type": "uint256"
        }
      ],
      "name": "revealRndNumber",
      "outputs": [],
      "stateMutability": "nonpayable",
      "type": "function"
    },
    {
      "inputs": [
        {
          "internalType": "address",
          "name": "",
          "type": "address"
        },
        {
          "internalType": "uint256",
          "name": "",
          "type": "uint256"
        }
      ],
      "name": "ticketNosArray",
      "outputs": [
        {
          "internalType": "uint256",
          "name": "",
          "type": "uint256"
        }
      ],
      "stateMutability": "view",
      "type": "function"
    },
    {
      "inputs": [
        {
          "internalType": "uint256",
          "name": "",
          "type": "uint256"
        }
      ],
      "name": "totalPrizeMoney",
      "outputs": [
        {
          "internalType": "uint256",
          "name": "",
          "type": "uint256"
        }
      ],
      "stateMutability": "view",
      "type": "function"
    },
    {
      "inputs": [
        {
          "internalType": "uint256",
          "name": "amount",
          "type": "uint256"
        }
      ],
      "name": "withdrawEther",
      "outputs": [],
      "stateMutability": "payable",
      "type": "function"
    }
  ],
  "bytecode": "0x60806040524260015534801561001457600080fd5b5042600181905550613d9a8061002b6000396000f3fe60806040526004361061012a5760003560e01c806398ea5fca116100ab578063ce91aa6a1161006f578063ce91aa6a14610437578063e2d2bf3414610462578063e3d670d7146104a0578063e4b79b16146104dd578063e54778b51461051a578063f6789ca0146105585761012a565b806398ea5fca1461034d5780639c7278ca146103575780639eb76341146103945780639f45d5af146103bd578063a06cc71a146103fa5761012a565b80632e9aeb89116100f25780632e9aeb891461023b57806339f7958b146102785780633bed33ce146102b557806348367d1e146102d1578063775f1aec1461030f5761012a565b80630c40aebd1461012f57806312065fe01461016c578063125a7fd6146101975780632b8bdc00146101d45780632e1fe45014610212575b600080fd5b34801561013b57600080fd5b5061015660048036038101906101519190612c63565b610581565b6040516101639190612cb2565b60405180910390f35b34801561017857600080fd5b506101816105b2565b60405161018e9190612cb2565b60405180910390f35b3480156101a357600080fd5b506101be60048036038101906101b99190612ccd565b6105f9565b6040516101cb9190612cb2565b60405180910390f35b3480156101e057600080fd5b506101fb60048036038101906101f69190612ccd565b610611565b604051610209929190612d16565b60405180910390f35b34801561021e57600080fd5b5061023960048036038101906102349190612ccd565b610819565b005b34801561024757600080fd5b50610262600480360381019061025d9190612ccd565b610a7f565b60405161026f9190612d58565b60405180910390f35b34801561028457600080fd5b5061029f600480360381019061029a9190612d98565b610ab1565b6040516102ac9190612cb2565b60405180910390f35b6102cf60048036038101906102ca9190612ccd565b610b63565b005b3480156102dd57600080fd5b506102f860048036038101906102f39190612dc5565b610c85565b604051610306929190612d16565b60405180910390f35b34801561031b57600080fd5b5061033660048036038101906103319190612ccd565b610f61565b604051610344929190612e05565b60405180910390f35b61035561102e565b005b34801561036357600080fd5b5061037e60048036038101906103799190612dc5565b611086565b60405161038b9190612cb2565b60405180910390f35b3480156103a057600080fd5b506103bb60048036038101906103b69190612dc5565b6113de565b005b3480156103c957600080fd5b506103e460048036038101906103df9190612ccd565b61165a565b6040516103f19190612cb2565b60405180910390f35b34801561040657600080fd5b50610421600480360381019061041c9190612dc5565b611672565b60405161042e9190612cb2565b60405180910390f35b34801561044357600080fd5b5061044c611a63565b6040516104599190612cb2565b60405180910390f35b34801561046e57600080fd5b5061048960048036038101906104849190612ccd565b611aa3565b604051610497929190612e05565b60405180910390f35b3480156104ac57600080fd5b506104c760048036038101906104c29190612e2e565b611ac7565b6040516104d49190612cb2565b60405180910390f35b3480156104e957600080fd5b5061050460048036038101906104ff9190612ccd565b611adf565b6040516105119190612cb2565b60405180910390f35b34801561052657600080fd5b50610541600480360381019061053c9190612dc5565b611b8f565b60405161054f929190612e05565b60405180910390f35b34801561056457600080fd5b5061057f600480360381019061057a9190612ebd565b611d71565b005b6003602052816000526040600020818154811061059d57600080fd5b90600052602060002001600091509150505481565b6000600460003373ffffffffffffffffffffffffffffffffffffffff1673ffffffffffffffffffffffffffffffffffffffff16815260200190815260200160002054905090565b60066020528060005260406000206000915090505481565b6000806000600360003373ffffffffffffffffffffffffffffffffffffffff1673ffffffffffffffffffffffffffffffffffffffff1681526020019081526020016000208054905011610699576040517f08c379a000000000000000000000000000000000000000000000000000000000815260040161069090612f5a565b60405180910390fd5b600080600090505b600360003373ffffffffffffffffffffffffffffffffffffffff1673ffffffffffffffffffffffffffffffffffffffff16815260200190815260200160002080549050811015610811578460086000600360003373ffffffffffffffffffffffffffffffffffffffff1673ffffffffffffffffffffffffffffffffffffffff168152602001908152602001600020848154811061074157610740612f7a565b5b906000526020600020015481526020019081526020016000206002015411156107fe57600360003373ffffffffffffffffffffffffffffffffffffffff1673ffffffffffffffffffffffffffffffffffffffff1681526020019081526020016000206001826107b09190612fd8565b815481106107c1576107c0612f7a565b5b90600052602060002001549150816008600084815260200190815260200160002060040160009054906101000a900460ff16935093505050610814565b80806108099061300c565b9150506106a1565b50505b915091565b60005481111561085e576040517f08c379a0000000000000000000000000000000000000000000000000000000008152600401610855906130c6565b60405180910390fd5b3373ffffffffffffffffffffffffffffffffffffffff166008600083815260200190815260200160002060000160009054906101000a900473ffffffffffffffffffffffffffffffffffffffff1673ffffffffffffffffffffffffffffffffffffffff1614610902576040517f08c379a00000000000000000000000000000000000000000000000000000000081526004016108f990613158565b60405180910390fd5b61090a611a63565b600860008381526020019081526020016000206002015414610961576040517f08c379a0000000000000000000000000000000000000000000000000000000008152600401610958906131c4565b60405180910390fd5b60006008600083815260200190815260200160002060020154905060006008600084815260200190815260200160002060040160029054906101000a900460ff16905060006109af82610ab1565b905080600460003373ffffffffffffffffffffffffffffffffffffffff1673ffffffffffffffffffffffffffffffffffffffff1681526020019081526020016000206000828254610a0091906131e4565b9250508190555080600660008581526020019081526020016000206000828254610a2a9190612fd8565b925050819055508060026000828254610a439190612fd8565b9250508190555060006008600086815260200190815260200160002060040160016101000a81548160ff02191690831515021790555050505050565b60003382604051602001610a94929190613281565b604051602081830303815290604052805190602001209050919050565b60008060006003811115610ac857610ac76132ad565b5b836003811115610adb57610ada6132ad565b5b03610ae95760509050610b5a565b60016003811115610afd57610afc6132ad565b5b836003811115610b1057610b0f6132ad565b5b03610b1e5760289050610b59565b60006003811115610b3257610b316132ad565b5b836003811115610b4557610b446132ad565b5b03610b535760149050610b58565b600090505b5b5b80915050919050565b80600460003373ffffffffffffffffffffffffffffffffffffffff1673ffffffffffffffffffffffffffffffffffffffff168152602001908152602001600020541015610be5576040517f08c379a0000000000000000000000000000000000000000000000000000000008152600401610bdc90613328565b60405180910390fd5b80600460003373ffffffffffffffffffffffffffffffffffffffff1673ffffffffffffffffffffffffffffffffffffffff1681526020019081526020016000206000828254610c349190612fd8565b925050819055503373ffffffffffffffffffffffffffffffffffffffff166108fc829081150290604051600060405180830381858888f19350505050158015610c81573d6000803e3d6000fd5b5050565b600080610c90611a63565b831115610cd2576040517f08c379a0000000000000000000000000000000000000000000000000000000008152600401610cc990613394565b60405180910390fd5b83600360003373ffffffffffffffffffffffffffffffffffffffff1673ffffffffffffffffffffffffffffffffffffffff168152602001908152602001600020805490501015610d57576040517f08c379a0000000000000000000000000000000000000000000000000000000008152600401610d4e90613400565b60405180910390fd5b60005b600360003373ffffffffffffffffffffffffffffffffffffffff1673ffffffffffffffffffffffffffffffffffffffff16815260200190815260200160002080549050811015610f58578360086000600360003373ffffffffffffffffffffffffffffffffffffffff1673ffffffffffffffffffffffffffffffffffffffff1681526020019081526020016000208481548110610dfa57610df9612f7a565b5b906000526020600020015481526020019081526020016000206002015403610f455760086000600360003373ffffffffffffffffffffffffffffffffffffffff1673ffffffffffffffffffffffffffffffffffffffff16815260200190815260200160002060018885610e6d91906131e4565b610e779190612fd8565b81548110610e8857610e87612f7a565b5b906000526020600020015481526020019081526020016000206001015460086000600360003373ffffffffffffffffffffffffffffffffffffffff1673ffffffffffffffffffffffffffffffffffffffff16815260200190815260200160002060018986610ef691906131e4565b610f009190612fd8565b81548110610f1157610f10612f7a565b5b9060005260206000200154815260200190815260200160002060040160009054906101000a900460ff169250925050610f5a565b8080610f509061300c565b915050610d5a565b505b9250929050565b6000806000610f6e611a63565b905060005b600182610f8091906131e4565b8110156110265760005b600360003373ffffffffffffffffffffffffffffffffffffffff1673ffffffffffffffffffffffffffffffffffffffff168152602001908152602001600020805490508110156110125785600860008881526020019081526020016000206001015403610fff57818194509450505050611029565b808061100a9061300c565b915050610f8a565b50808061101e9061300c565b915050610f73565b50505b915091565b34600460003373ffffffffffffffffffffffffffffffffffffffff1673ffffffffffffffffffffffffffffffffffffffff168152602001908152602001600020600082825461107d91906131e4565b92505081905550565b6000611090611a63565b8311156110d2576040517f08c379a00000000000000000000000000000000000000000000000000000000081526004016110c990613492565b60405180910390fd5b600054821115611117576040517f08c379a000000000000000000000000000000000000000000000000000000000815260040161110e90613524565b60405180910390fd5b60016008600084815260200190815260200160002060040160009054906101000a900460ff1660ff1614611180576040517f08c379a000000000000000000000000000000000000000000000000000000000815260040161117790613590565b60405180910390fd5b3373ffffffffffffffffffffffffffffffffffffffff166008600084815260200190815260200160002060000160009054906101000a900473ffffffffffffffffffffffffffffffffffffffff1673ffffffffffffffffffffffffffffffffffffffff1614611224576040517f08c379a000000000000000000000000000000000000000000000000000000000815260040161121b906135fc565b60405180910390fd5b600360056000858152602001908152602001600020600201805490501461128c5761124e836122b2565b611257836124ec565b600760008581526020019081526020016000208190555061128b836007600086815260200190815260200160002054612541565b5b60008060005b60038110156113395784600560008881526020019081526020016000206003016005600089815260200190815260200160002060020183815481106112da576112d9612f7a565b5b9060005260206000200154815481106112f6576112f5612f7a565b5b9060005260206000200154036113265780915061131f60018361131991906131e4565b8761261f565b9250611339565b80806113319061300c565b915050611292565b50816002600082825461134c9190612fd8565b92505081905550816006600087815260200190815260200160002060008282546113769190612fd8565b9250508190555081600460003373ffffffffffffffffffffffffffffffffffffffff1673ffffffffffffffffffffffffffffffffffffffff16815260200190815260200160002060008282546113cc91906131e4565b92505081905550819250505092915050565b600054821115611423576040517f08c379a000000000000000000000000000000000000000000000000000000000815260040161141a906130c6565b60405180910390fd5b3373ffffffffffffffffffffffffffffffffffffffff166008600084815260200190815260200160002060000160009054906101000a900473ffffffffffffffffffffffffffffffffffffffff1673ffffffffffffffffffffffffffffffffffffffff16146114c7576040517f08c379a00000000000000000000000000000000000000000000000000000000081526004016114be90613158565b60405180910390fd5b60016114d1611a63565b6114db9190612fd8565b600860008481526020019081526020016000206002015414611532576040517f08c379a000000000000000000000000000000000000000000000000000000000815260040161152990613668565b60405180910390fd5b60006008600084815260200190815260200160002060040160009054906101000a900460ff1660ff161461159b576040517f08c379a0000000000000000000000000000000000000000000000000000000008152600401611592906136d4565b60405180910390fd5b600033826040516020016115b0929190613281565b6040516020818303038152906040528051906020012090506008600084815260200190815260200160002060030154810361161a5760016008600085815260200190815260200160002060040160006101000a81548160ff021916908360ff160217905550611655565b6040517f08c379a000000000000000000000000000000000000000000000000000000000815260040161164c90613740565b60405180910390fd5b505050565b60076020528060005260406000206000915090505481565b600061167c611a63565b8311156116be576040517f08c379a00000000000000000000000000000000000000000000000000000000081526004016116b590613492565b60405180910390fd5b6003600560008581526020019081526020016000206002018054905014611726576116e8836122b2565b6116f1836124ec565b6007600085815260200190815260200160002081905550611725836007600086815260200190815260200160002054612541565b5b60005482111561176b576040517f08c379a000000000000000000000000000000000000000000000000000000000815260040161176290613524565b60405180910390fd5b3373ffffffffffffffffffffffffffffffffffffffff166008600084815260200190815260200160002060000160009054906101000a900473ffffffffffffffffffffffffffffffffffffffff1673ffffffffffffffffffffffffffffffffffffffff161461180f576040517f08c379a0000000000000000000000000000000000000000000000000000000008152600401611806906135fc565b60405180910390fd5b60016008600084815260200190815260200160002060040160009054906101000a900460ff1660ff1614611878576040517f08c379a000000000000000000000000000000000000000000000000000000000815260040161186f906137d2565b60405180910390fd5b6000806060600060056000888152602001908152602001600020600301600560008981526020019081526020016000206002016000815481106118be576118bd612f7a565b5b9060005260206000200154815481106118da576118d9612f7a565b5b90600052602060002001549050600060056000898152602001908152602001600020600301600560008a815260200190815260200160002060020160018154811061192857611927612f7a565b5b90600052602060002001548154811061194457611943612f7a565b5b906000526020600020015490506000600560008a8152602001908152602001600020600301600560008b815260200190815260200160002060020160028154811061199257611991612f7a565b5b9060005260206000200154815481106119ae576119ad612f7a565b5b906000526020600020015490508288036119d8576119cd60018a61261f565b955060019450611a1d565b8188036119f5576119ea60028a61261f565b955060019450611a1c565b808803611a1257611a0760038a61261f565b955060019450611a1b565b60009450600095505b5b5b7fd73f7c981987819875eab304d6558aecc1d944c068aa8fc4383b7378af31a1a285604051611a4c919061380d565b60405180910390a185965050505050505092915050565b600080429050600060015482611a799190612fd8565b90506000600162093a8083611a8e9190613857565b611a9891906131e4565b905080935050505090565b60056020528060005260406000206000915090508060000154908060010154905082565b60046020528060005260406000206000915090505481565b600080611aea611a63565b9050600080600190505b82811015611b845760005b6005600083815260200190815260200160002060030180549050811015611b7057600560008381526020019081526020016000206003018181548110611b4857611b47612f7a565b5b90600052602060002001548603611b5d578192505b8080611b689061300c565b915050611aff565b508080611b7c9061300c565b915050611af4565b508092505050919050565b600080611b9a611a63565b831115611bdc576040517f08c379a0000000000000000000000000000000000000000000000000000000008152600401611bd390613492565b60405180910390fd5b6003600560008581526020019081526020016000206002018054905014611c4457611c06836122b2565b611c0f836124ec565b6007600085815260200190815260200160002081905550611c43836007600086815260200190815260200160002054612541565b5b6001841480611c535750600284145b80611c5e5750600384145b611c9d576040517f08c379a0000000000000000000000000000000000000000000000000000000008152600401611c94906138fa565b60405180910390fd5b600060056000858152602001908152602001600020600201600186611cc29190612fd8565b81548110611cd357611cd2612f7a565b5b90600052602060002001549050600560008581526020019081526020016000206003018181548110611d0857611d07612f7a565b5b90600052602060002001549250611d1e83610f61565b905080915050611d2e858561261f565b91507f9ccbea8acda54bc998251706a6d0054e0a880c3f38e70c8eaf6bd9b383c99dad8383604051611d61929190612e05565b60405180910390a1509250929050565b6001600080828254611d8391906131e4565b925050819055506000611d94611a63565b9050600060038303611e2b576014600460003373ffffffffffffffffffffffffffffffffffffffff1673ffffffffffffffffffffffffffffffffffffffff1681526020019081526020016000205411611e22576040517f08c379a0000000000000000000000000000000000000000000000000000000008152600401611e199061398c565b60405180910390fd5b60029050611f4f565b60028303611ebe576028600460003373ffffffffffffffffffffffffffffffffffffffff1673ffffffffffffffffffffffffffffffffffffffff1681526020019081526020016000205411611eb5576040517f08c379a0000000000000000000000000000000000000000000000000000000008152600401611eac90613a1e565b60405180910390fd5b60019050611f4e565b60018303611f4d576050600460003373ffffffffffffffffffffffffffffffffffffffff1673ffffffffffffffffffffffffffffffffffffffff1681526020019081526020016000205411611f48576040517f08c379a0000000000000000000000000000000000000000000000000000000008152600401611f3f90613ab0565b60405180910390fd5b600090505b5b5b6003821061200857600360056000600285611f6a9190612fd8565b8152602001908152602001600020600201805490501461200757611f99600283611f949190612fd8565b6122b2565b611fae600283611fa99190612fd8565b6124ec565b60076000600285611fbf9190612fd8565b815260200190815260200160002081905550612006600283611fe19190612fd8565b60076000600286611ff29190612fd8565b815260200190815260200160002054612541565b5b5b33600860008054815260200190815260200160002060000160006101000a81548173ffffffffffffffffffffffffffffffffffffffff021916908373ffffffffffffffffffffffffffffffffffffffff16021790555060005460086000805481526020019081526020016000206001018190555081600860008054815260200190815260200160002060020181905550836008600080548152602001908152602001600020600301819055506000600860008054815260200190815260200160002060040160006101000a81548160ff021916908360ff1602179055506001600860008054815260200190815260200160002060040160016101000a81548160ff02191690831515021790555080600860008054815260200190815260200160002060040160026101000a81548160ff0219169083600381111561214f5761214e6132ad565b5b0217905550600360003373ffffffffffffffffffffffffffffffffffffffff1673ffffffffffffffffffffffffffffffffffffffff16815260200190815260200160002060005490806001815401808255809150506001900390600052602060002001600090919091909150556121c581610ab1565b600460003373ffffffffffffffffffffffffffffffffffffffff1673ffffffffffffffffffffffffffffffffffffffff16815260200190815260200160002060008282546122139190612fd8565b9250508190555061222381610ab1565b6002600082825461223491906131e4565b9250508190555060056000838152602001908152602001600020600301600054908060018154018082558091505060019003906000526020600020016000909190919091505561228381610ab1565b6006600084815260200190815260200160002060008282546122a591906131e4565b9250508190555050505050565b60036005600083815260200190815260200160002060030180549050101561230f576040517f08c379a000000000000000000000000000000000000000000000000000000000815260040161230690613b68565b60405180910390fd5b6000600160056000848152602001908152602001600020600301805490506123379190612fd8565b90506000814260405160200161234d9190613b88565b6040516020818303038152906040528051906020012060001c6123709190613ba3565b905060008260014261238291906131e4565b6040516020016123929190613b88565b6040516020818303038152906040528051906020012060001c6123b59190613ba3565b90506000836002426123c791906131e4565b6040516020016123d79190613b88565b6040516020818303038152906040528051906020012060001c6123fa9190613ba3565b90506005600086815260200190815260200160002060020183908060018154018082558091505060019003906000526020600020016000909190919091505560056000868152602001908152602001600020600201829080600181540180825580915050600190039060005260206000200160009091909190915055600560008681526020019081526020016000206002018190806001815401808255809150506001900390600052602060002001600090919091909150556124bc856124ec565b6007600087815260200190815260200160002060008282546124de91906131e4565b925050819055505050505050565b6000806124fa60018461261f565b9050600061250960028561261f565b9050600061251860038661261f565b9050600081838561252991906131e4565b61253391906131e4565b905080945050505050919050565b8060066000848152602001908152602001600020541015612597576040517f08c379a000000000000000000000000000000000000000000000000000000000815260040161258e90613c6c565b60405180910390fd5b806007600084815260200190815260200160002060008282546125ba91906131e4565b9250508190555060008160066000858152602001908152602001600020546125e29190612fd8565b905080600660006001866125f691906131e4565b8152602001908152602001600020600082825461261391906131e4565b92505081905550505050565b600060018314806126305750600283145b8061263b5750600383145b61267a576040517f08c379a000000000000000000000000000000000000000000000000000000000815260040161267190613cd8565b60405180910390fd5b612682611a63565b8211156126c4576040517f08c379a00000000000000000000000000000000000000000000000000000000081526004016126bb90613d44565b60405180910390fd5b60008060056000858152602001908152602001600020600301600560008681526020019081526020016000206002016001876127009190612fd8565b8154811061271157612710612f7a565b5b90600052602060002001548154811061272d5761272c612f7a565b5b90600052602060002001549050600185036128a75760006003811115612756576127556132ad565b5b6008600083815260200190815260200160002060040160029054906101000a900460ff16600381111561278c5761278b6132ad565b5b036127b857600260066000868152602001908152602001600020546127b19190613857565b91506128a2565b600160038111156127cc576127cb6132ad565b5b6008600083815260200190815260200160002060040160029054906101000a900460ff166003811115612802576128016132ad565b5b0361282e57600460066000868152602001908152602001600020546128279190613857565b91506128a1565b60026003811115612842576128416132ad565b5b6008600083815260200190815260200160002060040160029054906101000a900460ff166003811115612878576128776132ad565b5b036128a0576008600660008681526020019081526020016000205461289d9190613857565b91505b5b5b612b88565b60028503612a1457600060038111156128c3576128c26132ad565b5b6008600083815260200190815260200160002060040160029054906101000a900460ff1660038111156128f9576128f86132ad565b5b03612925576004600660008681526020019081526020016000205461291e9190613857565b9150612a0f565b60016003811115612939576129386132ad565b5b6008600083815260200190815260200160002060040160029054906101000a900460ff16600381111561296f5761296e6132ad565b5b0361299b57600860066000868152602001908152602001600020546129949190613857565b9150612a0e565b600260038111156129af576129ae6132ad565b5b6008600083815260200190815260200160002060040160029054906101000a900460ff1660038111156129e5576129e46132ad565b5b03612a0d5760106006600086815260200190815260200160002054612a0a9190613857565b91505b5b5b612b87565b60038503612b815760006003811115612a3057612a2f6132ad565b5b6008600083815260200190815260200160002060040160029054906101000a900460ff166003811115612a6657612a656132ad565b5b03612a925760086006600086815260200190815260200160002054612a8b9190613857565b9150612b7c565b60016003811115612aa657612aa56132ad565b5b6008600083815260200190815260200160002060040160029054906101000a900460ff166003811115612adc57612adb6132ad565b5b03612b085760106006600086815260200190815260200160002054612b019190613857565b9150612b7b565b60026003811115612b1c57612b1b6132ad565b5b6008600083815260200190815260200160002060040160029054906101000a900460ff166003811115612b5257612b516132ad565b5b03612b7a5760206006600086815260200190815260200160002054612b779190613857565b91505b5b5b612b86565b600091505b5b5b7f974e74184da6a16ed3a4b3389a7052258330f5f98e2eca5b302fde0f5a98babd82604051612bb79190612cb2565b60405180910390a1819250505092915050565b600080fd5b600073ffffffffffffffffffffffffffffffffffffffff82169050919050565b6000612bfa82612bcf565b9050919050565b612c0a81612bef565b8114612c1557600080fd5b50565b600081359050612c2781612c01565b92915050565b6000819050919050565b612c4081612c2d565b8114612c4b57600080fd5b50565b600081359050612c5d81612c37565b92915050565b60008060408385031215612c7a57612c79612bca565b5b6000612c8885828601612c18565b9250506020612c9985828601612c4e565b9150509250929050565b612cac81612c2d565b82525050565b6000602082019050612cc76000830184612ca3565b92915050565b600060208284031215612ce357612ce2612bca565b5b6000612cf184828501612c4e565b91505092915050565b600060ff82169050919050565b612d1081612cfa565b82525050565b6000604082019050612d2b6000830185612ca3565b612d386020830184612d07565b9392505050565b6000819050919050565b612d5281612d3f565b82525050565b6000602082019050612d6d6000830184612d49565b92915050565b60048110612d8057600080fd5b50565b600081359050612d9281612d73565b92915050565b600060208284031215612dae57612dad612bca565b5b6000612dbc84828501612d83565b91505092915050565b60008060408385031215612ddc57612ddb612bca565b5b6000612dea85828601612c4e565b9250506020612dfb85828601612c4e565b9150509250929050565b6000604082019050612e1a6000830185612ca3565b612e276020830184612ca3565b9392505050565b600060208284031215612e4457612e43612bca565b5b6000612e5284828501612c18565b91505092915050565b612e6481612d3f565b8114612e6f57600080fd5b50565b600081359050612e8181612e5b565b92915050565b6000819050919050565b612e9a81612e87565b8114612ea557600080fd5b50565b600081359050612eb781612e91565b92915050565b60008060408385031215612ed457612ed3612bca565b5b6000612ee285828601612e72565b9250506020612ef385828601612ea8565b9150509250929050565b600082825260208201905092915050565b7f596f7520646f6e6074206861766520616e79207469636b657473000000000000600082015250565b6000612f44601a83612efd565b9150612f4f82612f0e565b602082019050919050565b60006020820190508181036000830152612f7381612f37565b9050919050565b7f4e487b7100000000000000000000000000000000000000000000000000000000600052603260045260246000fd5b7f4e487b7100000000000000000000000000000000000000000000000000000000600052601160045260246000fd5b6000612fe382612c2d565b9150612fee83612c2d565b925082820390508181111561300657613005612fa9565b5b92915050565b600061301782612c2d565b91507fffffffffffffffffffffffffffffffffffffffffffffffffffffffffffffffff820361304957613048612fa9565b5b600182019050919050565b7f5468657265206973206e6f207469636b657420776974682074686973206e756d60008201527f62657220696e207468652073797374656d000000000000000000000000000000602082015250565b60006130b0603183612efd565b91506130bb82613054565b604082019050919050565b600060208201905081810360008301526130df816130a3565b9050919050565b7f596f7520617265206e6f7420746865206f776e6572206f66207468697320746960008201527f636b657400000000000000000000000000000000000000000000000000000000602082015250565b6000613142602483612efd565b915061314d826130e6565b604082019050919050565b6000602082019050818103600083015261317181613135565b9050919050565b7f596f752063616e6e6f7420726566756e6420616e796d6f726500000000000000600082015250565b60006131ae601983612efd565b91506131b982613178565b602082019050919050565b600060208201905081810360008301526131dd816131a1565b9050919050565b60006131ef82612c2d565b91506131fa83612c2d565b925082820190508082111561321257613211612fa9565b5b92915050565b60008160601b9050919050565b600061323082613218565b9050919050565b600061324282613225565b9050919050565b61325a61325582612bef565b613237565b82525050565b6000819050919050565b61327b61327682612c2d565b613260565b82525050565b600061328d8285613249565b60148201915061329d828461326a565b6020820191508190509392505050565b7f4e487b7100000000000000000000000000000000000000000000000000000000600052602160045260246000fd5b7f696e73756666696369656e742062616c616e6365000000000000000000000000600082015250565b6000613312601483612efd565b915061331d826132dc565b602082019050919050565b6000602082019050818103600083015261334181613305565b9050919050565b7f4c6f747465727920686173206e6f742073746172746564207965740000000000600082015250565b600061337e601b83612efd565b915061338982613348565b602082019050919050565b600060208201905081810360008301526133ad81613371565b9050919050565b7f596f7520646f6e607420686176652074686174206d616e79207469636b657473600082015250565b60006133ea602083612efd565b91506133f5826133b4565b602082019050919050565b60006020820190508181036000830152613419816133dd565b9050919050565b7f4c6f747465727920796f75206172652072657175657374696e6720686173206e60008201527f6f74207374617274656420796574210000000000000000000000000000000000602082015250565b600061347c602f83612efd565b915061348782613420565b604082019050919050565b600060208201905081810360008301526134ab8161346f565b9050919050565b7f546865207469636b657420796f75206172652072657175657374696e6720646f60008201527f6573206e6f742065786973740000000000000000000000000000000000000000602082015250565b600061350e602c83612efd565b9150613519826134b2565b604082019050919050565b6000602082019050818103600083015261353d81613501565b9050919050565b7f5469636b6574206973206e6f742072657665616c656400000000000000000000600082015250565b600061357a601683612efd565b915061358582613544565b602082019050919050565b600060208201905081810360008301526135a98161356d565b9050919050565b7f596f7520617265206e6f7420746865206f776e65722100000000000000000000600082015250565b60006135e6601683612efd565b91506135f1826135b0565b602082019050919050565b60006020820190508181036000830152613615816135d9565b9050919050565b7f696e636f72726563742074696d6520746f2072657665616c0000000000000000600082015250565b6000613652601883612efd565b915061365d8261361c565b602082019050919050565b6000602082019050818103600083015261368181613645565b9050919050565b7f536f7272792c20796f75206861766520616c72656164792072657665616c6564600082015250565b60006136be602083612efd565b91506136c982613688565b602082019050919050565b600060208201905081810360008301526136ed816136b1565b9050919050565b7f496e636f7272656374206e756d62657221000000000000000000000000000000600082015250565b600061372a601183612efd565b9150613735826136f4565b602082019050919050565b600060208201905081810360008301526137598161371d565b9050919050565b7f596f752068617665206e6f742072657665616c6564207468652072616e646f6d60008201527f206e756d62657220796574210000000000000000000000000000000000000000602082015250565b60006137bc602c83612efd565b91506137c782613760565b604082019050919050565b600060208201905081810360008301526137eb816137af565b9050919050565b60008115159050919050565b613807816137f2565b82525050565b600060208201905061382260008301846137fe565b92915050565b7f4e487b7100000000000000000000000000000000000000000000000000000000600052601260045260246000fd5b600061386282612c2d565b915061386d83612c2d565b92508261387d5761387c613828565b5b828204905092915050565b7f496e76616c6964206e756d626572206f662077696e6e696e67207469636b657460008201527f2100000000000000000000000000000000000000000000000000000000000000602082015250565b60006138e4602183612efd565b91506138ef82613888565b604082019050919050565b60006020820190508181036000830152613913816138d7565b9050919050565b7f696e73756666696369656e742062616c616e636520666f72207175617274657260008201527f207469636b657400000000000000000000000000000000000000000000000000602082015250565b6000613976602783612efd565b91506139818261391a565b604082019050919050565b600060208201905081810360008301526139a581613969565b9050919050565b7f696e73756666696369656e742062616c616e636520666f722068616c6620746960008201527f636b657400000000000000000000000000000000000000000000000000000000602082015250565b6000613a08602483612efd565b9150613a13826139ac565b604082019050919050565b60006020820190508181036000830152613a37816139fb565b9050919050565b7f696e73756666696369656e742062616c616e636520666f722066756c6c20746960008201527f636b657400000000000000000000000000000000000000000000000000000000602082015250565b6000613a9a602483612efd565b9150613aa582613a3e565b604082019050919050565b60006020820190508181036000830152613ac981613a8d565b9050919050565b7f5468657265206973206e6f7420656e6f756768207469636b657420666f72207060008201527f69636b696e672077696e6e6572732c206c6f74746572792069732063616e636560208201527f6c6c656421000000000000000000000000000000000000000000000000000000604082015250565b6000613b52604583612efd565b9150613b5d82613ad0565b606082019050919050565b60006020820190508181036000830152613b8181613b45565b9050919050565b6000613b94828461326a565b60208201915081905092915050565b6000613bae82612c2d565b9150613bb983612c2d565b925082613bc957613bc8613828565b5b828206905092915050565b7f4c6f747465727920697320696e76616c69642c2062656361757365207468657260008201527f65206973206e6f7420656e6f756768206d6f6e657920696e20746865204c6f7460208201527f7465727920666f7220746865207072697a657300000000000000000000000000604082015250565b6000613c56605383612efd565b9150613c6182613bd4565b606082019050919050565b60006020820190508181036000830152613c8581613c49565b9050919050565b7f496e76616c696420707269636520747970652100000000000000000000000000600082015250565b6000613cc2601383612efd565b9150613ccd82613c8c565b602082019050919050565b60006020820190508181036000830152613cf181613cb5565b9050919050565b7f496e76616c6964206c6f7474657279206e756d62657221000000000000000000600082015250565b6000613d2e601783612efd565b9150613d3982613cf8565b602082019050919050565b60006020820190508181036000830152613d5d81613d21565b905091905056fea26469706673582212206962b703d9f31167d1530580b4e4e8428097e1f3b78c4e55a569a67fb242042a64736f6c63430008120033",
  "linkReferences": {},
  "deployedLinkReferences": {}
}