{
  "_format": "hh-sol-artifact-1",
  "contractName": "DALottery",
  "sourceName": "contracts/Lotteryv2.sol",
  "abi": [
    {
      "anonymous": false,
      "inputs": [
        {
          "indexed": false,
          "internalType": "bytes32",
          "name": "hash",
          "type": "bytes32"
        }
      ],
      "name": "RandomNumber",
      "type": "event"
    },
    {
      "anonymous": false,
      "inputs": [
        {
          "indexed": false,
          "internalType": "uint256",
          "name": "weekno1",
          "type": "uint256"
        },
        {
          "indexed": false,
          "internalType": "uint256",
          "name": "weekno2",
          "type": "uint256"
        }
      ],
      "name": "WeekNos",
      "type": "event"
    },
    {
      "inputs": [
        {
          "internalType": "address",
          "name": "",
          "type": "address"
        }
      ],
      "name": "balance",
      "outputs": [
        {
          "internalType": "uint256",
          "name": "",
          "type": "uint256"
        }
      ],
      "stateMutability": "view",
      "type": "function"
    },
    {
      "inputs": [
        {
          "internalType": "bytes32",
          "name": "hash_rnd_number",
          "type": "bytes32"
        }
      ],
      "name": "buyTicket",
      "outputs": [],
      "stateMutability": "nonpayable",
      "type": "function"
    },
    {
      "inputs": [],
      "name": "decideWinningNumbers",
      "outputs": [],
      "stateMutability": "nonpayable",
      "type": "function"
    },
    {
      "inputs": [
        {
          "internalType": "uint256",
          "name": "amount",
          "type": "uint256"
        }
      ],
      "name": "depositEther",
      "outputs": [],
      "stateMutability": "payable",
      "type": "function"
    },
    {
      "inputs": [],
      "name": "getBalance",
      "outputs": [
        {
          "internalType": "uint256",
          "name": "",
          "type": "uint256"
        }
      ],
      "stateMutability": "view",
      "type": "function"
    },
    {
      "inputs": [
        {
          "internalType": "uint256",
          "name": "i",
          "type": "uint256"
        },
        {
          "internalType": "uint256",
          "name": "lottery_no",
          "type": "uint256"
        }
      ],
      "name": "getIthOwnedTicketNo",
      "outputs": [
        {
          "internalType": "uint256",
          "name": "",
          "type": "uint256"
        },
        {
          "internalType": "uint8",
          "name": "",
          "type": "uint8"
        }
      ],
      "stateMutability": "view",
      "type": "function"
    },
    {
      "inputs": [
        {
          "internalType": "uint256",
          "name": "lottery_no",
          "type": "uint256"
        }
      ],
      "name": "getLastOwnedTicketNo",
      "outputs": [
        {
          "internalType": "uint256",
          "name": "",
          "type": "uint256"
        },
        {
          "internalType": "uint8",
          "name": "",
          "type": "uint8"
        }
      ],
      "stateMutability": "view",
      "type": "function"
    },
    {
      "inputs": [
        {
          "internalType": "uint256",
          "name": "lottery_no",
          "type": "uint256"
        }
      ],
      "name": "getLottery",
      "outputs": [
        {
          "components": [
            {
              "internalType": "uint256",
              "name": "lotteryNo",
              "type": "uint256"
            },
            {
              "internalType": "uint256",
              "name": "startTimestamp",
              "type": "uint256"
            },
            {
              "internalType": "uint256[]",
              "name": "winningTickets",
              "type": "uint256[]"
            },
            {
              "internalType": "uint256[]",
              "name": "ticketNosInLottery",
              "type": "uint256[]"
            },
            {
              "internalType": "uint256",
              "name": "lotteryBalance",
              "type": "uint256"
            }
          ],
          "internalType": "struct DALottery.LotteryInfo",
          "name": "",
          "type": "tuple"
        }
      ],
      "stateMutability": "view",
      "type": "function"
    },
    {
      "inputs": [
        {
          "internalType": "uint256",
          "name": "unixtimeinweek",
          "type": "uint256"
        }
      ],
      "name": "getLotteryNos",
      "outputs": [
        {
          "internalType": "uint256",
          "name": "",
          "type": "uint256"
        },
        {
          "internalType": "uint256",
          "name": "",
          "type": "uint256"
        }
      ],
      "stateMutability": "nonpayable",
      "type": "function"
    },
    {
      "inputs": [
        {
          "internalType": "uint256",
          "name": "lottery_no",
          "type": "uint256"
        }
      ],
      "name": "getTicket",
      "outputs": [
        {
          "internalType": "enum DALottery.TicketTier",
          "name": "",
          "type": "uint8"
        }
      ],
      "stateMutability": "view",
      "type": "function"
    },
    {
      "inputs": [],
      "name": "lotteryStarter",
      "outputs": [],
      "stateMutability": "nonpayable",
      "type": "function"
    },
    {
      "inputs": [
        {
          "internalType": "bytes32",
          "name": "hash_rand_number",
          "type": "bytes32"
        },
        {
          "internalType": "uint256",
          "name": "amount",
          "type": "uint256"
        }
      ],
      "name": "makeTicketPayment",
      "outputs": [],
      "stateMutability": "nonpayable",
      "type": "function"
    },
    {
      "inputs": [
        {
          "internalType": "uint256",
          "name": "ticket_no",
          "type": "uint256"
        },
        {
          "internalType": "uint256",
          "name": "random_number",
          "type": "uint256"
        }
      ],
      "name": "revealRndNumber",
      "outputs": [],
      "stateMutability": "nonpayable",
      "type": "function"
    },
    {
      "inputs": [
        {
          "internalType": "uint256",
          "name": "lottery_no",
          "type": "uint256"
        }
      ],
      "name": "setLotteryNo",
      "outputs": [],
      "stateMutability": "nonpayable",
      "type": "function"
    },
    {
      "inputs": [
        {
          "internalType": "uint256",
          "name": "amount",
          "type": "uint256"
        }
      ],
      "name": "withdrawEther",
      "outputs": [],
      "stateMutability": "payable",
      "type": "function"
    }
  ],
  "bytecode": "0x60806040526001805534801561001457600080fd5b50611cfb806100246000396000f3fe6080604052600436106100e85760003560e01c80634d43bd8b1161008a578063b36bef8211610059578063b36bef82146102ed578063ccf3ff7614610304578063e3d670d71461032d578063e54232741461036a576100e8565b80634d43bd8b146102215780637dc379fa1461024a57806392e845f6146102875780639eb76341146102c4576100e8565b80632b8bdc00116100c65780632b8bdc00146101725780633bed33ce146101b05780633f79beeb146101cc57806348367d1e146101e3576100e8565b80630f106132146100ed57806312065fe01461012b57806326839f1714610156575b600080fd5b3480156100f957600080fd5b50610114600480360381019061010f91906115e6565b610393565b604051610122929190611622565b60405180910390f35b34801561013757600080fd5b5061014061043a565b60405161014d919061164b565b60405180910390f35b610170600480360381019061016b91906115e6565b610481565b005b34801561017e57600080fd5b50610199600480360381019061019491906115e6565b610534565b6040516101a7929190611682565b60405180910390f35b6101ca60048036038101906101c591906115e6565b61069a565b005b3480156101d857600080fd5b506101e16107bc565b005b3480156101ef57600080fd5b5061020a600480360381019061020591906116ab565b6107fa565b604051610218929190611682565b60405180910390f35b34801561022d57600080fd5b50610248600480360381019061024391906115e6565b6108fd565b005b34801561025657600080fd5b50610271600480360381019061026c91906115e6565b610907565b60405161027e9190611762565b60405180910390f35b34801561029357600080fd5b506102ae60048036038101906102a991906115e6565b610992565b6040516102bb91906118b8565b60405180910390f35b3480156102d057600080fd5b506102eb60048036038101906102e691906116ab565b610a8d565b005b3480156102f957600080fd5b50610302610d94565b005b34801561031057600080fd5b5061032b60048036038101906103269190611910565b610d96565b005b34801561033957600080fd5b50610354600480360381019061034f91906119ae565b611307565b604051610361919061164b565b60405180910390f35b34801561037657600080fd5b50610391600480360381019061038c91906119db565b61131f565b005b6000806000600460006001815260200190815260200160002060010154846103bb9190611a37565b90506000600162093a80836103d09190611a9a565b6103da9190611acb565b90507ff2119b9ac2edb0442fe2d2543d9b57a3aafe7de6c8527ef221348584af7545598160018361040b9190611acb565b604051610419929190611622565b60405180910390a18060018261042f9190611acb565b935093505050915091565b6000600360003373ffffffffffffffffffffffffffffffffffffffff1673ffffffffffffffffffffffffffffffffffffffff16815260200190815260200160002054905090565b80600360003373ffffffffffffffffffffffffffffffffffffffff1673ffffffffffffffffffffffffffffffffffffffff16815260200190815260200160002060008282546104d09190611acb565b925050819055506104e0346114ba565b6104e9816114ba565b610531600360003373ffffffffffffffffffffffffffffffffffffffff1673ffffffffffffffffffffffffffffffffffffffff168152602001908152602001600020546114ba565b50565b60008060006001600260003373ffffffffffffffffffffffffffffffffffffffff1673ffffffffffffffffffffffffffffffffffffffff1681526020019081526020016000206000868152602001908152602001600020805490506105999190611a37565b9050600260003373ffffffffffffffffffffffffffffffffffffffff1673ffffffffffffffffffffffffffffffffffffffff168152602001908152602001600020600085815260200190815260200160002081815481106105fd576105fc611aff565b5b906000526020600020906005020160000154600260003373ffffffffffffffffffffffffffffffffffffffff1673ffffffffffffffffffffffffffffffffffffffff1681526020019081526020016000206000868152602001908152602001600020828154811061067157610670611aff565b5b906000526020600020906005020160040160009054906101000a900460ff169250925050915091565b80600360003373ffffffffffffffffffffffffffffffffffffffff1673ffffffffffffffffffffffffffffffffffffffff16815260200190815260200160002054101561071c576040517f08c379a000000000000000000000000000000000000000000000000000000000815260040161071390611b8b565b60405180910390fd5b80600360003373ffffffffffffffffffffffffffffffffffffffff1673ffffffffffffffffffffffffffffffffffffffff168152602001908152602001600020600082825461076b9190611a37565b925050819055503373ffffffffffffffffffffffffffffffffffffffff166108fc829081150290604051600060405180830381858888f193505050501580156107b8573d6000803e3d6000fd5b5050565b600154600460006001548152602001908152602001600020600001819055504260046000600154815260200190815260200160002060010181905550565b600080600260003373ffffffffffffffffffffffffffffffffffffffff1673ffffffffffffffffffffffffffffffffffffffff1681526020019081526020016000206000848152602001908152602001600020848154811061085f5761085e611aff565b5b906000526020600020906005020160000154600260003373ffffffffffffffffffffffffffffffffffffffff1673ffffffffffffffffffffffffffffffffffffffff168152602001908152602001600020600085815260200190815260200160002085815481106108d3576108d2611aff565b5b906000526020600020906005020160040160009054906101000a900460ff16915091509250929050565b8060018190555050565b6000600260003373ffffffffffffffffffffffffffffffffffffffff1673ffffffffffffffffffffffffffffffffffffffff168152602001908152602001600020600083815260200190815260200160002060008154811061096c5761096b611aff565b5b906000526020600020906005020160040160019054906101000a900460ff169050919050565b61099a61157c565b600460008381526020019081526020016000206040518060a0016040529081600082015481526020016001820154815260200160028201805480602002602001604051908101604052809291908181526020018280548015610a1b57602002820191906000526020600020905b815481526020019060010190808311610a07575b5050505050815260200160038201805480602002602001604051908101604052809291908181526020018280548015610a7357602002820191906000526020600020905b815481526020019060010190808311610a5f575b505050505081526020016004820154815250509050919050565b6001805411610ad1576040517f08c379a0000000000000000000000000000000000000000000000000000000008152600401610ac890611bf7565b60405180910390fd5b600080600090505b600260003373ffffffffffffffffffffffffffffffffffffffff1673ffffffffffffffffffffffffffffffffffffffff168152602001908152602001600020600060018054610b289190611a37565b815260200190815260200160002080549050811015610bdf5783600260003373ffffffffffffffffffffffffffffffffffffffff1673ffffffffffffffffffffffffffffffffffffffff168152602001908152602001600020600060018054610b919190611a37565b81526020019081526020016000208281548110610bb157610bb0611aff565b5b90600052602060002090600502016000015403610bcc578091505b8080610bd790611c17565b915050610ad9565b50600082604051602001610bf39190611c80565b60405160208183030381529060405280519060200120905082604051602001610c1c9190611c80565b60405160208183030381529060405280519060200120600260003373ffffffffffffffffffffffffffffffffffffffff1673ffffffffffffffffffffffffffffffffffffffff168152602001908152602001600020600060018054610c819190611a37565b81526020019081526020016000208381548110610ca157610ca0611aff565b5b90600052602060002090600502016002015414610cbd57600080fd5b6001600260003373ffffffffffffffffffffffffffffffffffffffff1673ffffffffffffffffffffffffffffffffffffffff168152602001908152602001600020600060018054610d0e9190611a37565b81526020019081526020016000208381548110610d2e57610d2d611aff565b5b906000526020600020906005020160040160006101000a81548160ff021916908360ff1602179055507f9978db1bc61a3b48fb0b7c16c8c0e22bbab5eb39aba9104839fd16b7522400a281604051610d869190611caa565b60405180910390a150505050565b565b80600360003373ffffffffffffffffffffffffffffffffffffffff1673ffffffffffffffffffffffffffffffffffffffff168152602001908152602001600020541015610e18576040517f08c379a0000000000000000000000000000000000000000000000000000000008152600401610e0f90611b8b565b60405180910390fd5b80600360003373ffffffffffffffffffffffffffffffffffffffff1673ffffffffffffffffffffffffffffffffffffffff16815260200190815260200160002054610e639190611a37565b600360003373ffffffffffffffffffffffffffffffffffffffff1673ffffffffffffffffffffffffffffffffffffffff16815260200190815260200160002081905550610eaf8261131f565b60088103610fbb576000600260003373ffffffffffffffffffffffffffffffffffffffff1673ffffffffffffffffffffffffffffffffffffffff168152602001908152602001600020600060015481526020019081526020016000206001600260003373ffffffffffffffffffffffffffffffffffffffff1673ffffffffffffffffffffffffffffffffffffffff1681526020019081526020016000206000600154815260200190815260200160002080549050610f6d9190611a37565b81548110610f7e57610f7d611aff565b5b906000526020600020906005020160040160016101000a81548160ff02191690836003811115610fb157610fb06116eb565b5b02179055506112d4565b600481036110c7576001600260003373ffffffffffffffffffffffffffffffffffffffff1673ffffffffffffffffffffffffffffffffffffffff168152602001908152602001600020600060015481526020019081526020016000206001600260003373ffffffffffffffffffffffffffffffffffffffff1673ffffffffffffffffffffffffffffffffffffffff16815260200190815260200160002060006001548152602001908152602001600020805490506110799190611a37565b8154811061108a57611089611aff565b5b906000526020600020906005020160040160016101000a81548160ff021916908360038111156110bd576110bc6116eb565b5b02179055506112d3565b600281036111d25760028060003373ffffffffffffffffffffffffffffffffffffffff1673ffffffffffffffffffffffffffffffffffffffff168152602001908152602001600020600060015481526020019081526020016000206001600260003373ffffffffffffffffffffffffffffffffffffffff1673ffffffffffffffffffffffffffffffffffffffff16815260200190815260200160002060006001548152602001908152602001600020805490506111849190611a37565b8154811061119557611194611aff565b5b906000526020600020906005020160040160016101000a81548160ff021916908360038111156111c8576111c76116eb565b5b02179055506112d2565b6003600260003373ffffffffffffffffffffffffffffffffffffffff1673ffffffffffffffffffffffffffffffffffffffff168152602001908152602001600020600060015481526020019081526020016000206001600260003373ffffffffffffffffffffffffffffffffffffffff1673ffffffffffffffffffffffffffffffffffffffff16815260200190815260200160002060006001548152602001908152602001600020805490506112889190611a37565b8154811061129957611298611aff565b5b906000526020600020906005020160040160016101000a81548160ff021916908360038111156112cc576112cb6116eb565b5b02179055505b5b5b8060046000600154815260200190815260200160002060040160008282546112fc9190611acb565b925050819055505050565b60036020528060005260406000206000915090505481565b60016000808282546113319190611acb565b92505081905550600260003373ffffffffffffffffffffffffffffffffffffffff1673ffffffffffffffffffffffffffffffffffffffff168152602001908152602001600020600060015481526020019081526020016000206040518060c0016040528060005481526020016001548152602001838152602001428152602001600060ff168152602001600260038111156113cf576113ce6116eb565b5b81525090806001815401808255809150506001900390600052602060002090600502016000909190919091506000820151816000015560208201518160010155604082015181600201556060820151816003015560808201518160040160006101000a81548160ff021916908360ff16021790555060a08201518160040160016101000a81548160ff0219169083600381111561146f5761146e6116eb565b5b02179055505050600460006001548152602001908152602001600020600301600054908060018154018082558091505060019003906000526020600020016000909190919091505550565b611550816040516024016114ce919061164b565b6040516020818303038152906040527ff82c50f1000000000000000000000000000000000000000000000000000000007bffffffffffffffffffffffffffffffffffffffffffffffffffffffff19166020820180517bffffffffffffffffffffffffffffffffffffffffffffffffffffffff8381831617835250505050611553565b50565b60008151905060006a636f6e736f6c652e6c6f679050602083016000808483855afa5050505050565b6040518060a0016040528060008152602001600081526020016060815260200160608152602001600081525090565b600080fd5b6000819050919050565b6115c3816115b0565b81146115ce57600080fd5b50565b6000813590506115e0816115ba565b92915050565b6000602082840312156115fc576115fb6115ab565b5b600061160a848285016115d1565b91505092915050565b61161c816115b0565b82525050565b60006040820190506116376000830185611613565b6116446020830184611613565b9392505050565b60006020820190506116606000830184611613565b92915050565b600060ff82169050919050565b61167c81611666565b82525050565b60006040820190506116976000830185611613565b6116a46020830184611673565b9392505050565b600080604083850312156116c2576116c16115ab565b5b60006116d0858286016115d1565b92505060206116e1858286016115d1565b9150509250929050565b7f4e487b7100000000000000000000000000000000000000000000000000000000600052602160045260246000fd5b6004811061172b5761172a6116eb565b5b50565b600081905061173c8261171a565b919050565b600061174c8261172e565b9050919050565b61175c81611741565b82525050565b60006020820190506117776000830184611753565b92915050565b611786816115b0565b82525050565b600081519050919050565b600082825260208201905092915050565b6000819050602082019050919050565b60006117c4838361177d565b60208301905092915050565b6000602082019050919050565b60006117e88261178c565b6117f28185611797565b93506117fd836117a8565b8060005b8381101561182e57815161181588826117b8565b9750611820836117d0565b925050600181019050611801565b5085935050505092915050565b600060a083016000830151611853600086018261177d565b506020830151611866602086018261177d565b506040830151848203604086015261187e82826117dd565b9150506060830151848203606086015261189882826117dd565b91505060808301516118ad608086018261177d565b508091505092915050565b600060208201905081810360008301526118d2818461183b565b905092915050565b6000819050919050565b6118ed816118da565b81146118f857600080fd5b50565b60008135905061190a816118e4565b92915050565b60008060408385031215611927576119266115ab565b5b6000611935858286016118fb565b9250506020611946858286016115d1565b9150509250929050565b600073ffffffffffffffffffffffffffffffffffffffff82169050919050565b600061197b82611950565b9050919050565b61198b81611970565b811461199657600080fd5b50565b6000813590506119a881611982565b92915050565b6000602082840312156119c4576119c36115ab565b5b60006119d284828501611999565b91505092915050565b6000602082840312156119f1576119f06115ab565b5b60006119ff848285016118fb565b91505092915050565b7f4e487b7100000000000000000000000000000000000000000000000000000000600052601160045260246000fd5b6000611a42826115b0565b9150611a4d836115b0565b9250828203905081811115611a6557611a64611a08565b5b92915050565b7f4e487b7100000000000000000000000000000000000000000000000000000000600052601260045260246000fd5b6000611aa5826115b0565b9150611ab0836115b0565b925082611ac057611abf611a6b565b5b828204905092915050565b6000611ad6826115b0565b9150611ae1836115b0565b9250828201905080821115611af957611af8611a08565b5b92915050565b7f4e487b7100000000000000000000000000000000000000000000000000000000600052603260045260246000fd5b600082825260208201905092915050565b7f696e73756666696369656e742062616c616e6365000000000000000000000000600082015250565b6000611b75601483611b2e565b9150611b8082611b3f565b602082019050919050565b60006020820190508181036000830152611ba481611b68565b9050919050565b7f6561726c79000000000000000000000000000000000000000000000000000000600082015250565b6000611be1600583611b2e565b9150611bec82611bab565b602082019050919050565b60006020820190508181036000830152611c1081611bd4565b9050919050565b6000611c22826115b0565b91507fffffffffffffffffffffffffffffffffffffffffffffffffffffffffffffffff8203611c5457611c53611a08565b5b600182019050919050565b6000819050919050565b611c7a611c75826115b0565b611c5f565b82525050565b6000611c8c8284611c69565b60208201915081905092915050565b611ca4816118da565b82525050565b6000602082019050611cbf6000830184611c9b565b9291505056fea2646970667358221220c3a91f875eb209f191a43ebb3b6d0e61dd9aab22b825b387bb6a18b78817bb2964736f6c63430008120033",
  "linkReferences": {},
  "deployedLinkReferences": {}
}